{
  "contractName": "Bonding",
  "abi": [
    {
      "anonymous": false,
      "inputs": [
        {
          "indexed": true,
          "internalType": "address",
          "name": "account",
          "type": "address"
        },
        {
          "indexed": false,
          "internalType": "uint256",
          "name": "start",
          "type": "uint256"
        },
        {
          "indexed": false,
          "internalType": "uint256",
          "name": "value",
          "type": "uint256"
        },
        {
          "indexed": false,
          "internalType": "uint256",
          "name": "valueUnderlying",
          "type": "uint256"
        }
      ],
      "name": "Bond",
      "type": "event"
    },
    {
      "anonymous": false,
      "inputs": [
        {
          "indexed": true,
          "internalType": "address",
          "name": "account",
          "type": "address"
        },
        {
          "indexed": false,
          "internalType": "uint256",
          "name": "value",
          "type": "uint256"
        }
      ],
      "name": "Deposit",
      "type": "event"
    },
    {
      "anonymous": false,
      "inputs": [
        {
          "indexed": true,
          "internalType": "address",
          "name": "from",
          "type": "address"
        },
        {
          "indexed": true,
          "internalType": "address",
          "name": "to",
          "type": "address"
        },
        {
          "indexed": false,
          "internalType": "uint256",
          "name": "value",
          "type": "uint256"
        }
      ],
      "name": "Transfer",
      "type": "event"
    },
    {
      "anonymous": false,
      "inputs": [
        {
          "indexed": true,
          "internalType": "address",
          "name": "account",
          "type": "address"
        },
        {
          "indexed": false,
          "internalType": "uint256",
          "name": "start",
          "type": "uint256"
        },
        {
          "indexed": false,
          "internalType": "uint256",
          "name": "value",
          "type": "uint256"
        },
        {
          "indexed": false,
          "internalType": "uint256",
          "name": "valueUnderlying",
          "type": "uint256"
        }
      ],
      "name": "Unbond",
      "type": "event"
    },
    {
      "anonymous": false,
      "inputs": [
        {
          "indexed": true,
          "internalType": "address",
          "name": "account",
          "type": "address"
        },
        {
          "indexed": false,
          "internalType": "uint256",
          "name": "value",
          "type": "uint256"
        }
      ],
      "name": "Withdraw",
      "type": "event"
    },
    {
      "constant": true,
      "inputs": [
        {
          "internalType": "address",
          "name": "owner",
          "type": "address"
        },
        {
          "internalType": "address",
          "name": "spender",
          "type": "address"
        }
      ],
      "name": "allowance",
      "outputs": [
        {
          "internalType": "uint256",
          "name": "",
          "type": "uint256"
        }
      ],
      "payable": false,
      "stateMutability": "view",
      "type": "function"
    },
    {
      "constant": true,
      "inputs": [
        {
          "internalType": "address",
          "name": "owner",
          "type": "address"
        },
        {
          "internalType": "address",
          "name": "spender",
          "type": "address"
        }
      ],
      "name": "allowanceCoupons",
      "outputs": [
        {
          "internalType": "uint256",
          "name": "",
          "type": "uint256"
        }
      ],
      "payable": false,
      "stateMutability": "view",
      "type": "function"
    },
    {
      "constant": false,
      "inputs": [
        {
          "internalType": "address",
          "name": "spender",
          "type": "address"
        },
        {
          "internalType": "uint256",
          "name": "amount",
          "type": "uint256"
        }
      ],
      "name": "approve",
      "outputs": [
        {
          "internalType": "bool",
          "name": "",
          "type": "bool"
        }
      ],
      "payable": false,
      "stateMutability": "nonpayable",
      "type": "function"
    },
    {
      "constant": true,
      "inputs": [
        {
          "internalType": "address",
          "name": "candidate",
          "type": "address"
        }
      ],
      "name": "approveFor",
      "outputs": [
        {
          "internalType": "uint256",
          "name": "",
          "type": "uint256"
        }
      ],
      "payable": false,
      "stateMutability": "view",
      "type": "function"
    },
    {
      "constant": true,
      "inputs": [
        {
          "internalType": "address",
          "name": "account",
          "type": "address"
        }
      ],
      "name": "balanceOf",
      "outputs": [
        {
          "internalType": "uint256",
          "name": "",
          "type": "uint256"
        }
      ],
      "payable": false,
      "stateMutability": "view",
      "type": "function"
    },
    {
      "constant": true,
      "inputs": [
        {
          "internalType": "address",
          "name": "account",
          "type": "address"
        }
      ],
      "name": "balanceOfBonded",
      "outputs": [
        {
          "internalType": "uint256",
          "name": "",
          "type": "uint256"
        }
      ],
      "payable": false,
      "stateMutability": "view",
      "type": "function"
    },
    {
      "constant": true,
      "inputs": [
        {
          "internalType": "address",
          "name": "account",
          "type": "address"
        },
        {
          "internalType": "uint256",
          "name": "epoch",
          "type": "uint256"
        }
      ],
      "name": "balanceOfCoupons",
      "outputs": [
        {
          "internalType": "uint256",
          "name": "",
          "type": "uint256"
        }
      ],
      "payable": false,
      "stateMutability": "view",
      "type": "function"
    },
    {
      "constant": true,
      "inputs": [
        {
          "internalType": "address",
          "name": "account",
          "type": "address"
        }
      ],
      "name": "balanceOfStaged",
      "outputs": [
        {
          "internalType": "uint256",
          "name": "",
          "type": "uint256"
        }
      ],
      "payable": false,
      "stateMutability": "view",
      "type": "function"
    },
    {
      "constant": true,
      "inputs": [
        {
          "internalType": "uint256",
          "name": "epoch",
          "type": "uint256"
        }
      ],
      "name": "bootstrappingAt",
      "outputs": [
        {
          "internalType": "bool",
          "name": "",
          "type": "bool"
        }
      ],
      "payable": false,
      "stateMutability": "view",
      "type": "function"
    },
    {
      "constant": true,
      "inputs": [
        {
          "internalType": "uint256",
          "name": "epoch",
          "type": "uint256"
        }
      ],
      "name": "couponsExpiration",
      "outputs": [
        {
          "internalType": "uint256",
          "name": "",
          "type": "uint256"
        }
      ],
      "payable": false,
      "stateMutability": "view",
      "type": "function"
    },
    {
      "constant": true,
      "inputs": [],
      "name": "decimals",
      "outputs": [
        {
          "internalType": "uint8",
          "name": "",
          "type": "uint8"
        }
      ],
      "payable": false,
      "stateMutability": "view",
      "type": "function"
    },
    {
      "constant": true,
      "inputs": [],
      "name": "dollar",
      "outputs": [
        {
          "internalType": "contract IDollar",
          "name": "",
          "type": "address"
        }
      ],
      "payable": false,
      "stateMutability": "view",
      "type": "function"
    },
    {
      "constant": true,
      "inputs": [],
      "name": "epoch",
      "outputs": [
        {
          "internalType": "uint256",
          "name": "",
          "type": "uint256"
        }
      ],
      "payable": false,
      "stateMutability": "view",
      "type": "function"
    },
    {
      "constant": true,
      "inputs": [],
      "name": "epochTime",
      "outputs": [
        {
          "internalType": "uint256",
          "name": "",
          "type": "uint256"
        }
      ],
      "payable": false,
      "stateMutability": "view",
      "type": "function"
    },
    {
      "constant": true,
      "inputs": [
        {
          "internalType": "uint256",
          "name": "epoch",
          "type": "uint256"
        }
      ],
      "name": "expiringCoupons",
      "outputs": [
        {
          "internalType": "uint256",
          "name": "",
          "type": "uint256"
        }
      ],
      "payable": false,
      "stateMutability": "view",
      "type": "function"
    },
    {
      "constant": true,
      "inputs": [
        {
          "internalType": "uint256",
          "name": "epoch",
          "type": "uint256"
        },
        {
          "internalType": "uint256",
          "name": "i",
          "type": "uint256"
        }
      ],
      "name": "expiringCouponsAtIndex",
      "outputs": [
        {
          "internalType": "uint256",
          "name": "",
          "type": "uint256"
        }
      ],
      "payable": false,
      "stateMutability": "view",
      "type": "function"
    },
    {
      "constant": true,
      "inputs": [
        {
          "internalType": "address",
          "name": "account",
          "type": "address"
        }
      ],
      "name": "fluidUntil",
      "outputs": [
        {
          "internalType": "uint256",
          "name": "",
          "type": "uint256"
        }
      ],
      "payable": false,
      "stateMutability": "view",
      "type": "function"
    },
    {
      "constant": true,
      "inputs": [],
      "name": "implementation",
      "outputs": [
        {
          "internalType": "address",
          "name": "impl",
          "type": "address"
        }
      ],
      "payable": false,
      "stateMutability": "view",
      "type": "function"
    },
    {
      "constant": true,
      "inputs": [
        {
          "internalType": "address",
          "name": "candidate",
          "type": "address"
        }
      ],
      "name": "isInitialized",
      "outputs": [
        {
          "internalType": "bool",
          "name": "",
          "type": "bool"
        }
      ],
      "payable": false,
      "stateMutability": "view",
      "type": "function"
    },
    {
      "constant": true,
      "inputs": [
        {
          "internalType": "address",
          "name": "candidate",
          "type": "address"
        }
      ],
      "name": "isNominated",
      "outputs": [
        {
          "internalType": "bool",
          "name": "",
          "type": "bool"
        }
      ],
      "payable": false,
      "stateMutability": "view",
      "type": "function"
    },
    {
      "constant": true,
      "inputs": [
        {
          "internalType": "address",
          "name": "account",
          "type": "address"
        }
      ],
      "name": "lockedUntil",
      "outputs": [
        {
          "internalType": "uint256",
          "name": "",
          "type": "uint256"
        }
      ],
      "payable": false,
      "stateMutability": "view",
      "type": "function"
    },
    {
      "constant": true,
      "inputs": [],
      "name": "name",
      "outputs": [
        {
          "internalType": "string",
          "name": "",
          "type": "string"
        }
      ],
      "payable": false,
      "stateMutability": "view",
      "type": "function"
    },
    {
      "constant": true,
      "inputs": [],
      "name": "oracle",
      "outputs": [
        {
          "internalType": "contract IOracle",
          "name": "",
          "type": "address"
        }
      ],
      "payable": false,
      "stateMutability": "view",
      "type": "function"
    },
    {
      "constant": true,
      "inputs": [
        {
          "internalType": "uint256",
          "name": "epoch",
          "type": "uint256"
        }
      ],
      "name": "outstandingCoupons",
      "outputs": [
        {
          "internalType": "uint256",
          "name": "",
          "type": "uint256"
        }
      ],
      "payable": false,
      "stateMutability": "view",
      "type": "function"
    },
    {
      "constant": true,
      "inputs": [
        {
          "internalType": "address",
          "name": "candidate",
          "type": "address"
        }
      ],
      "name": "periodFor",
      "outputs": [
        {
          "internalType": "uint256",
          "name": "",
          "type": "uint256"
        }
      ],
      "payable": false,
      "stateMutability": "view",
      "type": "function"
    },
    {
      "constant": true,
      "inputs": [],
      "name": "pool",
      "outputs": [
        {
          "internalType": "address",
          "name": "",
          "type": "address"
        }
      ],
      "payable": false,
      "stateMutability": "view",
      "type": "function"
    },
    {
      "constant": true,
      "inputs": [
        {
          "internalType": "address",
          "name": "account",
          "type": "address"
        },
        {
          "internalType": "address",
          "name": "candidate",
          "type": "address"
        }
      ],
      "name": "recordedVote",
      "outputs": [
        {
          "internalType": "enum Candidate.Vote",
          "name": "",
          "type": "uint8"
        }
      ],
      "payable": false,
      "stateMutability": "view",
      "type": "function"
    },
    {
      "constant": true,
      "inputs": [
        {
          "internalType": "address",
          "name": "candidate",
          "type": "address"
        }
      ],
      "name": "rejectFor",
      "outputs": [
        {
          "internalType": "uint256",
          "name": "",
          "type": "uint256"
        }
      ],
      "payable": false,
      "stateMutability": "view",
      "type": "function"
    },
    {
      "constant": true,
      "inputs": [
        {
          "internalType": "address",
          "name": "candidate",
          "type": "address"
        }
      ],
      "name": "startFor",
      "outputs": [
        {
          "internalType": "uint256",
          "name": "",
          "type": "uint256"
        }
      ],
      "payable": false,
      "stateMutability": "view",
      "type": "function"
    },
    {
      "constant": true,
      "inputs": [
        {
          "internalType": "address",
          "name": "account",
          "type": "address"
        }
      ],
      "name": "statusOf",
      "outputs": [
        {
          "internalType": "enum Account.Status",
          "name": "",
          "type": "uint8"
        }
      ],
      "payable": false,
      "stateMutability": "view",
      "type": "function"
    },
    {
      "constant": true,
      "inputs": [],
      "name": "symbol",
      "outputs": [
        {
          "internalType": "string",
          "name": "",
          "type": "string"
        }
      ],
      "payable": false,
      "stateMutability": "view",
      "type": "function"
    },
    {
      "constant": true,
      "inputs": [],
      "name": "totalBonded",
      "outputs": [
        {
          "internalType": "uint256",
          "name": "",
          "type": "uint256"
        }
      ],
      "payable": false,
      "stateMutability": "view",
      "type": "function"
    },
    {
      "constant": true,
      "inputs": [
        {
          "internalType": "uint256",
          "name": "epoch",
          "type": "uint256"
        }
      ],
      "name": "totalBondedAt",
      "outputs": [
        {
          "internalType": "uint256",
          "name": "",
          "type": "uint256"
        }
      ],
      "payable": false,
      "stateMutability": "view",
      "type": "function"
    },
    {
      "constant": true,
      "inputs": [],
      "name": "totalCoupons",
      "outputs": [
        {
          "internalType": "uint256",
          "name": "",
          "type": "uint256"
        }
      ],
      "payable": false,
      "stateMutability": "view",
      "type": "function"
    },
    {
      "constant": true,
      "inputs": [],
      "name": "totalDebt",
      "outputs": [
        {
          "internalType": "uint256",
          "name": "",
          "type": "uint256"
        }
      ],
      "payable": false,
      "stateMutability": "view",
      "type": "function"
    },
    {
      "constant": true,
      "inputs": [],
      "name": "totalNet",
      "outputs": [
        {
          "internalType": "uint256",
          "name": "",
          "type": "uint256"
        }
      ],
      "payable": false,
      "stateMutability": "view",
      "type": "function"
    },
    {
      "constant": true,
      "inputs": [],
      "name": "totalRedeemable",
      "outputs": [
        {
          "internalType": "uint256",
          "name": "",
          "type": "uint256"
        }
      ],
      "payable": false,
      "stateMutability": "view",
      "type": "function"
    },
    {
      "constant": true,
      "inputs": [],
      "name": "totalStaged",
      "outputs": [
        {
          "internalType": "uint256",
          "name": "",
          "type": "uint256"
        }
      ],
      "payable": false,
      "stateMutability": "view",
      "type": "function"
    },
    {
      "constant": true,
      "inputs": [],
      "name": "totalSupply",
      "outputs": [
        {
          "internalType": "uint256",
          "name": "",
          "type": "uint256"
        }
      ],
      "payable": false,
      "stateMutability": "view",
      "type": "function"
    },
    {
      "constant": false,
      "inputs": [
        {
          "internalType": "address",
          "name": "recipient",
          "type": "address"
        },
        {
          "internalType": "uint256",
          "name": "amount",
          "type": "uint256"
        }
      ],
      "name": "transfer",
      "outputs": [
        {
          "internalType": "bool",
          "name": "",
          "type": "bool"
        }
      ],
      "payable": false,
      "stateMutability": "nonpayable",
      "type": "function"
    },
    {
      "constant": false,
      "inputs": [
        {
          "internalType": "address",
          "name": "sender",
          "type": "address"
        },
        {
          "internalType": "address",
          "name": "recipient",
          "type": "address"
        },
        {
          "internalType": "uint256",
          "name": "amount",
          "type": "uint256"
        }
      ],
      "name": "transferFrom",
      "outputs": [
        {
          "internalType": "bool",
          "name": "",
          "type": "bool"
        }
      ],
      "payable": false,
      "stateMutability": "nonpayable",
      "type": "function"
    },
    {
      "constant": true,
      "inputs": [
        {
          "internalType": "address",
          "name": "candidate",
          "type": "address"
        }
      ],
      "name": "votesFor",
      "outputs": [
        {
          "internalType": "uint256",
          "name": "",
          "type": "uint256"
        }
      ],
      "payable": false,
      "stateMutability": "view",
      "type": "function"
    },
    {
      "constant": false,
      "inputs": [
        {
          "internalType": "uint256",
          "name": "value",
          "type": "uint256"
        }
      ],
      "name": "deposit",
      "outputs": [],
      "payable": false,
      "stateMutability": "nonpayable",
      "type": "function"
    },
    {
      "constant": false,
      "inputs": [
        {
          "internalType": "uint256",
          "name": "value",
          "type": "uint256"
        }
      ],
      "name": "withdraw",
      "outputs": [],
      "payable": false,
      "stateMutability": "nonpayable",
      "type": "function"
    },
    {
      "constant": false,
      "inputs": [
        {
          "internalType": "uint256",
          "name": "value",
          "type": "uint256"
        }
      ],
      "name": "bond",
      "outputs": [],
      "payable": false,
      "stateMutability": "nonpayable",
      "type": "function"
    },
    {
      "constant": false,
      "inputs": [
        {
          "internalType": "uint256",
          "name": "value",
          "type": "uint256"
        }
      ],
      "name": "unbond",
      "outputs": [],
      "payable": false,
      "stateMutability": "nonpayable",
      "type": "function"
    },
    {
      "constant": false,
      "inputs": [
        {
          "internalType": "uint256",
          "name": "value",
          "type": "uint256"
        }
      ],
      "name": "unbondUnderlying",
      "outputs": [],
      "payable": false,
      "stateMutability": "nonpayable",
      "type": "function"
    }
  ],
  "bytecode": "0x608060405234801561001057600080fd5b506119c6806100206000396000f3fe608060405234801561001057600080fd5b50600436106102955760003560e01c806375d5024b11610167578063a6c409f1116100ce578063d60b347f11610087578063d60b347f14610553578063dd62ed3e14610566578063df9a2b1c14610574578063f1b7cf4914610587578063fc7b9c181461059a578063ffbe3b73146105a257610295565b8063a6c409f11461050a578063a9059cbb146102b8578063b6b55f2514610512578063bc7513e214610525578063c9aff70c14610538578063cf0237791461054b57610295565b806397a5d5b51161012057806397a5d5b5146104a35780639940686e146104b65780639a649edc146104c95780639bc289f1146104d15780639f6e1b26146104e4578063a50cd8e7146104f757610295565b806375d5024b146104525780637dc0d1d014610465578063825ad6071461046d57806386cf9f1414610480578063900cf0cf1461049357806395d89b411461049b57610295565b8063353a420c1161020b57806351adeb57116101c457806351adeb57146103e957806351bf21d8146103fe5780635c60da1b1461041157806364668022146104195780636a39e3281461042c57806370a082311461043f57610295565b8063353a420c146103805780633a3e6c81146103935780633fbba9a6146103a657806344d96e95146103c65780634c736099146103ce5780635053e461146103e157610295565b806318160ddd1161025d57806318160ddd146103205780631edbcf6c1461032857806323b872dd1461033057806327de9e32146103435780632e1a7d4d14610358578063313ce5671461036b57610295565b806306fdde031461029a578063095ea7b3146102b857806310e95b6c146102d857806315e14bf6146102f857806316f0115b1461030b575b600080fd5b6102a26105b5565b6040516102af9190611802565b60405180910390f35b6102cb6102c6366004611553565b6105e4565b6040516102af91906117d8565b6102eb6102e63660046115a1565b6105ed565b6040516102af9190611833565b6102eb6103063660046114a6565b610605565b610313610623565b6040516102af9190611787565b6102eb610632565b6102eb610638565b6102cb61033e366004611506565b61063e565b6103566103513660046115a1565b610648565b005b6103566103663660046115a1565b610792565b6103736108ca565b6040516102af919061185c565b6102eb61038e3660046114a6565b6108cf565b6102cb6103a13660046114a6565b6108ed565b6103b96103b43660046114cc565b61090a565b6040516102af91906117f4565b6102eb61093d565b6102eb6103dc3660046115dd565b610943565b6102eb610973565b6103f1610996565b6040516102af91906117e6565b6102eb61040c3660046114a6565b6109a5565b6103136109c3565b6102eb6104273660046114a6565b6109e8565b6102eb61043a3660046115a1565b610a06565b6102eb61044d3660046114a6565b610a1b565b6102cb6104603660046115a1565b610a39565b6103f1610a4c565b6102eb61047b3660046114a6565b610a5b565b6102eb61048e3660046114a6565b610a9b565b6102eb610ab6565b6102a2610abc565b6103b96104b13660046114a6565b610ada565b6103566104c43660046115a1565b610b3f565b6102eb610c0d565b6102eb6104df3660046114a6565b610c13565b6102eb6104f23660046114cc565b610c31565b6102eb6105053660046114a6565b610c60565b6102eb610c77565b6103566105203660046115a1565b610d0d565b6102eb610533366004611553565b610de5565b6102eb6105463660046115a1565b610e29565b6102eb610e3e565b6102cb6105613660046114a6565b610e44565b6102eb6102c63660046114cc565b6103566105823660046115a1565b610e65565b6102eb6105953660046114a6565b610f23565b6102eb610f3e565b6102eb6105b03660046115a1565b610f44565b604080518082019091526015815274467265712053657420446f6c6c6172205374616b6560581b602082015290565b60005b92915050565b6000818152600d60205260409020600201545b919050565b6001600160a01b03166000908152600e602052604090206001015490565b600b546001600160a01b031690565b60035490565b60065490565b60005b9392505050565b3361068f60025b61065883610ada565b600281111561066357fe5b1415692832b936b4b9b9b4b7b760b11b72139bdd08199c9bde995b881bdc88199b1d5a59606a1b610f56565b61069833610fb9565b60006106cb6106a633610a1b565b6106bf6106b233610a5b565b869063ffffffff610feb16565b9063ffffffff61102516565b90506106d73382611067565b6106f981604051806060016040528060228152602001611962602291396110c3565b61073933846040518060400160405280601d81526020017f426f6e64696e673a20696e73756666696369656e742062616c616e63650000008152506110de565b337f93530ac0ee8c50e696e13c5ac62355d0c0ba4bd943620d5bda1eb08b64ae75126107746001610768610ab6565b9063ffffffff61118916565b858460405161078593929190611841565b60405180910390a2505050565b336107da60015b6107a283610ada565b60028111156107ad57fe5b1415692832b936b4b9b9b4b7b760b11b73139bdd08199c9bde995b881bdc881b1bd8dad95960621b610f56565b6107e2610996565b6001600160a01b031663a9059cbb33846040518363ffffffff1660e01b815260040161080f9291906117bd565b602060405180830381600087803b15801561082957600080fd5b505af115801561083d573d6000803e3d6000fd5b505050506040513d601f19601f820116820180604052506108619190810190611583565b50610885338360405180606001604052806024815260200161193e602491396111ae565b336001600160a01b03167f884edad9ce6fa2440d8a54cc123490eb96d2768479d49ff9c7366125a9424364836040516108be9190611833565b60405180910390a25050565b601290565b6001600160a01b03166000908152600e602052604090206003015490565b6001600160a01b03166000908152600e6020526040902054151590565b6001600160a01b038082166000908152600e60209081526040808320938616835260049093019052205460ff1692915050565b60045490565b6000828152600d6020526040812060030180548390811061096057fe5b9060005260206000200154905092915050565b600061097d611459565b61098561120d565b90506109908161123c565b91505090565b6009546001600160a01b031690565b6001600160a01b03166000908152600c602052604090206004015490565b7f360894a13ba1a3210667c828492db98dca3e2076cc3735a920a3ca505d382bbc5490565b6001600160a01b03166000908152600e602052604090206002015490565b6000908152600d602052604090206003015490565b6001600160a01b03166000908152600c602052604090206001015490565b6000610a4361125e565b90911115919050565b600a546001600160a01b031690565b600080610a66610632565b905080610a77576000915050610600565b610641816106bf610a8786610a1b565b610a8f61093d565b9063ffffffff610feb16565b6001600160a01b03166000908152600c602052604090205490565b60025490565b6040805180820190915260048152634653445360e01b602082015290565b6000610ae4610ab6565b6001600160a01b0383166000908152600c60205260409020600501541115610b0e57506002610600565b6001600160a01b0382166000908152600c6020526040902060040154610b32610ab6565b10156105e45760016105e7565b33610b4a600261064f565b610b5333610fb9565b6000610b5d61093d565b15610b7d57610b78610b6d61093d565b6106bf6106b2610632565b610b95565b610b95610b88611263565b849063ffffffff610feb16565b9050610ba1338261126a565b610baa83611312565b610bcd338460405180606001604052806024815260200161193e602491396111ae565b337f44002fdef5a0c2d2e4e05572e9780b95aef97e0e93ffd7cc076b09fa78ff2b46610bfc6001610768610ab6565b838660405161078593929190611841565b60085490565b6001600160a01b03166000908152600c602052604090206005015490565b6001600160a01b039182166000908152600c602090815260408083209390941682526003909201909152205490565b60006105e7610c6e836108cf565b610768846109e8565b6000610d08610c84610f3e565b610c8c610996565b6001600160a01b03166318160ddd6040518163ffffffff1660e01b815260040160206040518083038186803b158015610cc457600080fd5b505afa158015610cd8573d6000803e3d6000fd5b505050506040513d601f19601f82011682018060405250610cfc91908101906115bf565b9063ffffffff61132b16565b905090565b33610d186001610799565b610d20610996565b6001600160a01b03166323b872dd3330856040518463ffffffff1660e01b8152600401610d4f93929190611795565b602060405180830381600087803b158015610d6957600080fd5b505af1158015610d7d573d6000803e3d6000fd5b505050506040513d601f19601f82011682018060405250610da19190810190611583565b50610dac3383611067565b336001600160a01b03167fe1fffcc4923d04b559f4d29a8bfc6cda04eb5b0d3c460751c2402c5c5cc9109c836040516108be9190611833565b6000610df082610e29565b610dfc575060006105e7565b506001600160a01b03919091166000908152600c6020908152604080832093835260029093019052205490565b6000908152600d602052604090206001015490565b60055490565b6001600160a01b03166000908152600e602052604090206005015460ff1690565b33610e70600261064f565b610e7933610fb9565b6000610e86610b6d61093d565b9050610e923384611067565b610eb483604051806060016040528060228152602001611962602291396110c3565b610ef433826040518060400160405280601d81526020017f426f6e64696e673a20696e73756666696369656e742062616c616e63650000008152506110de565b337f93530ac0ee8c50e696e13c5ac62355d0c0ba4bd943620d5bda1eb08b64ae7512610bfc6001610768610ab6565b6001600160a01b03166000908152600e602052604090205490565b60075490565b6000908152600d602052604090205490565b82610fb457610f648261136d565b6101d160f51b610f738361136d565b604051602001610f8593929190611756565b60408051601f198184030181529082905262461bcd60e51b8252610fab91600401611802565b60405180910390fd5b505050565b610fcc610fc46113ed565b610768610ab6565b6001600160a01b039091166000908152600c6020526040902060040155565b600082610ffa575060006105e7565b8282028284828161100757fe5b04146106415760405162461bcd60e51b8152600401610fab90611823565b600061064183836040518060400160405280601a81526020017f536166654d6174683a206469766973696f6e206279207a65726f0000000000008152506113f2565b6001600160a01b0382166000908152600c6020526040902054611090908263ffffffff61118916565b6001600160a01b0383166000908152600c60205260409020556005546110bc908263ffffffff61118916565b6005555050565b6004546110d790838363ffffffff61142916565b6004555050565b6001600160a01b0383166000908152600c602052604090206001015461110b90838363ffffffff61142916565b6001600160a01b0384166000908152600c602052604090206001015560035461113b90838363ffffffff61142916565b6003556040516000906001600160a01b038516907fddf252ad1be2c89b69c2b068fc378daa952ba7f163c4a11628f55a4df523b3ef9061117c908690611833565b60405180910390a3505050565b6000828201838110156106415760405162461bcd60e51b8152600401610fab90611813565b6001600160a01b0383166000908152600c60205260409020546111d890838363ffffffff61142916565b6001600160a01b0384166000908152600c602052604090205560055461120590838363ffffffff61142916565b600555505050565b611215611459565b604051806060016040528060008152602001635ff535c08152602001610e10815250905090565b60006105e7826000015161076884604001516106bf8660200151610cfc611455565b60a890565b620f424090565b6001600160a01b0382166000908152600c6020526040902060010154611296908263ffffffff61118916565b6001600160a01b0383166000908152600c60205260409020600101556003546112c5908263ffffffff61118916565b6003556040516001600160a01b038316906000907fddf252ad1be2c89b69c2b068fc378daa952ba7f163c4a11628f55a4df523b3ef90611306908590611833565b60405180910390a35050565b600454611325908263ffffffff61118916565b60045550565b600061064183836040518060400160405280601e81526020017f536166654d6174683a207375627472616374696f6e206f766572666c6f770000815250611429565b606080826040516020016113819190611741565b60408051601f19818403018152919052905060205b80156113d6578151600019909101908290829081106113b157fe5b01602001516001600160f81b031916156113d15760010181529050610600565b611396565b505060408051600081526020810190915292915050565b600c90565b600081836114135760405162461bcd60e51b8152600401610fab9190611802565b50600083858161141f57fe5b0495945050505050565b6000818484111561144d5760405162461bcd60e51b8152600401610fab9190611802565b505050900390565b4290565b60405180606001604052806000815260200160008152602001600081525090565b80356105e781611917565b80516105e78161192b565b80356105e781611934565b80516105e781611934565b6000602082840312156114b857600080fd5b60006114c4848461147a565b949350505050565b600080604083850312156114df57600080fd5b60006114eb858561147a565b92505060206114fc8582860161147a565b9150509250929050565b60008060006060848603121561151b57600080fd5b6000611527868661147a565b93505060206115388682870161147a565b925050604061154986828701611490565b9150509250925092565b6000806040838503121561156657600080fd5b6000611572858561147a565b92505060206114fc85828601611490565b60006020828403121561159557600080fd5b60006114c48484611485565b6000602082840312156115b357600080fd5b60006114c48484611490565b6000602082840312156115d157600080fd5b60006114c4848461149b565b600080604083850312156115f057600080fd5b60006115728585611490565b611605816118b3565b82525050565b61160581611877565b61160581611882565b61160561162982611887565b611894565b61160561162982611894565b60006116458261186a565b61164f8185610600565b935061165f8185602086016118d0565b9290920192915050565b611605816118ba565b611605816118c5565b60006116868261186a565b611690818561186e565b93506116a08185602086016118d0565b6116a981611900565b9093019392505050565b60006116c0601b8361186e565b7f536166654d6174683a206164646974696f6e206f766572666c6f770000000000815260200192915050565b60006116f960218361186e565b7f536166654d6174683a206d756c7469706c69636174696f6e206f766572666c6f8152607760f81b602082015260400192915050565b61160581611894565b611605816118ad565b600061174d828461162e565b50602001919050565b6000611762828661163a565b915061176e828561161d565b60028201915061177e828461163a565b95945050505050565b602081016105e7828461160b565b606081016117a382866115fc565b6117b0602083018561160b565b6114c4604083018461172f565b604081016117cb82856115fc565b610641602083018461172f565b602081016105e78284611614565b602081016105e78284611669565b602081016105e78284611672565b60208082528101610641818461167b565b602080825281016105e7816116b3565b602080825281016105e7816116ec565b602081016105e7828461172f565b6060810161184f828661172f565b6117b0602083018561172f565b602081016105e78284611738565b5190565b90815260200190565b60006105e7826118a1565b151590565b6001600160f01b03191690565b90565b806106008161190a565b6001600160a01b031690565b60ff1690565b60006105e7825b60006105e782611877565b60006105e782611897565b60005b838110156118eb5781810151838201526020016118d3565b838111156118fa576000848401525b50505050565b601f01601f191690565b6003811061191457fe5b50565b61192081611877565b811461191457600080fd5b61192081611882565b6119208161189456fe426f6e64696e673a20696e73756666696369656e74207374616765642062616c616e6365426f6e64696e673a20696e73756666696369656e7420746f74616c20626f6e646564a365627a7a72315820f3b8a0ecfe6a527316ceb9a08be89de2e272f21043a5be55d4b2ec4edcfab5ac6c6578706572696d656e74616cf564736f6c63430005110040",
  "source": "/*\n    Copyright 2020 Freq Set Dollar <freqsetdollar@gmail.com>\n\n    Licensed under the Apache License, Version 2.0 (the \"License\");\n    you may not use this file except in compliance with the License.\n    You may obtain a copy of the License at\n\n    http://www.apache.org/licenses/LICENSE-2.0\n\n    Unless required by applicable law or agreed to in writing, software\n    distributed under the License is distributed on an \"AS IS\" BASIS,\n    WITHOUT WARRANTIES OR CONDITIONS OF ANY KIND, either express or implied.\n    See the License for the specific language governing permissions and\n    limitations under the License.\n*/\n\npragma solidity ^0.5.17;\npragma experimental ABIEncoderV2;\n\nimport \"@openzeppelin/contracts/math/SafeMath.sol\";\nimport \"./Setters.sol\";\nimport \"./Permission.sol\";\nimport \"../external/Require.sol\";\nimport \"../Constants.sol\";\n\ncontract Bonding is Setters, Permission {\n    using SafeMath for uint256;\n\n    bytes32 private constant FILE = \"Bonding\";\n\n    event Deposit(address indexed account, uint256 value);\n    event Withdraw(address indexed account, uint256 value);\n    event Bond(address indexed account, uint256 start, uint256 value, uint256 valueUnderlying);\n    event Unbond(address indexed account, uint256 start, uint256 value, uint256 valueUnderlying);\n\n    function step() internal {\n        Require.that(\n            epochTime() > epoch(),\n            FILE,\n            \"Still current epoch\"\n        );\n\n        snapshotTotalBonded();\n        incrementEpoch();\n    }\n\n    function deposit(uint256 value) external onlyFrozenOrLocked(msg.sender) {\n        dollar().transferFrom(msg.sender, address(this), value);\n        incrementBalanceOfStaged(msg.sender, value);\n\n        emit Deposit(msg.sender, value);\n    }\n\n    function withdraw(uint256 value) external onlyFrozenOrLocked(msg.sender) {\n        dollar().transfer(msg.sender, value);\n        decrementBalanceOfStaged(msg.sender, value, \"Bonding: insufficient staged balance\");\n\n        emit Withdraw(msg.sender, value);\n    }\n\n    function bond(uint256 value) external onlyFrozenOrFluid(msg.sender) {\n        unfreeze(msg.sender);\n\n        uint256 balance = totalBonded() == 0 ?\n            value.mul(Constants.getInitialStakeMultiple()) :\n            value.mul(totalSupply()).div(totalBonded());\n        incrementBalanceOf(msg.sender, balance);\n        incrementTotalBonded(value);\n        decrementBalanceOfStaged(msg.sender, value, \"Bonding: insufficient staged balance\");\n\n        emit Bond(msg.sender, epoch().add(1), balance, value);\n    }\n\n    function unbond(uint256 value) external onlyFrozenOrFluid(msg.sender) {\n        unfreeze(msg.sender);\n\n        uint256 staged = value.mul(balanceOfBonded(msg.sender)).div(balanceOf(msg.sender));\n        incrementBalanceOfStaged(msg.sender, staged);\n        decrementTotalBonded(staged, \"Bonding: insufficient total bonded\");\n        decrementBalanceOf(msg.sender, value, \"Bonding: insufficient balance\");\n\n        emit Unbond(msg.sender, epoch().add(1), value, staged);\n    }\n\n    function unbondUnderlying(uint256 value) external onlyFrozenOrFluid(msg.sender) {\n        unfreeze(msg.sender);\n\n        uint256 balance = value.mul(totalSupply()).div(totalBonded());\n        incrementBalanceOfStaged(msg.sender, value);\n        decrementTotalBonded(value, \"Bonding: insufficient total bonded\");\n        decrementBalanceOf(msg.sender, balance, \"Bonding: insufficient balance\");\n\n        emit Unbond(msg.sender, epoch().add(1), balance, value);\n    }\n}\n",
  "sourcePath": "/Users/lileihuang/bytedance/fsd/protocol/contracts/dao/Bonding.sol",
  "compiler": {
    "name": "solc",
    "version": "0.5.17+commit.d19bba13.Emscripten.clang"
  },
  "schemaVersion": "3.3.1",
  "updatedAt": "2021-01-07T05:38:54.136Z",
  "devdoc": {
    "methods": {}
  },
  "userdoc": {
    "methods": {
      "balanceOfStaged(address)": {
        "notice": "Account"
      },
      "dollar()": {
        "notice": "Global"
      },
      "epoch()": {
        "notice": "Epoch"
      },
      "name()": {
        "notice": "ERC20 Interface"
      },
      "recordedVote(address,address)": {
        "notice": "Governance"
      },
      "transfer(address,uint256)": {
        "notice": "ERC20 Interface"
      }
    }
  }
}