{
  "contractName": "Implementation",
  "abi": [
    {
      "anonymous": false,
      "inputs": [
        {
          "indexed": true,
          "internalType": "uint256",
          "name": "epoch",
          "type": "uint256"
        },
        {
          "indexed": false,
          "internalType": "uint256",
          "name": "block",
          "type": "uint256"
        },
        {
          "indexed": false,
          "internalType": "uint256",
          "name": "timestamp",
          "type": "uint256"
        },
        {
          "indexed": false,
          "internalType": "string",
          "name": "res",
          "type": "string"
        }
      ],
      "name": "Advance",
      "type": "event"
    },
    {
      "anonymous": false,
      "inputs": [
        {
          "indexed": true,
          "internalType": "address",
          "name": "account",
          "type": "address"
        },
        {
          "indexed": false,
          "internalType": "uint256",
          "name": "start",
          "type": "uint256"
        },
        {
          "indexed": false,
          "internalType": "uint256",
          "name": "value",
          "type": "uint256"
        },
        {
          "indexed": false,
          "internalType": "uint256",
          "name": "valueUnderlying",
          "type": "uint256"
        }
      ],
      "name": "Bond",
      "type": "event"
    },
    {
      "anonymous": false,
      "inputs": [
        {
          "indexed": true,
          "internalType": "address",
          "name": "account",
          "type": "address"
        },
        {
          "indexed": true,
          "internalType": "address",
          "name": "candidate",
          "type": "address"
        }
      ],
      "name": "Commit",
      "type": "event"
    },
    {
      "anonymous": false,
      "inputs": [
        {
          "indexed": true,
          "internalType": "address",
          "name": "owner",
          "type": "address"
        },
        {
          "indexed": true,
          "internalType": "address",
          "name": "spender",
          "type": "address"
        },
        {
          "indexed": false,
          "internalType": "uint256",
          "name": "value",
          "type": "uint256"
        }
      ],
      "name": "CouponApproval",
      "type": "event"
    },
    {
      "anonymous": false,
      "inputs": [
        {
          "indexed": true,
          "internalType": "address",
          "name": "account",
          "type": "address"
        },
        {
          "indexed": true,
          "internalType": "uint256",
          "name": "epoch",
          "type": "uint256"
        },
        {
          "indexed": false,
          "internalType": "uint256",
          "name": "couponAmount",
          "type": "uint256"
        }
      ],
      "name": "CouponBurn",
      "type": "event"
    },
    {
      "anonymous": false,
      "inputs": [
        {
          "indexed": true,
          "internalType": "uint256",
          "name": "epoch",
          "type": "uint256"
        },
        {
          "indexed": false,
          "internalType": "uint256",
          "name": "couponsExpired",
          "type": "uint256"
        },
        {
          "indexed": false,
          "internalType": "uint256",
          "name": "lessRedeemable",
          "type": "uint256"
        },
        {
          "indexed": false,
          "internalType": "uint256",
          "name": "lessDebt",
          "type": "uint256"
        },
        {
          "indexed": false,
          "internalType": "uint256",
          "name": "newBonded",
          "type": "uint256"
        }
      ],
      "name": "CouponExpiration",
      "type": "event"
    },
    {
      "anonymous": false,
      "inputs": [
        {
          "indexed": true,
          "internalType": "address",
          "name": "account",
          "type": "address"
        },
        {
          "indexed": true,
          "internalType": "uint256",
          "name": "epoch",
          "type": "uint256"
        },
        {
          "indexed": false,
          "internalType": "uint256",
          "name": "dollarAmount",
          "type": "uint256"
        },
        {
          "indexed": false,
          "internalType": "uint256",
          "name": "couponAmount",
          "type": "uint256"
        }
      ],
      "name": "CouponPurchase",
      "type": "event"
    },
    {
      "anonymous": false,
      "inputs": [
        {
          "indexed": true,
          "internalType": "address",
          "name": "account",
          "type": "address"
        },
        {
          "indexed": true,
          "internalType": "uint256",
          "name": "epoch",
          "type": "uint256"
        },
        {
          "indexed": false,
          "internalType": "uint256",
          "name": "couponAmount",
          "type": "uint256"
        }
      ],
      "name": "CouponRedemption",
      "type": "event"
    },
    {
      "anonymous": false,
      "inputs": [
        {
          "indexed": true,
          "internalType": "address",
          "name": "from",
          "type": "address"
        },
        {
          "indexed": true,
          "internalType": "address",
          "name": "to",
          "type": "address"
        },
        {
          "indexed": true,
          "internalType": "uint256",
          "name": "epoch",
          "type": "uint256"
        },
        {
          "indexed": false,
          "internalType": "uint256",
          "name": "value",
          "type": "uint256"
        }
      ],
      "name": "CouponTransfer",
      "type": "event"
    },
    {
      "anonymous": false,
      "inputs": [
        {
          "indexed": true,
          "internalType": "address",
          "name": "account",
          "type": "address"
        },
        {
          "indexed": false,
          "internalType": "uint256",
          "name": "value",
          "type": "uint256"
        }
      ],
      "name": "Deposit",
      "type": "event"
    },
    {
      "anonymous": false,
      "inputs": [
        {
          "indexed": true,
          "internalType": "address",
          "name": "account",
          "type": "address"
        },
        {
          "indexed": false,
          "internalType": "uint256",
          "name": "amount",
          "type": "uint256"
        }
      ],
      "name": "Incentivization",
      "type": "event"
    },
    {
      "anonymous": false,
      "inputs": [
        {
          "indexed": true,
          "internalType": "address",
          "name": "candidate",
          "type": "address"
        },
        {
          "indexed": true,
          "internalType": "address",
          "name": "account",
          "type": "address"
        },
        {
          "indexed": true,
          "internalType": "uint256",
          "name": "start",
          "type": "uint256"
        },
        {
          "indexed": false,
          "internalType": "uint256",
          "name": "period",
          "type": "uint256"
        }
      ],
      "name": "Proposal",
      "type": "event"
    },
    {
      "anonymous": false,
      "inputs": [
        {
          "indexed": true,
          "internalType": "uint256",
          "name": "epoch",
          "type": "uint256"
        },
        {
          "indexed": false,
          "internalType": "uint256",
          "name": "price",
          "type": "uint256"
        },
        {
          "indexed": false,
          "internalType": "uint256",
          "name": "newDebt",
          "type": "uint256"
        }
      ],
      "name": "SupplyDecrease",
      "type": "event"
    },
    {
      "anonymous": false,
      "inputs": [
        {
          "indexed": true,
          "internalType": "uint256",
          "name": "epoch",
          "type": "uint256"
        },
        {
          "indexed": false,
          "internalType": "uint256",
          "name": "price",
          "type": "uint256"
        },
        {
          "indexed": false,
          "internalType": "uint256",
          "name": "newRedeemable",
          "type": "uint256"
        },
        {
          "indexed": false,
          "internalType": "uint256",
          "name": "lessDebt",
          "type": "uint256"
        },
        {
          "indexed": false,
          "internalType": "uint256",
          "name": "newBonded",
          "type": "uint256"
        }
      ],
      "name": "SupplyIncrease",
      "type": "event"
    },
    {
      "anonymous": false,
      "inputs": [
        {
          "indexed": true,
          "internalType": "uint256",
          "name": "epoch",
          "type": "uint256"
        }
      ],
      "name": "SupplyNeutral",
      "type": "event"
    },
    {
      "anonymous": false,
      "inputs": [
        {
          "indexed": true,
          "internalType": "address",
          "name": "from",
          "type": "address"
        },
        {
          "indexed": true,
          "internalType": "address",
          "name": "to",
          "type": "address"
        },
        {
          "indexed": false,
          "internalType": "uint256",
          "name": "value",
          "type": "uint256"
        }
      ],
      "name": "Transfer",
      "type": "event"
    },
    {
      "anonymous": false,
      "inputs": [
        {
          "indexed": true,
          "internalType": "address",
          "name": "account",
          "type": "address"
        },
        {
          "indexed": false,
          "internalType": "uint256",
          "name": "start",
          "type": "uint256"
        },
        {
          "indexed": false,
          "internalType": "uint256",
          "name": "value",
          "type": "uint256"
        },
        {
          "indexed": false,
          "internalType": "uint256",
          "name": "valueUnderlying",
          "type": "uint256"
        }
      ],
      "name": "Unbond",
      "type": "event"
    },
    {
      "anonymous": false,
      "inputs": [
        {
          "indexed": true,
          "internalType": "address",
          "name": "implementation",
          "type": "address"
        }
      ],
      "name": "Upgraded",
      "type": "event"
    },
    {
      "anonymous": false,
      "inputs": [
        {
          "indexed": true,
          "internalType": "address",
          "name": "account",
          "type": "address"
        },
        {
          "indexed": true,
          "internalType": "address",
          "name": "candidate",
          "type": "address"
        },
        {
          "indexed": false,
          "internalType": "enum Candidate.Vote",
          "name": "vote",
          "type": "uint8"
        },
        {
          "indexed": false,
          "internalType": "uint256",
          "name": "bonded",
          "type": "uint256"
        }
      ],
      "name": "Vote",
      "type": "event"
    },
    {
      "anonymous": false,
      "inputs": [
        {
          "indexed": true,
          "internalType": "address",
          "name": "account",
          "type": "address"
        },
        {
          "indexed": false,
          "internalType": "uint256",
          "name": "value",
          "type": "uint256"
        }
      ],
      "name": "Withdraw",
      "type": "event"
    },
    {
      "constant": true,
      "inputs": [
        {
          "internalType": "address",
          "name": "owner",
          "type": "address"
        },
        {
          "internalType": "address",
          "name": "spender",
          "type": "address"
        }
      ],
      "name": "allowance",
      "outputs": [
        {
          "internalType": "uint256",
          "name": "",
          "type": "uint256"
        }
      ],
      "payable": false,
      "stateMutability": "view",
      "type": "function"
    },
    {
      "constant": true,
      "inputs": [
        {
          "internalType": "address",
          "name": "owner",
          "type": "address"
        },
        {
          "internalType": "address",
          "name": "spender",
          "type": "address"
        }
      ],
      "name": "allowanceCoupons",
      "outputs": [
        {
          "internalType": "uint256",
          "name": "",
          "type": "uint256"
        }
      ],
      "payable": false,
      "stateMutability": "view",
      "type": "function"
    },
    {
      "constant": false,
      "inputs": [
        {
          "internalType": "address",
          "name": "spender",
          "type": "address"
        },
        {
          "internalType": "uint256",
          "name": "amount",
          "type": "uint256"
        }
      ],
      "name": "approve",
      "outputs": [
        {
          "internalType": "bool",
          "name": "",
          "type": "bool"
        }
      ],
      "payable": false,
      "stateMutability": "nonpayable",
      "type": "function"
    },
    {
      "constant": false,
      "inputs": [
        {
          "internalType": "address",
          "name": "spender",
          "type": "address"
        },
        {
          "internalType": "uint256",
          "name": "amount",
          "type": "uint256"
        }
      ],
      "name": "approveCoupons",
      "outputs": [],
      "payable": false,
      "stateMutability": "nonpayable",
      "type": "function"
    },
    {
      "constant": true,
      "inputs": [
        {
          "internalType": "address",
          "name": "candidate",
          "type": "address"
        }
      ],
      "name": "approveFor",
      "outputs": [
        {
          "internalType": "uint256",
          "name": "",
          "type": "uint256"
        }
      ],
      "payable": false,
      "stateMutability": "view",
      "type": "function"
    },
    {
      "constant": true,
      "inputs": [
        {
          "internalType": "address",
          "name": "account",
          "type": "address"
        }
      ],
      "name": "balanceOf",
      "outputs": [
        {
          "internalType": "uint256",
          "name": "",
          "type": "uint256"
        }
      ],
      "payable": false,
      "stateMutability": "view",
      "type": "function"
    },
    {
      "constant": true,
      "inputs": [
        {
          "internalType": "address",
          "name": "account",
          "type": "address"
        }
      ],
      "name": "balanceOfBonded",
      "outputs": [
        {
          "internalType": "uint256",
          "name": "",
          "type": "uint256"
        }
      ],
      "payable": false,
      "stateMutability": "view",
      "type": "function"
    },
    {
      "constant": true,
      "inputs": [
        {
          "internalType": "address",
          "name": "account",
          "type": "address"
        },
        {
          "internalType": "uint256",
          "name": "epoch",
          "type": "uint256"
        }
      ],
      "name": "balanceOfCoupons",
      "outputs": [
        {
          "internalType": "uint256",
          "name": "",
          "type": "uint256"
        }
      ],
      "payable": false,
      "stateMutability": "view",
      "type": "function"
    },
    {
      "constant": true,
      "inputs": [
        {
          "internalType": "address",
          "name": "account",
          "type": "address"
        }
      ],
      "name": "balanceOfStaged",
      "outputs": [
        {
          "internalType": "uint256",
          "name": "",
          "type": "uint256"
        }
      ],
      "payable": false,
      "stateMutability": "view",
      "type": "function"
    },
    {
      "constant": false,
      "inputs": [
        {
          "internalType": "uint256",
          "name": "value",
          "type": "uint256"
        }
      ],
      "name": "bond",
      "outputs": [],
      "payable": false,
      "stateMutability": "nonpayable",
      "type": "function"
    },
    {
      "constant": true,
      "inputs": [
        {
          "internalType": "uint256",
          "name": "epoch",
          "type": "uint256"
        }
      ],
      "name": "bootstrappingAt",
      "outputs": [
        {
          "internalType": "bool",
          "name": "",
          "type": "bool"
        }
      ],
      "payable": false,
      "stateMutability": "view",
      "type": "function"
    },
    {
      "constant": false,
      "inputs": [
        {
          "internalType": "address",
          "name": "candidate",
          "type": "address"
        }
      ],
      "name": "commit",
      "outputs": [],
      "payable": false,
      "stateMutability": "nonpayable",
      "type": "function"
    },
    {
      "constant": true,
      "inputs": [
        {
          "internalType": "uint256",
          "name": "amount",
          "type": "uint256"
        }
      ],
      "name": "couponPremium",
      "outputs": [
        {
          "internalType": "uint256",
          "name": "",
          "type": "uint256"
        }
      ],
      "payable": false,
      "stateMutability": "view",
      "type": "function"
    },
    {
      "constant": true,
      "inputs": [
        {
          "internalType": "uint256",
          "name": "couponEpoch",
          "type": "uint256"
        },
        {
          "internalType": "uint256",
          "name": "couponAmount",
          "type": "uint256"
        }
      ],
      "name": "couponRedemptionPenalty",
      "outputs": [
        {
          "internalType": "uint256",
          "name": "",
          "type": "uint256"
        }
      ],
      "payable": false,
      "stateMutability": "view",
      "type": "function"
    },
    {
      "constant": true,
      "inputs": [
        {
          "internalType": "uint256",
          "name": "epoch",
          "type": "uint256"
        }
      ],
      "name": "couponsExpiration",
      "outputs": [
        {
          "internalType": "uint256",
          "name": "",
          "type": "uint256"
        }
      ],
      "payable": false,
      "stateMutability": "view",
      "type": "function"
    },
    {
      "constant": true,
      "inputs": [],
      "name": "decimals",
      "outputs": [
        {
          "internalType": "uint8",
          "name": "",
          "type": "uint8"
        }
      ],
      "payable": false,
      "stateMutability": "view",
      "type": "function"
    },
    {
      "constant": false,
      "inputs": [
        {
          "internalType": "uint256",
          "name": "value",
          "type": "uint256"
        }
      ],
      "name": "deposit",
      "outputs": [],
      "payable": false,
      "stateMutability": "nonpayable",
      "type": "function"
    },
    {
      "constant": true,
      "inputs": [],
      "name": "dollar",
      "outputs": [
        {
          "internalType": "contract IDollar",
          "name": "",
          "type": "address"
        }
      ],
      "payable": false,
      "stateMutability": "view",
      "type": "function"
    },
    {
      "constant": false,
      "inputs": [
        {
          "internalType": "address",
          "name": "candidate",
          "type": "address"
        }
      ],
      "name": "emergencyCommit",
      "outputs": [],
      "payable": false,
      "stateMutability": "nonpayable",
      "type": "function"
    },
    {
      "constant": true,
      "inputs": [],
      "name": "epoch",
      "outputs": [
        {
          "internalType": "uint256",
          "name": "",
          "type": "uint256"
        }
      ],
      "payable": false,
      "stateMutability": "view",
      "type": "function"
    },
    {
      "constant": true,
      "inputs": [],
      "name": "epochTime",
      "outputs": [
        {
          "internalType": "uint256",
          "name": "",
          "type": "uint256"
        }
      ],
      "payable": false,
      "stateMutability": "view",
      "type": "function"
    },
    {
      "constant": true,
      "inputs": [
        {
          "internalType": "uint256",
          "name": "epoch",
          "type": "uint256"
        }
      ],
      "name": "expiringCoupons",
      "outputs": [
        {
          "internalType": "uint256",
          "name": "",
          "type": "uint256"
        }
      ],
      "payable": false,
      "stateMutability": "view",
      "type": "function"
    },
    {
      "constant": true,
      "inputs": [
        {
          "internalType": "uint256",
          "name": "epoch",
          "type": "uint256"
        },
        {
          "internalType": "uint256",
          "name": "i",
          "type": "uint256"
        }
      ],
      "name": "expiringCouponsAtIndex",
      "outputs": [
        {
          "internalType": "uint256",
          "name": "",
          "type": "uint256"
        }
      ],
      "payable": false,
      "stateMutability": "view",
      "type": "function"
    },
    {
      "constant": true,
      "inputs": [
        {
          "internalType": "address",
          "name": "account",
          "type": "address"
        }
      ],
      "name": "fluidUntil",
      "outputs": [
        {
          "internalType": "uint256",
          "name": "",
          "type": "uint256"
        }
      ],
      "payable": false,
      "stateMutability": "view",
      "type": "function"
    },
    {
      "constant": true,
      "inputs": [],
      "name": "implementation",
      "outputs": [
        {
          "internalType": "address",
          "name": "impl",
          "type": "address"
        }
      ],
      "payable": false,
      "stateMutability": "view",
      "type": "function"
    },
    {
      "constant": true,
      "inputs": [
        {
          "internalType": "address",
          "name": "candidate",
          "type": "address"
        }
      ],
      "name": "isInitialized",
      "outputs": [
        {
          "internalType": "bool",
          "name": "",
          "type": "bool"
        }
      ],
      "payable": false,
      "stateMutability": "view",
      "type": "function"
    },
    {
      "constant": true,
      "inputs": [
        {
          "internalType": "address",
          "name": "candidate",
          "type": "address"
        }
      ],
      "name": "isNominated",
      "outputs": [
        {
          "internalType": "bool",
          "name": "",
          "type": "bool"
        }
      ],
      "payable": false,
      "stateMutability": "view",
      "type": "function"
    },
    {
      "constant": true,
      "inputs": [
        {
          "internalType": "address",
          "name": "account",
          "type": "address"
        }
      ],
      "name": "lockedUntil",
      "outputs": [
        {
          "internalType": "uint256",
          "name": "",
          "type": "uint256"
        }
      ],
      "payable": false,
      "stateMutability": "view",
      "type": "function"
    },
    {
      "constant": true,
      "inputs": [],
      "name": "name",
      "outputs": [
        {
          "internalType": "string",
          "name": "",
          "type": "string"
        }
      ],
      "payable": false,
      "stateMutability": "view",
      "type": "function"
    },
    {
      "constant": true,
      "inputs": [],
      "name": "oracle",
      "outputs": [
        {
          "internalType": "contract IOracle",
          "name": "",
          "type": "address"
        }
      ],
      "payable": false,
      "stateMutability": "view",
      "type": "function"
    },
    {
      "constant": true,
      "inputs": [
        {
          "internalType": "uint256",
          "name": "epoch",
          "type": "uint256"
        }
      ],
      "name": "outstandingCoupons",
      "outputs": [
        {
          "internalType": "uint256",
          "name": "",
          "type": "uint256"
        }
      ],
      "payable": false,
      "stateMutability": "view",
      "type": "function"
    },
    {
      "constant": true,
      "inputs": [
        {
          "internalType": "address",
          "name": "candidate",
          "type": "address"
        }
      ],
      "name": "periodFor",
      "outputs": [
        {
          "internalType": "uint256",
          "name": "",
          "type": "uint256"
        }
      ],
      "payable": false,
      "stateMutability": "view",
      "type": "function"
    },
    {
      "constant": true,
      "inputs": [],
      "name": "pool",
      "outputs": [
        {
          "internalType": "address",
          "name": "",
          "type": "address"
        }
      ],
      "payable": false,
      "stateMutability": "view",
      "type": "function"
    },
    {
      "constant": false,
      "inputs": [
        {
          "internalType": "uint256",
          "name": "dollarAmount",
          "type": "uint256"
        }
      ],
      "name": "purchaseCoupons",
      "outputs": [
        {
          "internalType": "uint256",
          "name": "",
          "type": "uint256"
        }
      ],
      "payable": false,
      "stateMutability": "nonpayable",
      "type": "function"
    },
    {
      "constant": true,
      "inputs": [
        {
          "internalType": "address",
          "name": "account",
          "type": "address"
        },
        {
          "internalType": "address",
          "name": "candidate",
          "type": "address"
        }
      ],
      "name": "recordedVote",
      "outputs": [
        {
          "internalType": "enum Candidate.Vote",
          "name": "",
          "type": "uint8"
        }
      ],
      "payable": false,
      "stateMutability": "view",
      "type": "function"
    },
    {
      "constant": false,
      "inputs": [
        {
          "internalType": "uint256",
          "name": "couponEpoch",
          "type": "uint256"
        },
        {
          "internalType": "uint256",
          "name": "couponAmount",
          "type": "uint256"
        },
        {
          "internalType": "uint256",
          "name": "minOutput",
          "type": "uint256"
        }
      ],
      "name": "redeemCoupons",
      "outputs": [],
      "payable": false,
      "stateMutability": "nonpayable",
      "type": "function"
    },
    {
      "constant": false,
      "inputs": [
        {
          "internalType": "uint256",
          "name": "couponEpoch",
          "type": "uint256"
        },
        {
          "internalType": "uint256",
          "name": "couponAmount",
          "type": "uint256"
        }
      ],
      "name": "redeemCoupons",
      "outputs": [],
      "payable": false,
      "stateMutability": "nonpayable",
      "type": "function"
    },
    {
      "constant": true,
      "inputs": [
        {
          "internalType": "address",
          "name": "candidate",
          "type": "address"
        }
      ],
      "name": "rejectFor",
      "outputs": [
        {
          "internalType": "uint256",
          "name": "",
          "type": "uint256"
        }
      ],
      "payable": false,
      "stateMutability": "view",
      "type": "function"
    },
    {
      "constant": true,
      "inputs": [
        {
          "internalType": "address",
          "name": "candidate",
          "type": "address"
        }
      ],
      "name": "startFor",
      "outputs": [
        {
          "internalType": "uint256",
          "name": "",
          "type": "uint256"
        }
      ],
      "payable": false,
      "stateMutability": "view",
      "type": "function"
    },
    {
      "constant": true,
      "inputs": [
        {
          "internalType": "address",
          "name": "account",
          "type": "address"
        }
      ],
      "name": "statusOf",
      "outputs": [
        {
          "internalType": "enum Account.Status",
          "name": "",
          "type": "uint8"
        }
      ],
      "payable": false,
      "stateMutability": "view",
      "type": "function"
    },
    {
      "constant": true,
      "inputs": [],
      "name": "symbol",
      "outputs": [
        {
          "internalType": "string",
          "name": "",
          "type": "string"
        }
      ],
      "payable": false,
      "stateMutability": "view",
      "type": "function"
    },
    {
      "constant": true,
      "inputs": [],
      "name": "totalBonded",
      "outputs": [
        {
          "internalType": "uint256",
          "name": "",
          "type": "uint256"
        }
      ],
      "payable": false,
      "stateMutability": "view",
      "type": "function"
    },
    {
      "constant": true,
      "inputs": [
        {
          "internalType": "uint256",
          "name": "epoch",
          "type": "uint256"
        }
      ],
      "name": "totalBondedAt",
      "outputs": [
        {
          "internalType": "uint256",
          "name": "",
          "type": "uint256"
        }
      ],
      "payable": false,
      "stateMutability": "view",
      "type": "function"
    },
    {
      "constant": true,
      "inputs": [],
      "name": "totalCoupons",
      "outputs": [
        {
          "internalType": "uint256",
          "name": "",
          "type": "uint256"
        }
      ],
      "payable": false,
      "stateMutability": "view",
      "type": "function"
    },
    {
      "constant": true,
      "inputs": [],
      "name": "totalDebt",
      "outputs": [
        {
          "internalType": "uint256",
          "name": "",
          "type": "uint256"
        }
      ],
      "payable": false,
      "stateMutability": "view",
      "type": "function"
    },
    {
      "constant": true,
      "inputs": [],
      "name": "totalNet",
      "outputs": [
        {
          "internalType": "uint256",
          "name": "",
          "type": "uint256"
        }
      ],
      "payable": false,
      "stateMutability": "view",
      "type": "function"
    },
    {
      "constant": true,
      "inputs": [],
      "name": "totalRedeemable",
      "outputs": [
        {
          "internalType": "uint256",
          "name": "",
          "type": "uint256"
        }
      ],
      "payable": false,
      "stateMutability": "view",
      "type": "function"
    },
    {
      "constant": true,
      "inputs": [],
      "name": "totalStaged",
      "outputs": [
        {
          "internalType": "uint256",
          "name": "",
          "type": "uint256"
        }
      ],
      "payable": false,
      "stateMutability": "view",
      "type": "function"
    },
    {
      "constant": true,
      "inputs": [],
      "name": "totalSupply",
      "outputs": [
        {
          "internalType": "uint256",
          "name": "",
          "type": "uint256"
        }
      ],
      "payable": false,
      "stateMutability": "view",
      "type": "function"
    },
    {
      "constant": false,
      "inputs": [
        {
          "internalType": "address",
          "name": "recipient",
          "type": "address"
        },
        {
          "internalType": "uint256",
          "name": "amount",
          "type": "uint256"
        }
      ],
      "name": "transfer",
      "outputs": [
        {
          "internalType": "bool",
          "name": "",
          "type": "bool"
        }
      ],
      "payable": false,
      "stateMutability": "nonpayable",
      "type": "function"
    },
    {
      "constant": false,
      "inputs": [
        {
          "internalType": "address",
          "name": "sender",
          "type": "address"
        },
        {
          "internalType": "address",
          "name": "recipient",
          "type": "address"
        },
        {
          "internalType": "uint256",
          "name": "epoch",
          "type": "uint256"
        },
        {
          "internalType": "uint256",
          "name": "amount",
          "type": "uint256"
        }
      ],
      "name": "transferCoupons",
      "outputs": [],
      "payable": false,
      "stateMutability": "nonpayable",
      "type": "function"
    },
    {
      "constant": false,
      "inputs": [
        {
          "internalType": "address",
          "name": "sender",
          "type": "address"
        },
        {
          "internalType": "address",
          "name": "recipient",
          "type": "address"
        },
        {
          "internalType": "uint256",
          "name": "amount",
          "type": "uint256"
        }
      ],
      "name": "transferFrom",
      "outputs": [
        {
          "internalType": "bool",
          "name": "",
          "type": "bool"
        }
      ],
      "payable": false,
      "stateMutability": "nonpayable",
      "type": "function"
    },
    {
      "constant": false,
      "inputs": [
        {
          "internalType": "uint256",
          "name": "value",
          "type": "uint256"
        }
      ],
      "name": "unbond",
      "outputs": [],
      "payable": false,
      "stateMutability": "nonpayable",
      "type": "function"
    },
    {
      "constant": false,
      "inputs": [
        {
          "internalType": "uint256",
          "name": "value",
          "type": "uint256"
        }
      ],
      "name": "unbondUnderlying",
      "outputs": [],
      "payable": false,
      "stateMutability": "nonpayable",
      "type": "function"
    },
    {
      "constant": false,
      "inputs": [
        {
          "internalType": "address",
          "name": "candidate",
          "type": "address"
        },
        {
          "internalType": "enum Candidate.Vote",
          "name": "vote",
          "type": "uint8"
        }
      ],
      "name": "vote",
      "outputs": [],
      "payable": false,
      "stateMutability": "nonpayable",
      "type": "function"
    },
    {
      "constant": true,
      "inputs": [
        {
          "internalType": "address",
          "name": "candidate",
          "type": "address"
        }
      ],
      "name": "votesFor",
      "outputs": [
        {
          "internalType": "uint256",
          "name": "",
          "type": "uint256"
        }
      ],
      "payable": false,
      "stateMutability": "view",
      "type": "function"
    },
    {
      "constant": false,
      "inputs": [
        {
          "internalType": "uint256",
          "name": "value",
          "type": "uint256"
        }
      ],
      "name": "withdraw",
      "outputs": [],
      "payable": false,
      "stateMutability": "nonpayable",
      "type": "function"
    },
    {
      "constant": false,
      "inputs": [],
      "name": "initialize",
      "outputs": [],
      "payable": false,
      "stateMutability": "nonpayable",
      "type": "function"
    },
    {
      "constant": false,
      "inputs": [],
      "name": "advance",
      "outputs": [],
      "payable": false,
      "stateMutability": "nonpayable",
      "type": "function"
    }
  ],
  "bytecode": "0x608060405234801561001057600080fd5b50614579806100206000396000f3fe608060405234801561001057600080fd5b50600436106103985760003560e01c80638129fc1c116101e9578063bc0b1df61161010f578063d8f54138116100ad578063ea105ac71161007c578063ea105ac714610750578063f1b7cf4914610758578063fc7b9c181461076b578063ffbe3b731461077357610398565b8063d8f5413814610709578063dd62ed3e1461071c578063df9a2b1c1461072a578063e5f55c7e1461073d57610398565b8063c9aff70c116100e9578063c9aff70c146106c8578063cf023779146106db578063d60b347f146106e3578063d6a9cf08146106f657610398565b8063bc0b1df61461068f578063bc7513e2146106a2578063bceb514d146106b557610398565b80639a649edc11610187578063a50cd8e711610156578063a50cd8e714610661578063a6c409f114610674578063a9059cbb146103d0578063b6b55f251461067c57610398565b80639a649edc146106205780639bc289f1146106285780639f6e1b261461063b578063a1eb31e81461064e57610398565b8063900cf0cf116101c3578063900cf0cf146105ea57806395d89b41146105f257806397a5d5b5146105fa5780639940686e1461060d57610398565b80638129fc1c146105bc578063825ad607146105c457806386cf9f14146105d757610398565b8063369e8c1d116102ce57806351adeb571161026c5780636a39e3281161023b5780636a39e3281461057b57806370a082311461058e57806375d5024b146105a15780637dc0d1d0146105b457610398565b806351adeb571461053857806351bf21d81461054d5780635c60da1b14610560578063646680221461056857610398565b806344d96e95116102a857806344d96e951461050257806347c050691461050a5780634c7360991461051d5780635053e4611461053057610398565b8063369e8c1d146104bc5780633a3e6c81146104cf5780633fbba9a6146104e257610398565b80631edbcf6c1161033b5780632e1a7d4d116103155780632e1a7d4d1461046e5780632f7f889e14610481578063313ce56714610494578063353a420c146104a957610398565b80631edbcf6c1461044057806323b872dd1461044857806327de9e321461045b57610398565b806310e95b6c1161037757806310e95b6c146103f057806315e14bf61461041057806316f0115b1461042357806318160ddd1461043857610398565b80625edd371461039d57806306fdde03146103b2578063095ea7b3146103d0575b600080fd5b6103b06103ab366004613cb4565b610786565b005b6103ba6108a9565b6040516103c79190614233565b60405180910390f35b6103e36103de366004613d45565b6108d9565b6040516103c791906141fb565b6104036103fe366004613dc3565b6108e2565b6040516103c791906142b4565b61040361041e366004613c0f565b6108fa565b61042b610918565b6040516103c7919061418e565b610403610927565b61040361092d565b6103e3610456366004613c67565b610933565b6103b0610469366004613dc3565b61093d565b6103b061047c366004613dc3565b610a87565b6103b061048f366004613d45565b610bbf565b61049c610c3f565b6040516103c7919061434c565b6104036104b7366004613c0f565b610c44565b6103b06104ca366004613c0f565b610c62565b6103e36104dd366004613c0f565b610db0565b6104f56104f0366004613c2d565b610dcd565b6040516103c79190614217565b610403610e00565b6103b0610518366004613c0f565b610e06565b61040361052b366004613dff565b610ef9565b610403610f29565b610540610f4c565b6040516103c79190614209565b61040361055b366004613c0f565b610f5b565b61042b610f79565b610403610576366004613c0f565b610f9e565b610403610589366004613dc3565b610fbc565b61040361059c366004613c0f565b610fd1565b6103e36105af366004613dc3565b610fef565b610540611002565b6103b0611011565b6104036105d2366004613c0f565b61105c565b6104036105e5366004613c0f565b61109c565b6104036110b7565b6103ba6110bd565b6104f5610608366004613c0f565b6110db565b6103b061061b366004613dc3565b611140565b61040361120e565b610403610636366004613c0f565b611214565b610403610649366004613c2d565b611232565b61040361065c366004613dff565b611261565b61040361066f366004613c0f565b611387565b61040361139e565b6103b061068a366004613dc3565b611428565b6103b061069d366004613e1e565b611500565b6104036106b0366004613d45565b611634565b6103b06106c3366004613d15565b611678565b6104036106d6366004613dc3565b611913565b610403611928565b6103e36106f1366004613c0f565b61192e565b6103b0610704366004613dff565b61194f565b610403610717366004613dc3565b611a4b565b6104036103de366004613c2d565b6103b0610738366004613dc3565b611ad6565b61040361074b366004613dc3565b611b94565b6103b0611c86565b610403610766366004613c0f565b611d39565b610403611d54565b610403610781366004613dc3565b611d5a565b6001600160a01b0384166107b55760405162461bcd60e51b81526004016107ac90614294565b60405180910390fd5b6001600160a01b0383166107db5760405162461bcd60e51b81526004016107ac90614254565b6107ff84838360405180606001604052806023815260200161445860239139611d6c565b61080a838383611e17565b336001600160a01b0385161480159061082e575060001961082b8533611232565b14155b156108575761085784338360405180606001604052806024815260200161449f60249139611ebe565b81836001600160a01b0316856001600160a01b03167f0f1dbb1ccbe57a1590c7baad7b01d581b730c9ebc535dcde4345e6db424063d88460405161089b91906142b4565b60405180910390a450505050565b604080518082019091526015815274467265712053657420446f6c6c6172205374616b6560581b60208201525b90565b60005b92915050565b6000818152600d60205260409020600201545b919050565b6001600160a01b03166000908152600e602052604090206001015490565b600b546001600160a01b031690565b60035490565b60065490565b60005b9392505050565b3361098460025b61094d836110db565b600281111561095857fe5b1415692832b936b4b9b9b4b7b760b11b72139bdd08199c9bde995b881bdc88199b1d5a59606a1b611f2f565b61098d33611f84565b60006109c061099b33610fd1565b6109b46109a73361105c565b869063ffffffff611fae16565b9063ffffffff611fe816565b90506109cc338261202a565b6109ee816040518060600160405280602281526020016144c360229139612086565b610a2e33846040518060400160405280601d81526020017f426f6e64696e673a20696e73756666696369656e742062616c616e63650000008152506120a1565b337f93530ac0ee8c50e696e13c5ac62355d0c0ba4bd943620d5bda1eb08b64ae7512610a696001610a5d6110b7565b9063ffffffff61214c16565b8584604051610a7a939291906142fc565b60405180910390a2505050565b33610acf60015b610a97836110db565b6002811115610aa257fe5b1415692832b936b4b9b9b4b7b760b11b73139bdd08199c9bde995b881bdc881b1bd8dad95960621b611f2f565b610ad7610f4c565b6001600160a01b031663a9059cbb33846040518363ffffffff1660e01b8152600401610b049291906141c4565b602060405180830381600087803b158015610b1e57600080fd5b505af1158015610b32573d6000803e3d6000fd5b505050506040513d601f19601f82011682018060405250610b569190810190613d75565b50610b7a338360405180606001604052806024815260200161447b60249139612171565b336001600160a01b03167f884edad9ce6fa2440d8a54cc123490eb96d2768479d49ff9c7366125a942436483604051610bb391906142b4565b60405180910390a25050565b6001600160a01b038216610be55760405162461bcd60e51b81526004016107ac90614284565b610bf03383836121d0565b816001600160a01b0316336001600160a01b03167f8ff27e6b95060c1ca851e7c2c28af8b413eb1a8bcb637b0290da9543a709cce383604051610c3391906142b4565b60405180910390a35050565b601290565b6001600160a01b03166000908152600e602052604090206003015490565b610c8e610c6e82610db0565b6523b7bb32b93760d11b6c139bdd081b9bdb5a5b985d1959609a1b611f2f565b6000610cb66001610caa610ca1856108fa565b610a5d86611d39565b9063ffffffff61220016565b9050610ce181610cc46110b7565b116523b7bb32b93760d11b68139bdd08195b99195960ba1b611f2f565b610d38610d15610cef612242565b610d09610cfb86611387565b610d0486611d5a565b612264565b9063ffffffff61229316565b6523b7bb32b93760d11b6f4d75737420686176652071756f726f6d60801b611f2f565b610d6d610d4483610c44565b610d4d84610f9e565b116523b7bb32b93760d11b6b139bdd08185c1c1c9bdd995960a21b611f2f565b610d76826122a9565b6040516001600160a01b0383169033907f815ca4497ab9fc80c76f210e6e842a5e198e195aa136034557eee144f790e7bb90600090a35050565b6001600160a01b03166000908152600e6020526040902054151590565b6001600160a01b038082166000908152600e60209081526040808320938616835260049093019052205460ff1692915050565b60045490565b610e12610c6e82610db0565b610e50610e28610e20612395565b610a5d6110b7565b610e30610f29565b116523b7bb32b93760d11b6b115c1bd8da081cde5b98d95960a21b611f2f565b610ea2610e72610e5e61239a565b610d09610e6a85610f9e565b610d04610927565b6523b7bb32b93760d11b7f4d7573742068617665207375706572206d616a6f726974790000000000000000611f2f565b610eb7610eae82610c44565b610d4d83610f9e565b610ec0816122a9565b6040516001600160a01b0382169033907f815ca4497ab9fc80c76f210e6e842a5e198e195aa136034557eee144f790e7bb90600090a350565b6000828152600d60205260408120600301805483908110610f1657fe5b9060005260206000200154905092915050565b6000610f33613b71565b610f3b6123bc565b9050610f46816123eb565b91505090565b6009546001600160a01b031690565b6001600160a01b03166000908152600c602052604090206004015490565b7f360894a13ba1a3210667c828492db98dca3e2076cc3735a920a3ca505d382bbc5490565b6001600160a01b03166000908152600e602052604090206002015490565b6000908152600d602052604090206003015490565b6001600160a01b03166000908152600c602052604090206001015490565b6000610ff961240d565b90911115919050565b600a546001600160a01b031690565b61104a61101f6106f1610f79565b15692832b936b4b9b9b4b7b760b11b72105b1c9958591e481a5b9a5d1a585b1a5e9959606a1b611f2f565b61105a611055610f79565b612412565b565b600080611067610927565b9050806110785760009150506108f5565b610936816109b461108886610fd1565b611090610e00565b9063ffffffff611fae16565b6001600160a01b03166000908152600c602052604090205490565b60025490565b6040805180820190915260048152634653445360e01b602082015290565b60006110e56110b7565b6001600160a01b0383166000908152600c6020526040902060050154111561110f575060026108f5565b6001600160a01b0382166000908152600c60205260409020600401546111336110b7565b10156108d95760016108dc565b3361114b6002610944565b61115433611f84565b600061115e610e00565b1561117e5761117961116e610e00565b6109b46109a7610927565b611196565b611196611189612439565b849063ffffffff611fae16565b90506111a23382612440565b6111ab836124dc565b6111ce338460405180606001604052806024815260200161447b60249139612171565b337f44002fdef5a0c2d2e4e05572e9780b95aef97e0e93ffd7cc076b09fa78ff2b466111fd6001610a5d6110b7565b8386604051610a7a939291906142fc565b60085490565b6001600160a01b03166000908152600c602052604090206005015490565b6001600160a01b039182166000908152600c602090815260408083209390941682526003909201909152205490565b60008061126c6123bc565b60400151428161127857fe5b0690506000846112866110b7565b03905060006112936124f5565b8261129c6124f5565b036112a56124fb565b02816112ad57fe5b049050808311156112c457600093505050506108dc565b6112cc613b92565b61131f6040518060200160405280856112e36124f5565b0381525061131360405180602001604052806112fd6124f5565b9052611307612501565b9063ffffffff61252316565b9063ffffffff61255116565b9050611329613b92565b6040805160208082018352878603825282519081019092528482526113599161131390859063ffffffff61252316565b604080516020810190915288815290915061137a908263ffffffff61255116565b5198975050505050505050565b60006108dc61139583610c44565b610a5d84610f9e565b60006114236113ab611d54565b6113b3610f4c565b6001600160a01b03166318160ddd6040518163ffffffff1660e01b815260040160206040518083038186803b1580156113eb57600080fd5b505afa1580156113ff573d6000803e3d6000fd5b505050506040513d601f19601f82011682018060405250610caa9190810190613de1565b905090565b336114336001610a8e565b61143b610f4c565b6001600160a01b03166323b872dd3330856040518463ffffffff1660e01b815260040161146a9392919061419c565b602060405180830381600087803b15801561148457600080fd5b505af1158015611498573d6000803e3d6000fd5b505050506040513d601f19601f820116820180604052506114bc9190810190613d75565b506114c7338361202a565b336001600160a01b03167fe1fffcc4923d04b559f4d29a8bfc6cda04eb5b0d3c460751c2402c5c5cc9109c83604051610bb391906142b4565b600261150e84610caa6110b7565b101561152c5760405162461bcd60e51b81526004016107ac906142a4565b61155033848460405180606001604052806023815260200161445860239139611d6c565b600061155c8484611261565b9050808303611598838210156513585c9ad95d60d21b7f496e73756666696369656e74206f757470757420616d6f756e74000000000000611f2f565b6115a2338261257f565b81156115eb5784336001600160a01b03167f1cd1213d4276c260e84170b4a39025dc8398fbf744edee0709261769b456b94b846040516115e291906142b4565b60405180910390a35b84336001600160a01b03167f46e9903ae8ac9e9f0c9bc321b05965c1c036e7d4783758703f5cdfc4133c51b68360405161162591906142b4565b60405180910390a35050505050565b600061163f82611913565b61164b575060006108dc565b506001600160a01b03919091166000908152600c6020908152604080832093835260029093019052205490565b336116836001610a8e565b6116b4600061169133610fd1565b116523b7bb32b93760d11b6e4d7573742068617665207374616b6560881b611f2f565b6116bd83610db0565b611760576116fd6116cd33612635565b6523b7bb32b93760d11b7f4e6f7420656e6f756768207374616b6520746f2070726f706f73650000000000611f2f565b61170e8361170961267d565b612682565b6117166110b7565b336001600160a01b0385167fd15e38a680a427478883cd2d32eb664cb6bb2090b0126a23ebaf3e3784b8c56b61174a61267d565b60405161175791906142b4565b60405180910390a45b61179061176f610ca1856108fa565b6117776110b7565b106523b7bb32b93760d11b64115b99195960da1b611f2f565b600061179b33610fd1565b905060006117a93386610dcd565b90508060028111156117b757fe5b8460028111156117c357fe5b14156117d057505061190e565b60028160028111156117de57fe5b14156118245761182485836040518060400160405280601b81526020017f476f7665726e3a20496e73756666696369656e742072656a65637400000000008152506126ae565b600181600281111561183257fe5b14156118785761187885836040518060400160405280601c81526020017f476f7665726e3a20496e73756666696369656e7420617070726f7665000000008152506126ff565b600284600281111561188657fe5b1415611896576118968583612750565b60018460028111156118a457fe5b14156118b4576118b4858361279f565b6118bf3386866127ee565b6118c93386612838565b846001600160a01b0316336001600160a01b03167fbe50c78cbc15b0864819aadea36c6499da421b33c38e2ef19bebda583c708c788685604051611625929190614225565b505050565b6000908152600d602052604090206001015490565b60055490565b6001600160a01b03166000908152600e602052604090206005015460ff1690565b600261195d83610caa6110b7565b101561197b5760405162461bcd60e51b81526004016107ac906142a4565b61199f33838360405180606001604052806023815260200161445860239139611d6c565b60006119ab8383611261565b90508082036119ba338261257f565b8115611a035783336001600160a01b03167f1cd1213d4276c260e84170b4a39025dc8398fbf744edee0709261769b456b94b846040516119fa91906142b4565b60405180910390a35b83336001600160a01b03167f46e9903ae8ac9e9f0c9bc321b05965c1c036e7d4783758703f5cdfc4133c51b683604051611a3d91906142b4565b60405180910390a350505050565b60006108dc611a58610f4c565b6001600160a01b03166318160ddd6040518163ffffffff1660e01b815260040160206040518083038186803b158015611a9057600080fd5b505afa158015611aa4573d6000803e3d6000fd5b505050506040513d601f19601f82011682018060405250611ac89190810190613de1565b611ad0611d54565b84612899565b33611ae16002610944565b611aea33611f84565b6000611af761116e610e00565b9050611b03338461202a565b611b25836040518060600160405280602281526020016144c360229139612086565b611b6533826040518060400160405280601d81526020017f426f6e64696e673a20696e73756666696369656e742062616c616e63650000008152506120a1565b337f93530ac0ee8c50e696e13c5ac62355d0c0ba4bd943620d5bda1eb08b64ae75126111fd6001610a5d6110b7565b6000611bcd600083116513585c9ad95d60d21b7f4d757374207075726368617365206e6f6e2d7a65726f20616d6f756e74000000611f2f565b611bfd82611bd9611d54565b10156513585c9ad95d60d21b6e139bdd08195b9bdd59da081919589d608a1b611f2f565b6000611c076110b7565b90506000611c24611c1785611a4b565b859063ffffffff61214c16565b9050611c3033856128c6565b611c3b338383611e17565b81336001600160a01b03167fbce252db29f761f815dc2e9ea60005af065efba6eb619d2a0b2a113fdeb614148684604051611c779291906142c2565b60405180910390a39392505050565b6000611c906129d7565b9050611c9c33826129e4565b336001600160a01b03167fbb4f656853bc420ad6e4321622c07eefb4ed40e3f91b35553ce14a6dff4c098182604051611cd591906142b4565b60405180910390a2611ce5612a84565b611ced612acf565b611cf5612b62565b611cfd6110b7565b7fec092ba008a42935500c5ad8f03639c7e30ebaa7182df79519ba40aafa935c6b4342604051611d2e9291906142d0565b60405180910390a250565b6001600160a01b03166000908152600e602052604090205490565b60075490565b6000908152600d602052604090205490565b6001600160a01b0384166000908152600c60209081526040808320868452600201909152902054611da490838363ffffffff612bbc16565b6001600160a01b0385166000908152600c60209081526040808320878452600201825280832093909355600d90522060010154611de890838363ffffffff612bbc16565b6000848152600d6020526040902060010155600854611e0e90838363ffffffff612bbc16565b60085550505050565b6001600160a01b0383166000908152600c60209081526040808320858452600201909152902054611e4e908263ffffffff61214c16565b6001600160a01b0384166000908152600c60209081526040808320868452600201825280832093909355600d90522060010154611e91908263ffffffff61214c16565b6000838152600d6020526040902060010155600854611eb6908263ffffffff61214c16565b600855505050565b6001600160a01b038085166000908152600c602090815260408083209387168352600390930190522054611ef990838363ffffffff612bbc16565b6001600160a01b039485166000908152600c60209081526040808320969097168252600390950190945293909220929092555050565b8261190e57611f3d82612be8565b6101d160f51b611f4c83612be8565b604051602001611f5e9392919061415d565b60408051601f198184030181529082905262461bcd60e51b82526107ac91600401614233565b611f8f610e20612c68565b6001600160a01b039091166000908152600c6020526040902060040155565b600082611fbd575060006108dc565b82820282848281611fca57fe5b04146109365760405162461bcd60e51b81526004016107ac90614264565b600061093683836040518060400160405280601a81526020017f536166654d6174683a206469766973696f6e206279207a65726f000000000000815250612c6d565b6001600160a01b0382166000908152600c6020526040902054612053908263ffffffff61214c16565b6001600160a01b0383166000908152600c602052604090205560055461207f908263ffffffff61214c16565b6005555050565b60045461209a90838363ffffffff612bbc16565b6004555050565b6001600160a01b0383166000908152600c60205260409020600101546120ce90838363ffffffff612bbc16565b6001600160a01b0384166000908152600c60205260409020600101556003546120fe90838363ffffffff612bbc16565b6003556040516000906001600160a01b038516907fddf252ad1be2c89b69c2b068fc378daa952ba7f163c4a11628f55a4df523b3ef9061213f9086906142b4565b60405180910390a3505050565b6000828201838110156109365760405162461bcd60e51b81526004016107ac90614244565b6001600160a01b0383166000908152600c602052604090205461219b90838363ffffffff612bbc16565b6001600160a01b0384166000908152600c60205260409020556005546121c890838363ffffffff612bbc16565b600555505050565b6001600160a01b039283166000908152600c60209081526040808320949095168252600390930190925291902055565b600061093683836040518060400160405280601e81526020017f536166654d6174683a207375627472616374696f6e206f766572666c6f770000815250612bbc565b61224a613b92565b5060408051602081019091526702c68af0bb140000815290565b61226c613b92565b604051806020016040528061228a85670de0b6b3a764000086612ca4565b90529392505050565b600061229f8383612cba565b6002149392505050565b6122b281612cec565b60408051600481526024810182526020810180516001600160e01b031663204a7f0760e21b17905290516000916060916001600160a01b038516916122f691614151565b600060405180830381855af49150503d8060008114612331576040519150601f19603f3d011682016040523d82523d6000602084013e612336565b606091505b509150915081819061235b5760405162461bcd60e51b81526004016107ac9190614233565b506040516001600160a01b038416907fbc7cd75a20ee27fd9adebab32041f755214dbc6bffa90cc0225b39da2e5c2d3b90600090a2505050565b600690565b6123a2613b92565b506040805160208101909152670928ca80cfc20000815290565b6123c4613b71565b604051806060016040528060008152602001635ff535c08152602001610e10815250905090565b60006108dc8260000151610a5d84604001516109b48660200151610caa612d35565b60a890565b6001600160a01b03166000908152600e60205260409020600501805460ff19166001179055565b620f424090565b6001600160a01b0382166000908152600c602052604090206001015461246c908263ffffffff61214c16565b6001600160a01b0383166000908152600c602052604090206001015560035461249b908263ffffffff61214c16565b6003556040516001600160a01b038316906000907fddf252ad1be2c89b69c2b068fc378daa952ba7f163c4a11628f55a4df523b3ef90610c339085906142b4565b6004546124ef908263ffffffff61214c16565b60045550565b6102d090565b61070890565b612509613b92565b506040805160208101909152670905438e60010000815290565b61252b613b92565b604051806020016040528061228a8560000151670de0b6b3a76400008660000151612ca4565b612559613b92565b604051806020016040528061228a85600001518560000151670de0b6b3a7640000612ca4565b612587610f4c565b6001600160a01b031663a9059cbb83836040518363ffffffff1660e01b81526004016125b49291906141ed565b602060405180830381600087803b1580156125ce57600080fd5b505af11580156125e2573d6000803e3d6000fd5b505050506040513d601f19601f820116820180604052506126069190810190613d75565b50612629816040518060600160405280602a815260200161450d602a9139612d39565b612631612d54565b5050565b600061263f610e00565b61264b575060006108f5565b612653613b92565b61265f610e6a84610fd1565b905061093661267060016064612264565b829063ffffffff61229316565b601890565b61268a6110b7565b6001600160a01b039092166000908152600e60205260409020918255600190910155565b6001600160a01b0383166000908152600e60205260409020600301546126db90838363ffffffff612bbc16565b6001600160a01b039093166000908152600e60205260409020600301929092555050565b6001600160a01b0383166000908152600e602052604090206002015461272c90838363ffffffff612bbc16565b6001600160a01b039093166000908152600e60205260409020600201929092555050565b6001600160a01b0382166000908152600e602052604090206003015461277c908263ffffffff61214c16565b6001600160a01b039092166000908152600e602052604090206003019190915550565b6001600160a01b0382166000908152600e60205260409020600201546127cb908263ffffffff61214c16565b6001600160a01b039092166000908152600e602052604090206002019190915550565b6001600160a01b038083166000908152600e6020908152604080832093871683526004909301905220805482919060ff1916600183600281111561282e57fe5b0217905550505050565b6001600160a01b0382166000908152600c60205260408120600501549061286a612861846108fa565b610a5d85611d39565b905081811115612893576001600160a01b0384166000908152600c602052604090206005018190555b50505050565b60006128be6128b9836128ad878787612e27565b9063ffffffff612f9416565b612fbb565b949350505050565b6128ce610f4c565b6001600160a01b03166323b872dd8330846040518463ffffffff1660e01b81526004016128fd939291906141df565b602060405180830381600087803b15801561291757600080fd5b505af115801561292b573d6000803e3d6000fd5b505050506040513d601f19601f8201168201806040525061294f9190810190613d75565b50612958610f4c565b6001600160a01b03166342966c68826040518263ffffffff1660e01b815260040161298391906142b4565b600060405180830381600087803b15801561299d57600080fd5b505af11580156129b1573d6000803e3d6000fd5b50505050612629816040518060600160405280602881526020016144e560289139612fd8565b68056bc75e2d6310000090565b6129ec610f4c565b6001600160a01b03166340c10f1983836040518363ffffffff1660e01b8152600401612a199291906141ed565b602060405180830381600087803b158015612a3357600080fd5b505af1158015612a47573d6000803e3d6000fd5b505050506040513d601f19601f82011682018060405250612a6b9190810190613d75565b50612a776105af6110b7565b6126295761262981612ff3565b612abf612a8f6110b7565b612a97610f29565b1166426f6e64696e6760c81b720a6e8d2d8d840c6eae4e4cadce840cae0dec6d606b1b611f2f565b612ac7613014565b61105a61303b565b612ad7613b92565b612adf613054565b9050612aec61267061311c565b15612b0857612af961313e565b612b0281613145565b5061105a565b612b20612b1361311c565b829063ffffffff6131fb16565b15612b2e57612b028161320f565b612b366110b7565b6040517fff7db5a0dc69b02c191ba632db46961b7d0daa1bd30709ddba9b80ad0a15d2c090600090a250565b60005b612b706105896110b7565b811015612b9857612b90612b8b612b856110b7565b83610ef9565b613289565b600101612b65565b506000612ba6610e206124f5565b9050612bb9612bb36110b7565b82613335565b50565b60008184841115612be05760405162461bcd60e51b81526004016107ac9190614233565b505050900390565b60608082604051602001612bfc919061413c565b60408051601f19818403018152919052905060205b8015612c5157815160001990910190829082908110612c2c57fe5b01602001516001600160f81b03191615612c4c57600101815290506108f5565b612c11565b505060408051600081526020810190915292915050565b600c90565b60008183612c8e5760405162461bcd60e51b81526004016107ac9190614233565b506000838581612c9a57fe5b0495945050505050565b60006128be826109b4868663ffffffff611fae16565b805182516000911415612ccf575060016108dc565b8151835111612cdf576000612ce2565b60025b60ff169392505050565b612cf581613367565b612d115760405162461bcd60e51b81526004016107ac90614274565b7f360894a13ba1a3210667c828492db98dca3e2076cc3735a920a3ca505d382bbc55565b4290565b600654612d4d90838363ffffffff612bbc16565b6006555050565b61105a612d75612d6261092d565b610a5d612d6d611928565b610a5d610e00565b612d7d610f4c565b6001600160a01b03166370a08231306040518263ffffffff1660e01b8152600401612da8919061418e565b60206040518083038186803b158015612dc057600080fd5b505afa158015612dd4573d6000803e3d6000fd5b505050506040513d601f19601f82011682018060405250612df89190810190613de1565b10156a21b7b6b83a3937b63632b960a91b74496e636f6e73697374656e742062616c616e63657360581b611f2f565b612e2f613b92565b612e37613b92565b612e418486612264565b9050612e4b613b92565b612e5361336d565b90506000612e67878663ffffffff61220016565b90506000612e7b878763ffffffff61220016565b9050612e85613b92565b612e8f8284612264565b9050612ea1858563ffffffff61229316565b15612f7d57612eb6818563ffffffff61229316565b15612ed057612ec48461338f565b95505050505050610936565b612ed8613b92565b612ee282866133db565b9050612eec613b92565b612efc868463ffffffff61343816565b9050612f06613b92565b612f0f8761338f565b9050612f19613b92565b612f29898963ffffffff61343816565b9050612f6d612f3e848363ffffffff61346116565b611307612f51858563ffffffff61255116565b612f61888863ffffffff61255116565b9063ffffffff61346116565b9950505050505050505050610936565b612f8781866133db565b9998505050505050505050565b612f9c613b92565b60408051602081019091528351819061228a908563ffffffff611fae16565b80516000906108dc90670de0b6b3a764000063ffffffff611fe816565b600754612fec90838363ffffffff612bbc16565b6007555050565b612ffc8161348a565b61300c61300761336d565b6134a3565b612bb9612d54565b61301c610927565b600d60006130286110b7565b8152602081019190915260400160002055565b60025461304f90600163ffffffff61214c16565b600255565b61305c613b92565b613064613b92565b600061306e611002565b6001600160a01b031663d4a3e9d76040518163ffffffff1660e01b81526004016040805180830381600087803b1580156130a757600080fd5b505af11580156130bb573d6000803e3d6000fd5b505050506040513d601f19601f820116820180604052506130df9190810190613d93565b915091506130f36105af6001610caa6110b7565b1561310957613100613556565b925050506108d6565b806131165761310061311c565b50905090565b613124613b92565b506040805160208101909152670de0b6b3a7640000815290565b6000600755565b61314d613b92565b61317861317361315b613578565b61130761316661311c565b869063ffffffff61343816565b61359b565b905060006131976128b961318a61139e565b849063ffffffff612f9416565b905060008060006131a7846135cf565b9250925092506131b56110b7565b86516040517f32fcaa1e76ed9517f4749d8ec9a77dd5e7329456d740b9bf9665d900eef5e283916131eb91879087908790614317565b60405180910390a2505050505050565b60006132078383612cba565b159392505050565b613217613b92565b6132326131738361322661311c565b9063ffffffff61343816565b905060006132446128b961318a61139e565b905061324f81612ff3565b6132576110b7565b83516040517f5e139d4b8080a4a00dcc151e8217694aeebae893936326aa22096924a990667791610a7a9185906142c2565b600061329482611913565b9050600080806132a38561373b565b60006132ad61092d565b905060006132b961120e565b9050808211156132ee576132d3828263ffffffff61220016565b94506132de8561377e565b6132e7856135cf565b9095509350505b867f753df65b37159bf237ae1fca97ba1bd57cf83bc9498f271a514a4d7bafe87bda878787876040516133249493929190614317565b60405180910390a250505050505050565b6000828152600d6020908152604080832060020184905592825291812060030180546001810182559082529190200155565b3b151590565b613375613b92565b5060408051602081019091526706f05b59d3b20000815290565b613397613b92565b6108dc6133a660016003612264565b6132266133d36133c960026133bd8861322661311c565b9063ffffffff61380516565b611313600361385b565b61130761311c565b6133e3613b92565b6133f3838363ffffffff61388f16565b15613408576134018361338f565b90506108dc565b61093661341760016003612264565b6132266133d36134298761322661311c565b6113136133c98861322661311c565b613440613b92565b604080516020810190915282518451829161228a919063ffffffff61220016565b613469613b92565b604080516020810190915282518451829161228a919063ffffffff61214c16565b60075461349d908263ffffffff61214c16565b60075550565b60006135236128b96134b3610f4c565b6001600160a01b03166318160ddd6040518163ffffffff1660e01b815260040160206040518083038186803b1580156134eb57600080fd5b505afa1580156134ff573d6000803e3d6000fd5b505050506040513d601f19601f8201168201806040525061318a9190810190613de1565b9050600061352f611d54565b90508181111561190e57600061354b828463ffffffff61220016565b905061289381613896565b61355e613b92565b506040805160208101909152671e87f85809dc0000815290565b613580613b92565b50604080516020810190915268014d1120d7b1600000815290565b6135a3613b92565b6135ab613b92565b6135b36138d5565b90506135c5838263ffffffff61229316565b6108dc5782610936565b60008080808080806135df61092d565b905060006135eb61120e565b9050808210156136a857613605818363ffffffff61220016565b945061362d61361c60646136176138f7565b612200565b6109b487606463ffffffff611fae16565b945088851161363c578461363e565b885b945061365d60646109b46136506138f7565b889063ffffffff611fae16565b925061366f858463ffffffff61220016565b945061367a836138fc565b61368385613990565b613693898463ffffffff61220016565b98506136a5898663ffffffff61220016565b98505b60006136b2611d54565b905060008a1180156136c45750600081115b156136f6578981116136d657806136d8565b895b94506136e385613896565b6136f38a8663ffffffff61220016565b99505b6136fe610e00565b61370757600099505b8915613716576137168a613a21565b85856137288c8763ffffffff61214c16565b9850985098505050505050509193909250565b600061374682611913565b9050806137535750612bb9565b600854613766908263ffffffff61220016565b600855506000908152600d6020526040812060010155565b613786610f4c565b6001600160a01b03166342966c68826040518263ffffffff1660e01b81526004016137b191906142b4565b600060405180830381600087803b1580156137cb57600080fd5b505af11580156137df573d6000803e3d6000fd5b5050505061300c816040518060600160405280602a815260200161450d602a9139612d39565b61380d613b92565b8161381c57613401600161385b565b613824613b92565b5060408051602081019091528351815260015b83811015613853576138498286612551565b9150600101613837565b509392505050565b613863613b92565b60408051602081019091528061388784670de0b6b3a764000063ffffffff611fae16565b905292915050565b5190511490565b61300c816040518060400160405280601c81526020017f436f6d7074726f6c6c65723a206e6f7420656e6f756768206465627400000000815250612fd8565b6138dd613b92565b50604080516020810190915267016345785d8a0000815290565b603290565b8015612bb95761390a610f4c565b6001600160a01b03166340c10f19613920610918565b836040518363ffffffff1660e01b815260040161393e9291906141ed565b602060405180830381600087803b15801561395857600080fd5b505af115801561396c573d6000803e3d6000fd5b505050506040513d601f19601f820116820180604052506126319190810190613d75565b613998610f4c565b6001600160a01b03166340c10f1930836040518363ffffffff1660e01b81526004016139c59291906141ed565b602060405180830381600087803b1580156139df57600080fd5b505af11580156139f3573d6000803e3d6000fd5b505050506040513d601f19601f82011682018060405250613a179190810190613d75565b5061300c81613ac1565b613a646000613a2e610e00565b116a21b7b6b83a3937b63632b960a91b7f43616e74206d696e7420746f20656d70747920706f6f6c000000000000000000611f2f565b6000613a8360646109b4613a766138f7565b859063ffffffff611fae16565b90506000818311613a95576000613aa5565b613aa5838363ffffffff61220016565b9050613ab0826138fc565b613ab981613ada565b61190e612d54565b600654613ad4908263ffffffff61214c16565b60065550565b8015612bb957613ae8610f4c565b6001600160a01b03166340c10f1930836040518363ffffffff1660e01b8152600401613b159291906141ed565b602060405180830381600087803b158015613b2f57600080fd5b505af1158015613b43573d6000803e3d6000fd5b505050506040513d601f19601f82011682018060405250613b679190810190613d75565b50612bb9816124dc565b60405180606001604052806000815260200160008152602001600081525090565b6040518060200160405280600081525090565b80356108dc81614424565b80516108dc81614438565b80356108dc81614441565b600060208284031215613bd857600080fd5b613be2602061435a565b90506000613bf08484613c04565b82525092915050565b80356108dc8161444e565b80516108dc8161444e565b600060208284031215613c2157600080fd5b60006128be8484613ba5565b60008060408385031215613c4057600080fd5b6000613c4c8585613ba5565b9250506020613c5d85828601613ba5565b9150509250929050565b600080600060608486031215613c7c57600080fd5b6000613c888686613ba5565b9350506020613c9986828701613ba5565b9250506040613caa86828701613bf9565b9150509250925092565b60008060008060808587031215613cca57600080fd5b6000613cd68787613ba5565b9450506020613ce787828801613ba5565b9350506040613cf887828801613bf9565b9250506060613d0987828801613bf9565b91505092959194509250565b60008060408385031215613d2857600080fd5b6000613d348585613ba5565b9250506020613c5d85828601613bbb565b60008060408385031215613d5857600080fd5b6000613d648585613ba5565b9250506020613c5d85828601613bf9565b600060208284031215613d8757600080fd5b60006128be8484613bb0565b60008060408385031215613da657600080fd5b6000613db28585613bc6565b9250506020613c5d85828601613bb0565b600060208284031215613dd557600080fd5b60006128be8484613bf9565b600060208284031215613df357600080fd5b60006128be8484613c04565b60008060408385031215613e1257600080fd5b6000613d648585613bf9565b600080600060608486031215613e3357600080fd5b6000613e3f8686613bf9565b9350506020613c9986828701613bf9565b613e59816143c7565b82525050565b613e598161438e565b613e5981614399565b613e59613e7d8261439e565b6108d6565b613e59613e7d826108d6565b6000613e9982614381565b613ea381856108f5565b9350613eb38185602086016143e4565b9290920192915050565b613e59816143ce565b613e59816143d9565b6000613eda82614381565b613ee48185614385565b9350613ef48185602086016143e4565b613efd81614410565b9093019392505050565b6000613f14601b83614385565b7f536166654d6174683a206164646974696f6e206f766572666c6f770000000000815260200192915050565b6000613f4d602b83614385565b7f4d61726b65743a20436f75706f6e207472616e7366657220746f20746865207a81526a65726f206164647265737360a81b602082015260400192915050565b6000613f9a602183614385565b7f536166654d6174683a206d756c7469706c69636174696f6e206f766572666c6f8152607760f81b602082015260400192915050565b6000613fdd603b83614385565b7f43616e6e6f742073657420612070726f787920696d706c656d656e746174696f81527f6e20746f2061206e6f6e2d636f6e747261637420616464726573730000000000602082015260400192915050565b600061403c600b83614385565b6a6d61726b657420646f6e6560a81b815260200192915050565b6000614063602a83614385565b7f4d61726b65743a20436f75706f6e20617070726f766520746f20746865207a65815269726f206164647265737360b01b602082015260400192915050565b60006140af602d83614385565b7f4d61726b65743a20436f75706f6e207472616e736665722066726f6d2074686581526c207a65726f206164647265737360981b602082015260400192915050565b60006140fe601b83614385565b7f4d61726b65743a20546f6f206561726c7920746f2072656465656d0000000000815260200192915050565b613e59816108d6565b613e59816143c1565b60006141488284613e82565b50602001919050565b60006109368284613e8e565b60006141698286613e8e565b91506141758285613e71565b6002820191506141858284613e8e565b95945050505050565b602081016108dc8284613e5f565b606081016141aa8286613e50565b6141b76020830185613e5f565b6128be604083018461412a565b604081016141d28285613e50565b610936602083018461412a565b606081016141aa8286613e5f565b604081016141d28285613e5f565b602081016108dc8284613e68565b602081016108dc8284613ebd565b602081016108dc8284613ec6565b604081016141d28285613ec6565b602080825281016109368184613ecf565b602080825281016108dc81613f07565b602080825281016108dc81613f40565b602080825281016108dc81613f8d565b602080825281016108dc81613fd0565b602080825281016108dc81614056565b602080825281016108dc816140a2565b602080825281016108dc816140f1565b602081016108dc828461412a565b604081016141d2828561412a565b606081016142de828561412a565b6142eb602083018461412a565b81810360408301526128be8161402f565b6060810161430a828661412a565b6141b7602083018561412a565b60808101614325828761412a565b614332602083018661412a565b61433f604083018561412a565b614185606083018461412a565b602081016108dc8284614133565b60405181810167ffffffffffffffff8111828210171561437957600080fd5b604052919050565b5190565b90815260200190565b60006108dc826143b5565b151590565b6001600160f01b03191690565b806108f58161441a565b6001600160a01b031690565b60ff1690565b60006108dc825b60006108dc8261438e565b60006108dc826143ab565b60005b838110156143ff5781810151838201526020016143e7565b838111156128935750506000910152565b601f01601f191690565b60038110612bb957fe5b61442d8161438e565b8114612bb957600080fd5b61442d81614399565b60038110612bb957600080fd5b61442d816108d656fe4d61726b65743a20496e73756666696369656e7420636f75706f6e2062616c616e6365426f6e64696e673a20696e73756666696369656e74207374616765642062616c616e63654d61726b65743a20496e73756666696369656e7420636f75706f6e20617070726f76616c426f6e64696e673a20696e73756666696369656e7420746f74616c20626f6e646564436f6d7074726f6c6c65723a206e6f7420656e6f756768206f75747374616e64696e672064656274436f6d7074726f6c6c65723a206e6f7420656e6f7567682072656465656d61626c652062616c616e6365a365627a7a723158201baa7ba166910496144589de679c86f05d8087c0aeb1ae49a918f7493866f4c46c6578706572696d656e74616cf564736f6c63430005110040",
  "source": "/*\n    Copyright 2020 Freq Set Dollar <freqsetdollar@gmail.com>\n\n    Licensed under the Apache License, Version 2.0 (the \"License\");\n    you may not use this file except in compliance with the License.\n    You may obtain a copy of the License at\n\n    http://www.apache.org/licenses/LICENSE-2.0\n\n    Unless required by applicable law or agreed to in writing, software\n    distributed under the License is distributed on an \"AS IS\" BASIS,\n    WITHOUT WARRANTIES OR CONDITIONS OF ANY KIND, either express or implied.\n    See the License for the specific language governing permissions and\n    limitations under the License.\n*/\n\npragma solidity ^0.5.17;\npragma experimental ABIEncoderV2;\n\nimport \"@openzeppelin/contracts/math/SafeMath.sol\";\nimport \"./Market.sol\";\nimport \"./Regulator.sol\";\nimport \"./Bonding.sol\";\nimport \"./Govern.sol\";\nimport \"../oracle/Oracle.sol\";\nimport \"../Constants.sol\";\n\ncontract Implementation is State, Bonding, Market, Regulator, Govern {\n    using SafeMath for uint256;\n\n    event Advance(uint256 indexed epoch, uint256 block, uint256 timestamp, string res);\n    event Incentivization(address indexed account, uint256 amount);\n    \n    function initialize() initializer public {\n    }\n\n    function advance() external incentivized {\n        Bonding.step();\n        Regulator.step();\n        Market.step();\n        emit Advance(epoch(), block.number, block.timestamp, \"market done\");\n    }\n\n    modifier incentivized {\n        // Mint advance reward to sender\n        uint256 incentive = Constants.getAdvanceIncentive();\n        mintToAccount(msg.sender, incentive);\n        emit Incentivization(msg.sender, incentive);\n        _;\n    }\n}\n",
  "sourcePath": "/Users/lileihuang/bytedance/fsd/protocol/contracts/dao/Implementation.sol",
  "compiler": {
    "name": "solc",
    "version": "0.5.17+commit.d19bba13.Emscripten.clang"
  },
  "schemaVersion": "3.3.1",
  "updatedAt": "2021-01-07T05:51:32.261Z",
  "networkType": "ethereum",
  "devdoc": {
    "methods": {}
  },
  "userdoc": {
    "methods": {
      "balanceOfStaged(address)": {
        "notice": "Account"
      },
      "dollar()": {
        "notice": "Global"
      },
      "epoch()": {
        "notice": "Epoch"
      },
      "name()": {
        "notice": "ERC20 Interface"
      },
      "recordedVote(address,address)": {
        "notice": "Governance"
      },
      "transfer(address,uint256)": {
        "notice": "ERC20 Interface"
      }
    }
  }
}