{
  "contractName": "Market",
  "abi": [
    {
      "anonymous": false,
      "inputs": [
        {
          "indexed": true,
          "internalType": "address",
          "name": "owner",
          "type": "address"
        },
        {
          "indexed": true,
          "internalType": "address",
          "name": "spender",
          "type": "address"
        },
        {
          "indexed": false,
          "internalType": "uint256",
          "name": "value",
          "type": "uint256"
        }
      ],
      "name": "CouponApproval",
      "type": "event"
    },
    {
      "anonymous": false,
      "inputs": [
        {
          "indexed": true,
          "internalType": "address",
          "name": "account",
          "type": "address"
        },
        {
          "indexed": true,
          "internalType": "uint256",
          "name": "epoch",
          "type": "uint256"
        },
        {
          "indexed": false,
          "internalType": "uint256",
          "name": "couponAmount",
          "type": "uint256"
        }
      ],
      "name": "CouponBurn",
      "type": "event"
    },
    {
      "anonymous": false,
      "inputs": [
        {
          "indexed": true,
          "internalType": "uint256",
          "name": "epoch",
          "type": "uint256"
        },
        {
          "indexed": false,
          "internalType": "uint256",
          "name": "couponsExpired",
          "type": "uint256"
        },
        {
          "indexed": false,
          "internalType": "uint256",
          "name": "lessRedeemable",
          "type": "uint256"
        },
        {
          "indexed": false,
          "internalType": "uint256",
          "name": "lessDebt",
          "type": "uint256"
        },
        {
          "indexed": false,
          "internalType": "uint256",
          "name": "newBonded",
          "type": "uint256"
        }
      ],
      "name": "CouponExpiration",
      "type": "event"
    },
    {
      "anonymous": false,
      "inputs": [
        {
          "indexed": true,
          "internalType": "address",
          "name": "account",
          "type": "address"
        },
        {
          "indexed": true,
          "internalType": "uint256",
          "name": "epoch",
          "type": "uint256"
        },
        {
          "indexed": false,
          "internalType": "uint256",
          "name": "dollarAmount",
          "type": "uint256"
        },
        {
          "indexed": false,
          "internalType": "uint256",
          "name": "couponAmount",
          "type": "uint256"
        }
      ],
      "name": "CouponPurchase",
      "type": "event"
    },
    {
      "anonymous": false,
      "inputs": [
        {
          "indexed": true,
          "internalType": "address",
          "name": "account",
          "type": "address"
        },
        {
          "indexed": true,
          "internalType": "uint256",
          "name": "epoch",
          "type": "uint256"
        },
        {
          "indexed": false,
          "internalType": "uint256",
          "name": "couponAmount",
          "type": "uint256"
        }
      ],
      "name": "CouponRedemption",
      "type": "event"
    },
    {
      "anonymous": false,
      "inputs": [
        {
          "indexed": true,
          "internalType": "address",
          "name": "from",
          "type": "address"
        },
        {
          "indexed": true,
          "internalType": "address",
          "name": "to",
          "type": "address"
        },
        {
          "indexed": true,
          "internalType": "uint256",
          "name": "epoch",
          "type": "uint256"
        },
        {
          "indexed": false,
          "internalType": "uint256",
          "name": "value",
          "type": "uint256"
        }
      ],
      "name": "CouponTransfer",
      "type": "event"
    },
    {
      "anonymous": false,
      "inputs": [
        {
          "indexed": true,
          "internalType": "address",
          "name": "from",
          "type": "address"
        },
        {
          "indexed": true,
          "internalType": "address",
          "name": "to",
          "type": "address"
        },
        {
          "indexed": false,
          "internalType": "uint256",
          "name": "value",
          "type": "uint256"
        }
      ],
      "name": "Transfer",
      "type": "event"
    },
    {
      "constant": true,
      "inputs": [
        {
          "internalType": "address",
          "name": "owner",
          "type": "address"
        },
        {
          "internalType": "address",
          "name": "spender",
          "type": "address"
        }
      ],
      "name": "allowance",
      "outputs": [
        {
          "internalType": "uint256",
          "name": "",
          "type": "uint256"
        }
      ],
      "payable": false,
      "stateMutability": "view",
      "type": "function"
    },
    {
      "constant": true,
      "inputs": [
        {
          "internalType": "address",
          "name": "owner",
          "type": "address"
        },
        {
          "internalType": "address",
          "name": "spender",
          "type": "address"
        }
      ],
      "name": "allowanceCoupons",
      "outputs": [
        {
          "internalType": "uint256",
          "name": "",
          "type": "uint256"
        }
      ],
      "payable": false,
      "stateMutability": "view",
      "type": "function"
    },
    {
      "constant": false,
      "inputs": [
        {
          "internalType": "address",
          "name": "spender",
          "type": "address"
        },
        {
          "internalType": "uint256",
          "name": "amount",
          "type": "uint256"
        }
      ],
      "name": "approve",
      "outputs": [
        {
          "internalType": "bool",
          "name": "",
          "type": "bool"
        }
      ],
      "payable": false,
      "stateMutability": "nonpayable",
      "type": "function"
    },
    {
      "constant": true,
      "inputs": [
        {
          "internalType": "address",
          "name": "candidate",
          "type": "address"
        }
      ],
      "name": "approveFor",
      "outputs": [
        {
          "internalType": "uint256",
          "name": "",
          "type": "uint256"
        }
      ],
      "payable": false,
      "stateMutability": "view",
      "type": "function"
    },
    {
      "constant": true,
      "inputs": [
        {
          "internalType": "address",
          "name": "account",
          "type": "address"
        }
      ],
      "name": "balanceOf",
      "outputs": [
        {
          "internalType": "uint256",
          "name": "",
          "type": "uint256"
        }
      ],
      "payable": false,
      "stateMutability": "view",
      "type": "function"
    },
    {
      "constant": true,
      "inputs": [
        {
          "internalType": "address",
          "name": "account",
          "type": "address"
        }
      ],
      "name": "balanceOfBonded",
      "outputs": [
        {
          "internalType": "uint256",
          "name": "",
          "type": "uint256"
        }
      ],
      "payable": false,
      "stateMutability": "view",
      "type": "function"
    },
    {
      "constant": true,
      "inputs": [
        {
          "internalType": "address",
          "name": "account",
          "type": "address"
        },
        {
          "internalType": "uint256",
          "name": "epoch",
          "type": "uint256"
        }
      ],
      "name": "balanceOfCoupons",
      "outputs": [
        {
          "internalType": "uint256",
          "name": "",
          "type": "uint256"
        }
      ],
      "payable": false,
      "stateMutability": "view",
      "type": "function"
    },
    {
      "constant": true,
      "inputs": [
        {
          "internalType": "address",
          "name": "account",
          "type": "address"
        }
      ],
      "name": "balanceOfStaged",
      "outputs": [
        {
          "internalType": "uint256",
          "name": "",
          "type": "uint256"
        }
      ],
      "payable": false,
      "stateMutability": "view",
      "type": "function"
    },
    {
      "constant": true,
      "inputs": [
        {
          "internalType": "uint256",
          "name": "epoch",
          "type": "uint256"
        }
      ],
      "name": "bootstrappingAt",
      "outputs": [
        {
          "internalType": "bool",
          "name": "",
          "type": "bool"
        }
      ],
      "payable": false,
      "stateMutability": "view",
      "type": "function"
    },
    {
      "constant": true,
      "inputs": [
        {
          "internalType": "uint256",
          "name": "epoch",
          "type": "uint256"
        }
      ],
      "name": "couponsExpiration",
      "outputs": [
        {
          "internalType": "uint256",
          "name": "",
          "type": "uint256"
        }
      ],
      "payable": false,
      "stateMutability": "view",
      "type": "function"
    },
    {
      "constant": true,
      "inputs": [],
      "name": "decimals",
      "outputs": [
        {
          "internalType": "uint8",
          "name": "",
          "type": "uint8"
        }
      ],
      "payable": false,
      "stateMutability": "view",
      "type": "function"
    },
    {
      "constant": true,
      "inputs": [],
      "name": "dollar",
      "outputs": [
        {
          "internalType": "contract IDollar",
          "name": "",
          "type": "address"
        }
      ],
      "payable": false,
      "stateMutability": "view",
      "type": "function"
    },
    {
      "constant": true,
      "inputs": [],
      "name": "epoch",
      "outputs": [
        {
          "internalType": "uint256",
          "name": "",
          "type": "uint256"
        }
      ],
      "payable": false,
      "stateMutability": "view",
      "type": "function"
    },
    {
      "constant": true,
      "inputs": [],
      "name": "epochTime",
      "outputs": [
        {
          "internalType": "uint256",
          "name": "",
          "type": "uint256"
        }
      ],
      "payable": false,
      "stateMutability": "view",
      "type": "function"
    },
    {
      "constant": true,
      "inputs": [
        {
          "internalType": "uint256",
          "name": "epoch",
          "type": "uint256"
        }
      ],
      "name": "expiringCoupons",
      "outputs": [
        {
          "internalType": "uint256",
          "name": "",
          "type": "uint256"
        }
      ],
      "payable": false,
      "stateMutability": "view",
      "type": "function"
    },
    {
      "constant": true,
      "inputs": [
        {
          "internalType": "uint256",
          "name": "epoch",
          "type": "uint256"
        },
        {
          "internalType": "uint256",
          "name": "i",
          "type": "uint256"
        }
      ],
      "name": "expiringCouponsAtIndex",
      "outputs": [
        {
          "internalType": "uint256",
          "name": "",
          "type": "uint256"
        }
      ],
      "payable": false,
      "stateMutability": "view",
      "type": "function"
    },
    {
      "constant": true,
      "inputs": [
        {
          "internalType": "address",
          "name": "account",
          "type": "address"
        }
      ],
      "name": "fluidUntil",
      "outputs": [
        {
          "internalType": "uint256",
          "name": "",
          "type": "uint256"
        }
      ],
      "payable": false,
      "stateMutability": "view",
      "type": "function"
    },
    {
      "constant": true,
      "inputs": [],
      "name": "implementation",
      "outputs": [
        {
          "internalType": "address",
          "name": "impl",
          "type": "address"
        }
      ],
      "payable": false,
      "stateMutability": "view",
      "type": "function"
    },
    {
      "constant": true,
      "inputs": [
        {
          "internalType": "address",
          "name": "candidate",
          "type": "address"
        }
      ],
      "name": "isInitialized",
      "outputs": [
        {
          "internalType": "bool",
          "name": "",
          "type": "bool"
        }
      ],
      "payable": false,
      "stateMutability": "view",
      "type": "function"
    },
    {
      "constant": true,
      "inputs": [
        {
          "internalType": "address",
          "name": "candidate",
          "type": "address"
        }
      ],
      "name": "isNominated",
      "outputs": [
        {
          "internalType": "bool",
          "name": "",
          "type": "bool"
        }
      ],
      "payable": false,
      "stateMutability": "view",
      "type": "function"
    },
    {
      "constant": true,
      "inputs": [
        {
          "internalType": "address",
          "name": "account",
          "type": "address"
        }
      ],
      "name": "lockedUntil",
      "outputs": [
        {
          "internalType": "uint256",
          "name": "",
          "type": "uint256"
        }
      ],
      "payable": false,
      "stateMutability": "view",
      "type": "function"
    },
    {
      "constant": true,
      "inputs": [],
      "name": "name",
      "outputs": [
        {
          "internalType": "string",
          "name": "",
          "type": "string"
        }
      ],
      "payable": false,
      "stateMutability": "view",
      "type": "function"
    },
    {
      "constant": true,
      "inputs": [],
      "name": "oracle",
      "outputs": [
        {
          "internalType": "contract IOracle",
          "name": "",
          "type": "address"
        }
      ],
      "payable": false,
      "stateMutability": "view",
      "type": "function"
    },
    {
      "constant": true,
      "inputs": [
        {
          "internalType": "uint256",
          "name": "epoch",
          "type": "uint256"
        }
      ],
      "name": "outstandingCoupons",
      "outputs": [
        {
          "internalType": "uint256",
          "name": "",
          "type": "uint256"
        }
      ],
      "payable": false,
      "stateMutability": "view",
      "type": "function"
    },
    {
      "constant": true,
      "inputs": [
        {
          "internalType": "address",
          "name": "candidate",
          "type": "address"
        }
      ],
      "name": "periodFor",
      "outputs": [
        {
          "internalType": "uint256",
          "name": "",
          "type": "uint256"
        }
      ],
      "payable": false,
      "stateMutability": "view",
      "type": "function"
    },
    {
      "constant": true,
      "inputs": [],
      "name": "pool",
      "outputs": [
        {
          "internalType": "address",
          "name": "",
          "type": "address"
        }
      ],
      "payable": false,
      "stateMutability": "view",
      "type": "function"
    },
    {
      "constant": true,
      "inputs": [
        {
          "internalType": "address",
          "name": "account",
          "type": "address"
        },
        {
          "internalType": "address",
          "name": "candidate",
          "type": "address"
        }
      ],
      "name": "recordedVote",
      "outputs": [
        {
          "internalType": "enum Candidate.Vote",
          "name": "",
          "type": "uint8"
        }
      ],
      "payable": false,
      "stateMutability": "view",
      "type": "function"
    },
    {
      "constant": true,
      "inputs": [
        {
          "internalType": "address",
          "name": "candidate",
          "type": "address"
        }
      ],
      "name": "rejectFor",
      "outputs": [
        {
          "internalType": "uint256",
          "name": "",
          "type": "uint256"
        }
      ],
      "payable": false,
      "stateMutability": "view",
      "type": "function"
    },
    {
      "constant": true,
      "inputs": [
        {
          "internalType": "address",
          "name": "candidate",
          "type": "address"
        }
      ],
      "name": "startFor",
      "outputs": [
        {
          "internalType": "uint256",
          "name": "",
          "type": "uint256"
        }
      ],
      "payable": false,
      "stateMutability": "view",
      "type": "function"
    },
    {
      "constant": true,
      "inputs": [
        {
          "internalType": "address",
          "name": "account",
          "type": "address"
        }
      ],
      "name": "statusOf",
      "outputs": [
        {
          "internalType": "enum Account.Status",
          "name": "",
          "type": "uint8"
        }
      ],
      "payable": false,
      "stateMutability": "view",
      "type": "function"
    },
    {
      "constant": true,
      "inputs": [],
      "name": "symbol",
      "outputs": [
        {
          "internalType": "string",
          "name": "",
          "type": "string"
        }
      ],
      "payable": false,
      "stateMutability": "view",
      "type": "function"
    },
    {
      "constant": true,
      "inputs": [],
      "name": "totalBonded",
      "outputs": [
        {
          "internalType": "uint256",
          "name": "",
          "type": "uint256"
        }
      ],
      "payable": false,
      "stateMutability": "view",
      "type": "function"
    },
    {
      "constant": true,
      "inputs": [
        {
          "internalType": "uint256",
          "name": "epoch",
          "type": "uint256"
        }
      ],
      "name": "totalBondedAt",
      "outputs": [
        {
          "internalType": "uint256",
          "name": "",
          "type": "uint256"
        }
      ],
      "payable": false,
      "stateMutability": "view",
      "type": "function"
    },
    {
      "constant": true,
      "inputs": [],
      "name": "totalCoupons",
      "outputs": [
        {
          "internalType": "uint256",
          "name": "",
          "type": "uint256"
        }
      ],
      "payable": false,
      "stateMutability": "view",
      "type": "function"
    },
    {
      "constant": true,
      "inputs": [],
      "name": "totalDebt",
      "outputs": [
        {
          "internalType": "uint256",
          "name": "",
          "type": "uint256"
        }
      ],
      "payable": false,
      "stateMutability": "view",
      "type": "function"
    },
    {
      "constant": true,
      "inputs": [],
      "name": "totalNet",
      "outputs": [
        {
          "internalType": "uint256",
          "name": "",
          "type": "uint256"
        }
      ],
      "payable": false,
      "stateMutability": "view",
      "type": "function"
    },
    {
      "constant": true,
      "inputs": [],
      "name": "totalRedeemable",
      "outputs": [
        {
          "internalType": "uint256",
          "name": "",
          "type": "uint256"
        }
      ],
      "payable": false,
      "stateMutability": "view",
      "type": "function"
    },
    {
      "constant": true,
      "inputs": [],
      "name": "totalStaged",
      "outputs": [
        {
          "internalType": "uint256",
          "name": "",
          "type": "uint256"
        }
      ],
      "payable": false,
      "stateMutability": "view",
      "type": "function"
    },
    {
      "constant": true,
      "inputs": [],
      "name": "totalSupply",
      "outputs": [
        {
          "internalType": "uint256",
          "name": "",
          "type": "uint256"
        }
      ],
      "payable": false,
      "stateMutability": "view",
      "type": "function"
    },
    {
      "constant": false,
      "inputs": [
        {
          "internalType": "address",
          "name": "recipient",
          "type": "address"
        },
        {
          "internalType": "uint256",
          "name": "amount",
          "type": "uint256"
        }
      ],
      "name": "transfer",
      "outputs": [
        {
          "internalType": "bool",
          "name": "",
          "type": "bool"
        }
      ],
      "payable": false,
      "stateMutability": "nonpayable",
      "type": "function"
    },
    {
      "constant": false,
      "inputs": [
        {
          "internalType": "address",
          "name": "sender",
          "type": "address"
        },
        {
          "internalType": "address",
          "name": "recipient",
          "type": "address"
        },
        {
          "internalType": "uint256",
          "name": "amount",
          "type": "uint256"
        }
      ],
      "name": "transferFrom",
      "outputs": [
        {
          "internalType": "bool",
          "name": "",
          "type": "bool"
        }
      ],
      "payable": false,
      "stateMutability": "nonpayable",
      "type": "function"
    },
    {
      "constant": true,
      "inputs": [
        {
          "internalType": "address",
          "name": "candidate",
          "type": "address"
        }
      ],
      "name": "votesFor",
      "outputs": [
        {
          "internalType": "uint256",
          "name": "",
          "type": "uint256"
        }
      ],
      "payable": false,
      "stateMutability": "view",
      "type": "function"
    },
    {
      "constant": true,
      "inputs": [
        {
          "internalType": "uint256",
          "name": "amount",
          "type": "uint256"
        }
      ],
      "name": "couponPremium",
      "outputs": [
        {
          "internalType": "uint256",
          "name": "",
          "type": "uint256"
        }
      ],
      "payable": false,
      "stateMutability": "view",
      "type": "function"
    },
    {
      "constant": true,
      "inputs": [
        {
          "internalType": "uint256",
          "name": "couponEpoch",
          "type": "uint256"
        },
        {
          "internalType": "uint256",
          "name": "couponAmount",
          "type": "uint256"
        }
      ],
      "name": "couponRedemptionPenalty",
      "outputs": [
        {
          "internalType": "uint256",
          "name": "",
          "type": "uint256"
        }
      ],
      "payable": false,
      "stateMutability": "view",
      "type": "function"
    },
    {
      "constant": false,
      "inputs": [
        {
          "internalType": "uint256",
          "name": "dollarAmount",
          "type": "uint256"
        }
      ],
      "name": "purchaseCoupons",
      "outputs": [
        {
          "internalType": "uint256",
          "name": "",
          "type": "uint256"
        }
      ],
      "payable": false,
      "stateMutability": "nonpayable",
      "type": "function"
    },
    {
      "constant": false,
      "inputs": [
        {
          "internalType": "uint256",
          "name": "couponEpoch",
          "type": "uint256"
        },
        {
          "internalType": "uint256",
          "name": "couponAmount",
          "type": "uint256"
        },
        {
          "internalType": "uint256",
          "name": "minOutput",
          "type": "uint256"
        }
      ],
      "name": "redeemCoupons",
      "outputs": [],
      "payable": false,
      "stateMutability": "nonpayable",
      "type": "function"
    },
    {
      "constant": false,
      "inputs": [
        {
          "internalType": "uint256",
          "name": "couponEpoch",
          "type": "uint256"
        },
        {
          "internalType": "uint256",
          "name": "couponAmount",
          "type": "uint256"
        }
      ],
      "name": "redeemCoupons",
      "outputs": [],
      "payable": false,
      "stateMutability": "nonpayable",
      "type": "function"
    },
    {
      "constant": false,
      "inputs": [
        {
          "internalType": "address",
          "name": "spender",
          "type": "address"
        },
        {
          "internalType": "uint256",
          "name": "amount",
          "type": "uint256"
        }
      ],
      "name": "approveCoupons",
      "outputs": [],
      "payable": false,
      "stateMutability": "nonpayable",
      "type": "function"
    },
    {
      "constant": false,
      "inputs": [
        {
          "internalType": "address",
          "name": "sender",
          "type": "address"
        },
        {
          "internalType": "address",
          "name": "recipient",
          "type": "address"
        },
        {
          "internalType": "uint256",
          "name": "epoch",
          "type": "uint256"
        },
        {
          "internalType": "uint256",
          "name": "amount",
          "type": "uint256"
        }
      ],
      "name": "transferCoupons",
      "outputs": [],
      "payable": false,
      "stateMutability": "nonpayable",
      "type": "function"
    }
  ],
  "bytecode": "0x608060405234801561001057600080fd5b506124fb806100206000396000f3fe608060405234801561001057600080fd5b50600436106102ba5760003560e01c80637dc0d1d011610182578063a9059cbb116100e9578063d6a9cf08116100a2578063e5f55c7e1161007c578063e5f55c7e146105bf578063f1b7cf49146105d2578063fc7b9c18146105e5578063ffbe3b73146105ed576102ba565b8063d6a9cf081461058b578063d8f541381461059e578063dd62ed3e146105b1576102ba565b8063a9059cbb146102f2578063bc0b1df614610537578063bc7513e21461054a578063c9aff70c1461055d578063cf02377914610570578063d60b347f14610578576102ba565b80639a649edc1161013b5780639a649edc146104db5780639bc289f1146104e35780639f6e1b26146104f6578063a1eb31e814610509578063a50cd8e71461051c578063a6c409f11461052f576102ba565b80637dc0d1d01461048a578063825ad6071461049257806386cf9f14146104a5578063900cf0cf146104b857806395d89b41146104c057806397a5d5b5146104c8576102ba565b80633a3e6c811161022657806351bf21d8116101df57806351bf21d8146104235780635c60da1b14610436578063646680221461043e5780636a39e3281461045157806370a082311461046457806375d5024b14610477576102ba565b80633a3e6c81146103b85780633fbba9a6146103cb57806344d96e95146103eb5780634c736099146103f35780635053e4611461040657806351adeb571461040e576102ba565b806318160ddd1161027857806318160ddd1461035a5780631edbcf6c1461036257806323b872dd1461036a5780632f7f889e1461037d578063313ce56714610390578063353a420c146103a5576102ba565b80625edd37146102bf57806306fdde03146102d4578063095ea7b3146102f257806310e95b6c1461031257806315e14bf61461033257806316f0115b14610345575b600080fd5b6102d26102cd366004611e5e565b610600565b005b6102dc610723565b6040516102e991906122b8565b60405180910390f35b610305610300366004611ebf565b610752565b6040516102e9919061228e565b610325610320366004611f0d565b61075b565b6040516102e99190612329565b610325610340366004611db9565b610773565b61034d610791565b6040516102e9919061223d565b6103256107a0565b6103256107a6565b610305610378366004611e11565b6107ac565b6102d261038b366004611ebf565b6107b6565b610398610836565b6040516102e99190612345565b6103256103b3366004611db9565b61083b565b6103056103c6366004611db9565b610859565b6103de6103d9366004611dd7565b610876565b6040516102e991906122aa565b6103256108a9565b610325610401366004611f49565b6108af565b6103256108df565b610416610902565b6040516102e9919061229c565b610325610431366004611db9565b610911565b61034d61092f565b61032561044c366004611db9565b610954565b61032561045f366004611f0d565b610972565b610325610472366004611db9565b610987565b610305610485366004611f0d565b6109a5565b6104166109b8565b6103256104a0366004611db9565b6109c7565b6103256104b3366004611db9565b610a13565b610325610a2e565b6102dc610a34565b6103de6104d6366004611db9565b610a52565b610325610ab7565b6103256104f1366004611db9565b610abd565b610325610504366004611dd7565b610adb565b610325610517366004611f49565b610b0a565b61032561052a366004611db9565b610c30565b610325610c53565b6102d2610545366004611f68565b610ce9565b610325610558366004611ebf565b610e1d565b61032561056b366004611f0d565b610e61565b610325610e76565b610305610586366004611db9565b610e7c565b6102d2610599366004611f49565b610e9d565b6103256105ac366004611f0d565b610f99565b610325610300366004611dd7565b6103256105cd366004611f0d565b611024565b6103256105e0366004611db9565b611116565b610325611131565b6103256105fb366004611f0d565b611137565b6001600160a01b03841661062f5760405162461bcd60e51b815260040161062690612309565b60405180910390fd5b6001600160a01b0383166106555760405162461bcd60e51b8152600401610626906122d9565b61067984838360405180606001604052806023815260200161242060239139611149565b6106848383836111f4565b336001600160a01b038516148015906106a857506000196106a58533610adb565b14155b156106d1576106d18433836040518060600160405280602481526020016124436024913961129b565b81836001600160a01b0316856001600160a01b03167f0f1dbb1ccbe57a1590c7baad7b01d581b730c9ebc535dcde4345e6db424063d8846040516107159190612329565b60405180910390a450505050565b604080518082019091526015815274467265712053657420446f6c6c6172205374616b6560581b602082015290565b60005b92915050565b6000818152600d60205260409020600201545b919050565b6001600160a01b03166000908152600e602052604090206001015490565b600b546001600160a01b031690565b60035490565b60065490565b60005b9392505050565b6001600160a01b0382166107dc5760405162461bcd60e51b8152600401610626906122f9565b6107e733838361130c565b816001600160a01b0316336001600160a01b03167f8ff27e6b95060c1ca851e7c2c28af8b413eb1a8bcb637b0290da9543a709cce38360405161082a9190612329565b60405180910390a35050565b601290565b6001600160a01b03166000908152600e602052604090206003015490565b6001600160a01b03166000908152600e6020526040902054151590565b6001600160a01b038082166000908152600e60209081526040808320938616835260049093019052205460ff1692915050565b60045490565b6000828152600d602052604081206003018054839081106108cc57fe5b9060005260206000200154905092915050565b60006108e9611d59565b6108f161133c565b90506108fc8161136b565b91505090565b6009546001600160a01b031690565b6001600160a01b03166000908152600c602052604090206004015490565b7f360894a13ba1a3210667c828492db98dca3e2076cc3735a920a3ca505d382bbc5490565b6001600160a01b03166000908152600e602052604090206002015490565b6000908152600d602052604090206003015490565b6001600160a01b03166000908152600c602052604090206001015490565b60006109af61138d565b90911115919050565b600a546001600160a01b031690565b6000806109d26107a0565b9050806109e357600091505061076e565b6107af81610a076109f386610987565b6109fb6108a9565b9063ffffffff61139216565b9063ffffffff6113cc16565b6001600160a01b03166000908152600c602052604090205490565b60025490565b6040805180820190915260048152634653445360e01b602082015290565b6000610a5c610a2e565b6001600160a01b0383166000908152600c60205260409020600501541115610a865750600261076e565b6001600160a01b0382166000908152600c6020526040902060040154610aaa610a2e565b1015610752576001610755565b60085490565b6001600160a01b03166000908152600c602052604090206005015490565b6001600160a01b039182166000908152600c602090815260408083209390941682526003909201909152205490565b600080610b1561133c565b604001514281610b2157fe5b069050600084610b2f610a2e565b0390506000610b3c61140e565b82610b4561140e565b03610b4e611414565b0281610b5657fe5b04905080831115610b6d5760009350505050610755565b610b75611d7a565b610bc8604051806020016040528085610b8c61140e565b03815250610bbc6040518060200160405280610ba661140e565b9052610bb061141a565b9063ffffffff61143c16565b9063ffffffff61147316565b9050610bd2611d7a565b604080516020808201835287860382528251908101909252848252610c0291610bbc90859063ffffffff61143c16565b6040805160208101909152888152909150610c23908263ffffffff61147316565b5198975050505050505050565b6000610755610c3e8361083b565b610c4784610954565b9063ffffffff6114a116565b6000610ce4610c60611131565b610c68610902565b6001600160a01b03166318160ddd6040518163ffffffff1660e01b815260040160206040518083038186803b158015610ca057600080fd5b505afa158015610cb4573d6000803e3d6000fd5b505050506040513d601f19601f82011682018060405250610cd89190810190611f2b565b9063ffffffff6114c616565b905090565b6002610cf784610cd8610a2e565b1015610d155760405162461bcd60e51b815260040161062690612319565b610d3933848460405180606001604052806023815260200161242060239139611149565b6000610d458484610b0a565b9050808303610d81838210156513585c9ad95d60d21b7f496e73756666696369656e74206f757470757420616d6f756e74000000000000611508565b610d8b3382611562565b8115610dd45784336001600160a01b03167f1cd1213d4276c260e84170b4a39025dc8398fbf744edee0709261769b456b94b84604051610dcb9190612329565b60405180910390a35b84336001600160a01b03167f46e9903ae8ac9e9f0c9bc321b05965c1c036e7d4783758703f5cdfc4133c51b683604051610e0e9190612329565b60405180910390a35050505050565b6000610e2882610e61565b610e3457506000610755565b506001600160a01b03919091166000908152600c6020908152604080832093835260029093019052205490565b6000908152600d602052604090206001015490565b60055490565b6001600160a01b03166000908152600e602052604090206005015460ff1690565b6002610eab83610cd8610a2e565b1015610ec95760405162461bcd60e51b815260040161062690612319565b610eed33838360405180606001604052806023815260200161242060239139611149565b6000610ef98383610b0a565b9050808203610f083382611562565b8115610f515783336001600160a01b03167f1cd1213d4276c260e84170b4a39025dc8398fbf744edee0709261769b456b94b84604051610f489190612329565b60405180910390a35b83336001600160a01b03167f46e9903ae8ac9e9f0c9bc321b05965c1c036e7d4783758703f5cdfc4133c51b683604051610f8b9190612329565b60405180910390a350505050565b6000610755610fa6610902565b6001600160a01b03166318160ddd6040518163ffffffff1660e01b815260040160206040518083038186803b158015610fde57600080fd5b505afa158015610ff2573d6000803e3d6000fd5b505050506040513d601f19601f820116820180604052506110169190810190611f2b565b61101e611131565b84611618565b600061105d600083116513585c9ad95d60d21b7f4d757374207075726368617365206e6f6e2d7a65726f20616d6f756e74000000611508565b61108d82611069611131565b10156513585c9ad95d60d21b6e139bdd08195b9bdd59da081919589d608a1b611508565b6000611097610a2e565b905060006110b46110a785610f99565b859063ffffffff6114a116565b90506110c03385611645565b6110cb3383836111f4565b81336001600160a01b03167fbce252db29f761f815dc2e9ea60005af065efba6eb619d2a0b2a113fdeb614148684604051611107929190612337565b60405180910390a39392505050565b6001600160a01b03166000908152600e602052604090205490565b60075490565b6000908152600d602052604090205490565b6001600160a01b0384166000908152600c6020908152604080832086845260020190915290205461118190838363ffffffff61175616565b6001600160a01b0385166000908152600c60209081526040808320878452600201825280832093909355600d905220600101546111c590838363ffffffff61175616565b6000848152600d60205260409020600101556008546111eb90838363ffffffff61175616565b60085550505050565b6001600160a01b0383166000908152600c6020908152604080832085845260020190915290205461122b908263ffffffff6114a116565b6001600160a01b0384166000908152600c60209081526040808320868452600201825280832093909355600d9052206001015461126e908263ffffffff6114a116565b6000838152600d6020526040902060010155600854611293908263ffffffff6114a116565b600855505050565b6001600160a01b038085166000908152600c6020908152604080832093871683526003909301905220546112d690838363ffffffff61175616565b6001600160a01b039485166000908152600c60209081526040808320969097168252600390950190945293909220929092555050565b6001600160a01b039283166000908152600c60209081526040808320949095168252600390930190925291902055565b611344611d59565b604051806060016040528060008152602001635ff535c08152602001610e10815250905090565b60006107558260000151610c478460400151610a078660200151610cd8611782565b60a890565b6000826113a157506000610755565b828202828482816113ae57fe5b04146107af5760405162461bcd60e51b8152600401610626906122e9565b60006107af83836040518060400160405280601a81526020017f536166654d6174683a206469766973696f6e206279207a65726f000000000000815250611786565b6102d090565b61070890565b611422611d7a565b506040805160208101909152670905438e60010000815290565b611444611d7a565b604051806020016040528061146a8560000151670de0b6b3a764000086600001516117bd565b90529392505050565b61147b611d7a565b604051806020016040528061146a85600001518560000151670de0b6b3a76400006117bd565b6000828201838110156107af5760405162461bcd60e51b8152600401610626906122c9565b60006107af83836040518060400160405280601e81526020017f536166654d6174683a207375627472616374696f6e206f766572666c6f770000815250611756565b8261155d57611516826117d3565b6101d160f51b611525836117d3565b6040516020016115379392919061220c565b60408051601f198184030181529082905262461bcd60e51b8252610626916004016122b8565b505050565b61156a610902565b6001600160a01b031663a9059cbb83836040518363ffffffff1660e01b8152600401611597929190612273565b602060405180830381600087803b1580156115b157600080fd5b505af11580156115c5573d6000803e3d6000fd5b505050506040513d601f19601f820116820180604052506115e99190810190611eef565b5061160c816040518060600160405280602a815260200161248f602a9139611853565b61161461186e565b5050565b600061163d6116388361162c878787611943565b9063ffffffff611ab016565b611ad7565b949350505050565b61164d610902565b6001600160a01b03166323b872dd8330846040518463ffffffff1660e01b815260040161167c9392919061224b565b602060405180830381600087803b15801561169657600080fd5b505af11580156116aa573d6000803e3d6000fd5b505050506040513d601f19601f820116820180604052506116ce9190810190611eef565b506116d7610902565b6001600160a01b03166342966c68826040518263ffffffff1660e01b81526004016117029190612329565b600060405180830381600087803b15801561171c57600080fd5b505af1158015611730573d6000803e3d6000fd5b5050505061160c8160405180606001604052806028815260200161246760289139611af4565b6000818484111561177a5760405162461bcd60e51b815260040161062691906122b8565b505050900390565b4290565b600081836117a75760405162461bcd60e51b815260040161062691906122b8565b5060008385816117b357fe5b0495945050505050565b600061163d82610a07868663ffffffff61139216565b606080826040516020016117e791906121f7565b60408051601f19818403018152919052905060205b801561183c5781516000199091019082908290811061181757fe5b01602001516001600160f81b03191615611837576001018152905061076e565b6117fc565b505060408051600081526020810190915292915050565b60065461186790838363ffffffff61175616565b6006555050565b61194161188f61187c6107a6565b610c47611887610e76565b610c476108a9565b611897610902565b6001600160a01b03166370a08231306040518263ffffffff1660e01b81526004016118c2919061223d565b60206040518083038186803b1580156118da57600080fd5b505afa1580156118ee573d6000803e3d6000fd5b505050506040513d601f19601f820116820180604052506119129190810190611f2b565b10156a21b7b6b83a3937b63632b960a91b74496e636f6e73697374656e742062616c616e63657360581b611508565b565b61194b611d7a565b611953611d7a565b61195d8486611b0f565b9050611967611d7a565b61196f611b35565b90506000611983878663ffffffff6114c616565b90506000611997878763ffffffff6114c616565b90506119a1611d7a565b6119ab8284611b0f565b90506119bd858563ffffffff611b5716565b15611a99576119d2818563ffffffff611b5716565b156119ec576119e084611b6d565b955050505050506107af565b6119f4611d7a565b6119fe8286611bc5565b9050611a08611d7a565b611a18868463ffffffff611c2216565b9050611a22611d7a565b611a2b87611b6d565b9050611a35611d7a565b611a45898963ffffffff611c2216565b9050611a89611a5a848363ffffffff611c4b16565b610bb0611a6d858563ffffffff61147316565b611a7d888863ffffffff61147316565b9063ffffffff611c4b16565b99505050505050505050506107af565b611aa38186611bc5565b9998505050505050505050565b611ab8611d7a565b60408051602081019091528351819061146a908563ffffffff61139216565b805160009061075590670de0b6b3a764000063ffffffff6113cc16565b600754611b0890838363ffffffff61175616565b6007555050565b611b17611d7a565b604051806020016040528061146a85670de0b6b3a7640000866117bd565b611b3d611d7a565b5060408051602081019091526706f05b59d3b20000815290565b6000611b638383611c74565b6002149392505050565b611b75611d7a565b610755611b8460016003611b0f565b611b9b611bbd611bb36002611ba788611b9b611ca6565b9063ffffffff611c2216565b9063ffffffff611cc816565b610bbc6003611d1e565b610bb0611ca6565b611bcd611d7a565b611bdd838363ffffffff611d5216565b15611bf257611beb83611b6d565b9050610755565b6107af611c0160016003611b0f565b611b9b611bbd611c1387611b9b611ca6565b610bbc611bb388611b9b611ca6565b611c2a611d7a565b604080516020810190915282518451829161146a919063ffffffff6114c616565b611c53611d7a565b604080516020810190915282518451829161146a919063ffffffff6114a116565b805182516000911415611c8957506001610755565b8151835111611c99576000611c9c565b60025b60ff169392505050565b611cae611d7a565b506040805160208101909152670de0b6b3a7640000815290565b611cd0611d7a565b81611cdf57611beb6001611d1e565b611ce7611d7a565b5060408051602081019091528351815260015b83811015611d1657611d0c8286611473565b9150600101611cfa565b509392505050565b611d26611d7a565b604080516020810190915280611d4a84670de0b6b3a764000063ffffffff61139216565b905292915050565b5190511490565b60405180606001604052806000815260200160008152602001600081525090565b6040518060200160405280600081525090565b8035610755816123f9565b80516107558161240d565b803561075581612416565b805161075581612416565b600060208284031215611dcb57600080fd5b600061163d8484611d8d565b60008060408385031215611dea57600080fd5b6000611df68585611d8d565b9250506020611e0785828601611d8d565b9150509250929050565b600080600060608486031215611e2657600080fd5b6000611e328686611d8d565b9350506020611e4386828701611d8d565b9250506040611e5486828701611da3565b9150509250925092565b60008060008060808587031215611e7457600080fd5b6000611e808787611d8d565b9450506020611e9187828801611d8d565b9350506040611ea287828801611da3565b9250506060611eb387828801611da3565b91505092959194509250565b60008060408385031215611ed257600080fd5b6000611ede8585611d8d565b9250506020611e0785828601611da3565b600060208284031215611f0157600080fd5b600061163d8484611d98565b600060208284031215611f1f57600080fd5b600061163d8484611da3565b600060208284031215611f3d57600080fd5b600061163d8484611dae565b60008060408385031215611f5c57600080fd5b6000611ede8585611da3565b600080600060608486031215611f7d57600080fd5b6000611f898686611da3565b9350506020611e4386828701611da3565b611fa381612360565b82525050565b611fa38161236b565b611fa3611fbe82612370565b61237d565b611fa3611fbe8261237d565b6000611fda82612353565b611fe4818561076e565b9350611ff48185602086016123b2565b9290920192915050565b611fa38161239c565b611fa3816123a7565b600061201b82612353565b6120258185612357565b93506120358185602086016123b2565b61203e816123e2565b9093019392505050565b6000612055601b83612357565b7f536166654d6174683a206164646974696f6e206f766572666c6f770000000000815260200192915050565b600061208e602b83612357565b7f4d61726b65743a20436f75706f6e207472616e7366657220746f20746865207a81526a65726f206164647265737360a81b602082015260400192915050565b60006120db602183612357565b7f536166654d6174683a206d756c7469706c69636174696f6e206f766572666c6f8152607760f81b602082015260400192915050565b600061211e602a83612357565b7f4d61726b65743a20436f75706f6e20617070726f766520746f20746865207a65815269726f206164647265737360b01b602082015260400192915050565b600061216a602d83612357565b7f4d61726b65743a20436f75706f6e207472616e736665722066726f6d2074686581526c207a65726f206164647265737360981b602082015260400192915050565b60006121b9601b83612357565b7f4d61726b65743a20546f6f206561726c7920746f2072656465656d0000000000815260200192915050565b611fa38161237d565b611fa381612396565b60006122038284611fc3565b50602001919050565b60006122188286611fcf565b91506122248285611fb2565b6002820191506122348284611fcf565b95945050505050565b602081016107558284611f9a565b606081016122598286611f9a565b6122666020830185611f9a565b61163d60408301846121e5565b604081016122818285611f9a565b6107af60208301846121e5565b602081016107558284611fa9565b602081016107558284611ffe565b602081016107558284612007565b602080825281016107af8184612010565b6020808252810161075581612048565b6020808252810161075581612081565b60208082528101610755816120ce565b6020808252810161075581612111565b602080825281016107558161215d565b60208082528101610755816121ac565b6020810161075582846121e5565b6040810161228182856121e5565b6020810161075582846121ee565b5190565b90815260200190565b60006107558261238a565b151590565b6001600160f01b03191690565b90565b8061076e816123ec565b6001600160a01b031690565b60ff1690565b600061075582612360565b600061075582612380565b60005b838110156123cd5781810151838201526020016123b5565b838111156123dc576000848401525b50505050565b601f01601f191690565b600381106123f657fe5b50565b61240281612360565b81146123f657600080fd5b6124028161236b565b6124028161237d56fe4d61726b65743a20496e73756666696369656e7420636f75706f6e2062616c616e63654d61726b65743a20496e73756666696369656e7420636f75706f6e20617070726f76616c436f6d7074726f6c6c65723a206e6f7420656e6f756768206f75747374616e64696e672064656274436f6d7074726f6c6c65723a206e6f7420656e6f7567682072656465656d61626c652062616c616e6365a365627a7a723158202d18dee9caeea63f9645bac4ba75b7f3c7273c7280232c113c93a798081828c96c6578706572696d656e74616cf564736f6c63430005110040",
  "source": "/*\n    Copyright 2020 Freq Set Dollar <freqsetdollar@gmail.com>\n\n    Licensed under the Apache License, Version 2.0 (the \"License\");\n    you may not use this file except in compliance with the License.\n    You may obtain a copy of the License at\n\n    http://www.apache.org/licenses/LICENSE-2.0\n\n    Unless required by applicable law or agreed to in writing, software\n    distributed under the License is distributed on an \"AS IS\" BASIS,\n    WITHOUT WARRANTIES OR CONDITIONS OF ANY KIND, either express or implied.\n    See the License for the specific language governing permissions and\n    limitations under the License.\n*/\n\npragma solidity ^0.5.17;\npragma experimental ABIEncoderV2;\n\nimport \"@openzeppelin/contracts/math/SafeMath.sol\";\nimport \"./Curve.sol\";\nimport \"./Comptroller.sol\";\nimport \"../Constants.sol\";\n\ncontract Market is Comptroller, Curve {\n    using SafeMath for uint256;\n\n    bytes32 private constant FILE = \"Market\";\n\n    event CouponExpiration(uint256 indexed epoch, uint256 couponsExpired, uint256 lessRedeemable, uint256 lessDebt, uint256 newBonded);\n    event CouponPurchase(address indexed account, uint256 indexed epoch, uint256 dollarAmount, uint256 couponAmount);\n    event CouponRedemption(address indexed account, uint256 indexed epoch, uint256 couponAmount);\n    event CouponBurn(address indexed account, uint256 indexed epoch, uint256 couponAmount);\n    event CouponTransfer(address indexed from, address indexed to, uint256 indexed epoch, uint256 value);\n    event CouponApproval(address indexed owner, address indexed spender, uint256 value);\n\n    function step() internal {\n        // Expire prior coupons\n        for (uint256 i = 0; i < expiringCoupons(epoch()); i++) {\n            expireCouponsForEpoch(expiringCouponsAtIndex(epoch(), i));\n        }\n\n        // Record expiry for current epoch's coupons\n        uint256 expirationEpoch = epoch().add(Constants.getCouponExpiration());\n        initializeCouponsExpiration(epoch(), expirationEpoch);\n    }\n\n    function expireCouponsForEpoch(uint256 epoch) private {\n        uint256 couponsForEpoch = outstandingCoupons(epoch);\n        (uint256 lessRedeemable, uint256 lessDebt, uint256 newBonded) = (0, 0, 0);\n\n        eliminateOutstandingCoupons(epoch);\n\n        uint256 totalRedeemable = totalRedeemable();\n        uint256 totalCoupons = totalCoupons();\n        if (totalRedeemable > totalCoupons) {\n            lessRedeemable = totalRedeemable.sub(totalCoupons);\n            burnRedeemable(lessRedeemable);\n            (, lessDebt, newBonded) = increaseSupply(lessRedeemable);\n        }\n\n\t    emit CouponExpiration(epoch, couponsForEpoch, lessRedeemable, lessDebt, newBonded);\n    }\n\n    function couponPremium(uint256 amount) public view returns (uint256) {\n        return calculateCouponPremium(dollar().totalSupply(), totalDebt(), amount);\n    }\n\n    function couponRedemptionPenalty(uint256 couponEpoch, uint256 couponAmount) public view returns (uint256) {\n        uint timeIntoEpoch = block.timestamp % Constants.getEpochStrategy().period;\n        uint couponAge = epoch() - couponEpoch;\n\n        uint couponEpochDecay = Constants.getCouponRedemptionPenaltyDecay() * (Constants.getCouponExpiration() - couponAge) / Constants.getCouponExpiration();\n\n        if(timeIntoEpoch > couponEpochDecay) {\n            return 0;\n        }\n\n        Decimal.D256 memory couponEpochInitialPenalty = Constants.getInitialCouponRedemptionPenalty().div(Decimal.D256({value: Constants.getCouponExpiration() })).mul(Decimal.D256({value: Constants.getCouponExpiration() - couponAge}));\n\n        Decimal.D256 memory couponEpochDecayedPenalty = couponEpochInitialPenalty.div(Decimal.D256({value: couponEpochDecay})).mul(Decimal.D256({value: couponEpochDecay - timeIntoEpoch}));\n\n        return Decimal.D256({value: couponAmount}).mul(couponEpochDecayedPenalty).value;\n    }\n\n    function purchaseCoupons(uint256 dollarAmount) external returns (uint256) {\n        Require.that(\n            dollarAmount > 0,\n            FILE,\n            \"Must purchase non-zero amount\"\n        );\n\n        Require.that(\n            totalDebt() >= dollarAmount,\n            FILE,\n            \"Not enough debt\"\n        );\n\n        uint256 epoch = epoch();\n        uint256 couponAmount = dollarAmount.add(couponPremium(dollarAmount));\n        burnFromAccount(msg.sender, dollarAmount);\n        incrementBalanceOfCoupons(msg.sender, epoch, couponAmount);\n\n        emit CouponPurchase(msg.sender, epoch, dollarAmount, couponAmount);\n\n        return couponAmount;\n    }\n\n    function redeemCoupons(uint256 couponEpoch, uint256 couponAmount) external {\n        require(epoch().sub(couponEpoch) >= 2, \"Market: Too early to redeem\");\n        decrementBalanceOfCoupons(msg.sender, couponEpoch, couponAmount, \"Market: Insufficient coupon balance\");\n        uint burnAmount = couponRedemptionPenalty(couponEpoch, couponAmount);\n        uint256 redeemAmount = couponAmount - burnAmount;\n        \n        redeemToAccount(msg.sender, redeemAmount);\n\n        if(burnAmount > 0){\n            emit CouponBurn(msg.sender, couponEpoch, burnAmount);\n        }\n\n        emit CouponRedemption(msg.sender, couponEpoch, redeemAmount);\n    }\n\n    function redeemCoupons(uint256 couponEpoch, uint256 couponAmount, uint256 minOutput) external {\n        require(epoch().sub(couponEpoch) >= 2, \"Market: Too early to redeem\");\n        decrementBalanceOfCoupons(msg.sender, couponEpoch, couponAmount, \"Market: Insufficient coupon balance\");\n        \n        uint burnAmount = couponRedemptionPenalty(couponEpoch, couponAmount);\n        uint256 redeemAmount = couponAmount - burnAmount;\n\n        Require.that(\n            redeemAmount >= minOutput,\n            FILE,\n            \"Insufficient output amount\"\n        );\n        \n        redeemToAccount(msg.sender, redeemAmount);\n\n        if(burnAmount > 0){\n            emit CouponBurn(msg.sender, couponEpoch, burnAmount);\n        }\n\n        emit CouponRedemption(msg.sender, couponEpoch, redeemAmount);\n    }\n\n    function approveCoupons(address spender, uint256 amount) external {\n        require(spender != address(0), \"Market: Coupon approve to the zero address\");\n\n        updateAllowanceCoupons(msg.sender, spender, amount);\n\n        emit CouponApproval(msg.sender, spender, amount);\n    }\n\n    function transferCoupons(address sender, address recipient, uint256 epoch, uint256 amount) external {\n        require(sender != address(0), \"Market: Coupon transfer from the zero address\");\n        require(recipient != address(0), \"Market: Coupon transfer to the zero address\");\n\n        decrementBalanceOfCoupons(sender, epoch, amount, \"Market: Insufficient coupon balance\");\n        incrementBalanceOfCoupons(recipient, epoch, amount);\n\n        if (msg.sender != sender && allowanceCoupons(sender, msg.sender) != uint256(-1)) {\n            decrementAllowanceCoupons(sender, msg.sender, amount, \"Market: Insufficient coupon approval\");\n        }\n\n        emit CouponTransfer(sender, recipient, epoch, amount);\n    }\n}\n",
  "sourcePath": "/Users/lileihuang/bytedance/fsd/protocol/contracts/dao/Market.sol",
  "compiler": {
    "name": "solc",
    "version": "0.5.17+commit.d19bba13.Emscripten.clang"
  },
  "schemaVersion": "3.3.1",
  "updatedAt": "2021-01-07T05:38:54.219Z",
  "devdoc": {
    "methods": {}
  },
  "userdoc": {
    "methods": {
      "balanceOfStaged(address)": {
        "notice": "Account"
      },
      "dollar()": {
        "notice": "Global"
      },
      "epoch()": {
        "notice": "Epoch"
      },
      "name()": {
        "notice": "ERC20 Interface"
      },
      "recordedVote(address,address)": {
        "notice": "Governance"
      },
      "transfer(address,uint256)": {
        "notice": "ERC20 Interface"
      }
    }
  }
}