{
  "contractName": "MockImplA",
  "abi": [
    {
      "inputs": [],
      "payable": false,
      "stateMutability": "nonpayable",
      "type": "constructor"
    },
    {
      "anonymous": false,
      "inputs": [],
      "name": "MockInitializedA",
      "type": "event"
    },
    {
      "anonymous": false,
      "inputs": [
        {
          "indexed": true,
          "internalType": "address",
          "name": "from",
          "type": "address"
        },
        {
          "indexed": true,
          "internalType": "address",
          "name": "to",
          "type": "address"
        },
        {
          "indexed": false,
          "internalType": "uint256",
          "name": "value",
          "type": "uint256"
        }
      ],
      "name": "Transfer",
      "type": "event"
    },
    {
      "anonymous": false,
      "inputs": [
        {
          "indexed": true,
          "internalType": "address",
          "name": "implementation",
          "type": "address"
        }
      ],
      "name": "Upgraded",
      "type": "event"
    },
    {
      "constant": true,
      "inputs": [
        {
          "internalType": "address",
          "name": "owner",
          "type": "address"
        },
        {
          "internalType": "address",
          "name": "spender",
          "type": "address"
        }
      ],
      "name": "allowance",
      "outputs": [
        {
          "internalType": "uint256",
          "name": "",
          "type": "uint256"
        }
      ],
      "payable": false,
      "stateMutability": "view",
      "type": "function"
    },
    {
      "constant": true,
      "inputs": [
        {
          "internalType": "address",
          "name": "owner",
          "type": "address"
        },
        {
          "internalType": "address",
          "name": "spender",
          "type": "address"
        }
      ],
      "name": "allowanceCoupons",
      "outputs": [
        {
          "internalType": "uint256",
          "name": "",
          "type": "uint256"
        }
      ],
      "payable": false,
      "stateMutability": "view",
      "type": "function"
    },
    {
      "constant": false,
      "inputs": [
        {
          "internalType": "address",
          "name": "spender",
          "type": "address"
        },
        {
          "internalType": "uint256",
          "name": "amount",
          "type": "uint256"
        }
      ],
      "name": "approve",
      "outputs": [
        {
          "internalType": "bool",
          "name": "",
          "type": "bool"
        }
      ],
      "payable": false,
      "stateMutability": "nonpayable",
      "type": "function"
    },
    {
      "constant": true,
      "inputs": [
        {
          "internalType": "address",
          "name": "candidate",
          "type": "address"
        }
      ],
      "name": "approveFor",
      "outputs": [
        {
          "internalType": "uint256",
          "name": "",
          "type": "uint256"
        }
      ],
      "payable": false,
      "stateMutability": "view",
      "type": "function"
    },
    {
      "constant": true,
      "inputs": [
        {
          "internalType": "address",
          "name": "account",
          "type": "address"
        }
      ],
      "name": "balanceOf",
      "outputs": [
        {
          "internalType": "uint256",
          "name": "",
          "type": "uint256"
        }
      ],
      "payable": false,
      "stateMutability": "view",
      "type": "function"
    },
    {
      "constant": true,
      "inputs": [
        {
          "internalType": "address",
          "name": "account",
          "type": "address"
        }
      ],
      "name": "balanceOfBonded",
      "outputs": [
        {
          "internalType": "uint256",
          "name": "",
          "type": "uint256"
        }
      ],
      "payable": false,
      "stateMutability": "view",
      "type": "function"
    },
    {
      "constant": true,
      "inputs": [
        {
          "internalType": "address",
          "name": "account",
          "type": "address"
        },
        {
          "internalType": "uint256",
          "name": "epoch",
          "type": "uint256"
        }
      ],
      "name": "balanceOfCoupons",
      "outputs": [
        {
          "internalType": "uint256",
          "name": "",
          "type": "uint256"
        }
      ],
      "payable": false,
      "stateMutability": "view",
      "type": "function"
    },
    {
      "constant": true,
      "inputs": [
        {
          "internalType": "address",
          "name": "account",
          "type": "address"
        }
      ],
      "name": "balanceOfStaged",
      "outputs": [
        {
          "internalType": "uint256",
          "name": "",
          "type": "uint256"
        }
      ],
      "payable": false,
      "stateMutability": "view",
      "type": "function"
    },
    {
      "constant": true,
      "inputs": [
        {
          "internalType": "uint256",
          "name": "epoch",
          "type": "uint256"
        }
      ],
      "name": "bootstrappingAt",
      "outputs": [
        {
          "internalType": "bool",
          "name": "",
          "type": "bool"
        }
      ],
      "payable": false,
      "stateMutability": "view",
      "type": "function"
    },
    {
      "constant": true,
      "inputs": [
        {
          "internalType": "uint256",
          "name": "epoch",
          "type": "uint256"
        }
      ],
      "name": "couponsExpiration",
      "outputs": [
        {
          "internalType": "uint256",
          "name": "",
          "type": "uint256"
        }
      ],
      "payable": false,
      "stateMutability": "view",
      "type": "function"
    },
    {
      "constant": true,
      "inputs": [],
      "name": "decimals",
      "outputs": [
        {
          "internalType": "uint8",
          "name": "",
          "type": "uint8"
        }
      ],
      "payable": false,
      "stateMutability": "view",
      "type": "function"
    },
    {
      "constant": true,
      "inputs": [],
      "name": "dollar",
      "outputs": [
        {
          "internalType": "contract IDollar",
          "name": "",
          "type": "address"
        }
      ],
      "payable": false,
      "stateMutability": "view",
      "type": "function"
    },
    {
      "constant": true,
      "inputs": [],
      "name": "epoch",
      "outputs": [
        {
          "internalType": "uint256",
          "name": "",
          "type": "uint256"
        }
      ],
      "payable": false,
      "stateMutability": "view",
      "type": "function"
    },
    {
      "constant": true,
      "inputs": [],
      "name": "epochTime",
      "outputs": [
        {
          "internalType": "uint256",
          "name": "",
          "type": "uint256"
        }
      ],
      "payable": false,
      "stateMutability": "view",
      "type": "function"
    },
    {
      "constant": true,
      "inputs": [
        {
          "internalType": "uint256",
          "name": "epoch",
          "type": "uint256"
        }
      ],
      "name": "expiringCoupons",
      "outputs": [
        {
          "internalType": "uint256",
          "name": "",
          "type": "uint256"
        }
      ],
      "payable": false,
      "stateMutability": "view",
      "type": "function"
    },
    {
      "constant": true,
      "inputs": [
        {
          "internalType": "uint256",
          "name": "epoch",
          "type": "uint256"
        },
        {
          "internalType": "uint256",
          "name": "i",
          "type": "uint256"
        }
      ],
      "name": "expiringCouponsAtIndex",
      "outputs": [
        {
          "internalType": "uint256",
          "name": "",
          "type": "uint256"
        }
      ],
      "payable": false,
      "stateMutability": "view",
      "type": "function"
    },
    {
      "constant": true,
      "inputs": [
        {
          "internalType": "address",
          "name": "account",
          "type": "address"
        }
      ],
      "name": "fluidUntil",
      "outputs": [
        {
          "internalType": "uint256",
          "name": "",
          "type": "uint256"
        }
      ],
      "payable": false,
      "stateMutability": "view",
      "type": "function"
    },
    {
      "constant": true,
      "inputs": [],
      "name": "implementation",
      "outputs": [
        {
          "internalType": "address",
          "name": "impl",
          "type": "address"
        }
      ],
      "payable": false,
      "stateMutability": "view",
      "type": "function"
    },
    {
      "constant": true,
      "inputs": [
        {
          "internalType": "address",
          "name": "candidate",
          "type": "address"
        }
      ],
      "name": "isInitialized",
      "outputs": [
        {
          "internalType": "bool",
          "name": "",
          "type": "bool"
        }
      ],
      "payable": false,
      "stateMutability": "view",
      "type": "function"
    },
    {
      "constant": true,
      "inputs": [
        {
          "internalType": "address",
          "name": "candidate",
          "type": "address"
        }
      ],
      "name": "isNominated",
      "outputs": [
        {
          "internalType": "bool",
          "name": "",
          "type": "bool"
        }
      ],
      "payable": false,
      "stateMutability": "view",
      "type": "function"
    },
    {
      "constant": true,
      "inputs": [
        {
          "internalType": "address",
          "name": "account",
          "type": "address"
        }
      ],
      "name": "lockedUntil",
      "outputs": [
        {
          "internalType": "uint256",
          "name": "",
          "type": "uint256"
        }
      ],
      "payable": false,
      "stateMutability": "view",
      "type": "function"
    },
    {
      "constant": true,
      "inputs": [],
      "name": "name",
      "outputs": [
        {
          "internalType": "string",
          "name": "",
          "type": "string"
        }
      ],
      "payable": false,
      "stateMutability": "view",
      "type": "function"
    },
    {
      "constant": true,
      "inputs": [],
      "name": "oracle",
      "outputs": [
        {
          "internalType": "contract IOracle",
          "name": "",
          "type": "address"
        }
      ],
      "payable": false,
      "stateMutability": "view",
      "type": "function"
    },
    {
      "constant": true,
      "inputs": [
        {
          "internalType": "uint256",
          "name": "epoch",
          "type": "uint256"
        }
      ],
      "name": "outstandingCoupons",
      "outputs": [
        {
          "internalType": "uint256",
          "name": "",
          "type": "uint256"
        }
      ],
      "payable": false,
      "stateMutability": "view",
      "type": "function"
    },
    {
      "constant": true,
      "inputs": [
        {
          "internalType": "address",
          "name": "candidate",
          "type": "address"
        }
      ],
      "name": "periodFor",
      "outputs": [
        {
          "internalType": "uint256",
          "name": "",
          "type": "uint256"
        }
      ],
      "payable": false,
      "stateMutability": "view",
      "type": "function"
    },
    {
      "constant": true,
      "inputs": [],
      "name": "pool",
      "outputs": [
        {
          "internalType": "address",
          "name": "",
          "type": "address"
        }
      ],
      "payable": false,
      "stateMutability": "view",
      "type": "function"
    },
    {
      "constant": true,
      "inputs": [
        {
          "internalType": "address",
          "name": "account",
          "type": "address"
        },
        {
          "internalType": "address",
          "name": "candidate",
          "type": "address"
        }
      ],
      "name": "recordedVote",
      "outputs": [
        {
          "internalType": "enum Candidate.Vote",
          "name": "",
          "type": "uint8"
        }
      ],
      "payable": false,
      "stateMutability": "view",
      "type": "function"
    },
    {
      "constant": true,
      "inputs": [
        {
          "internalType": "address",
          "name": "candidate",
          "type": "address"
        }
      ],
      "name": "rejectFor",
      "outputs": [
        {
          "internalType": "uint256",
          "name": "",
          "type": "uint256"
        }
      ],
      "payable": false,
      "stateMutability": "view",
      "type": "function"
    },
    {
      "constant": true,
      "inputs": [
        {
          "internalType": "address",
          "name": "candidate",
          "type": "address"
        }
      ],
      "name": "startFor",
      "outputs": [
        {
          "internalType": "uint256",
          "name": "",
          "type": "uint256"
        }
      ],
      "payable": false,
      "stateMutability": "view",
      "type": "function"
    },
    {
      "constant": true,
      "inputs": [
        {
          "internalType": "address",
          "name": "account",
          "type": "address"
        }
      ],
      "name": "statusOf",
      "outputs": [
        {
          "internalType": "enum Account.Status",
          "name": "",
          "type": "uint8"
        }
      ],
      "payable": false,
      "stateMutability": "view",
      "type": "function"
    },
    {
      "constant": true,
      "inputs": [],
      "name": "symbol",
      "outputs": [
        {
          "internalType": "string",
          "name": "",
          "type": "string"
        }
      ],
      "payable": false,
      "stateMutability": "view",
      "type": "function"
    },
    {
      "constant": true,
      "inputs": [],
      "name": "totalBonded",
      "outputs": [
        {
          "internalType": "uint256",
          "name": "",
          "type": "uint256"
        }
      ],
      "payable": false,
      "stateMutability": "view",
      "type": "function"
    },
    {
      "constant": true,
      "inputs": [
        {
          "internalType": "uint256",
          "name": "epoch",
          "type": "uint256"
        }
      ],
      "name": "totalBondedAt",
      "outputs": [
        {
          "internalType": "uint256",
          "name": "",
          "type": "uint256"
        }
      ],
      "payable": false,
      "stateMutability": "view",
      "type": "function"
    },
    {
      "constant": true,
      "inputs": [],
      "name": "totalCoupons",
      "outputs": [
        {
          "internalType": "uint256",
          "name": "",
          "type": "uint256"
        }
      ],
      "payable": false,
      "stateMutability": "view",
      "type": "function"
    },
    {
      "constant": true,
      "inputs": [],
      "name": "totalDebt",
      "outputs": [
        {
          "internalType": "uint256",
          "name": "",
          "type": "uint256"
        }
      ],
      "payable": false,
      "stateMutability": "view",
      "type": "function"
    },
    {
      "constant": true,
      "inputs": [],
      "name": "totalNet",
      "outputs": [
        {
          "internalType": "uint256",
          "name": "",
          "type": "uint256"
        }
      ],
      "payable": false,
      "stateMutability": "view",
      "type": "function"
    },
    {
      "constant": true,
      "inputs": [],
      "name": "totalRedeemable",
      "outputs": [
        {
          "internalType": "uint256",
          "name": "",
          "type": "uint256"
        }
      ],
      "payable": false,
      "stateMutability": "view",
      "type": "function"
    },
    {
      "constant": true,
      "inputs": [],
      "name": "totalStaged",
      "outputs": [
        {
          "internalType": "uint256",
          "name": "",
          "type": "uint256"
        }
      ],
      "payable": false,
      "stateMutability": "view",
      "type": "function"
    },
    {
      "constant": true,
      "inputs": [],
      "name": "totalSupply",
      "outputs": [
        {
          "internalType": "uint256",
          "name": "",
          "type": "uint256"
        }
      ],
      "payable": false,
      "stateMutability": "view",
      "type": "function"
    },
    {
      "constant": false,
      "inputs": [
        {
          "internalType": "address",
          "name": "recipient",
          "type": "address"
        },
        {
          "internalType": "uint256",
          "name": "amount",
          "type": "uint256"
        }
      ],
      "name": "transfer",
      "outputs": [
        {
          "internalType": "bool",
          "name": "",
          "type": "bool"
        }
      ],
      "payable": false,
      "stateMutability": "nonpayable",
      "type": "function"
    },
    {
      "constant": false,
      "inputs": [
        {
          "internalType": "address",
          "name": "sender",
          "type": "address"
        },
        {
          "internalType": "address",
          "name": "recipient",
          "type": "address"
        },
        {
          "internalType": "uint256",
          "name": "amount",
          "type": "uint256"
        }
      ],
      "name": "transferFrom",
      "outputs": [
        {
          "internalType": "bool",
          "name": "",
          "type": "bool"
        }
      ],
      "payable": false,
      "stateMutability": "nonpayable",
      "type": "function"
    },
    {
      "constant": true,
      "inputs": [
        {
          "internalType": "address",
          "name": "candidate",
          "type": "address"
        }
      ],
      "name": "votesFor",
      "outputs": [
        {
          "internalType": "uint256",
          "name": "",
          "type": "uint256"
        }
      ],
      "payable": false,
      "stateMutability": "view",
      "type": "function"
    },
    {
      "constant": false,
      "inputs": [],
      "name": "initialize",
      "outputs": [],
      "payable": false,
      "stateMutability": "nonpayable",
      "type": "function"
    },
    {
      "constant": false,
      "inputs": [
        {
          "internalType": "address",
          "name": "newImplementation",
          "type": "address"
        }
      ],
      "name": "upgradeToE",
      "outputs": [],
      "payable": false,
      "stateMutability": "nonpayable",
      "type": "function"
    }
  ],
  "bytecode": "0x608060405234801561001057600080fd5b5061138d806100206000396000f3fe608060405234801561001057600080fd5b50600436106102745760003560e01c80637dc0d1d011610151578063a50cd8e7116100c3578063cf02377911610087578063cf023779146104f9578063d60b347f14610501578063dd62ed3e14610514578063f1b7cf4914610522578063fc7b9c1814610535578063ffbe3b731461053d57610274565b8063a50cd8e7146104b8578063a6c409f1146104cb578063a9059cbb14610297578063bc7513e2146104d3578063c9aff70c146104e657610274565b8063900cf0cf11610115578063900cf0cf1461046757806395d89b411461046f57806397a5d5b5146104775780639a649edc1461048a5780639bc289f1146104925780639f6e1b26146104a557610274565b80637dc0d1d01461041c5780638129fc1c14610424578063825ad6071461042e57806386cf9f14146104415780638a558b041461045457610274565b80633fbba9a6116101ea57806351bf21d8116101ae57806351bf21d8146103b55780635c60da1b146103c857806364668022146103d05780636a39e328146103e357806370a08231146103f657806375d5024b1461040957610274565b80633fbba9a61461035d57806344d96e951461037d5780634c736099146103855780635053e4611461039857806351adeb57146103a057610274565b806318160ddd1161023c57806318160ddd146102ff5780631edbcf6c1461030757806323b872dd1461030f578063313ce56714610322578063353a420c146103375780633a3e6c811461034a57610274565b806306fdde0314610279578063095ea7b31461029757806310e95b6c146102b757806315e14bf6146102d757806316f0115b146102ea575b600080fd5b610281610550565b60405161028e919061122d565b60405180910390f35b6102aa6102a5366004610f7d565b61057f565b60405161028e9190611203565b6102ca6102c5366004610fad565b610588565b60405161028e919061126e565b6102ca6102e5366004610ed0565b6105a0565b6102f26105be565b60405161028e91906111f5565b6102ca6105cd565b6102ca6105d3565b6102aa61031d366004610f30565b6105d9565b61032a6105e2565b60405161028e919061127c565b6102ca610345366004610ed0565b6105e7565b6102aa610358366004610ed0565b610605565b61037061036b366004610ef6565b610622565b60405161028e919061121f565b6102ca610655565b6102ca610393366004610fe9565b61065b565b6102ca61068b565b6103a86106ae565b60405161028e9190611211565b6102ca6103c3366004610ed0565b6106bd565b6102f26106db565b6102ca6103de366004610ed0565b610700565b6102ca6103f1366004610fad565b61071e565b6102ca610404366004610ed0565b610733565b6102aa610417366004610fad565b610751565b6103a8610764565b61042c610773565b005b6102ca61043c366004610ed0565b6107e7565b6102ca61044f366004610ed0565b61083a565b61042c610462366004610ed0565b610855565b6102ca610861565b610281610867565b610370610485366004610ed0565b610885565b6102ca6108ea565b6102ca6104a0366004610ed0565b6108f0565b6102ca6104b3366004610ef6565b61090e565b6102ca6104c6366004610ed0565b61093d565b6102ca610960565b6102ca6104e1366004610f7d565b6109f6565b6102ca6104f4366004610fad565b610a3a565b6102ca610a4f565b6102aa61050f366004610ed0565b610a55565b6102ca6102a5366004610ef6565b6102ca610530366004610ed0565b610a76565b6102ca610a91565b6102ca61054b366004610fad565b610a97565b604080518082019091526015815274467265712053657420446f6c6c6172205374616b6560581b602082015290565b60005b92915050565b6000818152600d60205260409020600201545b919050565b6001600160a01b03166000908152600e602052604090206001015490565b600b546001600160a01b031690565b60035490565b60065490565b60009392505050565b601290565b6001600160a01b03166000908152600e602052604090206003015490565b6001600160a01b03166000908152600e6020526040902054151590565b6001600160a01b038082166000908152600e60209081526040808320938616835260049093019052205460ff1692915050565b60045490565b6000828152600d6020526040812060030180548390811061067857fe5b9060005260206000200154905092915050565b6000610695610e8e565b61069d610aa9565b90506106a881610ad8565b91505090565b6009546001600160a01b031690565b6001600160a01b03166000908152600c602052604090206004015490565b7f360894a13ba1a3210667c828492db98dca3e2076cc3735a920a3ca505d382bbc5490565b6001600160a01b03166000908152600e602052604090206002015490565b6000908152600d602052604090206003015490565b6001600160a01b03166000908152600c602052604090206001015490565b600061075b610afa565b90911115919050565b600a546001600160a01b031690565b6107ac61078161050f6106db565b15692832b936b4b9b9b4b7b760b11b72105b1c9958591e481a5b9a5d1a585b1a5e9959606a1b610aff565b6107bc6107b76106db565b610b62565b6040517f15aae1cca1fa5f7d8749e1779ff32c81ee14463e779a89d84a83659f6885550f90600090a1565b6000806107f26105cd565b90508061080357600091505061059b565b6108338161082761081386610733565b61081b610655565b9063ffffffff610b8916565b9063ffffffff610bc316565b9392505050565b6001600160a01b03166000908152600c602052604090205490565b61085e81610c05565b50565b60025490565b6040805180820190915260048152634653445360e01b602082015290565b600061088f610861565b6001600160a01b0383166000908152600c602052604090206005015411156108b95750600261059b565b6001600160a01b0382166000908152600c60205260409020600401546108dd610861565b101561057f576001610582565b60085490565b6001600160a01b03166000908152600c602052604090206005015490565b6001600160a01b039182166000908152600c602090815260408083209390941682526003909201909152205490565b600061058261094b836105e7565b61095484610700565b9063ffffffff610cf116565b60006109f161096d610a91565b6109756106ae565b6001600160a01b03166318160ddd6040518163ffffffff1660e01b815260040160206040518083038186803b1580156109ad57600080fd5b505afa1580156109c1573d6000803e3d6000fd5b505050506040513d601f19601f820116820180604052506109e59190810190610fcb565b9063ffffffff610d1616565b905090565b6000610a0182610a3a565b610a0d57506000610582565b506001600160a01b03919091166000908152600c6020908152604080832093835260029093019052205490565b6000908152600d602052604090206001015490565b60055490565b6001600160a01b03166000908152600e602052604090206005015460ff1690565b6001600160a01b03166000908152600e602052604090205490565b60075490565b6000908152600d602052604090205490565b610ab1610e8e565b604051806060016040528060008152602001635ff535c08152602001610e10815250905090565b60006105828260000151610954846040015161082786602001516109e5610d58565b60a890565b82610b5d57610b0d82610d5c565b6101d160f51b610b1c83610d5c565b604051602001610b2e939291906111c4565b60408051601f198184030181529082905262461bcd60e51b8252610b549160040161122d565b60405180910390fd5b505050565b6001600160a01b03166000908152600e60205260409020600501805460ff19166001179055565b600082610b9857506000610582565b82820282848281610ba557fe5b04146108335760405162461bcd60e51b8152600401610b549061124e565b600061083383836040518060400160405280601a81526020017f536166654d6174683a206469766973696f6e206279207a65726f000000000000815250610ddc565b610c0e81610e13565b60408051600481526024810182526020810180516001600160e01b031663204a7f0760e21b17905290516000916060916001600160a01b03851691610c52916111b8565b600060405180830381855af49150503d8060008114610c8d576040519150601f19603f3d011682016040523d82523d6000602084013e610c92565b606091505b5091509150818190610cb75760405162461bcd60e51b8152600401610b54919061122d565b506040516001600160a01b038416907fbc7cd75a20ee27fd9adebab32041f755214dbc6bffa90cc0225b39da2e5c2d3b90600090a2505050565b6000828201838110156108335760405162461bcd60e51b8152600401610b549061123e565b600061083383836040518060400160405280601e81526020017f536166654d6174683a207375627472616374696f6e206f766572666c6f770000815250610e5c565b4290565b60608082604051602001610d7091906111a3565b60408051601f19818403018152919052905060205b8015610dc557815160001990910190829082908110610da057fe5b01602001516001600160f81b03191615610dc0576001018152905061059b565b610d85565b505060408051600081526020810190915292915050565b60008183610dfd5760405162461bcd60e51b8152600401610b54919061122d565b506000838581610e0957fe5b0495945050505050565b610e1c81610e88565b610e385760405162461bcd60e51b8152600401610b549061125e565b7f360894a13ba1a3210667c828492db98dca3e2076cc3735a920a3ca505d382bbc55565b60008184841115610e805760405162461bcd60e51b8152600401610b54919061122d565b505050900390565b3b151590565b60405180606001604052806000815260200160008152602001600081525090565b80356105828161132d565b803561058281611341565b805161058281611341565b600060208284031215610ee257600080fd5b6000610eee8484610eaf565b949350505050565b60008060408385031215610f0957600080fd5b6000610f158585610eaf565b9250506020610f2685828601610eaf565b9150509250929050565b600080600060608486031215610f4557600080fd5b6000610f518686610eaf565b9350506020610f6286828701610eaf565b9250506040610f7386828701610eba565b9150509250925092565b60008060408385031215610f9057600080fd5b6000610f9c8585610eaf565b9250506020610f2685828601610eba565b600060208284031215610fbf57600080fd5b6000610eee8484610eba565b600060208284031215610fdd57600080fd5b6000610eee8484610ec5565b60008060408385031215610ffc57600080fd5b6000610f9c8585610eba565b61101181611297565b82525050565b611011816112a2565b61101161102c826112a7565b6112b4565b61101161102c826112b4565b60006110488261128a565b611052818561059b565b93506110628185602086016112e9565b9290920192915050565b611011816112d3565b611011816112de565b60006110898261128a565b611093818561128e565b93506110a38185602086016112e9565b6110ac81611319565b9093019392505050565b60006110c3601b8361128e565b7f536166654d6174683a206164646974696f6e206f766572666c6f770000000000815260200192915050565b60006110fc60218361128e565b7f536166654d6174683a206d756c7469706c69636174696f6e206f766572666c6f8152607760f81b602082015260400192915050565b600061113f603b8361128e565b7f43616e6e6f742073657420612070726f787920696d706c656d656e746174696f81527f6e20746f2061206e6f6e2d636f6e747261637420616464726573730000000000602082015260400192915050565b611011816112b4565b611011816112cd565b60006111af8284611031565b50602001919050565b6000610833828461103d565b60006111d0828661103d565b91506111dc8285611020565b6002820191506111ec828461103d565b95945050505050565b602081016105828284611008565b602081016105828284611017565b60208101610582828461106c565b602081016105828284611075565b60208082528101610833818461107e565b60208082528101610582816110b6565b60208082528101610582816110ef565b6020808252810161058281611132565b602081016105828284611191565b60208101610582828461119a565b5190565b90815260200190565b6000610582826112c1565b151590565b6001600160f01b03191690565b90565b8061059b81611323565b6001600160a01b031690565b60ff1690565b600061058282611297565b6000610582826112b7565b60005b838110156113045781810151838201526020016112ec565b83811115611313576000848401525b50505050565b601f01601f191690565b6003811061085e57fe5b61133681611297565b811461085e57600080fd5b611336816112b456fea365627a7a72315820355a9d3a5b9f2004174bf3ec4fe4a31ac4323eea925026a1dc3988b7d69495cc6c6578706572696d656e74616cf564736f6c63430005110040",
  "source": "/*\n    Copyright 2020 Empty Set Squad <emptysetsquad@protonmail.com>\n\n    Licensed under the Apache License, Version 2.0 (the \"License\");\n    you may not use this file except in compliance with the License.\n    You may obtain a copy of the License at\n\n    http://www.apache.org/licenses/LICENSE-2.0\n\n    Unless required by applicable law or agreed to in writing, software\n    distributed under the License is distributed on an \"AS IS\" BASIS,\n    WITHOUT WARRANTIES OR CONDITIONS OF ANY KIND, either express or implied.\n    See the License for the specific language governing permissions and\n    limitations under the License.\n*/\n\npragma solidity ^0.5.17;\npragma experimental ABIEncoderV2;\n\nimport \"../dao/Upgradeable.sol\";\nimport \"../dao/Permission.sol\";\n\ncontract MockImplA is Upgradeable, Permission {\n    constructor () public { }\n\n    event MockInitializedA();\n\n    function initialize() public initializer {\n        emit MockInitializedA();\n    }\n\n    function upgradeToE(address newImplementation) external {\n        super.upgradeTo(newImplementation);\n    }\n}\n",
  "sourcePath": "/Users/lileihuang/bytedance/fsd/protocol/contracts/mock/MockImplA.sol",
  "compiler": {
    "name": "solc",
    "version": "0.5.17+commit.d19bba13.Emscripten.clang"
  },
  "schemaVersion": "3.3.1",
  "updatedAt": "2021-01-07T05:38:54.360Z",
  "devdoc": {
    "methods": {}
  },
  "userdoc": {
    "methods": {
      "balanceOfStaged(address)": {
        "notice": "Account"
      },
      "dollar()": {
        "notice": "Global"
      },
      "epoch()": {
        "notice": "Epoch"
      },
      "name()": {
        "notice": "ERC20 Interface"
      },
      "recordedVote(address,address)": {
        "notice": "Governance"
      },
      "transfer(address,uint256)": {
        "notice": "ERC20 Interface"
      }
    }
  }
}