{
  "contractName": "MockSettableOracle",
  "abi": [
    {
      "constant": false,
      "inputs": [
        {
          "internalType": "uint256",
          "name": "numerator",
          "type": "uint256"
        },
        {
          "internalType": "uint256",
          "name": "denominator",
          "type": "uint256"
        },
        {
          "internalType": "bool",
          "name": "valid",
          "type": "bool"
        }
      ],
      "name": "set",
      "outputs": [],
      "payable": false,
      "stateMutability": "nonpayable",
      "type": "function"
    },
    {
      "constant": false,
      "inputs": [],
      "name": "setup",
      "outputs": [],
      "payable": false,
      "stateMutability": "nonpayable",
      "type": "function"
    },
    {
      "constant": false,
      "inputs": [],
      "name": "capture",
      "outputs": [
        {
          "components": [
            {
              "internalType": "uint256",
              "name": "value",
              "type": "uint256"
            }
          ],
          "internalType": "struct Decimal.D256",
          "name": "",
          "type": "tuple"
        },
        {
          "internalType": "bool",
          "name": "",
          "type": "bool"
        }
      ],
      "payable": false,
      "stateMutability": "nonpayable",
      "type": "function"
    },
    {
      "constant": true,
      "inputs": [],
      "name": "pair",
      "outputs": [
        {
          "internalType": "address",
          "name": "",
          "type": "address"
        }
      ],
      "payable": false,
      "stateMutability": "view",
      "type": "function"
    }
  ],
  "bytecode": "0x608060405234801561001057600080fd5b5061048b806100206000396000f3fe608060405234801561001057600080fd5b506004361061004c5760003560e01c806364482f7914610051578063a8aa1b3114610066578063ba0bba4014610084578063d4a3e9d71461008c575b600080fd5b61006461005f366004610242565b6100a2565b005b61006e6100c5565b60405161007b919061036c565b60405180910390f35b6100646100e8565b6100946100ea565b60405161007b9291906103ab565b6100ac838361010e565b516000556001805460ff19169115159190911790555050565b600060405162461bcd60e51b81526004016100df9061038b565b60405180910390fd5b565b6100f2610219565b50600154604080516020810190915260005481529060ff169091565b610116610219565b604051806020016040528061013485670de0b6b3a76400008661013f565b905290505b92915050565b600061016182610155868663ffffffff61016b16565b9063ffffffff6101a516565b90505b9392505050565b60008261017a57506000610139565b8282028284828161018757fe5b04146101645760405162461bcd60e51b81526004016100df9061039b565b600061016483836040518060400160405280601a81526020017f536166654d6174683a206469766973696f6e206279207a65726f000000000000815250600081836102035760405162461bcd60e51b81526004016100df919061037a565b50600083858161020f57fe5b0495945050505050565b6040518060200160405280600081525090565b803561013981610428565b80356101398161043f565b60008060006060848603121561025757600080fd5b60006102638686610237565b935050602061027486828701610237565b92505060406102858682870161022c565b9150509250925092565b610298816103d3565b82525050565b610298816103de565b60006102b2826103c6565b6102bc81856103ca565b93506102cc8185602086016103f2565b6102d58161041e565b9093019392505050565b60006102ec600e836103ca565b6d53686f756c64206e6f742075736560901b815260200192915050565b60006103166021836103ca565b7f536166654d6174683a206d756c7469706c69636174696f6e206f766572666c6f8152607760f81b602082015260400192915050565b8051602083019061035d8482610363565b50505050565b610298816103ef565b60208101610139828461028f565b6020808252810161016481846102a7565b60208082528101610139816102df565b6020808252810161013981610309565b604081016103b9828561034c565b610164602083018461029e565b5190565b90815260200190565b6000610139826103e3565b151590565b6001600160a01b031690565b90565b60005b8381101561040d5781810151838201526020016103f5565b8381111561035d5750506000910152565b601f01601f191690565b610431816103de565b811461043c57600080fd5b50565b610431816103ef56fea365627a7a723158207fc3303052c8cca6d4ec67703e2d9b8b4e4e0b57dd7ab68c6afe9a6d451dbb8f6c6578706572696d656e74616cf564736f6c63430005110040",
  "source": "/*\n    Copyright 2020 Empty Set Squad <emptysetsquad@protonmail.com>\n\n    Licensed under the Apache License, Version 2.0 (the \"License\");\n    you may not use this file except in compliance with the License.\n    You may obtain a copy of the License at\n\n    http://www.apache.org/licenses/LICENSE-2.0\n\n    Unless required by applicable law or agreed to in writing, software\n    distributed under the License is distributed on an \"AS IS\" BASIS,\n    WITHOUT WARRANTIES OR CONDITIONS OF ANY KIND, either express or implied.\n    See the License for the specific language governing permissions and\n    limitations under the License.\n*/\n\npragma solidity ^0.5.17;\npragma experimental ABIEncoderV2;\n\nimport \"../external/Decimal.sol\";\nimport \"../oracle/IOracle.sol\";\n\ncontract MockSettableOracle is IOracle {\n    Decimal.D256 internal _price;\n    bool internal _valid;\n    uint256 internal _lastReserve;\n    uint256 internal _reserve;\n\n    function set(uint256 numerator, uint256 denominator, bool valid) external {\n        _price = Decimal.ratio(numerator, denominator);\n        _valid = valid;\n    }\n\n    function setup() public { }\n\n    function capture() public returns (Decimal.D256 memory, bool) {\n        return (_price, _valid);\n    }\n\n    function pair() external view returns (address) { revert(\"Should not use\"); }\n}\n",
  "sourcePath": "/Users/lileihuang/bytedance/fsd/protocol/contracts/mock/MockSettableOracle.sol",
  "compiler": {
    "name": "solc",
    "version": "0.5.17+commit.d19bba13.Emscripten.clang"
  },
  "schemaVersion": "3.3.1",
  "updatedAt": "2021-01-07T05:38:54.390Z",
  "devdoc": {
    "methods": {}
  },
  "userdoc": {
    "methods": {}
  }
}