{
  "contractName": "MockCurve",
  "abi": [
    {
      "inputs": [],
      "payable": false,
      "stateMutability": "nonpayable",
      "type": "constructor"
    },
    {
      "constant": true,
      "inputs": [
        {
          "internalType": "uint256",
          "name": "totalSupply",
          "type": "uint256"
        },
        {
          "internalType": "uint256",
          "name": "totalDebt",
          "type": "uint256"
        },
        {
          "internalType": "uint256",
          "name": "amount",
          "type": "uint256"
        }
      ],
      "name": "calculateCouponsE",
      "outputs": [
        {
          "internalType": "uint256",
          "name": "",
          "type": "uint256"
        }
      ],
      "payable": false,
      "stateMutability": "pure",
      "type": "function"
    }
  ],
  "bytecode": "0x608060405234801561001057600080fd5b50610891806100206000396000f3fe608060405234801561001057600080fd5b506004361061002b5760003560e01c806317a2e00014610030575b600080fd5b61004361003e36600461069e565b610059565b60405161005091906107df565b60405180910390f35b6000610066848484610070565b90505b9392505050565b600061006661009083610084878787610095565b9063ffffffff61020e16565b610240565b61009d610680565b6100a5610680565b6100af848661025d565b90506100b9610680565b6100c1610283565b905060006100d5878663ffffffff6102a516565b905060006100e9878763ffffffff6102a516565b90506100f3610680565b6100fd828461025d565b905061010f858563ffffffff6102e716565b156101f757610124818563ffffffff6102e716565b1561013e57610132846102fd565b95505050505050610069565b610146610680565b6101508286610361565b905061015a610680565b61016a868463ffffffff6103be16565b9050610174610680565b61017d876102fd565b9050610187610680565b610197898963ffffffff6103be16565b90506101e76101ac848363ffffffff6103e716565b6101db6101bf858563ffffffff61041016565b6101cf888863ffffffff61041016565b9063ffffffff6103e716565b9063ffffffff61043e16565b9950505050505050505050610069565b6102018186610361565b9998505050505050505050565b610216610680565b604080516020810190915283518190610235908563ffffffff61046c16565b905290505b92915050565b805160009061023a90670de0b6b3a764000063ffffffff6104af16565b610265610680565b604051806020016040528061023585670de0b6b3a7640000866104f1565b61028b610680565b5060408051602081019091526706f05b59d3b20000815290565b600061006983836040518060400160405280601e81526020017f536166654d6174683a207375627472616374696f6e206f766572666c6f770000815250610513565b60006102f3838361053f565b6002149392505050565b610305610680565b61023a6103146001600361025d565b61032b61035961034360026103378861032b610571565b9063ffffffff6103be16565b9063ffffffff61059316565b61034d60036105e9565b9063ffffffff61041016565b6101db610571565b610369610680565b610379838363ffffffff61061d16565b1561038e57610387836102fd565b905061023a565b61006961039d6001600361025d565b61032b6103596103af8761032b610571565b61034d6103438861032b610571565b6103c6610680565b6040805160208101909152825184518291610235919063ffffffff6102a516565b6103ef610680565b6040805160208101909152825184518291610235919063ffffffff61062416565b610418610680565b604051806020016040528061023585600001518560000151670de0b6b3a76400006104f1565b610446610680565b60405180602001604052806102358560000151670de0b6b3a764000086600001516104f1565b60008261047b5750600061023a565b8282028284828161048857fe5b04146100695760405162461bcd60e51b81526004016104a6906107cf565b60405180910390fd5b600061006983836040518060400160405280601a81526020017f536166654d6174683a206469766973696f6e206279207a65726f000000000000815250610649565b600061006682610507868663ffffffff61046c16565b9063ffffffff6104af16565b600081848411156105375760405162461bcd60e51b81526004016104a691906107ae565b505050900390565b8051825160009114156105545750600161023a565b8151835111610564576000610567565b60025b60ff169392505050565b610579610680565b506040805160208101909152670de0b6b3a7640000815290565b61059b610680565b816105aa5761038760016105e9565b6105b2610680565b5060408051602081019091528351815260015b838110156105e1576105d78286610410565b91506001016105c5565b509392505050565b6105f1610680565b60408051602081019091528061061584670de0b6b3a764000063ffffffff61046c16565b905292915050565b5190511490565b6000828201838110156100695760405162461bcd60e51b81526004016104a6906107bf565b6000818361066a5760405162461bcd60e51b81526004016104a691906107ae565b50600083858161067657fe5b0495945050505050565b6040518060200160405280600081525090565b803561023a81610837565b6000806000606084860312156106b357600080fd5b60006106bf8686610693565b93505060206106d086828701610693565b92505060406106e186828701610693565b9150509250925092565b60006106f6826107ed565b61070081856107f1565b93506107108185602086016107fd565b6107198161082d565b9093019392505050565b6000610730601b836107f1565b7f536166654d6174683a206164646974696f6e206f766572666c6f770000000000815260200192915050565b60006107696021836107f1565b7f536166654d6174683a206d756c7469706c69636174696f6e206f766572666c6f8152607760f81b602082015260400192915050565b6107a8816107fa565b82525050565b6020808252810161006981846106eb565b6020808252810161023a81610723565b6020808252810161023a8161075c565b6020810161023a828461079f565b5190565b90815260200190565b90565b60005b83811015610818578181015183820152602001610800565b83811115610827576000848401525b50505050565b601f01601f191690565b610840816107fa565b811461084b57600080fd5b5056fea365627a7a723158204a351d5cf4bff4c35ed050ea04d63fefdb85a272d256206eff7c1971b49f106c6c6578706572696d656e74616cf564736f6c63430005110040",
  "source": "/*\n    Copyright 2020 Empty Set Squad <emptysetsquad@protonmail.com>\n\n    Licensed under the Apache License, Version 2.0 (the \"License\");\n    you may not use this file except in compliance with the License.\n    You may obtain a copy of the License at\n\n    http://www.apache.org/licenses/LICENSE-2.0\n\n    Unless required by applicable law or agreed to in writing, software\n    distributed under the License is distributed on an \"AS IS\" BASIS,\n    WITHOUT WARRANTIES OR CONDITIONS OF ANY KIND, either express or implied.\n    See the License for the specific language governing permissions and\n    limitations under the License.\n*/\n\npragma solidity ^0.5.17;\npragma experimental ABIEncoderV2;\n\nimport \"../dao/Curve.sol\";\n\ncontract MockCurve is Curve {\n    constructor () public { }\n\n    function calculateCouponsE(\n        uint256 totalSupply,\n        uint256 totalDebt,\n        uint256 amount\n    ) external pure returns (uint256) {\n        return super.calculateCouponPremium(totalSupply, totalDebt, amount);\n    }\n}\n",
  "sourcePath": "/Users/lileihuang/bytedance/fsd/protocol/contracts/mock/MockCurve.sol",
  "compiler": {
    "name": "solc",
    "version": "0.5.17+commit.d19bba13.Emscripten.clang"
  },
  "schemaVersion": "3.3.1",
  "updatedAt": "2021-01-07T05:38:54.355Z",
  "devdoc": {
    "methods": {}
  },
  "userdoc": {
    "methods": {}
  }
}