{
  "contractName": "MockMarket",
  "abi": [
    {
      "inputs": [
        {
          "internalType": "address",
          "name": "pool",
          "type": "address"
        }
      ],
      "payable": false,
      "stateMutability": "nonpayable",
      "type": "constructor"
    },
    {
      "anonymous": false,
      "inputs": [
        {
          "indexed": true,
          "internalType": "address",
          "name": "owner",
          "type": "address"
        },
        {
          "indexed": true,
          "internalType": "address",
          "name": "spender",
          "type": "address"
        },
        {
          "indexed": false,
          "internalType": "uint256",
          "name": "value",
          "type": "uint256"
        }
      ],
      "name": "CouponApproval",
      "type": "event"
    },
    {
      "anonymous": false,
      "inputs": [
        {
          "indexed": true,
          "internalType": "address",
          "name": "account",
          "type": "address"
        },
        {
          "indexed": true,
          "internalType": "uint256",
          "name": "epoch",
          "type": "uint256"
        },
        {
          "indexed": false,
          "internalType": "uint256",
          "name": "couponAmount",
          "type": "uint256"
        }
      ],
      "name": "CouponBurn",
      "type": "event"
    },
    {
      "anonymous": false,
      "inputs": [
        {
          "indexed": true,
          "internalType": "uint256",
          "name": "epoch",
          "type": "uint256"
        },
        {
          "indexed": false,
          "internalType": "uint256",
          "name": "couponsExpired",
          "type": "uint256"
        },
        {
          "indexed": false,
          "internalType": "uint256",
          "name": "lessRedeemable",
          "type": "uint256"
        },
        {
          "indexed": false,
          "internalType": "uint256",
          "name": "lessDebt",
          "type": "uint256"
        },
        {
          "indexed": false,
          "internalType": "uint256",
          "name": "newBonded",
          "type": "uint256"
        }
      ],
      "name": "CouponExpiration",
      "type": "event"
    },
    {
      "anonymous": false,
      "inputs": [
        {
          "indexed": true,
          "internalType": "address",
          "name": "account",
          "type": "address"
        },
        {
          "indexed": true,
          "internalType": "uint256",
          "name": "epoch",
          "type": "uint256"
        },
        {
          "indexed": false,
          "internalType": "uint256",
          "name": "dollarAmount",
          "type": "uint256"
        },
        {
          "indexed": false,
          "internalType": "uint256",
          "name": "couponAmount",
          "type": "uint256"
        }
      ],
      "name": "CouponPurchase",
      "type": "event"
    },
    {
      "anonymous": false,
      "inputs": [
        {
          "indexed": true,
          "internalType": "address",
          "name": "account",
          "type": "address"
        },
        {
          "indexed": true,
          "internalType": "uint256",
          "name": "epoch",
          "type": "uint256"
        },
        {
          "indexed": false,
          "internalType": "uint256",
          "name": "couponAmount",
          "type": "uint256"
        }
      ],
      "name": "CouponRedemption",
      "type": "event"
    },
    {
      "anonymous": false,
      "inputs": [
        {
          "indexed": true,
          "internalType": "address",
          "name": "from",
          "type": "address"
        },
        {
          "indexed": true,
          "internalType": "address",
          "name": "to",
          "type": "address"
        },
        {
          "indexed": true,
          "internalType": "uint256",
          "name": "epoch",
          "type": "uint256"
        },
        {
          "indexed": false,
          "internalType": "uint256",
          "name": "value",
          "type": "uint256"
        }
      ],
      "name": "CouponTransfer",
      "type": "event"
    },
    {
      "anonymous": false,
      "inputs": [
        {
          "indexed": true,
          "internalType": "address",
          "name": "from",
          "type": "address"
        },
        {
          "indexed": true,
          "internalType": "address",
          "name": "to",
          "type": "address"
        },
        {
          "indexed": false,
          "internalType": "uint256",
          "name": "value",
          "type": "uint256"
        }
      ],
      "name": "Transfer",
      "type": "event"
    },
    {
      "constant": true,
      "inputs": [
        {
          "internalType": "address",
          "name": "owner",
          "type": "address"
        },
        {
          "internalType": "address",
          "name": "spender",
          "type": "address"
        }
      ],
      "name": "allowance",
      "outputs": [
        {
          "internalType": "uint256",
          "name": "",
          "type": "uint256"
        }
      ],
      "payable": false,
      "stateMutability": "view",
      "type": "function"
    },
    {
      "constant": true,
      "inputs": [
        {
          "internalType": "address",
          "name": "owner",
          "type": "address"
        },
        {
          "internalType": "address",
          "name": "spender",
          "type": "address"
        }
      ],
      "name": "allowanceCoupons",
      "outputs": [
        {
          "internalType": "uint256",
          "name": "",
          "type": "uint256"
        }
      ],
      "payable": false,
      "stateMutability": "view",
      "type": "function"
    },
    {
      "constant": false,
      "inputs": [
        {
          "internalType": "address",
          "name": "spender",
          "type": "address"
        },
        {
          "internalType": "uint256",
          "name": "amount",
          "type": "uint256"
        }
      ],
      "name": "approve",
      "outputs": [
        {
          "internalType": "bool",
          "name": "",
          "type": "bool"
        }
      ],
      "payable": false,
      "stateMutability": "nonpayable",
      "type": "function"
    },
    {
      "constant": false,
      "inputs": [
        {
          "internalType": "address",
          "name": "spender",
          "type": "address"
        },
        {
          "internalType": "uint256",
          "name": "amount",
          "type": "uint256"
        }
      ],
      "name": "approveCoupons",
      "outputs": [],
      "payable": false,
      "stateMutability": "nonpayable",
      "type": "function"
    },
    {
      "constant": true,
      "inputs": [
        {
          "internalType": "address",
          "name": "candidate",
          "type": "address"
        }
      ],
      "name": "approveFor",
      "outputs": [
        {
          "internalType": "uint256",
          "name": "",
          "type": "uint256"
        }
      ],
      "payable": false,
      "stateMutability": "view",
      "type": "function"
    },
    {
      "constant": true,
      "inputs": [
        {
          "internalType": "address",
          "name": "account",
          "type": "address"
        }
      ],
      "name": "balanceOf",
      "outputs": [
        {
          "internalType": "uint256",
          "name": "",
          "type": "uint256"
        }
      ],
      "payable": false,
      "stateMutability": "view",
      "type": "function"
    },
    {
      "constant": true,
      "inputs": [
        {
          "internalType": "address",
          "name": "account",
          "type": "address"
        }
      ],
      "name": "balanceOfBonded",
      "outputs": [
        {
          "internalType": "uint256",
          "name": "",
          "type": "uint256"
        }
      ],
      "payable": false,
      "stateMutability": "view",
      "type": "function"
    },
    {
      "constant": true,
      "inputs": [
        {
          "internalType": "address",
          "name": "account",
          "type": "address"
        },
        {
          "internalType": "uint256",
          "name": "epoch",
          "type": "uint256"
        }
      ],
      "name": "balanceOfCoupons",
      "outputs": [
        {
          "internalType": "uint256",
          "name": "",
          "type": "uint256"
        }
      ],
      "payable": false,
      "stateMutability": "view",
      "type": "function"
    },
    {
      "constant": true,
      "inputs": [
        {
          "internalType": "address",
          "name": "account",
          "type": "address"
        }
      ],
      "name": "balanceOfStaged",
      "outputs": [
        {
          "internalType": "uint256",
          "name": "",
          "type": "uint256"
        }
      ],
      "payable": false,
      "stateMutability": "view",
      "type": "function"
    },
    {
      "constant": true,
      "inputs": [
        {
          "internalType": "uint256",
          "name": "epoch",
          "type": "uint256"
        }
      ],
      "name": "bootstrappingAt",
      "outputs": [
        {
          "internalType": "bool",
          "name": "",
          "type": "bool"
        }
      ],
      "payable": false,
      "stateMutability": "view",
      "type": "function"
    },
    {
      "constant": false,
      "inputs": [
        {
          "internalType": "address",
          "name": "account",
          "type": "address"
        },
        {
          "internalType": "uint256",
          "name": "amount",
          "type": "uint256"
        }
      ],
      "name": "burnFromAccountE",
      "outputs": [],
      "payable": false,
      "stateMutability": "nonpayable",
      "type": "function"
    },
    {
      "constant": false,
      "inputs": [
        {
          "internalType": "uint256",
          "name": "amount",
          "type": "uint256"
        }
      ],
      "name": "burnRedeemableE",
      "outputs": [],
      "payable": false,
      "stateMutability": "nonpayable",
      "type": "function"
    },
    {
      "constant": true,
      "inputs": [
        {
          "internalType": "uint256",
          "name": "amount",
          "type": "uint256"
        }
      ],
      "name": "couponPremium",
      "outputs": [
        {
          "internalType": "uint256",
          "name": "",
          "type": "uint256"
        }
      ],
      "payable": false,
      "stateMutability": "view",
      "type": "function"
    },
    {
      "constant": true,
      "inputs": [
        {
          "internalType": "uint256",
          "name": "couponEpoch",
          "type": "uint256"
        },
        {
          "internalType": "uint256",
          "name": "couponAmount",
          "type": "uint256"
        }
      ],
      "name": "couponRedemptionPenalty",
      "outputs": [
        {
          "internalType": "uint256",
          "name": "",
          "type": "uint256"
        }
      ],
      "payable": false,
      "stateMutability": "view",
      "type": "function"
    },
    {
      "constant": true,
      "inputs": [
        {
          "internalType": "uint256",
          "name": "epoch",
          "type": "uint256"
        }
      ],
      "name": "couponsExpiration",
      "outputs": [
        {
          "internalType": "uint256",
          "name": "",
          "type": "uint256"
        }
      ],
      "payable": false,
      "stateMutability": "view",
      "type": "function"
    },
    {
      "constant": false,
      "inputs": [
        {
          "internalType": "address",
          "name": "candidate",
          "type": "address"
        },
        {
          "internalType": "uint256",
          "name": "period",
          "type": "uint256"
        }
      ],
      "name": "createCandidateE",
      "outputs": [],
      "payable": false,
      "stateMutability": "nonpayable",
      "type": "function"
    },
    {
      "constant": true,
      "inputs": [],
      "name": "decimals",
      "outputs": [
        {
          "internalType": "uint8",
          "name": "",
          "type": "uint8"
        }
      ],
      "payable": false,
      "stateMutability": "view",
      "type": "function"
    },
    {
      "constant": false,
      "inputs": [
        {
          "internalType": "uint256",
          "name": "amount",
          "type": "uint256"
        }
      ],
      "name": "decreaseDebtE",
      "outputs": [],
      "payable": false,
      "stateMutability": "nonpayable",
      "type": "function"
    },
    {
      "constant": false,
      "inputs": [
        {
          "internalType": "address",
          "name": "owner",
          "type": "address"
        },
        {
          "internalType": "address",
          "name": "spender",
          "type": "address"
        },
        {
          "internalType": "uint256",
          "name": "amount",
          "type": "uint256"
        },
        {
          "internalType": "string",
          "name": "reason",
          "type": "string"
        }
      ],
      "name": "decrementAllowanceCouponsE",
      "outputs": [],
      "payable": false,
      "stateMutability": "nonpayable",
      "type": "function"
    },
    {
      "constant": false,
      "inputs": [
        {
          "internalType": "address",
          "name": "candidate",
          "type": "address"
        },
        {
          "internalType": "uint256",
          "name": "amount",
          "type": "uint256"
        },
        {
          "internalType": "string",
          "name": "reason",
          "type": "string"
        }
      ],
      "name": "decrementApproveForE",
      "outputs": [],
      "payable": false,
      "stateMutability": "nonpayable",
      "type": "function"
    },
    {
      "constant": false,
      "inputs": [
        {
          "internalType": "address",
          "name": "account",
          "type": "address"
        },
        {
          "internalType": "uint256",
          "name": "epoch",
          "type": "uint256"
        },
        {
          "internalType": "uint256",
          "name": "amount",
          "type": "uint256"
        },
        {
          "internalType": "string",
          "name": "reason",
          "type": "string"
        }
      ],
      "name": "decrementBalanceOfCouponsE",
      "outputs": [],
      "payable": false,
      "stateMutability": "nonpayable",
      "type": "function"
    },
    {
      "constant": false,
      "inputs": [
        {
          "internalType": "address",
          "name": "account",
          "type": "address"
        },
        {
          "internalType": "uint256",
          "name": "amount",
          "type": "uint256"
        },
        {
          "internalType": "string",
          "name": "reason",
          "type": "string"
        }
      ],
      "name": "decrementBalanceOfE",
      "outputs": [],
      "payable": false,
      "stateMutability": "nonpayable",
      "type": "function"
    },
    {
      "constant": false,
      "inputs": [
        {
          "internalType": "address",
          "name": "account",
          "type": "address"
        },
        {
          "internalType": "uint256",
          "name": "amount",
          "type": "uint256"
        },
        {
          "internalType": "string",
          "name": "reason",
          "type": "string"
        }
      ],
      "name": "decrementBalanceOfStagedE",
      "outputs": [],
      "payable": false,
      "stateMutability": "nonpayable",
      "type": "function"
    },
    {
      "constant": false,
      "inputs": [
        {
          "internalType": "address",
          "name": "candidate",
          "type": "address"
        },
        {
          "internalType": "uint256",
          "name": "amount",
          "type": "uint256"
        },
        {
          "internalType": "string",
          "name": "reason",
          "type": "string"
        }
      ],
      "name": "decrementRejectForE",
      "outputs": [],
      "payable": false,
      "stateMutability": "nonpayable",
      "type": "function"
    },
    {
      "constant": false,
      "inputs": [
        {
          "internalType": "uint256",
          "name": "amount",
          "type": "uint256"
        },
        {
          "internalType": "string",
          "name": "reason",
          "type": "string"
        }
      ],
      "name": "decrementTotalBondedE",
      "outputs": [],
      "payable": false,
      "stateMutability": "nonpayable",
      "type": "function"
    },
    {
      "constant": false,
      "inputs": [
        {
          "internalType": "uint256",
          "name": "amount",
          "type": "uint256"
        },
        {
          "internalType": "string",
          "name": "reason",
          "type": "string"
        }
      ],
      "name": "decrementTotalDebtE",
      "outputs": [],
      "payable": false,
      "stateMutability": "nonpayable",
      "type": "function"
    },
    {
      "constant": false,
      "inputs": [
        {
          "internalType": "uint256",
          "name": "amount",
          "type": "uint256"
        },
        {
          "internalType": "string",
          "name": "reason",
          "type": "string"
        }
      ],
      "name": "decrementTotalRedeemableE",
      "outputs": [],
      "payable": false,
      "stateMutability": "nonpayable",
      "type": "function"
    },
    {
      "constant": true,
      "inputs": [],
      "name": "dollar",
      "outputs": [
        {
          "internalType": "contract IDollar",
          "name": "",
          "type": "address"
        }
      ],
      "payable": false,
      "stateMutability": "view",
      "type": "function"
    },
    {
      "constant": false,
      "inputs": [
        {
          "internalType": "uint256",
          "name": "epoch",
          "type": "uint256"
        }
      ],
      "name": "eliminateOutstandingCouponsE",
      "outputs": [],
      "payable": false,
      "stateMutability": "nonpayable",
      "type": "function"
    },
    {
      "constant": true,
      "inputs": [],
      "name": "epoch",
      "outputs": [
        {
          "internalType": "uint256",
          "name": "",
          "type": "uint256"
        }
      ],
      "payable": false,
      "stateMutability": "view",
      "type": "function"
    },
    {
      "constant": true,
      "inputs": [],
      "name": "epochTime",
      "outputs": [
        {
          "internalType": "uint256",
          "name": "",
          "type": "uint256"
        }
      ],
      "payable": false,
      "stateMutability": "view",
      "type": "function"
    },
    {
      "constant": true,
      "inputs": [
        {
          "internalType": "uint256",
          "name": "epoch",
          "type": "uint256"
        }
      ],
      "name": "expiringCoupons",
      "outputs": [
        {
          "internalType": "uint256",
          "name": "",
          "type": "uint256"
        }
      ],
      "payable": false,
      "stateMutability": "view",
      "type": "function"
    },
    {
      "constant": true,
      "inputs": [
        {
          "internalType": "uint256",
          "name": "epoch",
          "type": "uint256"
        },
        {
          "internalType": "uint256",
          "name": "i",
          "type": "uint256"
        }
      ],
      "name": "expiringCouponsAtIndex",
      "outputs": [
        {
          "internalType": "uint256",
          "name": "",
          "type": "uint256"
        }
      ],
      "payable": false,
      "stateMutability": "view",
      "type": "function"
    },
    {
      "constant": true,
      "inputs": [
        {
          "internalType": "address",
          "name": "account",
          "type": "address"
        }
      ],
      "name": "fluidUntil",
      "outputs": [
        {
          "internalType": "uint256",
          "name": "",
          "type": "uint256"
        }
      ],
      "payable": false,
      "stateMutability": "view",
      "type": "function"
    },
    {
      "constant": true,
      "inputs": [],
      "name": "implementation",
      "outputs": [
        {
          "internalType": "address",
          "name": "impl",
          "type": "address"
        }
      ],
      "payable": false,
      "stateMutability": "view",
      "type": "function"
    },
    {
      "constant": false,
      "inputs": [
        {
          "internalType": "uint256",
          "name": "amount",
          "type": "uint256"
        }
      ],
      "name": "increaseDebtE",
      "outputs": [],
      "payable": false,
      "stateMutability": "nonpayable",
      "type": "function"
    },
    {
      "constant": false,
      "inputs": [
        {
          "internalType": "address",
          "name": "candidate",
          "type": "address"
        },
        {
          "internalType": "uint256",
          "name": "amount",
          "type": "uint256"
        }
      ],
      "name": "incrementApproveForE",
      "outputs": [],
      "payable": false,
      "stateMutability": "nonpayable",
      "type": "function"
    },
    {
      "constant": false,
      "inputs": [
        {
          "internalType": "address",
          "name": "account",
          "type": "address"
        },
        {
          "internalType": "uint256",
          "name": "epoch",
          "type": "uint256"
        },
        {
          "internalType": "uint256",
          "name": "amount",
          "type": "uint256"
        }
      ],
      "name": "incrementBalanceOfCouponsE",
      "outputs": [],
      "payable": false,
      "stateMutability": "nonpayable",
      "type": "function"
    },
    {
      "constant": false,
      "inputs": [
        {
          "internalType": "address",
          "name": "account",
          "type": "address"
        },
        {
          "internalType": "uint256",
          "name": "amount",
          "type": "uint256"
        }
      ],
      "name": "incrementBalanceOfE",
      "outputs": [],
      "payable": false,
      "stateMutability": "nonpayable",
      "type": "function"
    },
    {
      "constant": false,
      "inputs": [
        {
          "internalType": "address",
          "name": "account",
          "type": "address"
        },
        {
          "internalType": "uint256",
          "name": "amount",
          "type": "uint256"
        }
      ],
      "name": "incrementBalanceOfStagedE",
      "outputs": [],
      "payable": false,
      "stateMutability": "nonpayable",
      "type": "function"
    },
    {
      "constant": false,
      "inputs": [],
      "name": "incrementEpochE",
      "outputs": [],
      "payable": false,
      "stateMutability": "nonpayable",
      "type": "function"
    },
    {
      "constant": false,
      "inputs": [
        {
          "internalType": "address",
          "name": "candidate",
          "type": "address"
        },
        {
          "internalType": "uint256",
          "name": "amount",
          "type": "uint256"
        }
      ],
      "name": "incrementRejectForE",
      "outputs": [],
      "payable": false,
      "stateMutability": "nonpayable",
      "type": "function"
    },
    {
      "constant": false,
      "inputs": [
        {
          "internalType": "uint256",
          "name": "amount",
          "type": "uint256"
        }
      ],
      "name": "incrementTotalBondedE",
      "outputs": [],
      "payable": false,
      "stateMutability": "nonpayable",
      "type": "function"
    },
    {
      "constant": false,
      "inputs": [
        {
          "internalType": "uint256",
          "name": "amount",
          "type": "uint256"
        }
      ],
      "name": "incrementTotalDebtE",
      "outputs": [],
      "payable": false,
      "stateMutability": "nonpayable",
      "type": "function"
    },
    {
      "constant": false,
      "inputs": [
        {
          "internalType": "uint256",
          "name": "amount",
          "type": "uint256"
        }
      ],
      "name": "incrementTotalRedeemableE",
      "outputs": [],
      "payable": false,
      "stateMutability": "nonpayable",
      "type": "function"
    },
    {
      "constant": false,
      "inputs": [
        {
          "internalType": "uint256",
          "name": "epoch",
          "type": "uint256"
        },
        {
          "internalType": "uint256",
          "name": "expiration",
          "type": "uint256"
        }
      ],
      "name": "initializeCouponsExpirationE",
      "outputs": [],
      "payable": false,
      "stateMutability": "nonpayable",
      "type": "function"
    },
    {
      "constant": false,
      "inputs": [
        {
          "internalType": "address",
          "name": "candidate",
          "type": "address"
        }
      ],
      "name": "initializedE",
      "outputs": [],
      "payable": false,
      "stateMutability": "nonpayable",
      "type": "function"
    },
    {
      "constant": true,
      "inputs": [
        {
          "internalType": "address",
          "name": "candidate",
          "type": "address"
        }
      ],
      "name": "isInitialized",
      "outputs": [
        {
          "internalType": "bool",
          "name": "",
          "type": "bool"
        }
      ],
      "payable": false,
      "stateMutability": "view",
      "type": "function"
    },
    {
      "constant": true,
      "inputs": [
        {
          "internalType": "address",
          "name": "candidate",
          "type": "address"
        }
      ],
      "name": "isNominated",
      "outputs": [
        {
          "internalType": "bool",
          "name": "",
          "type": "bool"
        }
      ],
      "payable": false,
      "stateMutability": "view",
      "type": "function"
    },
    {
      "constant": true,
      "inputs": [
        {
          "internalType": "address",
          "name": "account",
          "type": "address"
        }
      ],
      "name": "lockedUntil",
      "outputs": [
        {
          "internalType": "uint256",
          "name": "",
          "type": "uint256"
        }
      ],
      "payable": false,
      "stateMutability": "view",
      "type": "function"
    },
    {
      "constant": false,
      "inputs": [
        {
          "internalType": "address",
          "name": "account",
          "type": "address"
        },
        {
          "internalType": "uint256",
          "name": "amount",
          "type": "uint256"
        }
      ],
      "name": "mintToAccountE",
      "outputs": [],
      "payable": false,
      "stateMutability": "nonpayable",
      "type": "function"
    },
    {
      "constant": false,
      "inputs": [
        {
          "internalType": "address",
          "name": "account",
          "type": "address"
        },
        {
          "internalType": "uint256",
          "name": "amount",
          "type": "uint256"
        }
      ],
      "name": "mintToE",
      "outputs": [],
      "payable": false,
      "stateMutability": "nonpayable",
      "type": "function"
    },
    {
      "constant": true,
      "inputs": [],
      "name": "name",
      "outputs": [
        {
          "internalType": "string",
          "name": "",
          "type": "string"
        }
      ],
      "payable": false,
      "stateMutability": "view",
      "type": "function"
    },
    {
      "constant": true,
      "inputs": [],
      "name": "oracle",
      "outputs": [
        {
          "internalType": "contract IOracle",
          "name": "",
          "type": "address"
        }
      ],
      "payable": false,
      "stateMutability": "view",
      "type": "function"
    },
    {
      "constant": true,
      "inputs": [
        {
          "internalType": "uint256",
          "name": "epoch",
          "type": "uint256"
        }
      ],
      "name": "outstandingCoupons",
      "outputs": [
        {
          "internalType": "uint256",
          "name": "",
          "type": "uint256"
        }
      ],
      "payable": false,
      "stateMutability": "view",
      "type": "function"
    },
    {
      "constant": true,
      "inputs": [
        {
          "internalType": "address",
          "name": "candidate",
          "type": "address"
        }
      ],
      "name": "periodFor",
      "outputs": [
        {
          "internalType": "uint256",
          "name": "",
          "type": "uint256"
        }
      ],
      "payable": false,
      "stateMutability": "view",
      "type": "function"
    },
    {
      "constant": false,
      "inputs": [
        {
          "internalType": "address",
          "name": "account",
          "type": "address"
        },
        {
          "internalType": "address",
          "name": "candidate",
          "type": "address"
        }
      ],
      "name": "placeLockE",
      "outputs": [],
      "payable": false,
      "stateMutability": "nonpayable",
      "type": "function"
    },
    {
      "constant": true,
      "inputs": [],
      "name": "pool",
      "outputs": [
        {
          "internalType": "address",
          "name": "",
          "type": "address"
        }
      ],
      "payable": false,
      "stateMutability": "view",
      "type": "function"
    },
    {
      "constant": false,
      "inputs": [
        {
          "internalType": "uint256",
          "name": "dollarAmount",
          "type": "uint256"
        }
      ],
      "name": "purchaseCoupons",
      "outputs": [
        {
          "internalType": "uint256",
          "name": "",
          "type": "uint256"
        }
      ],
      "payable": false,
      "stateMutability": "nonpayable",
      "type": "function"
    },
    {
      "constant": false,
      "inputs": [
        {
          "internalType": "address",
          "name": "account",
          "type": "address"
        },
        {
          "internalType": "address",
          "name": "candidate",
          "type": "address"
        },
        {
          "internalType": "enum Candidate.Vote",
          "name": "vote",
          "type": "uint8"
        }
      ],
      "name": "recordVoteE",
      "outputs": [],
      "payable": false,
      "stateMutability": "nonpayable",
      "type": "function"
    },
    {
      "constant": true,
      "inputs": [
        {
          "internalType": "address",
          "name": "account",
          "type": "address"
        },
        {
          "internalType": "address",
          "name": "candidate",
          "type": "address"
        }
      ],
      "name": "recordedVote",
      "outputs": [
        {
          "internalType": "enum Candidate.Vote",
          "name": "",
          "type": "uint8"
        }
      ],
      "payable": false,
      "stateMutability": "view",
      "type": "function"
    },
    {
      "constant": false,
      "inputs": [
        {
          "internalType": "uint256",
          "name": "couponEpoch",
          "type": "uint256"
        },
        {
          "internalType": "uint256",
          "name": "couponAmount",
          "type": "uint256"
        },
        {
          "internalType": "uint256",
          "name": "minOutput",
          "type": "uint256"
        }
      ],
      "name": "redeemCoupons",
      "outputs": [],
      "payable": false,
      "stateMutability": "nonpayable",
      "type": "function"
    },
    {
      "constant": false,
      "inputs": [
        {
          "internalType": "uint256",
          "name": "couponEpoch",
          "type": "uint256"
        },
        {
          "internalType": "uint256",
          "name": "couponAmount",
          "type": "uint256"
        }
      ],
      "name": "redeemCoupons",
      "outputs": [],
      "payable": false,
      "stateMutability": "nonpayable",
      "type": "function"
    },
    {
      "constant": false,
      "inputs": [
        {
          "internalType": "address",
          "name": "account",
          "type": "address"
        },
        {
          "internalType": "uint256",
          "name": "amount",
          "type": "uint256"
        }
      ],
      "name": "redeemToAccountE",
      "outputs": [],
      "payable": false,
      "stateMutability": "nonpayable",
      "type": "function"
    },
    {
      "constant": true,
      "inputs": [
        {
          "internalType": "address",
          "name": "candidate",
          "type": "address"
        }
      ],
      "name": "rejectFor",
      "outputs": [
        {
          "internalType": "uint256",
          "name": "",
          "type": "uint256"
        }
      ],
      "payable": false,
      "stateMutability": "view",
      "type": "function"
    },
    {
      "constant": false,
      "inputs": [
        {
          "internalType": "uint256",
          "name": "percent",
          "type": "uint256"
        }
      ],
      "name": "resetDebtE",
      "outputs": [],
      "payable": false,
      "stateMutability": "nonpayable",
      "type": "function"
    },
    {
      "constant": false,
      "inputs": [
        {
          "internalType": "uint256",
          "name": "timestamp",
          "type": "uint256"
        }
      ],
      "name": "setBlockTimestamp",
      "outputs": [],
      "payable": false,
      "stateMutability": "nonpayable",
      "type": "function"
    },
    {
      "constant": false,
      "inputs": [
        {
          "internalType": "uint256",
          "name": "start",
          "type": "uint256"
        },
        {
          "internalType": "uint256",
          "name": "period",
          "type": "uint256"
        }
      ],
      "name": "setEpochParamsE",
      "outputs": [],
      "payable": false,
      "stateMutability": "nonpayable",
      "type": "function"
    },
    {
      "constant": false,
      "inputs": [],
      "name": "snapshotTotalBondedE",
      "outputs": [],
      "payable": false,
      "stateMutability": "nonpayable",
      "type": "function"
    },
    {
      "constant": true,
      "inputs": [
        {
          "internalType": "address",
          "name": "candidate",
          "type": "address"
        }
      ],
      "name": "startFor",
      "outputs": [
        {
          "internalType": "uint256",
          "name": "",
          "type": "uint256"
        }
      ],
      "payable": false,
      "stateMutability": "view",
      "type": "function"
    },
    {
      "constant": true,
      "inputs": [
        {
          "internalType": "address",
          "name": "account",
          "type": "address"
        }
      ],
      "name": "statusOf",
      "outputs": [
        {
          "internalType": "enum Account.Status",
          "name": "",
          "type": "uint8"
        }
      ],
      "payable": false,
      "stateMutability": "view",
      "type": "function"
    },
    {
      "constant": true,
      "inputs": [],
      "name": "symbol",
      "outputs": [
        {
          "internalType": "string",
          "name": "",
          "type": "string"
        }
      ],
      "payable": false,
      "stateMutability": "view",
      "type": "function"
    },
    {
      "constant": true,
      "inputs": [],
      "name": "totalBonded",
      "outputs": [
        {
          "internalType": "uint256",
          "name": "",
          "type": "uint256"
        }
      ],
      "payable": false,
      "stateMutability": "view",
      "type": "function"
    },
    {
      "constant": true,
      "inputs": [
        {
          "internalType": "uint256",
          "name": "epoch",
          "type": "uint256"
        }
      ],
      "name": "totalBondedAt",
      "outputs": [
        {
          "internalType": "uint256",
          "name": "",
          "type": "uint256"
        }
      ],
      "payable": false,
      "stateMutability": "view",
      "type": "function"
    },
    {
      "constant": true,
      "inputs": [],
      "name": "totalCoupons",
      "outputs": [
        {
          "internalType": "uint256",
          "name": "",
          "type": "uint256"
        }
      ],
      "payable": false,
      "stateMutability": "view",
      "type": "function"
    },
    {
      "constant": true,
      "inputs": [],
      "name": "totalDebt",
      "outputs": [
        {
          "internalType": "uint256",
          "name": "",
          "type": "uint256"
        }
      ],
      "payable": false,
      "stateMutability": "view",
      "type": "function"
    },
    {
      "constant": true,
      "inputs": [],
      "name": "totalNet",
      "outputs": [
        {
          "internalType": "uint256",
          "name": "",
          "type": "uint256"
        }
      ],
      "payable": false,
      "stateMutability": "view",
      "type": "function"
    },
    {
      "constant": true,
      "inputs": [],
      "name": "totalRedeemable",
      "outputs": [
        {
          "internalType": "uint256",
          "name": "",
          "type": "uint256"
        }
      ],
      "payable": false,
      "stateMutability": "view",
      "type": "function"
    },
    {
      "constant": true,
      "inputs": [],
      "name": "totalStaged",
      "outputs": [
        {
          "internalType": "uint256",
          "name": "",
          "type": "uint256"
        }
      ],
      "payable": false,
      "stateMutability": "view",
      "type": "function"
    },
    {
      "constant": true,
      "inputs": [],
      "name": "totalSupply",
      "outputs": [
        {
          "internalType": "uint256",
          "name": "",
          "type": "uint256"
        }
      ],
      "payable": false,
      "stateMutability": "view",
      "type": "function"
    },
    {
      "constant": false,
      "inputs": [
        {
          "internalType": "address",
          "name": "recipient",
          "type": "address"
        },
        {
          "internalType": "uint256",
          "name": "amount",
          "type": "uint256"
        }
      ],
      "name": "transfer",
      "outputs": [
        {
          "internalType": "bool",
          "name": "",
          "type": "bool"
        }
      ],
      "payable": false,
      "stateMutability": "nonpayable",
      "type": "function"
    },
    {
      "constant": false,
      "inputs": [
        {
          "internalType": "address",
          "name": "sender",
          "type": "address"
        },
        {
          "internalType": "address",
          "name": "recipient",
          "type": "address"
        },
        {
          "internalType": "uint256",
          "name": "epoch",
          "type": "uint256"
        },
        {
          "internalType": "uint256",
          "name": "amount",
          "type": "uint256"
        }
      ],
      "name": "transferCoupons",
      "outputs": [],
      "payable": false,
      "stateMutability": "nonpayable",
      "type": "function"
    },
    {
      "constant": false,
      "inputs": [
        {
          "internalType": "address",
          "name": "sender",
          "type": "address"
        },
        {
          "internalType": "address",
          "name": "recipient",
          "type": "address"
        },
        {
          "internalType": "uint256",
          "name": "amount",
          "type": "uint256"
        }
      ],
      "name": "transferFrom",
      "outputs": [
        {
          "internalType": "bool",
          "name": "",
          "type": "bool"
        }
      ],
      "payable": false,
      "stateMutability": "nonpayable",
      "type": "function"
    },
    {
      "constant": false,
      "inputs": [
        {
          "internalType": "address",
          "name": "account",
          "type": "address"
        }
      ],
      "name": "unfreezeE",
      "outputs": [],
      "payable": false,
      "stateMutability": "nonpayable",
      "type": "function"
    },
    {
      "constant": false,
      "inputs": [
        {
          "internalType": "address",
          "name": "owner",
          "type": "address"
        },
        {
          "internalType": "address",
          "name": "spender",
          "type": "address"
        },
        {
          "internalType": "uint256",
          "name": "amount",
          "type": "uint256"
        }
      ],
      "name": "updateAllowanceCouponsE",
      "outputs": [],
      "payable": false,
      "stateMutability": "nonpayable",
      "type": "function"
    },
    {
      "constant": true,
      "inputs": [
        {
          "internalType": "address",
          "name": "candidate",
          "type": "address"
        }
      ],
      "name": "votesFor",
      "outputs": [
        {
          "internalType": "uint256",
          "name": "",
          "type": "uint256"
        }
      ],
      "payable": false,
      "stateMutability": "view",
      "type": "function"
    },
    {
      "constant": false,
      "inputs": [],
      "name": "stepE",
      "outputs": [],
      "payable": false,
      "stateMutability": "nonpayable",
      "type": "function"
    }
  ],
  "bytecode": "0x60806040523480156200001157600080fd5b50604051620059dc380380620059dc8339810160408190526200003491620000bd565b42600f55604051819062000048906200009c565b604051809103906000f08015801562000065573d6000803e3d6000fd5b50600980546001600160a01b039283166001600160a01b031991821617909155600b80549390921692169190911790555062000112565b611c038062003dd983390190565b8051620000b781620000f8565b92915050565b600060208284031215620000d057600080fd5b6000620000de8484620000aa565b949350505050565b60006001600160a01b038216620000b7565b6200010381620000e6565b81146200010f57600080fd5b50565b613cb780620001226000396000f3fe608060405234801561001057600080fd5b50600436106104cc5760003560e01c80638413e52a11610283578063b32a2f901161015c578063d6d8816d116100ce578063e5f55c7e11610092578063e5f55c7e14610a67578063f1b7cf4914610a7a578063f35adf7e14610a8d578063f7a3181814610a95578063fc7b9c1814610aa8578063ffbe3b7314610ab0576104cc565b8063d6d8816d14610a0d578063d83d3ed514610a20578063d8f5413814610a33578063dd62ed3e14610a46578063e0abdf6614610a54576104cc565b8063c45a3e0a11610120578063c45a3e0a146109a6578063c9aff70c146109b9578063cc8d823c146109cc578063cf023779146109df578063d60b347f146109e7578063d6a9cf08146109fa576104cc565b8063b32a2f9014610947578063bc0b1df61461095a578063bc7513e21461096d578063c1410c0214610980578063c2aeb5fe14610993576104cc565b8063a00e14d1116101f5578063a9059cbb116101b9578063a9059cbb14610504578063a9b3cf15146108e8578063adbff2be146108fb578063ae5c23811461090e578063b11ee0e314610921578063b16144a314610934576104cc565b8063a00e14d114610894578063a1eb31e8146108a7578063a50cd8e7146108ba578063a6c409f1146108cd578063a6f37b53146108d5576104cc565b806397a5d5b51161024757806397a5d5b51461082d5780639a649edc146108405780639b82b49b146108485780639bc289f11461085b5780639be464931461086e5780639f6e1b2614610881576104cc565b80638413e52a146107e457806386cf9f14146107f75780638de2e5731461080a578063900cf0cf1461081d57806395d89b4114610825576104cc565b80633fbba9a6116103b55780635f14fec81161032757806371c511eb116102eb57806371c511eb1461078857806372924d2a1461079057806375d5024b146107a35780637cb95a32146107b65780637dc0d1d0146107c9578063825ad607146107d1576104cc565b80635f14fec814610729578063646680221461073c5780636a39e3281461074f5780636b862d661461076257806370a0823114610775576104cc565b80634c736099116103795780634c736099146106cb5780635053e461146106de57806351adeb57146106e657806351bf21d8146106fb5780635c60da1b1461070e5780635dbf800a14610716576104cc565b80633fbba9a6146106755780633fd4973c14610695578063416a23cc146106a857806343873526146106b057806344d96e95146106c3576104cc565b80631fac97321161044e5780632f7f889e116104125780632f7f889e14610601578063313ce567146106145780633234742214610629578063353a420c1461063c5780633a3e6c811461064f5780633f7bcaf314610662576104cc565b80631fac9732146105a257806320f6bc90146105b557806323b872dd146105c8578063259f7adf146105db578063277805a9146105ee576104cc565b806315e14bf61161049557806315e14bf61461055757806316f0115b1461056a57806318160ddd1461057f5780631a08e22a146105875780631edbcf6c1461059a576104cc565b80625edd37146104d157806306fdde03146104e6578063095ea7b3146105045780630dc6d3a31461052457806310e95b6c14610537575b600080fd5b6104e46104df3660046134cb565b610ac3565b005b6104ee610be6565b6040516104fb9190613a39565b60405180910390f35b61051761051236600461352c565b610c15565b6040516104fb9190613a0f565b6104e461053236600461344d565b610c1e565b61054a610545366004613649565b610c67565b6040516104fb9190613aaa565b61054a610565366004613365565b610c7f565b610572610c9d565b6040516104fb91906139be565b61054a610cac565b6104e46105953660046136db565b610cb2565b61054a610cc0565b6104e46105b0366004613649565b610cc6565b6104e46105c336600461352c565b610cd2565b6105176105d636600461340a565b610cdc565b6104e46105e9366004613649565b610ce6565b6104e46105fc36600461352c565b610cef565b6104e461060f36600461352c565b610d7b565b61061c610dfb565b6040516104fb9190613afb565b6104e4610637366004613685565b610e00565b61054a61064a366004613365565b610e40565b61051761065d366004613365565b610e5e565b6104e461067036600461340a565b610e7b565b610688610683366004613383565b610e86565b6040516104fb9190613a2b565b6104e46106a336600461355c565b610eb9565b6104e4610f00565b6104e46106be366004613649565b610f0a565b61054a610f13565b61054a6106d93660046136db565b610f19565b61054a610f49565b6106ee610f6c565b6040516104fb9190613a1d565b61054a610709366004613365565b610f7b565b610572610f99565b6104e4610724366004613649565b610fbe565b6104e461073736600461352c565b610fc7565b61054a61074a366004613365565b610fd1565b61054a61075d366004613649565b610fef565b6104e46107703660046135c4565b611004565b61054a610783366004613365565b61100f565b6104e461102d565b6104e461079e366004613685565b611035565b6105176107b1366004613649565b611075565b6104e46107c436600461355c565b611088565b6106ee6110c9565b61054a6107df366004613365565b6110d8565b6104e46107f23660046133bd565b611124565b61054a610805366004613365565b61112f565b6104e4610818366004613649565b61114a565b61054a611153565b6104ee611159565b61068861083b366004613365565b611177565b61054a6111dc565b6104e4610856366004613685565b6111e2565b61054a610869366004613365565b611222565b6104e461087c366004613365565b611240565b61054a61088f366004613383565b611249565b6104e46108a23660046136db565b611278565b61054a6108b53660046136db565b611283565b61054a6108c8366004613365565b6113a9565b61054a6113cc565b6104e46108e3366004613365565b611462565b6104e46108f6366004613649565b61146b565b6104e461090936600461355c565b611474565b6104e461091c36600461352c565b6114b5565b6104e461092f36600461352c565b6114bf565b6104e4610942366004613649565b6114c9565b6104e461095536600461355c565b6114dc565b6104e46109683660046136fa565b61151d565b61054a61097b36600461352c565b611651565b6104e461098e366004613383565b611695565b6104e46109a13660046135f6565b61169f565b6104e46109b436600461352c565b6116e1565b61054a6109c7366004613649565b6116eb565b6104e46109da36600461352c565b611700565b61054a61170a565b6105176109f5366004613365565b611710565b6104e4610a083660046136db565b611731565b6104e4610a1b366004613649565b61182d565b6104e4610a2e36600461352c565b611836565b61054a610a41366004613649565b611840565b61054a610512366004613383565b6104e4610a62366004613649565b6118cb565b61054a610a75366004613649565b6118d0565b61054a610a88366004613365565b6119c2565b6104e46119dd565b6104e4610aa336600461352c565b6119e5565b61054a6119ef565b61054a610abe366004613649565b6119f5565b6001600160a01b038416610af25760405162461bcd60e51b8152600401610ae990613a8a565b60405180910390fd5b6001600160a01b038316610b185760405162461bcd60e51b8152600401610ae990613a5a565b610b3c848383604051806060016040528060238152602001613bdc60239139611a07565b610b47838383611ab2565b336001600160a01b03851614801590610b6b5750600019610b688533611249565b14155b15610b9457610b94843383604051806060016040528060248152602001613bff60249139611b59565b81836001600160a01b0316856001600160a01b03167f0f1dbb1ccbe57a1590c7baad7b01d581b730c9ebc535dcde4345e6db424063d884604051610bd89190613aaa565b60405180910390a450505050565b604080518082019091526015815274467265712053657420446f6c6c6172205374616b6560581b602082015290565b60005b92915050565b610c6085858585858080601f016020809104026020016040519081016040528093929190818152602001838380828437600092019190915250611b5992505050565b5050505050565b6000818152600d60205260409020600201545b919050565b6001600160a01b03166000908152600e602052604090206001015490565b600b546001600160a01b031690565b60035490565b610cbc8282611bca565b5050565b60065490565b610ccf81611bfc565b50565b610cbc8282611c43565b60005b9392505050565b610ccf81611ceb565b610cf7610f6c565b6001600160a01b03166340c10f1983836040518363ffffffff1660e01b8152600401610d249291906139f4565b602060405180830381600087803b158015610d3e57600080fd5b505af1158015610d52573d6000803e3d6000fd5b505050506040513d601f19601f82011682018060405250610d76919081019061362b565b505050565b6001600160a01b038216610da15760405162461bcd60e51b8152600401610ae990613a7a565b610dac338383611d04565b816001600160a01b0316336001600160a01b03167f8ff27e6b95060c1ca851e7c2c28af8b413eb1a8bcb637b0290da9543a709cce383604051610def9190613aaa565b60405180910390a35050565b601290565b610d768383838080601f016020809104026020016040519081016040528093929190818152602001838380828437600092019190915250611d3492505050565b6001600160a01b03166000908152600e602052604090206003015490565b6001600160a01b03166000908152600e6020526040902054151590565b610d76838383611d04565b6001600160a01b038082166000908152600e60209081526040808320938616835260049093019052205460ff1692915050565b610efa848484848080601f016020809104026020016040519081016040528093929190818152602001838380828437600092019190915250611d4f92505050565b50505050565b610f08611da0565b565b610ccf81611dff565b60045490565b6000828152600d60205260408120600301805483908110610f3657fe5b9060005260206000200154905092915050565b6000610f536132b1565b610f5b611e13565b9050610f6681611e42565b91505090565b6009546001600160a01b031690565b6001600160a01b03166000908152600c602052604090206004015490565b7f360894a13ba1a3210667c828492db98dca3e2076cc3735a920a3ca505d382bbc5490565b610ccf81611e64565b610cbc8282611eeb565b6001600160a01b03166000908152600e602052604090206002015490565b6000908152600d602052604090206003015490565b610d76838383611ab2565b6001600160a01b03166000908152600c602052604090206001015490565b610f08611ffc565b610d768383838080601f01602080910402602001604051908101604052809392919081815260200183838082843760009201919091525061202392505050565b600061107f61203e565b90911115919050565b610efa848484848080601f01602080910402602001604051908101604052809392919081815260200183838082843760009201919091525061204392505050565b600a546001600160a01b031690565b6000806110e3610cac565b9050806110f4576000915050610c7a565b610cdf816111186111048661100f565b61110c610f13565b9063ffffffff61209416565b9063ffffffff6120ce16565b610d76838383612110565b6001600160a01b03166000908152600c602052604090205490565b610ccf8161215a565b60025490565b6040805180820190915260048152634653445360e01b602082015290565b6000611181611153565b6001600160a01b0383166000908152600c602052604090206005015411156111ab57506002610c7a565b6001600160a01b0382166000908152600c60205260409020600401546111cf611153565b1015610c15576001610c18565b60085490565b610d768383838080601f01602080910402602001604051908101604052809392919081815260200183838082843760009201919091525061217392505050565b6001600160a01b03166000908152600c602052604090206005015490565b610ccf8161218e565b6001600160a01b039182166000908152600c602090815260408083209390941682526003909201909152205490565b600091909155600155565b60008061128e611e13565b60400151428161129a57fe5b0690506000846112a8611153565b03905060006112b56121b8565b826112be6121b8565b036112c76121be565b02816112cf57fe5b049050808311156112e65760009350505050610c18565b6112ee6132d2565b6113416040518060200160405280856113056121b8565b03815250611335604051806020016040528061131f6121b8565b90526113296121c4565b9063ffffffff6121e616565b9063ffffffff61221d16565b905061134b6132d2565b60408051602080820183528786038252825190810190925284825261137b9161133590859063ffffffff6121e616565b604080516020810190915288815290915061139c908263ffffffff61221d16565b5198975050505050505050565b6000610c186113b783610e40565b6113c084610fd1565b9063ffffffff61224b16565b600061145d6113d96119ef565b6113e1610f6c565b6001600160a01b03166318160ddd6040518163ffffffff1660e01b815260040160206040518083038186803b15801561141957600080fd5b505afa15801561142d573d6000803e3d6000fd5b505050506040513d601f19601f820116820180604052506114519190810190613667565b9063ffffffff61227016565b905090565b610ccf816122b2565b610ccf816122d9565b610efa848484848080601f01602080910402602001604051908101604052809392919081815260200183838082843760009201919091525061231c92505050565b610cbc82826123c7565b610cbc8282612463565b610ccf6114d78260646124bf565b6124e5565b610efa848484848080601f0160208091040260200160405190810160405280939291908181526020018383808284376000920191909152506125aa92505050565b600261152b84611451611153565b10156115495760405162461bcd60e51b8152600401610ae990613a9a565b61156d338484604051806060016040528060238152602001613bdc60239139611a07565b60006115798484611283565b90508083036115b5838210156513585c9ad95d60d21b7f496e73756666696369656e74206f757470757420616d6f756e74000000000000612609565b6115bf338261265e565b81156116085784336001600160a01b03167f1cd1213d4276c260e84170b4a39025dc8398fbf744edee0709261769b456b94b846040516115ff9190613aaa565b60405180910390a35b84336001600160a01b03167f46e9903ae8ac9e9f0c9bc321b05965c1c036e7d4783758703f5cdfc4133c51b6836040516116429190613aaa565b60405180910390a35050505050565b600061165c826116eb565b61166857506000610c18565b506001600160a01b03919091166000908152600c6020908152604080832093835260029093019052205490565b610cbc8282612708565b610c6085858585858080601f016020809104026020016040519081016040528093929190818152602001838380828437600092019190915250611a0792505050565b610cbc828261265e565b6000908152600d602052604090206001015490565b610cbc8282612768565b60055490565b6001600160a01b03166000908152600e602052604090206005015460ff1690565b600261173f83611451611153565b101561175d5760405162461bcd60e51b8152600401610ae990613a9a565b611781338383604051806060016040528060238152602001613bdc60239139611a07565b600061178d8383611283565b905080820361179c338261265e565b81156117e55783336001600160a01b03167f1cd1213d4276c260e84170b4a39025dc8398fbf744edee0709261769b456b94b846040516117dc9190613aaa565b60405180910390a35b83336001600160a01b03167f46e9903ae8ac9e9f0c9bc321b05965c1c036e7d4783758703f5cdfc4133c51b68360405161181f9190613aaa565b60405180910390a350505050565b610ccf816127b7565b610cbc82826127d0565b6000610c1861184d610f6c565b6001600160a01b03166318160ddd6040518163ffffffff1660e01b815260040160206040518083038186803b15801561188557600080fd5b505afa158015611899573d6000803e3d6000fd5b505050506040513d601f19601f820116820180604052506118bd9190810190613667565b6118c56119ef565b846127fc565b600f55565b6000611909600083116513585c9ad95d60d21b7f4d757374207075726368617365206e6f6e2d7a65726f20616d6f756e74000000612609565b611939826119156119ef565b10156513585c9ad95d60d21b6e139bdd08195b9bdd59da081919589d608a1b612609565b6000611943611153565b9050600061196061195385611840565b859063ffffffff61224b16565b905061196c3385611eeb565b611977338383611ab2565b81336001600160a01b03167fbce252db29f761f815dc2e9ea60005af065efba6eb619d2a0b2a113fdeb6141486846040516119b3929190613ab8565b60405180910390a39392505050565b6001600160a01b03166000908152600e602052604090205490565b610f08612824565b610cbc828261283d565b60075490565b6000908152600d602052604090205490565b6001600160a01b0384166000908152600c60209081526040808320868452600201909152902054611a3f90838363ffffffff61288c16565b6001600160a01b0385166000908152600c60209081526040808320878452600201825280832093909355600d90522060010154611a8390838363ffffffff61288c16565b6000848152600d6020526040902060010155600854611aa990838363ffffffff61288c16565b60085550505050565b6001600160a01b0383166000908152600c60209081526040808320858452600201909152902054611ae9908263ffffffff61224b16565b6001600160a01b0384166000908152600c60209081526040808320868452600201825280832093909355600d90522060010154611b2c908263ffffffff61224b16565b6000838152600d6020526040902060010155600854611b51908263ffffffff61224b16565b600855505050565b6001600160a01b038085166000908152600c602090815260408083209387168352600390930190522054611b9490838363ffffffff61288c16565b6001600160a01b039485166000908152600c60209081526040808320969097168252600390950190945293909220929092555050565b6000828152600d6020908152604080832060020184905592825291812060030180546001810182559082529190200155565b611c3b816040518060400160405280601c81526020017f436f6d7074726f6c6c65723a206e6f7420656e6f756768206465627400000000815250612023565b610ccf6128b8565b611c4b610f6c565b6001600160a01b03166340c10f1983836040518363ffffffff1660e01b8152600401611c789291906139f4565b602060405180830381600087803b158015611c9257600080fd5b505af1158015611ca6573d6000803e3d6000fd5b505050506040513d601f19601f82011682018060405250611cca919081019061362b565b50611cd66107b1611153565b611ce357611ce381611dff565b610cbc6128b8565b600454611cfe908263ffffffff61224b16565b60045550565b6001600160a01b039283166000908152600c60209081526040808320949095168252600390930190925291902055565b600654611d4890838363ffffffff61288c16565b6006555050565b6001600160a01b0383166000908152600e6020526040902060030154611d7c90838363ffffffff61288c16565b6001600160a01b039093166000908152600e60205260409020600301929092555050565b60005b611dae61075d611153565b811015611dd657611dce611dc9611dc3611153565b83610f19565b61298b565b600101611da3565b506000611dec611de46121b8565b6113c0611153565b9050610ccf611df9611153565b82611bca565b611e088161215a565b611c3b6114d7612a37565b611e1b6132b1565b604051806060016040528060008152602001635ff535c08152602001610e10815250905090565b6000610c1882600001516113c084604001516111188660200151611451612a59565b611e6c610f6c565b6001600160a01b03166342966c68826040518263ffffffff1660e01b8152600401611e979190613aaa565b600060405180830381600087803b158015611eb157600080fd5b505af1158015611ec5573d6000803e3d6000fd5b50505050611c3b816040518060600160405280602a8152602001613c4b602a9139611d34565b611ef3610f6c565b6001600160a01b03166323b872dd8330846040518463ffffffff1660e01b8152600401611f22939291906139cc565b602060405180830381600087803b158015611f3c57600080fd5b505af1158015611f50573d6000803e3d6000fd5b505050506040513d601f19601f82011682018060405250611f74919081019061362b565b50611f7d610f6c565b6001600160a01b03166342966c68826040518263ffffffff1660e01b8152600401611fa89190613aaa565b600060405180830381600087803b158015611fc257600080fd5b505af1158015611fd6573d6000803e3d6000fd5b50505050611ce381604051806060016040528060288152602001613c2360289139612023565b612004610cac565b600d6000612010611153565b8152602081019190915260400160002055565b60075461203790838363ffffffff61288c16565b6007555050565b60a890565b6001600160a01b0383166000908152600e602052604090206002015461207090838363ffffffff61288c16565b6001600160a01b039093166000908152600e60205260409020600201929092555050565b6000826120a357506000610c18565b828202828482816120b057fe5b0414610cdf5760405162461bcd60e51b8152600401610ae990613a6a565b6000610cdf83836040518060400160405280601a81526020017f536166654d6174683a206469766973696f6e206279207a65726f000000000000815250612a5f565b6001600160a01b038083166000908152600e6020908152604080832093871683526004909301905220805482919060ff1916600183600281111561215057fe5b0217905550505050565b60075461216d908263ffffffff61224b16565b60075550565b60045461218790838363ffffffff61288c16565b6004555050565b612199611de4612a96565b6001600160a01b039091166000908152600c6020526040902060040155565b6102d090565b61070890565b6121cc6132d2565b506040805160208101909152670905438e60010000815290565b6121ee6132d2565b60405180602001604052806122148560000151670de0b6b3a76400008660000151612a9b565b90529392505050565b6122256132d2565b604051806020016040528061221485600001518560000151670de0b6b3a7640000612a9b565b600082820183811015610cdf5760405162461bcd60e51b8152600401610ae990613a4a565b6000610cdf83836040518060400160405280601e81526020017f536166654d6174683a207375627472616374696f6e206f766572666c6f77000081525061288c565b6001600160a01b03166000908152600e60205260409020600501805460ff19166001179055565b60006122e4826116eb565b9050806122f15750610ccf565b600854612304908263ffffffff61227016565b600855506000908152600d6020526040812060010155565b6001600160a01b0383166000908152600c602052604090206001015461234990838363ffffffff61288c16565b6001600160a01b0384166000908152600c602052604090206001015560035461237990838363ffffffff61288c16565b6003556040516000906001600160a01b038516907fddf252ad1be2c89b69c2b068fc378daa952ba7f163c4a11628f55a4df523b3ef906123ba908690613aaa565b60405180910390a3505050565b6001600160a01b0382166000908152600c60205260409020600101546123f3908263ffffffff61224b16565b6001600160a01b0383166000908152600c6020526040902060010155600354612422908263ffffffff61224b16565b6003556040516001600160a01b038316906000907fddf252ad1be2c89b69c2b068fc378daa952ba7f163c4a11628f55a4df523b3ef90610def908590613aaa565b6001600160a01b0382166000908152600c602052604090205461248c908263ffffffff61224b16565b6001600160a01b0383166000908152600c60205260409020556005546124b8908263ffffffff61224b16565b6005555050565b6124c76132d2565b604051806020016040528061221485670de0b6b3a764000086612a9b565b60006125776125726124f5610f6c565b6001600160a01b03166318160ddd6040518163ffffffff1660e01b815260040160206040518083038186803b15801561252d57600080fd5b505afa158015612541573d6000803e3d6000fd5b505050506040513d601f19601f820116820180604052506125659190810190613667565b849063ffffffff612ab116565b612ad8565b905060006125836119ef565b905081811115610d7657600061259f828463ffffffff61227016565b9050610efa81611bfc565b6001600160a01b0383166000908152600c60205260409020546125d490838363ffffffff61288c16565b6001600160a01b0384166000908152600c602052604090205560055461260190838363ffffffff61288c16565b600555505050565b82610d765761261782612af5565b6101d160f51b61262683612af5565b6040516020016126389392919061398d565b60408051601f198184030181529082905262461bcd60e51b8252610ae991600401613a39565b612666610f6c565b6001600160a01b031663a9059cbb83836040518363ffffffff1660e01b81526004016126939291906139f4565b602060405180830381600087803b1580156126ad57600080fd5b505af11580156126c1573d6000803e3d6000fd5b505050506040513d601f19601f820116820180604052506126e5919081019061362b565b50611ce3816040518060600160405280602a8152602001613c4b602a9139611d34565b6001600160a01b0382166000908152600c60205260408120600501549061273a61273184610c7f565b6113c0856119c2565b905081811115610efa576001600160a01b0384166000908152600c6020526040902060050181905550505050565b6001600160a01b0382166000908152600e6020526040902060030154612794908263ffffffff61224b16565b6001600160a01b039092166000908152600e602052604090206003019190915550565b6006546127ca908263ffffffff61224b16565b60065550565b6127d8611153565b6001600160a01b039092166000908152600e60205260409020918255600190910155565b600061281c61257283612810878787612b75565b9063ffffffff612ab116565b949350505050565b60025461283890600163ffffffff61224b16565b600255565b6001600160a01b0382166000908152600e6020526040902060020154612869908263ffffffff61224b16565b6001600160a01b039092166000908152600e602052604090206002019190915550565b600081848411156128b05760405162461bcd60e51b8152600401610ae99190613a39565b505050900390565b610f086128d96128c6610cc0565b6113c06128d161170a565b6113c0610f13565b6128e1610f6c565b6001600160a01b03166370a08231306040518263ffffffff1660e01b815260040161290c91906139be565b60206040518083038186803b15801561292457600080fd5b505afa158015612938573d6000803e3d6000fd5b505050506040513d601f19601f8201168201806040525061295c9190810190613667565b10156a21b7b6b83a3937b63632b960a91b74496e636f6e73697374656e742062616c616e63657360581b612609565b6000612996826116eb565b9050600080806129a5856122d9565b60006129af610cc0565b905060006129bb6111dc565b9050808211156129f0576129d5828263ffffffff61227016565b94506129e085611e64565b6129e985612ce2565b9095509350505b867f753df65b37159bf237ae1fca97ba1bd57cf83bc9498f271a514a4d7bafe87bda87878787604051612a269493929190613ac6565b60405180910390a250505050505050565b612a3f6132d2565b5060408051602081019091526706f05b59d3b20000815290565b600f5490565b60008183612a805760405162461bcd60e51b8152600401610ae99190613a39565b506000838581612a8c57fe5b0495945050505050565b600c90565b600061281c82611118868663ffffffff61209416565b612ab96132d2565b604080516020810190915283518190612214908563ffffffff61209416565b8051600090610c1890670de0b6b3a764000063ffffffff6120ce16565b60608082604051602001612b099190613978565b60408051601f19818403018152919052905060205b8015612b5e57815160001990910190829082908110612b3957fe5b01602001516001600160f81b03191615612b595760010181529050610c7a565b612b1e565b505060408051600081526020810190915292915050565b612b7d6132d2565b612b856132d2565b612b8f84866124bf565b9050612b996132d2565b612ba1612a37565b90506000612bb5878663ffffffff61227016565b90506000612bc9878763ffffffff61227016565b9050612bd36132d2565b612bdd82846124bf565b9050612bef858563ffffffff612e4e16565b15612ccb57612c04818563ffffffff612e4e16565b15612c1e57612c1284612e64565b95505050505050610cdf565b612c266132d2565b612c308286612ebc565b9050612c3a6132d2565b612c4a868463ffffffff612f1916565b9050612c546132d2565b612c5d87612e64565b9050612c676132d2565b612c77898963ffffffff612f1916565b9050612cbb612c8c848363ffffffff612f4216565b611329612c9f858563ffffffff61221d16565b612caf888863ffffffff61221d16565b9063ffffffff612f4216565b9950505050505050505050610cdf565b612cd58186612ebc565b9998505050505050505050565b6000808080808080612cf2610cc0565b90506000612cfe6111dc565b905080821015612dbb57612d18818363ffffffff61227016565b9450612d40612d2f6064612d2a612f6b565b612270565b61111887606463ffffffff61209416565b9450888511612d4f5784612d51565b885b9450612d706064611118612d63612f6b565b889063ffffffff61209416565b9250612d82858463ffffffff61227016565b9450612d8d83612f70565b612d9685613004565b612da6898463ffffffff61227016565b9850612db8898663ffffffff61227016565b98505b6000612dc56119ef565b905060008a118015612dd75750600081115b15612e0957898111612de95780612deb565b895b9450612df685611bfc565b612e068a8663ffffffff61227016565b99505b612e11610f13565b612e1a57600099505b8915612e2957612e298a613095565b8585612e3b8c8763ffffffff61224b16565b9850985098505050505050509193909250565b6000612e5a8383613135565b6002149392505050565b612e6c6132d2565b610c18612e7b600160036124bf565b612e92612eb4612eaa6002612e9e88612e92613167565b9063ffffffff612f1916565b9063ffffffff61318916565b61133560036131df565b611329613167565b612ec46132d2565b612ed4838363ffffffff61321316565b15612ee957612ee283612e64565b9050610c18565b610cdf612ef8600160036124bf565b612e92612eb4612f0a87612e92613167565b611335612eaa88612e92613167565b612f216132d2565b6040805160208101909152825184518291612214919063ffffffff61227016565b612f4a6132d2565b6040805160208101909152825184518291612214919063ffffffff61224b16565b603290565b8015610ccf57612f7e610f6c565b6001600160a01b03166340c10f19612f94610c9d565b836040518363ffffffff1660e01b8152600401612fb29291906139f4565b602060405180830381600087803b158015612fcc57600080fd5b505af1158015612fe0573d6000803e3d6000fd5b505050506040513d601f19601f82011682018060405250610cbc919081019061362b565b61300c610f6c565b6001600160a01b03166340c10f1930836040518363ffffffff1660e01b81526004016130399291906139f4565b602060405180830381600087803b15801561305357600080fd5b505af1158015613067573d6000803e3d6000fd5b505050506040513d601f19601f8201168201806040525061308b919081019061362b565b50611c3b816127b7565b6130d860006130a2610f13565b116a21b7b6b83a3937b63632b960a91b7f43616e74206d696e7420746f20656d70747920706f6f6c000000000000000000612609565b60006130f760646111186130ea612f6b565b859063ffffffff61209416565b90506000818311613109576000613119565b613119838363ffffffff61227016565b905061312482612f70565b61312d8161321a565b610d766128b8565b80518251600091141561314a57506001610c18565b815183511161315a57600061315d565b60025b60ff169392505050565b61316f6132d2565b506040805160208101909152670de0b6b3a7640000815290565b6131916132d2565b816131a057612ee260016131df565b6131a86132d2565b5060408051602081019091528351815260015b838110156131d7576131cd828661221d565b91506001016131bb565b509392505050565b6131e76132d2565b60408051602081019091528061320b84670de0b6b3a764000063ffffffff61209416565b905292915050565b5190511490565b8015610ccf57613228610f6c565b6001600160a01b03166340c10f1930836040518363ffffffff1660e01b81526004016132559291906139f4565b602060405180830381600087803b15801561326f57600080fd5b505af1158015613283573d6000803e3d6000fd5b505050506040513d601f19601f820116820180604052506132a7919081019061362b565b50610ccf81611ceb565b60405180606001604052806000815260200160008152602001600081525090565b6040518060200160405280600081525090565b8035610c1881613ba8565b8051610c1881613bbc565b8035610c1881613bc5565b60008083601f84011261331857600080fd5b50813567ffffffffffffffff81111561333057600080fd5b60208301915083600182028301111561334857600080fd5b9250929050565b8035610c1881613bd2565b8051610c1881613bd2565b60006020828403121561337757600080fd5b600061281c84846132e5565b6000806040838503121561339657600080fd5b60006133a285856132e5565b92505060206133b3858286016132e5565b9150509250929050565b6000806000606084860312156133d257600080fd5b60006133de86866132e5565b93505060206133ef868287016132e5565b9250506040613400868287016132fb565b9150509250925092565b60008060006060848603121561341f57600080fd5b600061342b86866132e5565b935050602061343c868287016132e5565b92505060406134008682870161334f565b60008060008060006080868803121561346557600080fd5b600061347188886132e5565b9550506020613482888289016132e5565b94505060406134938882890161334f565b935050606086013567ffffffffffffffff8111156134b057600080fd5b6134bc88828901613306565b92509250509295509295909350565b600080600080608085870312156134e157600080fd5b60006134ed87876132e5565b94505060206134fe878288016132e5565b935050604061350f8782880161334f565b92505060606135208782880161334f565b91505092959194509250565b6000806040838503121561353f57600080fd5b600061354b85856132e5565b92505060206133b38582860161334f565b6000806000806060858703121561357257600080fd5b600061357e87876132e5565b945050602061358f8782880161334f565b935050604085013567ffffffffffffffff8111156135ac57600080fd5b6135b887828801613306565b95989497509550505050565b6000806000606084860312156135d957600080fd5b60006135e586866132e5565b935050602061343c8682870161334f565b60008060008060006080868803121561360e57600080fd5b600061361a88886132e5565b95505060206134828882890161334f565b60006020828403121561363d57600080fd5b600061281c84846132f0565b60006020828403121561365b57600080fd5b600061281c848461334f565b60006020828403121561367957600080fd5b600061281c848461335a565b60008060006040848603121561369a57600080fd5b60006136a6868661334f565b935050602084013567ffffffffffffffff8111156136c357600080fd5b6136cf86828701613306565b92509250509250925092565b600080604083850312156136ee57600080fd5b600061354b858561334f565b60008060006060848603121561370f57600080fd5b60006135e5868661334f565b61372481613b16565b82525050565b61372481613b21565b61372461373f82613b26565b613b33565b61372461373f82613b33565b600061375b82613b09565b6137658185610c7a565b9350613775818560208601613b68565b9290920192915050565b61372481613b52565b61372481613b5d565b600061379c82613b09565b6137a68185613b0d565b93506137b6818560208601613b68565b6137bf81613b94565b9093019392505050565b60006137d6601b83613b0d565b7f536166654d6174683a206164646974696f6e206f766572666c6f770000000000815260200192915050565b600061380f602b83613b0d565b7f4d61726b65743a20436f75706f6e207472616e7366657220746f20746865207a81526a65726f206164647265737360a81b602082015260400192915050565b600061385c602183613b0d565b7f536166654d6174683a206d756c7469706c69636174696f6e206f766572666c6f8152607760f81b602082015260400192915050565b600061389f602a83613b0d565b7f4d61726b65743a20436f75706f6e20617070726f766520746f20746865207a65815269726f206164647265737360b01b602082015260400192915050565b60006138eb602d83613b0d565b7f4d61726b65743a20436f75706f6e207472616e736665722066726f6d2074686581526c207a65726f206164647265737360981b602082015260400192915050565b600061393a601b83613b0d565b7f4d61726b65743a20546f6f206561726c7920746f2072656465656d0000000000815260200192915050565b61372481613b33565b61372481613b4c565b60006139848284613744565b50602001919050565b60006139998286613750565b91506139a58285613733565b6002820191506139b58284613750565b95945050505050565b60208101610c18828461371b565b606081016139da828661371b565b6139e7602083018561371b565b61281c6040830184613966565b60408101613a02828561371b565b610cdf6020830184613966565b60208101610c18828461372a565b60208101610c18828461377f565b60208101610c188284613788565b60208082528101610cdf8184613791565b60208082528101610c18816137c9565b60208082528101610c1881613802565b60208082528101610c188161384f565b60208082528101610c1881613892565b60208082528101610c18816138de565b60208082528101610c188161392d565b60208101610c188284613966565b60408101613a028285613966565b60808101613ad48287613966565b613ae16020830186613966565b613aee6040830185613966565b6139b56060830184613966565b60208101610c18828461396f565b5190565b90815260200190565b6000610c1882613b40565b151590565b6001600160f01b03191690565b90565b80610c7a81613b9e565b6001600160a01b031690565b60ff1690565b6000610c1882613b16565b6000610c1882613b36565b60005b83811015613b83578181015183820152602001613b6b565b83811115610efa5750506000910152565b601f01601f191690565b60038110610ccf57fe5b613bb181613b16565b8114610ccf57600080fd5b613bb181613b21565b60038110610ccf57600080fd5b613bb181613b3356fe4d61726b65743a20496e73756666696369656e7420636f75706f6e2062616c616e63654d61726b65743a20496e73756666696369656e7420636f75706f6e20617070726f76616c436f6d7074726f6c6c65723a206e6f7420656e6f756768206f75747374616e64696e672064656274436f6d7074726f6c6c65723a206e6f7420656e6f7567682072656465656d61626c652062616c616e6365a365627a7a723158202cae4cae3285f7abc8976aafc47e6d575d944c166fc856027d1900732329ff256c6578706572696d656e74616cf564736f6c6343000511004060806040523480156200001157600080fd5b506040518060400160405280600f81526020016e233932b89029b2ba102237b63630b960891b815250604051806040016040528060038152602001621194d160ea1b81525060126200007b6200006c6200011660201b60201c565b6001600160e01b036200011b16565b82516200009090600190602086019062000310565b508151620000a690600290602085019062000310565b506003805460ff191660ff92909216919091179055506200010d9050620000cc6200016d565b604051806040016040528060018152602001603160f81b815250620000fb6200020660201b620016341760201c565b306200020b60201b620016391760201c565b60075562000466565b335b90565b620001368160006200026260201b62000d7e1790919060201c565b6040516001600160a01b038216907f6ae172837ea30b801fbfcdd4108aa1d5bf8ff775444fd70256b44e6bf3dfc3f690600090a250565b60018054604080516020601f60026000196101008789161502019095169490940493840181900481028201810190925282815260609390929091830182828015620001fc5780601f10620001d057610100808354040283529160200191620001fc565b820191906000526020600020905b815481529060010190602001808311620001de57829003601f168201915b5050505050905090565b600190565b8351602094850120835193850193909320604080517f8b73c3c69bb8fe3d512ecc4cf759cc79239f7b179b0ffacaa9a75d522b39400f815295860194909452928401929092526060830152608082015260a0902090565b6200027782826001600160e01b03620002c516565b15620002a05760405162461bcd60e51b8152600401620002979062000433565b60405180910390fd5b6001600160a01b0316600090815260209190915260409020805460ff19166001179055565b60006001600160a01b038216620002f05760405162461bcd60e51b815260040162000297906200044b565b506001600160a01b03166000908152602091909152604090205460ff1690565b828054600181600116156101000203166002900490600052602060002090601f016020900481019282601f106200035357805160ff191683800117855562000383565b8280016001018555821562000383579182015b828111156200038357825182559160200191906001019062000366565b506200039192915062000395565b5090565b6200011891905b808211156200039157600081556001016200039c565b6000620003c1601f836200045d565b7f526f6c65733a206163636f756e7420616c72656164792068617320726f6c6500815260200192915050565b6000620003fc6022836200045d565b7f526f6c65733a206163636f756e7420697320746865207a65726f206164647265815261737360f01b602082015260400192915050565b602080825281016200044581620003b2565b92915050565b602080825281016200044581620003ed565b90815260200190565b61178d80620004766000396000f3fe608060405234801561001057600080fd5b506004361061012c5760003560e01c806395d89b41116100ad578063aa271e1a11610071578063aa271e1a14610256578063d505accf14610269578063dab400f31461027c578063dd62ed3e14610284578063e879c19f146102975761012c565b806395d89b411461020d578063983b2d56146102155780639865027514610228578063a457c2d714610230578063a9059cbb146102435761012c565b806339509351116100f457806339509351146101ac57806340c10f19146101bf57806342966c68146101d257806370a08231146101e757806379cc6790146101fa5761012c565b806306fdde0314610131578063095ea7b31461014f57806318160ddd1461016f57806323b872dd14610184578063313ce56714610197575b600080fd5b61013961029f565b60405161014691906114c6565b60405180910390f35b61016261015d366004610ffc565b610334565b604051610146919061141b565b610177610352565b6040516101469190611429565b610162610192366004610f13565b610358565b61019f6103ca565b6040516101469190611587565b6101626101ba366004610ffc565b6103d3565b6101626101cd366004610ffc565b610427565b6101e56101e036600461102c565b610463565b005b6101776101f5366004610eb3565b610477565b6101e5610208366004610ffc565b610496565b6101396104a4565b6101e5610223366004610eb3565b610502565b6101e5610532565b61016261023e366004610ffc565b610544565b610162610251366004610ffc565b6105b2565b610162610264366004610eb3565b6105c6565b6101e5610277366004610f60565b6105d8565b61017761075f565b610177610292366004610ed9565b610765565b610177610790565b60018054604080516020601f6002600019610100878916150201909516949094049384018190048102820181019092528281526060939092909183018282801561032a5780601f106102ff5761010080835404028352916020019161032a565b820191906000526020600020905b81548152906001019060200180831161030d57829003601f168201915b5050505050905090565b60006103486103416107b4565b84846107b8565b5060015b92915050565b60065490565b600061036584848461086c565b600019610374856102926107b4565b146103c0576103c0846103856107b4565b6103bb856040518060600160405280602981526020016116fd602991396103ae8a6102926107b4565b919063ffffffff61098216565b6107b8565b5060019392505050565b60035460ff1690565b60006103486103e06107b4565b846103bb85600560006103f16107b4565b6001600160a01b03908116825260208083019390935260409182016000908120918c16815292529020549063ffffffff6109ae16565b60006104346102646107b4565b6104595760405162461bcd60e51b815260040161045090611517565b60405180910390fd5b61034883836109da565b61047461046e6107b4565b82610a9a565b50565b6001600160a01b0381166000908152600460205260409020545b919050565b6104a08282610b70565b5050565b60028054604080516020601f600019610100600187161502019094168590049384018190048102820181019092528281526060939092909183018282801561032a5780601f106102ff5761010080835404028352916020019161032a565b61050d6102646107b4565b6105295760405162461bcd60e51b815260040161045090611517565b61047481610beb565b61054261053d6107b4565b610c33565b565b60006103486105516107b4565b846103bb85604051806060016040528060258152602001611726602591396005600061057b6107b4565b6001600160a01b03908116825260208083019390935260409182016000908120918d1681529252902054919063ffffffff61098216565b60006103486105bf6107b4565b848461086c565b600061034c818363ffffffff610c7b16565b6007546001600160a01b03881660009081526008602090815260408083208054600181019091559051929361065a93909261063f927f6e71edae12b1b97f4d1f60370fef10105fa2faae0126114a169c64845d6126c9928e928e928e9290918e9101611437565b60405160208183030381529060405280519060200120610cc3565b90506000600182868686604051600081526020016040526040516106819493929190611491565b6020604051602081039080840390855afa1580156106a3573d6000803e3d6000fd5b5050506020604051035190506106f0896001600160a01b0316826001600160a01b0316146a5065726d69747461626c6560a81b70496e76616c6964207369676e617475726560781b610ce2565b6107236001600160a01b03821615156a5065726d69747461626c6560a81b6b5a65726f206164647265737360a01b610ce2565b610749864211156a5065726d69747461626c6560a81b66115e1c1a5c995960ca1b610ce2565b6107548989896107b8565b505050505050505050565b60075481565b6001600160a01b03918216600090815260056020908152604080832093909416825291909152205490565b7f6e71edae12b1b97f4d1f60370fef10105fa2faae0126114a169c64845d6126c981565b3390565b6001600160a01b0383166107de5760405162461bcd60e51b815260040161045090611567565b6001600160a01b0382166108045760405162461bcd60e51b8152600401610450906114f7565b6001600160a01b0380841660008181526005602090815260408083209487168084529490915290819020849055517f8c5be1e5ebec7d5bd14f71427d1e84f3dd0314c0f7b2291e5b200ac8c7c3b9259061085f908590611429565b60405180910390a3505050565b6001600160a01b0383166108925760405162461bcd60e51b815260040161045090611557565b6001600160a01b0382166108b85760405162461bcd60e51b8152600401610450906114d7565b6108fb816040518060600160405280602681526020016116b3602691396001600160a01b038616600090815260046020526040902054919063ffffffff61098216565b6001600160a01b038085166000908152600460205260408082209390935590841681522054610930908263ffffffff6109ae16565b6001600160a01b0380841660008181526004602052604090819020939093559151908516907fddf252ad1be2c89b69c2b068fc378daa952ba7f163c4a11628f55a4df523b3ef9061085f908590611429565b600081848411156109a65760405162461bcd60e51b815260040161045091906114c6565b505050900390565b6000828201838110156109d35760405162461bcd60e51b815260040161045090611507565b9392505050565b6001600160a01b038216610a005760405162461bcd60e51b815260040161045090611577565b600654610a13908263ffffffff6109ae16565b6006556001600160a01b038216600090815260046020526040902054610a3f908263ffffffff6109ae16565b6001600160a01b0383166000818152600460205260408082209390935591519091907fddf252ad1be2c89b69c2b068fc378daa952ba7f163c4a11628f55a4df523b3ef90610a8e908590611429565b60405180910390a35050565b6001600160a01b038216610ac05760405162461bcd60e51b815260040161045090611547565b610b0381604051806060016040528060228152602001611691602291396001600160a01b038516600090815260046020526040902054919063ffffffff61098216565b6001600160a01b038316600090815260046020526040902055600654610b2f908263ffffffff610d3c16565b6006556040516000906001600160a01b038416907fddf252ad1be2c89b69c2b068fc378daa952ba7f163c4a11628f55a4df523b3ef90610a8e908590611429565b610b7a8282610a9a565b6104a082610b866107b4565b6103bb846040518060600160405280602481526020016116d9602491396001600160a01b038816600090815260056020526040812090610bc46107b4565b6001600160a01b03168152602081019190915260400160002054919063ffffffff61098216565b610bfc60008263ffffffff610d7e16565b6040516001600160a01b038216907f6ae172837ea30b801fbfcdd4108aa1d5bf8ff775444fd70256b44e6bf3dfc3f690600090a250565b610c4460008263ffffffff610dca16565b6040516001600160a01b038216907fe94479a9f7e1952cc78f2d6baab678adc1b772d936c6583def489e524cb6669290600090a250565b60006001600160a01b038216610ca35760405162461bcd60e51b815260040161045090611537565b506001600160a01b03166000908152602091909152604090205460ff1690565b60405161190160f01b8152600281019290925260228201526042902090565b82610d3757610cf082610e12565b6101d160f51b610cff83610e12565b604051602001610d11939291906113ea565b60408051601f198184030181529082905262461bcd60e51b8252610450916004016114c6565b505050565b60006109d383836040518060400160405280601e81526020017f536166654d6174683a207375627472616374696f6e206f766572666c6f770000815250610982565b610d888282610c7b565b15610da55760405162461bcd60e51b8152600401610450906114e7565b6001600160a01b0316600090815260209190915260409020805460ff19166001179055565b610dd48282610c7b565b610df05760405162461bcd60e51b815260040161045090611527565b6001600160a01b0316600090815260209190915260409020805460ff19169055565b60608082604051602001610e2691906113d5565b60408051601f19818403018152919052905060205b8015610e7b57815160001990910190829082908110610e5657fe5b01602001516001600160f81b03191615610e765760010181529050610491565b610e3b565b505060408051600081526020810190915292915050565b803561034c8161160e565b803561034c81611622565b803561034c8161162b565b600060208284031215610ec557600080fd5b6000610ed18484610e92565b949350505050565b60008060408385031215610eec57600080fd5b6000610ef88585610e92565b9250506020610f0985828601610e92565b9150509250929050565b600080600060608486031215610f2857600080fd5b6000610f348686610e92565b9350506020610f4586828701610e92565b9250506040610f5686828701610e9d565b9150509250925092565b600080600080600080600060e0888a031215610f7b57600080fd5b6000610f878a8a610e92565b9750506020610f988a828b01610e92565b9650506040610fa98a828b01610e9d565b9550506060610fba8a828b01610e9d565b9450506080610fcb8a828b01610ea8565b93505060a0610fdc8a828b01610e9d565b92505060c0610fed8a828b01610e9d565b91505092959891949750929550565b6000806040838503121561100f57600080fd5b600061101b8585610e92565b9250506020610f0985828601610e9d565b60006020828403121561103e57600080fd5b6000610ed18484610e9d565b611053816115a2565b82525050565b611053816115ad565b61105361106e826115b2565b6115bf565b611053816115bf565b61105361106e826115bf565b600061109382611595565b61109d8185610491565b93506110ad8185602086016115d4565b9290920192915050565b60006110c282611595565b6110cc8185611599565b93506110dc8185602086016115d4565b6110e581611604565b9093019392505050565b60006110fc602383611599565b7f45524332303a207472616e7366657220746f20746865207a65726f206164647281526265737360e81b602082015260400192915050565b6000611141601f83611599565b7f526f6c65733a206163636f756e7420616c72656164792068617320726f6c6500815260200192915050565b600061117a602283611599565b7f45524332303a20617070726f766520746f20746865207a65726f206164647265815261737360f01b602082015260400192915050565b60006111be601b83611599565b7f536166654d6174683a206164646974696f6e206f766572666c6f770000000000815260200192915050565b60006111f7603083611599565b7f4d696e746572526f6c653a2063616c6c657220646f6573206e6f74206861766581526f20746865204d696e74657220726f6c6560801b602082015260400192915050565b6000611249602183611599565b7f526f6c65733a206163636f756e7420646f6573206e6f74206861766520726f6c8152606560f81b602082015260400192915050565b600061128c602283611599565b7f526f6c65733a206163636f756e7420697320746865207a65726f206164647265815261737360f01b602082015260400192915050565b60006112d0602183611599565b7f45524332303a206275726e2066726f6d20746865207a65726f206164647265738152607360f81b602082015260400192915050565b6000611313602583611599565b7f45524332303a207472616e736665722066726f6d20746865207a65726f206164815264647265737360d81b602082015260400192915050565b600061135a602483611599565b7f45524332303a20617070726f76652066726f6d20746865207a65726f206164648152637265737360e01b602082015260400192915050565b60006113a0601f83611599565b7f45524332303a206d696e7420746f20746865207a65726f206164647265737300815260200192915050565b611053816115ce565b60006113e1828461107c565b50602001919050565b60006113f68286611088565b91506114028285611062565b6002820191506114128284611088565b95945050505050565b6020810161034c8284611059565b6020810161034c8284611073565b60c081016114458289611073565b611452602083018861104a565b61145f604083018761104a565b61146c6060830186611073565b6114796080830185611073565b61148660a0830184611073565b979650505050505050565b6080810161149f8287611073565b6114ac60208301866113cc565b6114b96040830185611073565b6114126060830184611073565b602080825281016109d381846110b7565b6020808252810161034c816110ef565b6020808252810161034c81611134565b6020808252810161034c8161116d565b6020808252810161034c816111b1565b6020808252810161034c816111ea565b6020808252810161034c8161123c565b6020808252810161034c8161127f565b6020808252810161034c816112c3565b6020808252810161034c81611306565b6020808252810161034c8161134d565b6020808252810161034c81611393565b6020810161034c82846113cc565b5190565b90815260200190565b600061034c826115c2565b151590565b6001600160f01b03191690565b90565b6001600160a01b031690565b60ff1690565b60005b838110156115ef5781810151838201526020016115d7565b838111156115fe576000848401525b50505050565b601f01601f191690565b611617816115a2565b811461047457600080fd5b611617816115bf565b611617816115ce565b600190565b8351602094850120835193850193909320604080517f8b73c3c69bb8fe3d512ecc4cf759cc79239f7b179b0ffacaa9a75d522b39400f815295860194909452928401929092526060830152608082015260a090209056fe45524332303a206275726e20616d6f756e7420657863656564732062616c616e636545524332303a207472616e7366657220616d6f756e7420657863656564732062616c616e636545524332303a206275726e20616d6f756e74206578636565647320616c6c6f77616e6365446f6c6c61723a207472616e7366657220616d6f756e74206578636565647320616c6c6f77616e636545524332303a2064656372656173656420616c6c6f77616e63652062656c6f77207a65726fa365627a7a72315820cfdd189e005bfca33d42143d9c8aae029b01c54ff1fae18e0f69a2b52f52c6836c6578706572696d656e74616cf564736f6c63430005110040",
  "source": "/*\n    Copyright 2020 Empty Set Squad <emptysetsquad@protonmail.com>\n\n    Licensed under the Apache License, Version 2.0 (the \"License\");\n    you may not use this file except in compliance with the License.\n    You may obtain a copy of the License at\n\n    http://www.apache.org/licenses/LICENSE-2.0\n\n    Unless required by applicable law or agreed to in writing, software\n    distributed under the License is distributed on an \"AS IS\" BASIS,\n    WITHOUT WARRANTIES OR CONDITIONS OF ANY KIND, either express or implied.\n    See the License for the specific language governing permissions and\n    limitations under the License.\n*/\n\npragma solidity ^0.5.17;\npragma experimental ABIEncoderV2;\n\nimport \"../dao/Market.sol\";\nimport \"./MockState.sol\";\nimport \"./MockComptroller.sol\";\n\ncontract MockMarket is MockState, MockComptroller, Market {\n    constructor(address pool) MockComptroller(pool) public { }\n\n    function stepE() external {\n        Market.step();\n    }\n}\n",
  "sourcePath": "/Users/lileihuang/bytedance/fsd/protocol/contracts/mock/MockMarket.sol",
  "compiler": {
    "name": "solc",
    "version": "0.5.17+commit.d19bba13.Emscripten.clang"
  },
  "schemaVersion": "3.3.1",
  "updatedAt": "2021-01-07T05:38:54.365Z",
  "devdoc": {
    "methods": {}
  },
  "userdoc": {
    "methods": {
      "balanceOfStaged(address)": {
        "notice": "Account"
      },
      "createCandidateE(address,uint256)": {
        "notice": "Governance"
      },
      "dollar()": {
        "notice": "Global"
      },
      "epoch()": {
        "notice": "Epoch"
      },
      "incrementBalanceOfE(address,uint256)": {
        "notice": "Account"
      },
      "incrementTotalBondedE(uint256)": {
        "notice": "Global"
      },
      "name()": {
        "notice": "ERC20 Interface"
      },
      "recordedVote(address,address)": {
        "notice": "Governance"
      },
      "setBlockTimestamp(uint256)": {
        "notice": "Mock"
      },
      "setEpochParamsE(uint256,uint256)": {
        "notice": "Epoch"
      },
      "transfer(address,uint256)": {
        "notice": "ERC20 Interface"
      }
    }
  }
}