{
  "contractName": "MockState",
  "abi": [
    {
      "inputs": [],
      "payable": false,
      "stateMutability": "nonpayable",
      "type": "constructor"
    },
    {
      "anonymous": false,
      "inputs": [
        {
          "indexed": true,
          "internalType": "address",
          "name": "from",
          "type": "address"
        },
        {
          "indexed": true,
          "internalType": "address",
          "name": "to",
          "type": "address"
        },
        {
          "indexed": false,
          "internalType": "uint256",
          "name": "value",
          "type": "uint256"
        }
      ],
      "name": "Transfer",
      "type": "event"
    },
    {
      "constant": true,
      "inputs": [
        {
          "internalType": "address",
          "name": "owner",
          "type": "address"
        },
        {
          "internalType": "address",
          "name": "spender",
          "type": "address"
        }
      ],
      "name": "allowance",
      "outputs": [
        {
          "internalType": "uint256",
          "name": "",
          "type": "uint256"
        }
      ],
      "payable": false,
      "stateMutability": "view",
      "type": "function"
    },
    {
      "constant": true,
      "inputs": [
        {
          "internalType": "address",
          "name": "owner",
          "type": "address"
        },
        {
          "internalType": "address",
          "name": "spender",
          "type": "address"
        }
      ],
      "name": "allowanceCoupons",
      "outputs": [
        {
          "internalType": "uint256",
          "name": "",
          "type": "uint256"
        }
      ],
      "payable": false,
      "stateMutability": "view",
      "type": "function"
    },
    {
      "constant": false,
      "inputs": [
        {
          "internalType": "address",
          "name": "spender",
          "type": "address"
        },
        {
          "internalType": "uint256",
          "name": "amount",
          "type": "uint256"
        }
      ],
      "name": "approve",
      "outputs": [
        {
          "internalType": "bool",
          "name": "",
          "type": "bool"
        }
      ],
      "payable": false,
      "stateMutability": "nonpayable",
      "type": "function"
    },
    {
      "constant": true,
      "inputs": [
        {
          "internalType": "address",
          "name": "candidate",
          "type": "address"
        }
      ],
      "name": "approveFor",
      "outputs": [
        {
          "internalType": "uint256",
          "name": "",
          "type": "uint256"
        }
      ],
      "payable": false,
      "stateMutability": "view",
      "type": "function"
    },
    {
      "constant": true,
      "inputs": [
        {
          "internalType": "address",
          "name": "account",
          "type": "address"
        }
      ],
      "name": "balanceOf",
      "outputs": [
        {
          "internalType": "uint256",
          "name": "",
          "type": "uint256"
        }
      ],
      "payable": false,
      "stateMutability": "view",
      "type": "function"
    },
    {
      "constant": true,
      "inputs": [
        {
          "internalType": "address",
          "name": "account",
          "type": "address"
        }
      ],
      "name": "balanceOfBonded",
      "outputs": [
        {
          "internalType": "uint256",
          "name": "",
          "type": "uint256"
        }
      ],
      "payable": false,
      "stateMutability": "view",
      "type": "function"
    },
    {
      "constant": true,
      "inputs": [
        {
          "internalType": "address",
          "name": "account",
          "type": "address"
        },
        {
          "internalType": "uint256",
          "name": "epoch",
          "type": "uint256"
        }
      ],
      "name": "balanceOfCoupons",
      "outputs": [
        {
          "internalType": "uint256",
          "name": "",
          "type": "uint256"
        }
      ],
      "payable": false,
      "stateMutability": "view",
      "type": "function"
    },
    {
      "constant": true,
      "inputs": [
        {
          "internalType": "address",
          "name": "account",
          "type": "address"
        }
      ],
      "name": "balanceOfStaged",
      "outputs": [
        {
          "internalType": "uint256",
          "name": "",
          "type": "uint256"
        }
      ],
      "payable": false,
      "stateMutability": "view",
      "type": "function"
    },
    {
      "constant": true,
      "inputs": [
        {
          "internalType": "uint256",
          "name": "epoch",
          "type": "uint256"
        }
      ],
      "name": "bootstrappingAt",
      "outputs": [
        {
          "internalType": "bool",
          "name": "",
          "type": "bool"
        }
      ],
      "payable": false,
      "stateMutability": "view",
      "type": "function"
    },
    {
      "constant": true,
      "inputs": [
        {
          "internalType": "uint256",
          "name": "epoch",
          "type": "uint256"
        }
      ],
      "name": "couponsExpiration",
      "outputs": [
        {
          "internalType": "uint256",
          "name": "",
          "type": "uint256"
        }
      ],
      "payable": false,
      "stateMutability": "view",
      "type": "function"
    },
    {
      "constant": true,
      "inputs": [],
      "name": "decimals",
      "outputs": [
        {
          "internalType": "uint8",
          "name": "",
          "type": "uint8"
        }
      ],
      "payable": false,
      "stateMutability": "view",
      "type": "function"
    },
    {
      "constant": true,
      "inputs": [],
      "name": "dollar",
      "outputs": [
        {
          "internalType": "contract IDollar",
          "name": "",
          "type": "address"
        }
      ],
      "payable": false,
      "stateMutability": "view",
      "type": "function"
    },
    {
      "constant": true,
      "inputs": [],
      "name": "epoch",
      "outputs": [
        {
          "internalType": "uint256",
          "name": "",
          "type": "uint256"
        }
      ],
      "payable": false,
      "stateMutability": "view",
      "type": "function"
    },
    {
      "constant": true,
      "inputs": [],
      "name": "epochTime",
      "outputs": [
        {
          "internalType": "uint256",
          "name": "",
          "type": "uint256"
        }
      ],
      "payable": false,
      "stateMutability": "view",
      "type": "function"
    },
    {
      "constant": true,
      "inputs": [
        {
          "internalType": "uint256",
          "name": "epoch",
          "type": "uint256"
        }
      ],
      "name": "expiringCoupons",
      "outputs": [
        {
          "internalType": "uint256",
          "name": "",
          "type": "uint256"
        }
      ],
      "payable": false,
      "stateMutability": "view",
      "type": "function"
    },
    {
      "constant": true,
      "inputs": [
        {
          "internalType": "uint256",
          "name": "epoch",
          "type": "uint256"
        },
        {
          "internalType": "uint256",
          "name": "i",
          "type": "uint256"
        }
      ],
      "name": "expiringCouponsAtIndex",
      "outputs": [
        {
          "internalType": "uint256",
          "name": "",
          "type": "uint256"
        }
      ],
      "payable": false,
      "stateMutability": "view",
      "type": "function"
    },
    {
      "constant": true,
      "inputs": [
        {
          "internalType": "address",
          "name": "account",
          "type": "address"
        }
      ],
      "name": "fluidUntil",
      "outputs": [
        {
          "internalType": "uint256",
          "name": "",
          "type": "uint256"
        }
      ],
      "payable": false,
      "stateMutability": "view",
      "type": "function"
    },
    {
      "constant": true,
      "inputs": [],
      "name": "implementation",
      "outputs": [
        {
          "internalType": "address",
          "name": "impl",
          "type": "address"
        }
      ],
      "payable": false,
      "stateMutability": "view",
      "type": "function"
    },
    {
      "constant": true,
      "inputs": [
        {
          "internalType": "address",
          "name": "candidate",
          "type": "address"
        }
      ],
      "name": "isInitialized",
      "outputs": [
        {
          "internalType": "bool",
          "name": "",
          "type": "bool"
        }
      ],
      "payable": false,
      "stateMutability": "view",
      "type": "function"
    },
    {
      "constant": true,
      "inputs": [
        {
          "internalType": "address",
          "name": "candidate",
          "type": "address"
        }
      ],
      "name": "isNominated",
      "outputs": [
        {
          "internalType": "bool",
          "name": "",
          "type": "bool"
        }
      ],
      "payable": false,
      "stateMutability": "view",
      "type": "function"
    },
    {
      "constant": true,
      "inputs": [
        {
          "internalType": "address",
          "name": "account",
          "type": "address"
        }
      ],
      "name": "lockedUntil",
      "outputs": [
        {
          "internalType": "uint256",
          "name": "",
          "type": "uint256"
        }
      ],
      "payable": false,
      "stateMutability": "view",
      "type": "function"
    },
    {
      "constant": true,
      "inputs": [],
      "name": "name",
      "outputs": [
        {
          "internalType": "string",
          "name": "",
          "type": "string"
        }
      ],
      "payable": false,
      "stateMutability": "view",
      "type": "function"
    },
    {
      "constant": true,
      "inputs": [],
      "name": "oracle",
      "outputs": [
        {
          "internalType": "contract IOracle",
          "name": "",
          "type": "address"
        }
      ],
      "payable": false,
      "stateMutability": "view",
      "type": "function"
    },
    {
      "constant": true,
      "inputs": [
        {
          "internalType": "uint256",
          "name": "epoch",
          "type": "uint256"
        }
      ],
      "name": "outstandingCoupons",
      "outputs": [
        {
          "internalType": "uint256",
          "name": "",
          "type": "uint256"
        }
      ],
      "payable": false,
      "stateMutability": "view",
      "type": "function"
    },
    {
      "constant": true,
      "inputs": [
        {
          "internalType": "address",
          "name": "candidate",
          "type": "address"
        }
      ],
      "name": "periodFor",
      "outputs": [
        {
          "internalType": "uint256",
          "name": "",
          "type": "uint256"
        }
      ],
      "payable": false,
      "stateMutability": "view",
      "type": "function"
    },
    {
      "constant": true,
      "inputs": [],
      "name": "pool",
      "outputs": [
        {
          "internalType": "address",
          "name": "",
          "type": "address"
        }
      ],
      "payable": false,
      "stateMutability": "view",
      "type": "function"
    },
    {
      "constant": true,
      "inputs": [
        {
          "internalType": "address",
          "name": "account",
          "type": "address"
        },
        {
          "internalType": "address",
          "name": "candidate",
          "type": "address"
        }
      ],
      "name": "recordedVote",
      "outputs": [
        {
          "internalType": "enum Candidate.Vote",
          "name": "",
          "type": "uint8"
        }
      ],
      "payable": false,
      "stateMutability": "view",
      "type": "function"
    },
    {
      "constant": true,
      "inputs": [
        {
          "internalType": "address",
          "name": "candidate",
          "type": "address"
        }
      ],
      "name": "rejectFor",
      "outputs": [
        {
          "internalType": "uint256",
          "name": "",
          "type": "uint256"
        }
      ],
      "payable": false,
      "stateMutability": "view",
      "type": "function"
    },
    {
      "constant": true,
      "inputs": [
        {
          "internalType": "address",
          "name": "candidate",
          "type": "address"
        }
      ],
      "name": "startFor",
      "outputs": [
        {
          "internalType": "uint256",
          "name": "",
          "type": "uint256"
        }
      ],
      "payable": false,
      "stateMutability": "view",
      "type": "function"
    },
    {
      "constant": true,
      "inputs": [
        {
          "internalType": "address",
          "name": "account",
          "type": "address"
        }
      ],
      "name": "statusOf",
      "outputs": [
        {
          "internalType": "enum Account.Status",
          "name": "",
          "type": "uint8"
        }
      ],
      "payable": false,
      "stateMutability": "view",
      "type": "function"
    },
    {
      "constant": true,
      "inputs": [],
      "name": "symbol",
      "outputs": [
        {
          "internalType": "string",
          "name": "",
          "type": "string"
        }
      ],
      "payable": false,
      "stateMutability": "view",
      "type": "function"
    },
    {
      "constant": true,
      "inputs": [],
      "name": "totalBonded",
      "outputs": [
        {
          "internalType": "uint256",
          "name": "",
          "type": "uint256"
        }
      ],
      "payable": false,
      "stateMutability": "view",
      "type": "function"
    },
    {
      "constant": true,
      "inputs": [
        {
          "internalType": "uint256",
          "name": "epoch",
          "type": "uint256"
        }
      ],
      "name": "totalBondedAt",
      "outputs": [
        {
          "internalType": "uint256",
          "name": "",
          "type": "uint256"
        }
      ],
      "payable": false,
      "stateMutability": "view",
      "type": "function"
    },
    {
      "constant": true,
      "inputs": [],
      "name": "totalCoupons",
      "outputs": [
        {
          "internalType": "uint256",
          "name": "",
          "type": "uint256"
        }
      ],
      "payable": false,
      "stateMutability": "view",
      "type": "function"
    },
    {
      "constant": true,
      "inputs": [],
      "name": "totalDebt",
      "outputs": [
        {
          "internalType": "uint256",
          "name": "",
          "type": "uint256"
        }
      ],
      "payable": false,
      "stateMutability": "view",
      "type": "function"
    },
    {
      "constant": true,
      "inputs": [],
      "name": "totalNet",
      "outputs": [
        {
          "internalType": "uint256",
          "name": "",
          "type": "uint256"
        }
      ],
      "payable": false,
      "stateMutability": "view",
      "type": "function"
    },
    {
      "constant": true,
      "inputs": [],
      "name": "totalRedeemable",
      "outputs": [
        {
          "internalType": "uint256",
          "name": "",
          "type": "uint256"
        }
      ],
      "payable": false,
      "stateMutability": "view",
      "type": "function"
    },
    {
      "constant": true,
      "inputs": [],
      "name": "totalStaged",
      "outputs": [
        {
          "internalType": "uint256",
          "name": "",
          "type": "uint256"
        }
      ],
      "payable": false,
      "stateMutability": "view",
      "type": "function"
    },
    {
      "constant": true,
      "inputs": [],
      "name": "totalSupply",
      "outputs": [
        {
          "internalType": "uint256",
          "name": "",
          "type": "uint256"
        }
      ],
      "payable": false,
      "stateMutability": "view",
      "type": "function"
    },
    {
      "constant": false,
      "inputs": [
        {
          "internalType": "address",
          "name": "recipient",
          "type": "address"
        },
        {
          "internalType": "uint256",
          "name": "amount",
          "type": "uint256"
        }
      ],
      "name": "transfer",
      "outputs": [
        {
          "internalType": "bool",
          "name": "",
          "type": "bool"
        }
      ],
      "payable": false,
      "stateMutability": "nonpayable",
      "type": "function"
    },
    {
      "constant": false,
      "inputs": [
        {
          "internalType": "address",
          "name": "sender",
          "type": "address"
        },
        {
          "internalType": "address",
          "name": "recipient",
          "type": "address"
        },
        {
          "internalType": "uint256",
          "name": "amount",
          "type": "uint256"
        }
      ],
      "name": "transferFrom",
      "outputs": [
        {
          "internalType": "bool",
          "name": "",
          "type": "bool"
        }
      ],
      "payable": false,
      "stateMutability": "nonpayable",
      "type": "function"
    },
    {
      "constant": true,
      "inputs": [
        {
          "internalType": "address",
          "name": "candidate",
          "type": "address"
        }
      ],
      "name": "votesFor",
      "outputs": [
        {
          "internalType": "uint256",
          "name": "",
          "type": "uint256"
        }
      ],
      "payable": false,
      "stateMutability": "view",
      "type": "function"
    },
    {
      "constant": false,
      "inputs": [
        {
          "internalType": "uint256",
          "name": "amount",
          "type": "uint256"
        }
      ],
      "name": "incrementTotalBondedE",
      "outputs": [],
      "payable": false,
      "stateMutability": "nonpayable",
      "type": "function"
    },
    {
      "constant": false,
      "inputs": [
        {
          "internalType": "uint256",
          "name": "amount",
          "type": "uint256"
        },
        {
          "internalType": "string",
          "name": "reason",
          "type": "string"
        }
      ],
      "name": "decrementTotalBondedE",
      "outputs": [],
      "payable": false,
      "stateMutability": "nonpayable",
      "type": "function"
    },
    {
      "constant": false,
      "inputs": [
        {
          "internalType": "uint256",
          "name": "amount",
          "type": "uint256"
        }
      ],
      "name": "incrementTotalDebtE",
      "outputs": [],
      "payable": false,
      "stateMutability": "nonpayable",
      "type": "function"
    },
    {
      "constant": false,
      "inputs": [
        {
          "internalType": "uint256",
          "name": "amount",
          "type": "uint256"
        },
        {
          "internalType": "string",
          "name": "reason",
          "type": "string"
        }
      ],
      "name": "decrementTotalDebtE",
      "outputs": [],
      "payable": false,
      "stateMutability": "nonpayable",
      "type": "function"
    },
    {
      "constant": false,
      "inputs": [
        {
          "internalType": "uint256",
          "name": "amount",
          "type": "uint256"
        }
      ],
      "name": "incrementTotalRedeemableE",
      "outputs": [],
      "payable": false,
      "stateMutability": "nonpayable",
      "type": "function"
    },
    {
      "constant": false,
      "inputs": [
        {
          "internalType": "uint256",
          "name": "amount",
          "type": "uint256"
        },
        {
          "internalType": "string",
          "name": "reason",
          "type": "string"
        }
      ],
      "name": "decrementTotalRedeemableE",
      "outputs": [],
      "payable": false,
      "stateMutability": "nonpayable",
      "type": "function"
    },
    {
      "constant": false,
      "inputs": [
        {
          "internalType": "address",
          "name": "account",
          "type": "address"
        },
        {
          "internalType": "uint256",
          "name": "amount",
          "type": "uint256"
        }
      ],
      "name": "incrementBalanceOfE",
      "outputs": [],
      "payable": false,
      "stateMutability": "nonpayable",
      "type": "function"
    },
    {
      "constant": false,
      "inputs": [
        {
          "internalType": "address",
          "name": "account",
          "type": "address"
        },
        {
          "internalType": "uint256",
          "name": "amount",
          "type": "uint256"
        },
        {
          "internalType": "string",
          "name": "reason",
          "type": "string"
        }
      ],
      "name": "decrementBalanceOfE",
      "outputs": [],
      "payable": false,
      "stateMutability": "nonpayable",
      "type": "function"
    },
    {
      "constant": false,
      "inputs": [
        {
          "internalType": "address",
          "name": "account",
          "type": "address"
        },
        {
          "internalType": "uint256",
          "name": "amount",
          "type": "uint256"
        }
      ],
      "name": "incrementBalanceOfStagedE",
      "outputs": [],
      "payable": false,
      "stateMutability": "nonpayable",
      "type": "function"
    },
    {
      "constant": false,
      "inputs": [
        {
          "internalType": "address",
          "name": "account",
          "type": "address"
        },
        {
          "internalType": "uint256",
          "name": "amount",
          "type": "uint256"
        },
        {
          "internalType": "string",
          "name": "reason",
          "type": "string"
        }
      ],
      "name": "decrementBalanceOfStagedE",
      "outputs": [],
      "payable": false,
      "stateMutability": "nonpayable",
      "type": "function"
    },
    {
      "constant": false,
      "inputs": [
        {
          "internalType": "address",
          "name": "account",
          "type": "address"
        },
        {
          "internalType": "uint256",
          "name": "epoch",
          "type": "uint256"
        },
        {
          "internalType": "uint256",
          "name": "amount",
          "type": "uint256"
        }
      ],
      "name": "incrementBalanceOfCouponsE",
      "outputs": [],
      "payable": false,
      "stateMutability": "nonpayable",
      "type": "function"
    },
    {
      "constant": false,
      "inputs": [
        {
          "internalType": "address",
          "name": "account",
          "type": "address"
        },
        {
          "internalType": "uint256",
          "name": "epoch",
          "type": "uint256"
        },
        {
          "internalType": "uint256",
          "name": "amount",
          "type": "uint256"
        },
        {
          "internalType": "string",
          "name": "reason",
          "type": "string"
        }
      ],
      "name": "decrementBalanceOfCouponsE",
      "outputs": [],
      "payable": false,
      "stateMutability": "nonpayable",
      "type": "function"
    },
    {
      "constant": false,
      "inputs": [
        {
          "internalType": "address",
          "name": "account",
          "type": "address"
        }
      ],
      "name": "unfreezeE",
      "outputs": [],
      "payable": false,
      "stateMutability": "nonpayable",
      "type": "function"
    },
    {
      "constant": false,
      "inputs": [
        {
          "internalType": "address",
          "name": "owner",
          "type": "address"
        },
        {
          "internalType": "address",
          "name": "spender",
          "type": "address"
        },
        {
          "internalType": "uint256",
          "name": "amount",
          "type": "uint256"
        }
      ],
      "name": "updateAllowanceCouponsE",
      "outputs": [],
      "payable": false,
      "stateMutability": "nonpayable",
      "type": "function"
    },
    {
      "constant": false,
      "inputs": [
        {
          "internalType": "address",
          "name": "owner",
          "type": "address"
        },
        {
          "internalType": "address",
          "name": "spender",
          "type": "address"
        },
        {
          "internalType": "uint256",
          "name": "amount",
          "type": "uint256"
        },
        {
          "internalType": "string",
          "name": "reason",
          "type": "string"
        }
      ],
      "name": "decrementAllowanceCouponsE",
      "outputs": [],
      "payable": false,
      "stateMutability": "nonpayable",
      "type": "function"
    },
    {
      "constant": false,
      "inputs": [
        {
          "internalType": "uint256",
          "name": "start",
          "type": "uint256"
        },
        {
          "internalType": "uint256",
          "name": "period",
          "type": "uint256"
        }
      ],
      "name": "setEpochParamsE",
      "outputs": [],
      "payable": false,
      "stateMutability": "nonpayable",
      "type": "function"
    },
    {
      "constant": false,
      "inputs": [],
      "name": "incrementEpochE",
      "outputs": [],
      "payable": false,
      "stateMutability": "nonpayable",
      "type": "function"
    },
    {
      "constant": false,
      "inputs": [],
      "name": "snapshotTotalBondedE",
      "outputs": [],
      "payable": false,
      "stateMutability": "nonpayable",
      "type": "function"
    },
    {
      "constant": false,
      "inputs": [
        {
          "internalType": "uint256",
          "name": "epoch",
          "type": "uint256"
        },
        {
          "internalType": "uint256",
          "name": "expiration",
          "type": "uint256"
        }
      ],
      "name": "initializeCouponsExpirationE",
      "outputs": [],
      "payable": false,
      "stateMutability": "nonpayable",
      "type": "function"
    },
    {
      "constant": false,
      "inputs": [
        {
          "internalType": "uint256",
          "name": "epoch",
          "type": "uint256"
        }
      ],
      "name": "eliminateOutstandingCouponsE",
      "outputs": [],
      "payable": false,
      "stateMutability": "nonpayable",
      "type": "function"
    },
    {
      "constant": false,
      "inputs": [
        {
          "internalType": "address",
          "name": "candidate",
          "type": "address"
        },
        {
          "internalType": "uint256",
          "name": "period",
          "type": "uint256"
        }
      ],
      "name": "createCandidateE",
      "outputs": [],
      "payable": false,
      "stateMutability": "nonpayable",
      "type": "function"
    },
    {
      "constant": false,
      "inputs": [
        {
          "internalType": "address",
          "name": "account",
          "type": "address"
        },
        {
          "internalType": "address",
          "name": "candidate",
          "type": "address"
        },
        {
          "internalType": "enum Candidate.Vote",
          "name": "vote",
          "type": "uint8"
        }
      ],
      "name": "recordVoteE",
      "outputs": [],
      "payable": false,
      "stateMutability": "nonpayable",
      "type": "function"
    },
    {
      "constant": false,
      "inputs": [
        {
          "internalType": "address",
          "name": "candidate",
          "type": "address"
        },
        {
          "internalType": "uint256",
          "name": "amount",
          "type": "uint256"
        }
      ],
      "name": "incrementApproveForE",
      "outputs": [],
      "payable": false,
      "stateMutability": "nonpayable",
      "type": "function"
    },
    {
      "constant": false,
      "inputs": [
        {
          "internalType": "address",
          "name": "candidate",
          "type": "address"
        },
        {
          "internalType": "uint256",
          "name": "amount",
          "type": "uint256"
        },
        {
          "internalType": "string",
          "name": "reason",
          "type": "string"
        }
      ],
      "name": "decrementApproveForE",
      "outputs": [],
      "payable": false,
      "stateMutability": "nonpayable",
      "type": "function"
    },
    {
      "constant": false,
      "inputs": [
        {
          "internalType": "address",
          "name": "candidate",
          "type": "address"
        },
        {
          "internalType": "uint256",
          "name": "amount",
          "type": "uint256"
        }
      ],
      "name": "incrementRejectForE",
      "outputs": [],
      "payable": false,
      "stateMutability": "nonpayable",
      "type": "function"
    },
    {
      "constant": false,
      "inputs": [
        {
          "internalType": "address",
          "name": "candidate",
          "type": "address"
        },
        {
          "internalType": "uint256",
          "name": "amount",
          "type": "uint256"
        },
        {
          "internalType": "string",
          "name": "reason",
          "type": "string"
        }
      ],
      "name": "decrementRejectForE",
      "outputs": [],
      "payable": false,
      "stateMutability": "nonpayable",
      "type": "function"
    },
    {
      "constant": false,
      "inputs": [
        {
          "internalType": "address",
          "name": "account",
          "type": "address"
        },
        {
          "internalType": "address",
          "name": "candidate",
          "type": "address"
        }
      ],
      "name": "placeLockE",
      "outputs": [],
      "payable": false,
      "stateMutability": "nonpayable",
      "type": "function"
    },
    {
      "constant": false,
      "inputs": [
        {
          "internalType": "address",
          "name": "candidate",
          "type": "address"
        }
      ],
      "name": "initializedE",
      "outputs": [],
      "payable": false,
      "stateMutability": "nonpayable",
      "type": "function"
    },
    {
      "constant": false,
      "inputs": [
        {
          "internalType": "uint256",
          "name": "timestamp",
          "type": "uint256"
        }
      ],
      "name": "setBlockTimestamp",
      "outputs": [],
      "payable": false,
      "stateMutability": "nonpayable",
      "type": "function"
    }
  ],
  "bytecode": "0x608060405234801561001057600080fd5b5042600f55612081806100246000396000f3fe608060405234801561001057600080fd5b506004361061041d5760003560e01c806386cf9f141161022b578063b11ee0e311610130578063d6d8816d116100b8578063f1b7cf4911610087578063f1b7cf49146108a6578063f35adf7e146108b9578063f7a31818146108c1578063fc7b9c18146108d4578063ffbe3b73146108dc5761041d565b8063d6d8816d1461085f578063d83d3ed514610872578063dd62ed3e14610885578063e0abdf66146108935761041d565b8063c2aeb5fe116100ff578063c2aeb5fe1461080b578063c9aff70c1461081e578063cc8d823c14610831578063cf02377914610844578063d60b347f1461084c5761041d565b8063b11ee0e3146107bf578063b32a2f90146107d2578063bc7513e2146107e5578063c1410c02146107f85761041d565b80639f6e1b26116101b3578063a6f37b5311610182578063a6f37b5314610773578063a9059cbb14610440578063a9b3cf1514610786578063adbff2be14610799578063ae5c2381146107ac5761041d565b80639f6e1b2614610732578063a00e14d114610745578063a50cd8e714610758578063a6c409f11461076b5761041d565b806397a5d5b5116101fa57806397a5d5b5146106de5780639a649edc146106f15780639b82b49b146106f95780639bc289f11461070c5780639be464931461071f5761041d565b806386cf9f14146106a85780638de2e573146106bb578063900cf0cf146106ce57806395d89b41146106d65761041d565b80633fd4973c116103315780636b862d66116102b957806375d5024b1161028857806375d5024b146106545780637cb95a32146106675780637dc0d1d01461067a578063825ad607146106825780638413e52a146106955761041d565b80636b862d661461061357806370a082311461062657806371c511eb1461063957806372924d2a146106415761041d565b806351adeb571161030057806351adeb57146105bd57806351bf21d8146105d25780635c60da1b146105e557806364668022146105ed5780636a39e328146106005761041d565b80633fd4973c1461058757806344d96e951461059a5780634c736099146105a25780635053e461146105b55761041d565b80631edbcf6c116103b45780633234742211610383578063323474221461051b578063353a420c1461052e5780633a3e6c81146105415780633f7bcaf3146105545780633fbba9a6146105675761041d565b80631edbcf6c146104d857806323b872dd146104e0578063259f7adf146104f3578063313ce567146105065761041d565b806315e14bf6116103f057806315e14bf61461049557806316f0115b146104a857806318160ddd146104bd5780631a08e22a146104c55761041d565b806306fdde0314610422578063095ea7b3146104405780630dc6d3a31461046057806310e95b6c14610475575b600080fd5b61042a6108ef565b6040516104379190611f35565b60405180910390f35b61045361044e366004611c5d565b61091e565b6040516104379190611f0b565b61047361046e366004611bdf565b610927565b005b610488610483366004611d5c565b610970565b6040516104379190611f66565b6104886104a3366004611aef565b610988565b6104b06109a6565b6040516104379190611efd565b6104886109b5565b6104736104d3366004611dee565b6109bb565b6104886109c9565b6104536104ee366004611b9c565b6109cf565b610473610501366004611d5c565b6109d8565b61050e6109e4565b6040516104379190611f74565b610473610529366004611d98565b6109e9565b61048861053c366004611aef565b610a2e565b61045361054f366004611aef565b610a4c565b610473610562366004611b9c565b610a69565b61057a610575366004611b15565b610a74565b6040516104379190611f27565b610473610595366004611c8d565b610aa7565b610488610aee565b6104886105b0366004611dee565b610af4565b610488610b24565b6105c5610b47565b6040516104379190611f19565b6104886105e0366004611aef565b610b56565b6104b0610b74565b6104886105fb366004611aef565b610b99565b61048861060e366004611d5c565b610bb7565b610473610621366004611cf5565b610bcc565b610488610634366004611aef565b610bd7565b610473610bf5565b61047361064f366004611d98565b610bff565b610453610662366004611d5c565b610c3f565b610473610675366004611c8d565b610c52565b6105c5610c93565b610488610690366004611aef565b610ca2565b6104736106a3366004611b4f565b610cf5565b6104886106b6366004611aef565b610d00565b6104736106c9366004611d5c565b610d1b565b610488610d24565b61042a610d2a565b61057a6106ec366004611aef565b610d48565b610488610dad565b610473610707366004611d98565b610db3565b61048861071a366004611aef565b610df3565b61047361072d366004611aef565b610e11565b610488610740366004611b15565b610e1a565b610473610753366004611dee565b610e49565b610488610766366004611aef565b610e54565b610488610e77565b610473610781366004611aef565b610f0d565b610473610794366004611d5c565b610f16565b6104736107a7366004611c8d565b610f1f565b6104736107ba366004611c5d565b610f60565b6104736107cd366004611c5d565b610f6a565b6104736107e0366004611c8d565b610f74565b6104886107f3366004611c5d565b610fb5565b610473610806366004611b15565b610ff9565b610473610819366004611d27565b611003565b61048861082c366004611d5c565b611045565b61047361083f366004611c5d565b61105a565b610488611064565b61045361085a366004611aef565b61106a565b61047361086d366004611d5c565b61108b565b610473610880366004611c5d565b611094565b61048861044e366004611b15565b6104736108a1366004611d5c565b61109e565b6104886108b4366004611aef565b6110a3565b6104736110be565b6104736108cf366004611c5d565b6110c6565b6104886110d0565b6104886108ea366004611d5c565b6110d6565b604080518082019091526015815274467265712053657420446f6c6c6172205374616b6560581b602082015290565b60005b92915050565b61096985858585858080601f0160208091040260200160405190810160405280939291908181526020018383808284376000920191909152506110e892505050565b5050505050565b6000818152600d60205260409020600201545b919050565b6001600160a01b03166000908152600e602052604090206001015490565b600b546001600160a01b031690565b60035490565b6109c58282611159565b5050565b60065490565b60009392505050565b6109e18161118b565b50565b601290565b610a298383838080601f0160208091040260200160405190810160405280939291908181526020018383808284376000920191909152506111a492505050565b505050565b6001600160a01b03166000908152600e602052604090206003015490565b6001600160a01b03166000908152600e6020526040902054151590565b610a298383836111bf565b6001600160a01b038082166000908152600e60209081526040808320938616835260049093019052205460ff1692915050565b610ae8848484848080601f0160208091040260200160405190810160405280939291908181526020018383808284376000920191909152506111ef92505050565b50505050565b60045490565b6000828152600d60205260408120600301805483908110610b1157fe5b9060005260206000200154905092915050565b6000610b2e611a59565b610b36611240565b9050610b418161126f565b91505090565b6009546001600160a01b031690565b6001600160a01b03166000908152600c602052604090206004015490565b7f360894a13ba1a3210667c828492db98dca3e2076cc3735a920a3ca505d382bbc5490565b6001600160a01b03166000908152600e602052604090206002015490565b6000908152600d602052604090206003015490565b610a29838383611291565b6001600160a01b03166000908152600c602052604090206001015490565b610bfd611338565b565b610a298383838080601f01602080910402602001604051908101604052809392919081815260200183838082843760009201919091525061135f92505050565b6000610c4961137a565b90911115919050565b610ae8848484848080601f01602080910402602001604051908101604052809392919081815260200183838082843760009201919091525061137f92505050565b600a546001600160a01b031690565b600080610cad6109b5565b905080610cbe576000915050610983565b610cee81610ce2610cce86610bd7565b610cd6610aee565b9063ffffffff6113d016565b9063ffffffff61141316565b9392505050565b610a29838383611455565b6001600160a01b03166000908152600c602052604090205490565b6109e18161149f565b60025490565b6040805180820190915260048152634653445360e01b602082015290565b6000610d52610d24565b6001600160a01b0383166000908152600c60205260409020600501541115610d7c57506002610983565b6001600160a01b0382166000908152600c6020526040902060040154610da0610d24565b101561091e576001610921565b60085490565b610a298383838080601f0160208091040260200160405190810160405280939291908181526020018383808284376000920191909152506114b892505050565b6001600160a01b03166000908152600c602052604090206005015490565b6109e1816114d3565b6001600160a01b039182166000908152600c602090815260408083209390941682526003909201909152205490565b600091909155600155565b6000610921610e6283610a2e565b610e6b84610b99565b9063ffffffff61150516565b6000610f08610e846110d0565b610e8c610b47565b6001600160a01b03166318160ddd6040518163ffffffff1660e01b815260040160206040518083038186803b158015610ec457600080fd5b505afa158015610ed8573d6000803e3d6000fd5b505050506040513d601f19601f82011682018060405250610efc9190810190611d7a565b9063ffffffff61152a16565b905090565b6109e18161156c565b6109e181611593565b610ae8848484848080601f0160208091040260200160405190810160405280939291908181526020018383808284376000920191909152506115d692505050565b6109c58282611681565b6109c58282611729565b610ae8848484848080601f01602080910402602001604051908101604052809392919081815260200183838082843760009201919091525061178592505050565b6000610fc082611045565b610fcc57506000610921565b506001600160a01b03919091166000908152600c6020908152604080832093835260029093019052205490565b6109c582826117e4565b61096985858585858080601f01602080910402602001604051908101604052809392919081815260200183838082843760009201919091525061184492505050565b6000908152600d602052604090206001015490565b6109c582826118ef565b60055490565b6001600160a01b03166000908152600e602052604090206005015460ff1690565b6109e18161193e565b6109c58282611957565b600f55565b6001600160a01b03166000908152600e602052604090205490565b610bfd611983565b6109c5828261199c565b60075490565b6000908152600d602052604090205490565b6001600160a01b038085166000908152600c60209081526040808320938716835260039093019052205461112390838363ffffffff6119eb16565b6001600160a01b039485166000908152600c60209081526040808320969097168252600390950190945293909220929092555050565b6000828152600d6020908152604080832060020184905592825291812060030180546001810182559082529190200155565b60045461119e908263ffffffff61150516565b60045550565b6006546111b890838363ffffffff6119eb16565b6006555050565b6001600160a01b039283166000908152600c60209081526040808320949095168252600390930190925291902055565b6001600160a01b0383166000908152600e602052604090206003015461121c90838363ffffffff6119eb16565b6001600160a01b039093166000908152600e60205260409020600301929092555050565b611248611a59565b604051806060016040528060008152602001635ff535c08152602001610e10815250905090565b60006109218260000151610e6b8460400151610ce28660200151610efc611a17565b6001600160a01b0383166000908152600c602090815260408083208584526002019091529020546112c8908263ffffffff61150516565b6001600160a01b0384166000908152600c60209081526040808320868452600201825280832093909355600d9052206001015461130b908263ffffffff61150516565b6000838152600d6020526040902060010155600854611330908263ffffffff61150516565b600855505050565b6113406109b5565b600d600061134c610d24565b8152602081019190915260400160002055565b60075461137390838363ffffffff6119eb16565b6007555050565b60a890565b6001600160a01b0383166000908152600e60205260409020600201546113ac90838363ffffffff6119eb16565b6001600160a01b039093166000908152600e60205260409020600201929092555050565b6000826113df57506000610921565b828202828482816113ec57fe5b0414610cee5760405162461bcd60e51b815260040161140a90611f56565b60405180910390fd5b6000610cee83836040518060400160405280601a81526020017f536166654d6174683a206469766973696f6e206279207a65726f000000000000815250611a1d565b6001600160a01b038083166000908152600e6020908152604080832093871683526004909301905220805482919060ff1916600183600281111561149557fe5b0217905550505050565b6007546114b2908263ffffffff61150516565b60075550565b6004546114cc90838363ffffffff6119eb16565b6004555050565b6114e66114de611a54565b610e6b610d24565b6001600160a01b039091166000908152600c6020526040902060040155565b600082820183811015610cee5760405162461bcd60e51b815260040161140a90611f46565b6000610cee83836040518060400160405280601e81526020017f536166654d6174683a207375627472616374696f6e206f766572666c6f7700008152506119eb565b6001600160a01b03166000908152600e60205260409020600501805460ff19166001179055565b600061159e82611045565b9050806115ab57506109e1565b6008546115be908263ffffffff61152a16565b600855506000908152600d6020526040812060010155565b6001600160a01b0383166000908152600c602052604090206001015461160390838363ffffffff6119eb16565b6001600160a01b0384166000908152600c602052604090206001015560035461163390838363ffffffff6119eb16565b6003556040516000906001600160a01b038516907fddf252ad1be2c89b69c2b068fc378daa952ba7f163c4a11628f55a4df523b3ef90611674908690611f66565b60405180910390a3505050565b6001600160a01b0382166000908152600c60205260409020600101546116ad908263ffffffff61150516565b6001600160a01b0383166000908152600c60205260409020600101556003546116dc908263ffffffff61150516565b6003556040516001600160a01b038316906000907fddf252ad1be2c89b69c2b068fc378daa952ba7f163c4a11628f55a4df523b3ef9061171d908590611f66565b60405180910390a35050565b6001600160a01b0382166000908152600c6020526040902054611752908263ffffffff61150516565b6001600160a01b0383166000908152600c602052604090205560055461177e908263ffffffff61150516565b6005555050565b6001600160a01b0383166000908152600c60205260409020546117af90838363ffffffff6119eb16565b6001600160a01b0384166000908152600c60205260409020556005546117dc90838363ffffffff6119eb16565b600555505050565b6001600160a01b0382166000908152600c60205260408120600501549061181661180d84610988565b610e6b856110a3565b905081811115610ae8576001600160a01b0384166000908152600c6020526040902060050181905550505050565b6001600160a01b0384166000908152600c6020908152604080832086845260020190915290205461187c90838363ffffffff6119eb16565b6001600160a01b0385166000908152600c60209081526040808320878452600201825280832093909355600d905220600101546118c090838363ffffffff6119eb16565b6000848152600d60205260409020600101556008546118e690838363ffffffff6119eb16565b60085550505050565b6001600160a01b0382166000908152600e602052604090206003015461191b908263ffffffff61150516565b6001600160a01b039092166000908152600e602052604090206003019190915550565b600654611951908263ffffffff61150516565b60065550565b61195f610d24565b6001600160a01b039092166000908152600e60205260409020918255600190910155565b60025461199790600163ffffffff61150516565b600255565b6001600160a01b0382166000908152600e60205260409020600201546119c8908263ffffffff61150516565b6001600160a01b039092166000908152600e602052604090206002019190915550565b60008184841115611a0f5760405162461bcd60e51b815260040161140a9190611f35565b505050900390565b600f5490565b60008183611a3e5760405162461bcd60e51b815260040161140a9190611f35565b506000838581611a4a57fe5b0495945050505050565b600c90565b60405180606001604052806000815260200160008152602001600081525090565b803561092181612014565b803561092181612028565b60008083601f840112611aa257600080fd5b50813567ffffffffffffffff811115611aba57600080fd5b602083019150836001820283011115611ad257600080fd5b9250929050565b803561092181612035565b805161092181612035565b600060208284031215611b0157600080fd5b6000611b0d8484611a7a565b949350505050565b60008060408385031215611b2857600080fd5b6000611b348585611a7a565b9250506020611b4585828601611a7a565b9150509250929050565b600080600060608486031215611b6457600080fd5b6000611b708686611a7a565b9350506020611b8186828701611a7a565b9250506040611b9286828701611a85565b9150509250925092565b600080600060608486031215611bb157600080fd5b6000611bbd8686611a7a565b9350506020611bce86828701611a7a565b9250506040611b9286828701611ad9565b600080600080600060808688031215611bf757600080fd5b6000611c038888611a7a565b9550506020611c1488828901611a7a565b9450506040611c2588828901611ad9565b935050606086013567ffffffffffffffff811115611c4257600080fd5b611c4e88828901611a90565b92509250509295509295909350565b60008060408385031215611c7057600080fd5b6000611c7c8585611a7a565b9250506020611b4585828601611ad9565b60008060008060608587031215611ca357600080fd5b6000611caf8787611a7a565b9450506020611cc087828801611ad9565b935050604085013567ffffffffffffffff811115611cdd57600080fd5b611ce987828801611a90565b95989497509550505050565b600080600060608486031215611d0a57600080fd5b6000611d168686611a7a565b9350506020611bce86828701611ad9565b600080600080600060808688031215611d3f57600080fd5b6000611d4b8888611a7a565b9550506020611c1488828901611ad9565b600060208284031215611d6e57600080fd5b6000611b0d8484611ad9565b600060208284031215611d8c57600080fd5b6000611b0d8484611ae4565b600080600060408486031215611dad57600080fd5b6000611db98686611ad9565b935050602084013567ffffffffffffffff811115611dd657600080fd5b611de286828701611a90565b92509250509250925092565b60008060408385031215611e0157600080fd5b6000611c7c8585611ad9565b611e1681611f8f565b82525050565b611e1681611f9a565b611e1681611fbe565b611e1681611fc9565b6000611e4282611f82565b611e4c8185611f86565b9350611e5c818560208601611fd4565b611e6581612000565b9093019392505050565b6000611e7c601b83611f86565b7f536166654d6174683a206164646974696f6e206f766572666c6f770000000000815260200192915050565b6000611eb5602183611f86565b7f536166654d6174683a206d756c7469706c69636174696f6e206f766572666c6f8152607760f81b602082015260400192915050565b611e1681611fb5565b611e1681611fb8565b602081016109218284611e0d565b602081016109218284611e1c565b602081016109218284611e25565b602081016109218284611e2e565b60208082528101610cee8184611e37565b6020808252810161092181611e6f565b6020808252810161092181611ea8565b602081016109218284611eeb565b602081016109218284611ef4565b5190565b90815260200190565b600061092182611fa9565b151590565b806109838161200a565b6001600160a01b031690565b90565b60ff1690565b600061092182611f8f565b600061092182611f9f565b60005b83811015611fef578181015183820152602001611fd7565b83811115610ae85750506000910152565b601f01601f191690565b600381106109e157fe5b61201d81611f8f565b81146109e157600080fd5b600381106109e157600080fd5b61201d81611fb556fea365627a7a72315820b0ca193d195a974ba303b410913d9c18d4379069db3472934bbb19da9f8566a16c6578706572696d656e74616cf564736f6c63430005110040",
  "source": "/*\n    Copyright 2020 Empty Set Squad <emptysetsquad@protonmail.com>\n\n    Licensed under the Apache License, Version 2.0 (the \"License\");\n    you may not use this file except in compliance with the License.\n    You may obtain a copy of the License at\n\n    http://www.apache.org/licenses/LICENSE-2.0\n\n    Unless required by applicable law or agreed to in writing, software\n    distributed under the License is distributed on an \"AS IS\" BASIS,\n    WITHOUT WARRANTIES OR CONDITIONS OF ANY KIND, either express or implied.\n    See the License for the specific language governing permissions and\n    limitations under the License.\n*/\n\npragma solidity ^0.5.17;\npragma experimental ABIEncoderV2;\n\nimport \"../dao/Setters.sol\";\n\ncontract MockState is Setters {\n    uint256 internal _blockTimestamp;\n\n    constructor () public {\n        _blockTimestamp = block.timestamp;\n    }\n\n    /**\n     * Global\n     */\n\n    function incrementTotalBondedE(uint256 amount) external {\n        super.incrementTotalBonded(amount);\n    }\n\n    function decrementTotalBondedE(uint256 amount, string calldata reason) external {\n        super.decrementTotalBonded(amount, reason);\n    }\n\n    function incrementTotalDebtE(uint256 amount) external {\n        super.incrementTotalDebt(amount);\n    }\n\n    function decrementTotalDebtE(uint256 amount, string calldata reason) external {\n        super.decrementTotalDebt(amount, reason);\n    }\n\n    function incrementTotalRedeemableE(uint256 amount) external {\n        super.incrementTotalRedeemable(amount);\n    }\n\n    function decrementTotalRedeemableE(uint256 amount, string calldata reason) external {\n        super.decrementTotalRedeemable(amount, reason);\n    }\n\n    /**\n     * Account\n     */\n\n    function incrementBalanceOfE(address account, uint256 amount) external {\n        super.incrementBalanceOf(account, amount);\n    }\n\n    function decrementBalanceOfE(address account, uint256 amount, string calldata reason) external {\n        super.decrementBalanceOf(account, amount, reason);\n    }\n\n    function incrementBalanceOfStagedE(address account, uint256 amount) external {\n        super.incrementBalanceOfStaged(account, amount);\n    }\n\n    function decrementBalanceOfStagedE(address account, uint256 amount, string calldata reason) external {\n        super.decrementBalanceOfStaged(account, amount, reason);\n    }\n\n    function incrementBalanceOfCouponsE(address account, uint256 epoch, uint256 amount) external {\n        super.incrementBalanceOfCoupons(account, epoch, amount);\n    }\n\n    function decrementBalanceOfCouponsE(address account, uint256 epoch, uint256 amount, string calldata reason) external {\n        super.decrementBalanceOfCoupons(account, epoch, amount, reason);\n    }\n\n    function unfreezeE(address account) external {\n        super.unfreeze(account);\n    }\n\n    function updateAllowanceCouponsE(address owner, address spender, uint256 amount) external {\n        super.updateAllowanceCoupons(owner, spender, amount);\n    }\n\n    function decrementAllowanceCouponsE(address owner, address spender, uint256 amount, string calldata reason) external {\n        super.decrementAllowanceCoupons(owner, spender, amount, reason);\n    }\n\n    /**\n     * Epoch\n     */\n\n    function setEpochParamsE(uint256 start, uint256 period) external {\n        _state.epoch.start = start;\n        _state.epoch.period = period;\n    }\n\n    function incrementEpochE() external {\n        super.incrementEpoch();\n    }\n\n    function snapshotTotalBondedE() external {\n        super.snapshotTotalBonded();\n    }\n\n    function initializeCouponsExpirationE(uint256 epoch, uint256 expiration) external {\n        super.initializeCouponsExpiration(epoch, expiration);\n    }\n\n    function eliminateOutstandingCouponsE(uint256 epoch) external {\n       super.eliminateOutstandingCoupons(epoch);\n    }\n\n    /**\n     * Governance\n     */\n\n    function createCandidateE(address candidate, uint256 period) external {\n        super.createCandidate(candidate, period);\n    }\n\n    function recordVoteE(address account, address candidate, Candidate.Vote vote) external {\n        super.recordVote(account, candidate, vote);\n    }\n\n    function incrementApproveForE(address candidate, uint256 amount) external {\n        super.incrementApproveFor(candidate, amount);\n    }\n\n    function decrementApproveForE(address candidate, uint256 amount, string calldata reason) external {\n        super.decrementApproveFor(candidate, amount, reason);\n    }\n\n    function incrementRejectForE(address candidate, uint256 amount) external {\n        super.incrementRejectFor(candidate, amount);\n    }\n\n    function decrementRejectForE(address candidate, uint256 amount, string calldata reason) external {\n        super.decrementRejectFor(candidate, amount, reason);\n    }\n\n    function placeLockE(address account, address candidate) external {\n        super.placeLock(account, candidate);\n    }\n\n    function initializedE(address candidate) external {\n        super.initialized(candidate);\n    }\n\n    /**\n     * Mock\n     */\n\n    function setBlockTimestamp(uint256 timestamp) external {\n        _blockTimestamp = timestamp;\n    }\n\n    function blockTimestamp() internal view returns (uint256) {\n        return _blockTimestamp;\n    }\n}\n",
  "sourcePath": "/Users/lileihuang/bytedance/fsd/protocol/contracts/mock/MockState.sol",
  "compiler": {
    "name": "solc",
    "version": "0.5.17+commit.d19bba13.Emscripten.clang"
  },
  "schemaVersion": "3.3.1",
  "updatedAt": "2021-01-07T05:38:54.394Z",
  "devdoc": {
    "methods": {}
  },
  "userdoc": {
    "methods": {
      "balanceOfStaged(address)": {
        "notice": "Account"
      },
      "createCandidateE(address,uint256)": {
        "notice": "Governance"
      },
      "dollar()": {
        "notice": "Global"
      },
      "epoch()": {
        "notice": "Epoch"
      },
      "incrementBalanceOfE(address,uint256)": {
        "notice": "Account"
      },
      "incrementTotalBondedE(uint256)": {
        "notice": "Global"
      },
      "name()": {
        "notice": "ERC20 Interface"
      },
      "recordedVote(address,address)": {
        "notice": "Governance"
      },
      "setBlockTimestamp(uint256)": {
        "notice": "Mock"
      },
      "setEpochParamsE(uint256,uint256)": {
        "notice": "Epoch"
      },
      "transfer(address,uint256)": {
        "notice": "ERC20 Interface"
      }
    }
  }
}