{
  "contractName": "MockRegulator",
  "abi": [
    {
      "inputs": [
        {
          "internalType": "address",
          "name": "oracle",
          "type": "address"
        },
        {
          "internalType": "address",
          "name": "pool",
          "type": "address"
        }
      ],
      "payable": false,
      "stateMutability": "nonpayable",
      "type": "constructor"
    },
    {
      "anonymous": false,
      "inputs": [
        {
          "indexed": true,
          "internalType": "uint256",
          "name": "epoch",
          "type": "uint256"
        },
        {
          "indexed": false,
          "internalType": "uint256",
          "name": "price",
          "type": "uint256"
        },
        {
          "indexed": false,
          "internalType": "uint256",
          "name": "newDebt",
          "type": "uint256"
        }
      ],
      "name": "SupplyDecrease",
      "type": "event"
    },
    {
      "anonymous": false,
      "inputs": [
        {
          "indexed": true,
          "internalType": "uint256",
          "name": "epoch",
          "type": "uint256"
        },
        {
          "indexed": false,
          "internalType": "uint256",
          "name": "price",
          "type": "uint256"
        },
        {
          "indexed": false,
          "internalType": "uint256",
          "name": "newRedeemable",
          "type": "uint256"
        },
        {
          "indexed": false,
          "internalType": "uint256",
          "name": "lessDebt",
          "type": "uint256"
        },
        {
          "indexed": false,
          "internalType": "uint256",
          "name": "newBonded",
          "type": "uint256"
        }
      ],
      "name": "SupplyIncrease",
      "type": "event"
    },
    {
      "anonymous": false,
      "inputs": [
        {
          "indexed": true,
          "internalType": "uint256",
          "name": "epoch",
          "type": "uint256"
        }
      ],
      "name": "SupplyNeutral",
      "type": "event"
    },
    {
      "anonymous": false,
      "inputs": [
        {
          "indexed": true,
          "internalType": "address",
          "name": "from",
          "type": "address"
        },
        {
          "indexed": true,
          "internalType": "address",
          "name": "to",
          "type": "address"
        },
        {
          "indexed": false,
          "internalType": "uint256",
          "name": "value",
          "type": "uint256"
        }
      ],
      "name": "Transfer",
      "type": "event"
    },
    {
      "constant": true,
      "inputs": [
        {
          "internalType": "address",
          "name": "owner",
          "type": "address"
        },
        {
          "internalType": "address",
          "name": "spender",
          "type": "address"
        }
      ],
      "name": "allowance",
      "outputs": [
        {
          "internalType": "uint256",
          "name": "",
          "type": "uint256"
        }
      ],
      "payable": false,
      "stateMutability": "view",
      "type": "function"
    },
    {
      "constant": true,
      "inputs": [
        {
          "internalType": "address",
          "name": "owner",
          "type": "address"
        },
        {
          "internalType": "address",
          "name": "spender",
          "type": "address"
        }
      ],
      "name": "allowanceCoupons",
      "outputs": [
        {
          "internalType": "uint256",
          "name": "",
          "type": "uint256"
        }
      ],
      "payable": false,
      "stateMutability": "view",
      "type": "function"
    },
    {
      "constant": false,
      "inputs": [
        {
          "internalType": "address",
          "name": "spender",
          "type": "address"
        },
        {
          "internalType": "uint256",
          "name": "amount",
          "type": "uint256"
        }
      ],
      "name": "approve",
      "outputs": [
        {
          "internalType": "bool",
          "name": "",
          "type": "bool"
        }
      ],
      "payable": false,
      "stateMutability": "nonpayable",
      "type": "function"
    },
    {
      "constant": true,
      "inputs": [
        {
          "internalType": "address",
          "name": "candidate",
          "type": "address"
        }
      ],
      "name": "approveFor",
      "outputs": [
        {
          "internalType": "uint256",
          "name": "",
          "type": "uint256"
        }
      ],
      "payable": false,
      "stateMutability": "view",
      "type": "function"
    },
    {
      "constant": true,
      "inputs": [
        {
          "internalType": "address",
          "name": "account",
          "type": "address"
        }
      ],
      "name": "balanceOf",
      "outputs": [
        {
          "internalType": "uint256",
          "name": "",
          "type": "uint256"
        }
      ],
      "payable": false,
      "stateMutability": "view",
      "type": "function"
    },
    {
      "constant": true,
      "inputs": [
        {
          "internalType": "address",
          "name": "account",
          "type": "address"
        }
      ],
      "name": "balanceOfBonded",
      "outputs": [
        {
          "internalType": "uint256",
          "name": "",
          "type": "uint256"
        }
      ],
      "payable": false,
      "stateMutability": "view",
      "type": "function"
    },
    {
      "constant": true,
      "inputs": [
        {
          "internalType": "address",
          "name": "account",
          "type": "address"
        },
        {
          "internalType": "uint256",
          "name": "epoch",
          "type": "uint256"
        }
      ],
      "name": "balanceOfCoupons",
      "outputs": [
        {
          "internalType": "uint256",
          "name": "",
          "type": "uint256"
        }
      ],
      "payable": false,
      "stateMutability": "view",
      "type": "function"
    },
    {
      "constant": true,
      "inputs": [
        {
          "internalType": "address",
          "name": "account",
          "type": "address"
        }
      ],
      "name": "balanceOfStaged",
      "outputs": [
        {
          "internalType": "uint256",
          "name": "",
          "type": "uint256"
        }
      ],
      "payable": false,
      "stateMutability": "view",
      "type": "function"
    },
    {
      "constant": false,
      "inputs": [
        {
          "internalType": "address",
          "name": "account",
          "type": "address"
        },
        {
          "internalType": "uint256",
          "name": "amount",
          "type": "uint256"
        }
      ],
      "name": "burnFromAccountE",
      "outputs": [],
      "payable": false,
      "stateMutability": "nonpayable",
      "type": "function"
    },
    {
      "constant": false,
      "inputs": [
        {
          "internalType": "uint256",
          "name": "amount",
          "type": "uint256"
        }
      ],
      "name": "burnRedeemableE",
      "outputs": [],
      "payable": false,
      "stateMutability": "nonpayable",
      "type": "function"
    },
    {
      "constant": true,
      "inputs": [
        {
          "internalType": "uint256",
          "name": "epoch",
          "type": "uint256"
        }
      ],
      "name": "couponsExpiration",
      "outputs": [
        {
          "internalType": "uint256",
          "name": "",
          "type": "uint256"
        }
      ],
      "payable": false,
      "stateMutability": "view",
      "type": "function"
    },
    {
      "constant": false,
      "inputs": [
        {
          "internalType": "address",
          "name": "candidate",
          "type": "address"
        },
        {
          "internalType": "uint256",
          "name": "period",
          "type": "uint256"
        }
      ],
      "name": "createCandidateE",
      "outputs": [],
      "payable": false,
      "stateMutability": "nonpayable",
      "type": "function"
    },
    {
      "constant": true,
      "inputs": [],
      "name": "decimals",
      "outputs": [
        {
          "internalType": "uint8",
          "name": "",
          "type": "uint8"
        }
      ],
      "payable": false,
      "stateMutability": "view",
      "type": "function"
    },
    {
      "constant": false,
      "inputs": [
        {
          "internalType": "uint256",
          "name": "amount",
          "type": "uint256"
        }
      ],
      "name": "decreaseDebtE",
      "outputs": [],
      "payable": false,
      "stateMutability": "nonpayable",
      "type": "function"
    },
    {
      "constant": false,
      "inputs": [
        {
          "internalType": "address",
          "name": "owner",
          "type": "address"
        },
        {
          "internalType": "address",
          "name": "spender",
          "type": "address"
        },
        {
          "internalType": "uint256",
          "name": "amount",
          "type": "uint256"
        },
        {
          "internalType": "string",
          "name": "reason",
          "type": "string"
        }
      ],
      "name": "decrementAllowanceCouponsE",
      "outputs": [],
      "payable": false,
      "stateMutability": "nonpayable",
      "type": "function"
    },
    {
      "constant": false,
      "inputs": [
        {
          "internalType": "address",
          "name": "candidate",
          "type": "address"
        },
        {
          "internalType": "uint256",
          "name": "amount",
          "type": "uint256"
        },
        {
          "internalType": "string",
          "name": "reason",
          "type": "string"
        }
      ],
      "name": "decrementApproveForE",
      "outputs": [],
      "payable": false,
      "stateMutability": "nonpayable",
      "type": "function"
    },
    {
      "constant": false,
      "inputs": [
        {
          "internalType": "address",
          "name": "account",
          "type": "address"
        },
        {
          "internalType": "uint256",
          "name": "epoch",
          "type": "uint256"
        },
        {
          "internalType": "uint256",
          "name": "amount",
          "type": "uint256"
        },
        {
          "internalType": "string",
          "name": "reason",
          "type": "string"
        }
      ],
      "name": "decrementBalanceOfCouponsE",
      "outputs": [],
      "payable": false,
      "stateMutability": "nonpayable",
      "type": "function"
    },
    {
      "constant": false,
      "inputs": [
        {
          "internalType": "address",
          "name": "account",
          "type": "address"
        },
        {
          "internalType": "uint256",
          "name": "amount",
          "type": "uint256"
        },
        {
          "internalType": "string",
          "name": "reason",
          "type": "string"
        }
      ],
      "name": "decrementBalanceOfE",
      "outputs": [],
      "payable": false,
      "stateMutability": "nonpayable",
      "type": "function"
    },
    {
      "constant": false,
      "inputs": [
        {
          "internalType": "address",
          "name": "account",
          "type": "address"
        },
        {
          "internalType": "uint256",
          "name": "amount",
          "type": "uint256"
        },
        {
          "internalType": "string",
          "name": "reason",
          "type": "string"
        }
      ],
      "name": "decrementBalanceOfStagedE",
      "outputs": [],
      "payable": false,
      "stateMutability": "nonpayable",
      "type": "function"
    },
    {
      "constant": false,
      "inputs": [
        {
          "internalType": "address",
          "name": "candidate",
          "type": "address"
        },
        {
          "internalType": "uint256",
          "name": "amount",
          "type": "uint256"
        },
        {
          "internalType": "string",
          "name": "reason",
          "type": "string"
        }
      ],
      "name": "decrementRejectForE",
      "outputs": [],
      "payable": false,
      "stateMutability": "nonpayable",
      "type": "function"
    },
    {
      "constant": false,
      "inputs": [
        {
          "internalType": "uint256",
          "name": "amount",
          "type": "uint256"
        },
        {
          "internalType": "string",
          "name": "reason",
          "type": "string"
        }
      ],
      "name": "decrementTotalBondedE",
      "outputs": [],
      "payable": false,
      "stateMutability": "nonpayable",
      "type": "function"
    },
    {
      "constant": false,
      "inputs": [
        {
          "internalType": "uint256",
          "name": "amount",
          "type": "uint256"
        },
        {
          "internalType": "string",
          "name": "reason",
          "type": "string"
        }
      ],
      "name": "decrementTotalDebtE",
      "outputs": [],
      "payable": false,
      "stateMutability": "nonpayable",
      "type": "function"
    },
    {
      "constant": false,
      "inputs": [
        {
          "internalType": "uint256",
          "name": "amount",
          "type": "uint256"
        },
        {
          "internalType": "string",
          "name": "reason",
          "type": "string"
        }
      ],
      "name": "decrementTotalRedeemableE",
      "outputs": [],
      "payable": false,
      "stateMutability": "nonpayable",
      "type": "function"
    },
    {
      "constant": true,
      "inputs": [],
      "name": "dollar",
      "outputs": [
        {
          "internalType": "contract IDollar",
          "name": "",
          "type": "address"
        }
      ],
      "payable": false,
      "stateMutability": "view",
      "type": "function"
    },
    {
      "constant": false,
      "inputs": [
        {
          "internalType": "uint256",
          "name": "epoch",
          "type": "uint256"
        }
      ],
      "name": "eliminateOutstandingCouponsE",
      "outputs": [],
      "payable": false,
      "stateMutability": "nonpayable",
      "type": "function"
    },
    {
      "constant": true,
      "inputs": [],
      "name": "epoch",
      "outputs": [
        {
          "internalType": "uint256",
          "name": "",
          "type": "uint256"
        }
      ],
      "payable": false,
      "stateMutability": "view",
      "type": "function"
    },
    {
      "constant": true,
      "inputs": [],
      "name": "epochTime",
      "outputs": [
        {
          "internalType": "uint256",
          "name": "",
          "type": "uint256"
        }
      ],
      "payable": false,
      "stateMutability": "view",
      "type": "function"
    },
    {
      "constant": true,
      "inputs": [
        {
          "internalType": "uint256",
          "name": "epoch",
          "type": "uint256"
        }
      ],
      "name": "expiringCoupons",
      "outputs": [
        {
          "internalType": "uint256",
          "name": "",
          "type": "uint256"
        }
      ],
      "payable": false,
      "stateMutability": "view",
      "type": "function"
    },
    {
      "constant": true,
      "inputs": [
        {
          "internalType": "uint256",
          "name": "epoch",
          "type": "uint256"
        },
        {
          "internalType": "uint256",
          "name": "i",
          "type": "uint256"
        }
      ],
      "name": "expiringCouponsAtIndex",
      "outputs": [
        {
          "internalType": "uint256",
          "name": "",
          "type": "uint256"
        }
      ],
      "payable": false,
      "stateMutability": "view",
      "type": "function"
    },
    {
      "constant": true,
      "inputs": [
        {
          "internalType": "address",
          "name": "account",
          "type": "address"
        }
      ],
      "name": "fluidUntil",
      "outputs": [
        {
          "internalType": "uint256",
          "name": "",
          "type": "uint256"
        }
      ],
      "payable": false,
      "stateMutability": "view",
      "type": "function"
    },
    {
      "constant": true,
      "inputs": [],
      "name": "implementation",
      "outputs": [
        {
          "internalType": "address",
          "name": "impl",
          "type": "address"
        }
      ],
      "payable": false,
      "stateMutability": "view",
      "type": "function"
    },
    {
      "constant": false,
      "inputs": [
        {
          "internalType": "uint256",
          "name": "amount",
          "type": "uint256"
        }
      ],
      "name": "increaseDebtE",
      "outputs": [],
      "payable": false,
      "stateMutability": "nonpayable",
      "type": "function"
    },
    {
      "constant": false,
      "inputs": [
        {
          "internalType": "address",
          "name": "candidate",
          "type": "address"
        },
        {
          "internalType": "uint256",
          "name": "amount",
          "type": "uint256"
        }
      ],
      "name": "incrementApproveForE",
      "outputs": [],
      "payable": false,
      "stateMutability": "nonpayable",
      "type": "function"
    },
    {
      "constant": false,
      "inputs": [
        {
          "internalType": "address",
          "name": "account",
          "type": "address"
        },
        {
          "internalType": "uint256",
          "name": "epoch",
          "type": "uint256"
        },
        {
          "internalType": "uint256",
          "name": "amount",
          "type": "uint256"
        }
      ],
      "name": "incrementBalanceOfCouponsE",
      "outputs": [],
      "payable": false,
      "stateMutability": "nonpayable",
      "type": "function"
    },
    {
      "constant": false,
      "inputs": [
        {
          "internalType": "address",
          "name": "account",
          "type": "address"
        },
        {
          "internalType": "uint256",
          "name": "amount",
          "type": "uint256"
        }
      ],
      "name": "incrementBalanceOfE",
      "outputs": [],
      "payable": false,
      "stateMutability": "nonpayable",
      "type": "function"
    },
    {
      "constant": false,
      "inputs": [
        {
          "internalType": "address",
          "name": "account",
          "type": "address"
        },
        {
          "internalType": "uint256",
          "name": "amount",
          "type": "uint256"
        }
      ],
      "name": "incrementBalanceOfStagedE",
      "outputs": [],
      "payable": false,
      "stateMutability": "nonpayable",
      "type": "function"
    },
    {
      "constant": false,
      "inputs": [],
      "name": "incrementEpochE",
      "outputs": [],
      "payable": false,
      "stateMutability": "nonpayable",
      "type": "function"
    },
    {
      "constant": false,
      "inputs": [
        {
          "internalType": "address",
          "name": "candidate",
          "type": "address"
        },
        {
          "internalType": "uint256",
          "name": "amount",
          "type": "uint256"
        }
      ],
      "name": "incrementRejectForE",
      "outputs": [],
      "payable": false,
      "stateMutability": "nonpayable",
      "type": "function"
    },
    {
      "constant": false,
      "inputs": [
        {
          "internalType": "uint256",
          "name": "amount",
          "type": "uint256"
        }
      ],
      "name": "incrementTotalBondedE",
      "outputs": [],
      "payable": false,
      "stateMutability": "nonpayable",
      "type": "function"
    },
    {
      "constant": false,
      "inputs": [
        {
          "internalType": "uint256",
          "name": "amount",
          "type": "uint256"
        }
      ],
      "name": "incrementTotalDebtE",
      "outputs": [],
      "payable": false,
      "stateMutability": "nonpayable",
      "type": "function"
    },
    {
      "constant": false,
      "inputs": [
        {
          "internalType": "uint256",
          "name": "amount",
          "type": "uint256"
        }
      ],
      "name": "incrementTotalRedeemableE",
      "outputs": [],
      "payable": false,
      "stateMutability": "nonpayable",
      "type": "function"
    },
    {
      "constant": false,
      "inputs": [
        {
          "internalType": "uint256",
          "name": "epoch",
          "type": "uint256"
        },
        {
          "internalType": "uint256",
          "name": "expiration",
          "type": "uint256"
        }
      ],
      "name": "initializeCouponsExpirationE",
      "outputs": [],
      "payable": false,
      "stateMutability": "nonpayable",
      "type": "function"
    },
    {
      "constant": false,
      "inputs": [
        {
          "internalType": "address",
          "name": "candidate",
          "type": "address"
        }
      ],
      "name": "initializedE",
      "outputs": [],
      "payable": false,
      "stateMutability": "nonpayable",
      "type": "function"
    },
    {
      "constant": true,
      "inputs": [
        {
          "internalType": "address",
          "name": "candidate",
          "type": "address"
        }
      ],
      "name": "isInitialized",
      "outputs": [
        {
          "internalType": "bool",
          "name": "",
          "type": "bool"
        }
      ],
      "payable": false,
      "stateMutability": "view",
      "type": "function"
    },
    {
      "constant": true,
      "inputs": [
        {
          "internalType": "address",
          "name": "candidate",
          "type": "address"
        }
      ],
      "name": "isNominated",
      "outputs": [
        {
          "internalType": "bool",
          "name": "",
          "type": "bool"
        }
      ],
      "payable": false,
      "stateMutability": "view",
      "type": "function"
    },
    {
      "constant": true,
      "inputs": [
        {
          "internalType": "address",
          "name": "account",
          "type": "address"
        }
      ],
      "name": "lockedUntil",
      "outputs": [
        {
          "internalType": "uint256",
          "name": "",
          "type": "uint256"
        }
      ],
      "payable": false,
      "stateMutability": "view",
      "type": "function"
    },
    {
      "constant": false,
      "inputs": [
        {
          "internalType": "address",
          "name": "account",
          "type": "address"
        },
        {
          "internalType": "uint256",
          "name": "amount",
          "type": "uint256"
        }
      ],
      "name": "mintToAccountE",
      "outputs": [],
      "payable": false,
      "stateMutability": "nonpayable",
      "type": "function"
    },
    {
      "constant": false,
      "inputs": [
        {
          "internalType": "address",
          "name": "account",
          "type": "address"
        },
        {
          "internalType": "uint256",
          "name": "amount",
          "type": "uint256"
        }
      ],
      "name": "mintToE",
      "outputs": [],
      "payable": false,
      "stateMutability": "nonpayable",
      "type": "function"
    },
    {
      "constant": true,
      "inputs": [],
      "name": "name",
      "outputs": [
        {
          "internalType": "string",
          "name": "",
          "type": "string"
        }
      ],
      "payable": false,
      "stateMutability": "view",
      "type": "function"
    },
    {
      "constant": true,
      "inputs": [],
      "name": "oracle",
      "outputs": [
        {
          "internalType": "contract IOracle",
          "name": "",
          "type": "address"
        }
      ],
      "payable": false,
      "stateMutability": "view",
      "type": "function"
    },
    {
      "constant": true,
      "inputs": [
        {
          "internalType": "uint256",
          "name": "epoch",
          "type": "uint256"
        }
      ],
      "name": "outstandingCoupons",
      "outputs": [
        {
          "internalType": "uint256",
          "name": "",
          "type": "uint256"
        }
      ],
      "payable": false,
      "stateMutability": "view",
      "type": "function"
    },
    {
      "constant": true,
      "inputs": [
        {
          "internalType": "address",
          "name": "candidate",
          "type": "address"
        }
      ],
      "name": "periodFor",
      "outputs": [
        {
          "internalType": "uint256",
          "name": "",
          "type": "uint256"
        }
      ],
      "payable": false,
      "stateMutability": "view",
      "type": "function"
    },
    {
      "constant": false,
      "inputs": [
        {
          "internalType": "address",
          "name": "account",
          "type": "address"
        },
        {
          "internalType": "address",
          "name": "candidate",
          "type": "address"
        }
      ],
      "name": "placeLockE",
      "outputs": [],
      "payable": false,
      "stateMutability": "nonpayable",
      "type": "function"
    },
    {
      "constant": true,
      "inputs": [],
      "name": "pool",
      "outputs": [
        {
          "internalType": "address",
          "name": "",
          "type": "address"
        }
      ],
      "payable": false,
      "stateMutability": "view",
      "type": "function"
    },
    {
      "constant": false,
      "inputs": [
        {
          "internalType": "address",
          "name": "account",
          "type": "address"
        },
        {
          "internalType": "address",
          "name": "candidate",
          "type": "address"
        },
        {
          "internalType": "enum Candidate.Vote",
          "name": "vote",
          "type": "uint8"
        }
      ],
      "name": "recordVoteE",
      "outputs": [],
      "payable": false,
      "stateMutability": "nonpayable",
      "type": "function"
    },
    {
      "constant": true,
      "inputs": [
        {
          "internalType": "address",
          "name": "account",
          "type": "address"
        },
        {
          "internalType": "address",
          "name": "candidate",
          "type": "address"
        }
      ],
      "name": "recordedVote",
      "outputs": [
        {
          "internalType": "enum Candidate.Vote",
          "name": "",
          "type": "uint8"
        }
      ],
      "payable": false,
      "stateMutability": "view",
      "type": "function"
    },
    {
      "constant": false,
      "inputs": [
        {
          "internalType": "address",
          "name": "account",
          "type": "address"
        },
        {
          "internalType": "uint256",
          "name": "amount",
          "type": "uint256"
        }
      ],
      "name": "redeemToAccountE",
      "outputs": [],
      "payable": false,
      "stateMutability": "nonpayable",
      "type": "function"
    },
    {
      "constant": true,
      "inputs": [
        {
          "internalType": "address",
          "name": "candidate",
          "type": "address"
        }
      ],
      "name": "rejectFor",
      "outputs": [
        {
          "internalType": "uint256",
          "name": "",
          "type": "uint256"
        }
      ],
      "payable": false,
      "stateMutability": "view",
      "type": "function"
    },
    {
      "constant": false,
      "inputs": [
        {
          "internalType": "uint256",
          "name": "percent",
          "type": "uint256"
        }
      ],
      "name": "resetDebtE",
      "outputs": [],
      "payable": false,
      "stateMutability": "nonpayable",
      "type": "function"
    },
    {
      "constant": false,
      "inputs": [
        {
          "internalType": "uint256",
          "name": "timestamp",
          "type": "uint256"
        }
      ],
      "name": "setBlockTimestamp",
      "outputs": [],
      "payable": false,
      "stateMutability": "nonpayable",
      "type": "function"
    },
    {
      "constant": false,
      "inputs": [
        {
          "internalType": "uint256",
          "name": "start",
          "type": "uint256"
        },
        {
          "internalType": "uint256",
          "name": "period",
          "type": "uint256"
        }
      ],
      "name": "setEpochParamsE",
      "outputs": [],
      "payable": false,
      "stateMutability": "nonpayable",
      "type": "function"
    },
    {
      "constant": false,
      "inputs": [],
      "name": "snapshotTotalBondedE",
      "outputs": [],
      "payable": false,
      "stateMutability": "nonpayable",
      "type": "function"
    },
    {
      "constant": true,
      "inputs": [
        {
          "internalType": "address",
          "name": "candidate",
          "type": "address"
        }
      ],
      "name": "startFor",
      "outputs": [
        {
          "internalType": "uint256",
          "name": "",
          "type": "uint256"
        }
      ],
      "payable": false,
      "stateMutability": "view",
      "type": "function"
    },
    {
      "constant": true,
      "inputs": [
        {
          "internalType": "address",
          "name": "account",
          "type": "address"
        }
      ],
      "name": "statusOf",
      "outputs": [
        {
          "internalType": "enum Account.Status",
          "name": "",
          "type": "uint8"
        }
      ],
      "payable": false,
      "stateMutability": "view",
      "type": "function"
    },
    {
      "constant": true,
      "inputs": [],
      "name": "symbol",
      "outputs": [
        {
          "internalType": "string",
          "name": "",
          "type": "string"
        }
      ],
      "payable": false,
      "stateMutability": "view",
      "type": "function"
    },
    {
      "constant": true,
      "inputs": [],
      "name": "totalBonded",
      "outputs": [
        {
          "internalType": "uint256",
          "name": "",
          "type": "uint256"
        }
      ],
      "payable": false,
      "stateMutability": "view",
      "type": "function"
    },
    {
      "constant": true,
      "inputs": [
        {
          "internalType": "uint256",
          "name": "epoch",
          "type": "uint256"
        }
      ],
      "name": "totalBondedAt",
      "outputs": [
        {
          "internalType": "uint256",
          "name": "",
          "type": "uint256"
        }
      ],
      "payable": false,
      "stateMutability": "view",
      "type": "function"
    },
    {
      "constant": true,
      "inputs": [],
      "name": "totalCoupons",
      "outputs": [
        {
          "internalType": "uint256",
          "name": "",
          "type": "uint256"
        }
      ],
      "payable": false,
      "stateMutability": "view",
      "type": "function"
    },
    {
      "constant": true,
      "inputs": [],
      "name": "totalDebt",
      "outputs": [
        {
          "internalType": "uint256",
          "name": "",
          "type": "uint256"
        }
      ],
      "payable": false,
      "stateMutability": "view",
      "type": "function"
    },
    {
      "constant": true,
      "inputs": [],
      "name": "totalNet",
      "outputs": [
        {
          "internalType": "uint256",
          "name": "",
          "type": "uint256"
        }
      ],
      "payable": false,
      "stateMutability": "view",
      "type": "function"
    },
    {
      "constant": true,
      "inputs": [],
      "name": "totalRedeemable",
      "outputs": [
        {
          "internalType": "uint256",
          "name": "",
          "type": "uint256"
        }
      ],
      "payable": false,
      "stateMutability": "view",
      "type": "function"
    },
    {
      "constant": true,
      "inputs": [],
      "name": "totalStaged",
      "outputs": [
        {
          "internalType": "uint256",
          "name": "",
          "type": "uint256"
        }
      ],
      "payable": false,
      "stateMutability": "view",
      "type": "function"
    },
    {
      "constant": true,
      "inputs": [],
      "name": "totalSupply",
      "outputs": [
        {
          "internalType": "uint256",
          "name": "",
          "type": "uint256"
        }
      ],
      "payable": false,
      "stateMutability": "view",
      "type": "function"
    },
    {
      "constant": false,
      "inputs": [
        {
          "internalType": "address",
          "name": "recipient",
          "type": "address"
        },
        {
          "internalType": "uint256",
          "name": "amount",
          "type": "uint256"
        }
      ],
      "name": "transfer",
      "outputs": [
        {
          "internalType": "bool",
          "name": "",
          "type": "bool"
        }
      ],
      "payable": false,
      "stateMutability": "nonpayable",
      "type": "function"
    },
    {
      "constant": false,
      "inputs": [
        {
          "internalType": "address",
          "name": "sender",
          "type": "address"
        },
        {
          "internalType": "address",
          "name": "recipient",
          "type": "address"
        },
        {
          "internalType": "uint256",
          "name": "amount",
          "type": "uint256"
        }
      ],
      "name": "transferFrom",
      "outputs": [
        {
          "internalType": "bool",
          "name": "",
          "type": "bool"
        }
      ],
      "payable": false,
      "stateMutability": "nonpayable",
      "type": "function"
    },
    {
      "constant": false,
      "inputs": [
        {
          "internalType": "address",
          "name": "account",
          "type": "address"
        }
      ],
      "name": "unfreezeE",
      "outputs": [],
      "payable": false,
      "stateMutability": "nonpayable",
      "type": "function"
    },
    {
      "constant": false,
      "inputs": [
        {
          "internalType": "address",
          "name": "owner",
          "type": "address"
        },
        {
          "internalType": "address",
          "name": "spender",
          "type": "address"
        },
        {
          "internalType": "uint256",
          "name": "amount",
          "type": "uint256"
        }
      ],
      "name": "updateAllowanceCouponsE",
      "outputs": [],
      "payable": false,
      "stateMutability": "nonpayable",
      "type": "function"
    },
    {
      "constant": true,
      "inputs": [
        {
          "internalType": "address",
          "name": "candidate",
          "type": "address"
        }
      ],
      "name": "votesFor",
      "outputs": [
        {
          "internalType": "uint256",
          "name": "",
          "type": "uint256"
        }
      ],
      "payable": false,
      "stateMutability": "view",
      "type": "function"
    },
    {
      "constant": false,
      "inputs": [],
      "name": "stepE",
      "outputs": [],
      "payable": false,
      "stateMutability": "nonpayable",
      "type": "function"
    },
    {
      "constant": true,
      "inputs": [
        {
          "internalType": "uint256",
          "name": "epoch",
          "type": "uint256"
        }
      ],
      "name": "bootstrappingAt",
      "outputs": [
        {
          "internalType": "bool",
          "name": "",
          "type": "bool"
        }
      ],
      "payable": false,
      "stateMutability": "view",
      "type": "function"
    }
  ],
  "bytecode": "0x60806040523480156200001157600080fd5b506040516200501c3803806200501c8339810160408190526200003491620000cd565b42600f5560405181906200004890620000ac565b604051809103906000f08015801562000065573d6000803e3d6000fd5b50600980546001600160a01b03199081166001600160a01b0393841617909155600b8054821693831693909317909255600a80549092169316929092179091555062000138565b611c03806200341983390190565b8051620000c7816200011e565b92915050565b60008060408385031215620000e157600080fd5b6000620000ef8585620000ba565b92505060206200010285828601620000ba565b9150509250929050565b60006001600160a01b038216620000c7565b62000129816200010c565b81146200013557600080fd5b50565b6132d180620001486000396000f3fe608060405234801561001057600080fd5b50600436106104805760003560e01c8063825ad60711610257578063b11ee0e311610146578063d60b347f116100c3578063f1b7cf4911610087578063f1b7cf49146109a9578063f35adf7e146109bc578063f7a31818146109c4578063fc7b9c18146109d7578063ffbe3b73146109df57610480565b8063d60b347f1461094f578063d6d8816d14610962578063d83d3ed514610975578063dd62ed3e14610988578063e0abdf661461099657610480565b8063c2aeb5fe1161010a578063c2aeb5fe146108fb578063c45a3e0a1461090e578063c9aff70c14610921578063cc8d823c14610934578063cf0237791461094757610480565b8063b11ee0e31461089c578063b16144a3146108af578063b32a2f90146108c2578063bc7513e2146108d5578063c1410c02146108e857610480565b80639be46493116101d4578063a6f37b5311610198578063a6f37b5314610850578063a9059cbb146104a3578063a9b3cf1514610863578063adbff2be14610876578063ae5c23811461088957610480565b80639be46493146107fc5780639f6e1b261461080f578063a00e14d114610822578063a50cd8e714610835578063a6c409f11461084857610480565b806395d89b411161021b57806395d89b41146107b357806397a5d5b5146107bb5780639a649edc146107ce5780639b82b49b146107d65780639bc289f1146107e957610480565b8063825ad6071461075f5780638413e52a1461077257806386cf9f14146107855780638de2e57314610798578063900cf0cf146107ab57610480565b80633fd4973c116103735780635f14fec8116102f057806371c511eb116102b457806371c511eb1461071657806372924d2a1461071e57806375d5024b146107315780637cb95a32146107445780637dc0d1d01461075757610480565b80635f14fec8146106b757806364668022146106ca5780636a39e328146106dd5780636b862d66146106f057806370a082311461070357610480565b80635053e461116103375780635053e4611461066c57806351adeb571461067457806351bf21d8146106895780635c60da1b1461069c5780635dbf800a146106a457610480565b80633fd4973c14610623578063416a23cc14610636578063438735261461063e57806344d96e95146106515780634c7360991461065957610480565b806320f6bc901161040157806332347422116103c557806332347422146105b7578063353a420c146105ca5780633a3e6c81146105dd5780633f7bcaf3146105f05780633fbba9a61461060357610480565b806320f6bc901461055657806323b872dd14610569578063259f7adf1461057c578063277805a91461058f578063313ce567146105a257610480565b806316f0115b1161044857806316f0115b1461050b57806318160ddd146105205780631a08e22a146105285780631edbcf6c1461053b5780631fac97321461054357610480565b806306fdde0314610485578063095ea7b3146104a35780630dc6d3a3146104c357806310e95b6c146104d857806315e14bf6146104f8575b600080fd5b61048d6109f2565b60405161049a91906130b6565b60405180910390f35b6104b66104b1366004612cbb565b610a22565b60405161049a919061308c565b6104d66104d1366004612c3d565b610a2b565b005b6104eb6104e6366004612e08565b610a74565b60405161049a91906130e7565b6104eb610506366004612b55565b610a8c565b610513610aaa565b60405161049a919061303b565b6104eb610ab9565b6104d6610536366004612e9a565b610abf565b6104eb610acd565b6104d6610551366004612e08565b610ad3565b6104d6610564366004612cbb565b610adf565b6104b6610577366004612bfa565b610ae9565b6104d661058a366004612e08565b610af3565b6104d661059d366004612cbb565b610afc565b6105aa610b88565b60405161049a9190613138565b6104d66105c5366004612e44565b610b8d565b6104eb6105d8366004612b55565b610bcd565b6104b66105eb366004612b55565b610beb565b6104d66105fe366004612bfa565b610c08565b610616610611366004612b73565b610c13565b60405161049a91906130a8565b6104d6610631366004612ceb565b610c46565b6104d6610c8d565b6104d661064c366004612e08565b610c97565b6104eb610ca0565b6104eb610667366004612e9a565b610ca6565b6104eb610cd6565b61067c610cf9565b60405161049a919061309a565b6104eb610697366004612b55565b610d08565b610513610d26565b6104d66106b2366004612e08565b610d4b565b6104d66106c5366004612cbb565b610d54565b6104eb6106d8366004612b55565b610d5e565b6104eb6106eb366004612e08565b610d7c565b6104d66106fe366004612d53565b610d91565b6104eb610711366004612b55565b610d9c565b6104d6610dba565b6104d661072c366004612e44565b610dc2565b6104b661073f366004612e08565b610e02565b6104d6610752366004612ceb565b610e09565b61067c610e4a565b6104eb61076d366004612b55565b610e59565b6104d6610780366004612bad565b610ea5565b6104eb610793366004612b55565b610eb0565b6104d66107a6366004612e08565b610ecb565b6104eb610ed4565b61048d610eda565b6106166107c9366004612b55565b610ef8565b6104eb610f5d565b6104d66107e4366004612e44565b610f63565b6104eb6107f7366004612b55565b610fa3565b6104d661080a366004612b55565b610fc1565b6104eb61081d366004612b73565b610fca565b6104d6610830366004612e9a565b610ff9565b6104eb610843366004612b55565b611004565b6104eb611027565b6104d661085e366004612b55565b6110bd565b6104d6610871366004612e08565b6110c6565b6104d6610884366004612ceb565b6110cf565b6104d6610897366004612cbb565b611110565b6104d66108aa366004612cbb565b61111a565b6104d66108bd366004612e08565b611124565b6104d66108d0366004612ceb565b611137565b6104eb6108e3366004612cbb565b611178565b6104d66108f6366004612b73565b6111bc565b6104d6610909366004612d85565b6111c6565b6104d661091c366004612cbb565b611208565b6104eb61092f366004612e08565b611212565b6104d6610942366004612cbb565b611227565b6104eb611231565b6104b661095d366004612b55565b611237565b6104d6610970366004612e08565b611258565b6104d6610983366004612cbb565b611261565b6104eb6104b1366004612b73565b6104d66109a4366004612e08565b61126b565b6104eb6109b7366004612b55565b611270565b6104d661128b565b6104d66109d2366004612cbb565b611293565b6104eb61129d565b6104eb6109ed366004612e08565b6112a3565b604080518082019091526015815274467265712053657420446f6c6c6172205374616b6560581b60208201525b90565b60005b92915050565b610a6d85858585858080601f0160208091040260200160405190810160405280939291908181526020018383808284376000920191909152506112b592505050565b5050505050565b6000818152600d60205260409020600201545b919050565b6001600160a01b03166000908152600e602052604090206001015490565b600b546001600160a01b031690565b60035490565b610ac98282611326565b5050565b60065490565b610adc81611358565b50565b610ac9828261139f565b60005b9392505050565b610adc81611447565b610b04610cf9565b6001600160a01b03166340c10f1983836040518363ffffffff1660e01b8152600401610b31929190613071565b602060405180830381600087803b158015610b4b57600080fd5b505af1158015610b5f573d6000803e3d6000fd5b505050506040513d601f19601f82011682018060405250610b839190810190612dba565b505050565b601290565b610b838383838080601f01602080910402602001604051908101604052809392919081815260200183838082843760009201919091525061146092505050565b6001600160a01b03166000908152600e602052604090206003015490565b6001600160a01b03166000908152600e6020526040902054151590565b610b8383838361147b565b6001600160a01b038082166000908152600e60209081526040808320938616835260049093019052205460ff1692915050565b610c87848484848080601f0160208091040260200160405190810160405280939291908181526020018383808284376000920191909152506114ab92505050565b50505050565b610c956114fc565b565b610adc8161159c565b60045490565b6000828152600d60205260408120600301805483908110610cc357fe5b9060005260206000200154905092915050565b6000610ce0612a6e565b610ce86115b0565b9050610cf3816115df565b91505090565b6009546001600160a01b031690565b6001600160a01b03166000908152600c602052604090206004015490565b7f360894a13ba1a3210667c828492db98dca3e2076cc3735a920a3ca505d382bbc5490565b610adc81611601565b610ac98282611688565b6001600160a01b03166000908152600e602052604090206002015490565b6000908152600d602052604090206003015490565b610b83838383611799565b6001600160a01b03166000908152600c602052604090206001015490565b610c95611840565b610b838383838080601f01602080910402602001604051908101604052809392919081815260200183838082843760009201919091525061186792505050565b6005101590565b610c87848484848080601f01602080910402602001604051908101604052809392919081815260200183838082843760009201919091525061188292505050565b600a546001600160a01b031690565b600080610e64610ab9565b905080610e75576000915050610a87565b610aec81610e99610e8586610d9c565b610e8d610ca0565b9063ffffffff6118d316565b9063ffffffff61191616565b610b83838383611958565b6001600160a01b03166000908152600c602052604090205490565b610adc816119a2565b60025490565b6040805180820190915260048152634653445360e01b602082015290565b6000610f02610ed4565b6001600160a01b0383166000908152600c60205260409020600501541115610f2c57506002610a87565b6001600160a01b0382166000908152600c6020526040902060040154610f50610ed4565b1015610a22576001610a25565b60085490565b610b838383838080601f0160208091040260200160405190810160405280939291908181526020018383808284376000920191909152506119bb92505050565b6001600160a01b03166000908152600c602052604090206005015490565b610adc816119d6565b6001600160a01b039182166000908152600c602090815260408083209390941682526003909201909152205490565b600091909155600155565b6000610a2561101283610bcd565b61101b84610d5e565b9063ffffffff611a0816565b60006110b861103461129d565b61103c610cf9565b6001600160a01b03166318160ddd6040518163ffffffff1660e01b815260040160206040518083038186803b15801561107457600080fd5b505afa158015611088573d6000803e3d6000fd5b505050506040513d601f19601f820116820180604052506110ac9190810190612e26565b9063ffffffff611a2d16565b905090565b610adc81611a6f565b610adc81611a96565b610c87848484848080601f016020809104026020016040519081016040528093929190818152602001838380828437600092019190915250611ad992505050565b610ac98282611b84565b610ac98282611c2c565b610adc611132826064611c88565b611cb7565b610c87848484848080601f016020809104026020016040519081016040528093929190818152602001838380828437600092019190915250611d7c92505050565b600061118382611212565b61118f57506000610a25565b506001600160a01b03919091166000908152600c6020908152604080832093835260029093019052205490565b610ac98282611ddb565b610a6d85858585858080601f016020809104026020016040519081016040528093929190818152602001838380828437600092019190915250611e3b92505050565b610ac98282611ee6565b6000908152600d602052604090206001015490565b610ac98282611f90565b60055490565b6001600160a01b03166000908152600e602052604090206005015460ff1690565b610adc81611fdf565b610ac98282611ff8565b600f55565b6001600160a01b03166000908152600e602052604090205490565b610c95612024565b610ac9828261203d565b60075490565b6000908152600d602052604090205490565b6001600160a01b038085166000908152600c6020908152604080832093871683526003909301905220546112f090838363ffffffff61208c16565b6001600160a01b039485166000908152600c60209081526040808320969097168252600390950190945293909220929092555050565b6000828152600d6020908152604080832060020184905592825291812060030180546001810182559082529190200155565b611397816040518060400160405280601c81526020017f436f6d7074726f6c6c65723a206e6f7420656e6f756768206465627400000000815250611867565b610adc6120b8565b6113a7610cf9565b6001600160a01b03166340c10f1983836040518363ffffffff1660e01b81526004016113d4929190613071565b602060405180830381600087803b1580156113ee57600080fd5b505af1158015611402573d6000803e3d6000fd5b505050506040513d601f19601f820116820180604052506114269190810190612dba565b5061143261073f610ed4565b61143f5761143f8161159c565b610ac96120b8565b60045461145a908263ffffffff611a0816565b60045550565b60065461147490838363ffffffff61208c16565b6006555050565b6001600160a01b039283166000908152600c60209081526040808320949095168252600390930190925291902055565b6001600160a01b0383166000908152600e60205260409020600301546114d890838363ffffffff61208c16565b6001600160a01b039093166000908152600e60205260409020600301929092555050565b611504612a8f565b61150c61218b565b9050611526611519612253565b829063ffffffff61227516565b156115425761153361228b565b61153c81612292565b50610c95565b61155a61154d612253565b829063ffffffff61234716565b156115685761153c8161235b565b611570610ed4565b6040517fff7db5a0dc69b02c191ba632db46961b7d0daa1bd30709ddba9b80ad0a15d2c090600090a250565b6115a5816119a2565b6113976111326123e2565b6115b8612a6e565b604051806060016040528060008152602001635ff535c08152602001610e10815250905090565b6000610a25826000015161101b8460400151610e9986602001516110ac612404565b611609610cf9565b6001600160a01b03166342966c68826040518263ffffffff1660e01b815260040161163491906130e7565b600060405180830381600087803b15801561164e57600080fd5b505af1158015611662573d6000803e3d6000fd5b50505050611397816040518060600160405280602a8152602001613265602a9139611460565b611690610cf9565b6001600160a01b03166323b872dd8330846040518463ffffffff1660e01b81526004016116bf93929190613049565b602060405180830381600087803b1580156116d957600080fd5b505af11580156116ed573d6000803e3d6000fd5b505050506040513d601f19601f820116820180604052506117119190810190612dba565b5061171a610cf9565b6001600160a01b03166342966c68826040518263ffffffff1660e01b815260040161174591906130e7565b600060405180830381600087803b15801561175f57600080fd5b505af1158015611773573d6000803e3d6000fd5b5050505061143f8160405180606001604052806028815260200161323d60289139611867565b6001600160a01b0383166000908152600c602090815260408083208584526002019091529020546117d0908263ffffffff611a0816565b6001600160a01b0384166000908152600c60209081526040808320868452600201825280832093909355600d90522060010154611813908263ffffffff611a0816565b6000838152600d6020526040902060010155600854611838908263ffffffff611a0816565b600855505050565b611848610ab9565b600d6000611854610ed4565b8152602081019190915260400160002055565b60075461187b90838363ffffffff61208c16565b6007555050565b6001600160a01b0383166000908152600e60205260409020600201546118af90838363ffffffff61208c16565b6001600160a01b039093166000908152600e60205260409020600201929092555050565b6000826118e257506000610a25565b828202828482816118ef57fe5b0414610aec5760405162461bcd60e51b815260040161190d906130d7565b60405180910390fd5b6000610aec83836040518060400160405280601a81526020017f536166654d6174683a206469766973696f6e206279207a65726f00000000000081525061240a565b6001600160a01b038083166000908152600e6020908152604080832093871683526004909301905220805482919060ff1916600183600281111561199857fe5b0217905550505050565b6007546119b5908263ffffffff611a0816565b60075550565b6004546119cf90838363ffffffff61208c16565b6004555050565b6119e96119e1612441565b61101b610ed4565b6001600160a01b039091166000908152600c6020526040902060040155565b600082820183811015610aec5760405162461bcd60e51b815260040161190d906130c7565b6000610aec83836040518060400160405280601e81526020017f536166654d6174683a207375627472616374696f6e206f766572666c6f77000081525061208c565b6001600160a01b03166000908152600e60205260409020600501805460ff19166001179055565b6000611aa182611212565b905080611aae5750610adc565b600854611ac1908263ffffffff611a2d16565b600855506000908152600d6020526040812060010155565b6001600160a01b0383166000908152600c6020526040902060010154611b0690838363ffffffff61208c16565b6001600160a01b0384166000908152600c6020526040902060010155600354611b3690838363ffffffff61208c16565b6003556040516000906001600160a01b038516907fddf252ad1be2c89b69c2b068fc378daa952ba7f163c4a11628f55a4df523b3ef90611b779086906130e7565b60405180910390a3505050565b6001600160a01b0382166000908152600c6020526040902060010154611bb0908263ffffffff611a0816565b6001600160a01b0383166000908152600c6020526040902060010155600354611bdf908263ffffffff611a0816565b6003556040516001600160a01b038316906000907fddf252ad1be2c89b69c2b068fc378daa952ba7f163c4a11628f55a4df523b3ef90611c209085906130e7565b60405180910390a35050565b6001600160a01b0382166000908152600c6020526040902054611c55908263ffffffff611a0816565b6001600160a01b0383166000908152600c6020526040902055600554611c81908263ffffffff611a0816565b6005555050565b611c90612a8f565b6040518060200160405280611cae85670de0b6b3a764000086612446565b90529392505050565b6000611d49611d44611cc7610cf9565b6001600160a01b03166318160ddd6040518163ffffffff1660e01b815260040160206040518083038186803b158015611cff57600080fd5b505afa158015611d13573d6000803e3d6000fd5b505050506040513d601f19601f82011682018060405250611d379190810190612e26565b849063ffffffff61246416565b61248b565b90506000611d5561129d565b905081811115610b83576000611d71828463ffffffff611a2d16565b9050610c8781611358565b6001600160a01b0383166000908152600c6020526040902054611da690838363ffffffff61208c16565b6001600160a01b0384166000908152600c6020526040902055600554611dd390838363ffffffff61208c16565b600555505050565b6001600160a01b0382166000908152600c602052604081206005015490611e0d611e0484610a8c565b61101b85611270565b905081811115610c87576001600160a01b0384166000908152600c6020526040902060050181905550505050565b6001600160a01b0384166000908152600c60209081526040808320868452600201909152902054611e7390838363ffffffff61208c16565b6001600160a01b0385166000908152600c60209081526040808320878452600201825280832093909355600d90522060010154611eb790838363ffffffff61208c16565b6000848152600d6020526040902060010155600854611edd90838363ffffffff61208c16565b60085550505050565b611eee610cf9565b6001600160a01b031663a9059cbb83836040518363ffffffff1660e01b8152600401611f1b929190613071565b602060405180830381600087803b158015611f3557600080fd5b505af1158015611f49573d6000803e3d6000fd5b505050506040513d601f19601f82011682018060405250611f6d9190810190612dba565b5061143f816040518060600160405280602a8152602001613265602a9139611460565b6001600160a01b0382166000908152600e6020526040902060030154611fbc908263ffffffff611a0816565b6001600160a01b039092166000908152600e602052604090206003019190915550565b600654611ff2908263ffffffff611a0816565b60065550565b612000610ed4565b6001600160a01b039092166000908152600e60205260409020918255600190910155565b60025461203890600163ffffffff611a0816565b600255565b6001600160a01b0382166000908152600e6020526040902060020154612069908263ffffffff611a0816565b6001600160a01b039092166000908152600e602052604090206002019190915550565b600081848411156120b05760405162461bcd60e51b815260040161190d91906130b6565b505050900390565b610c956120d96120c6610acd565b61101b6120d1611231565b61101b610ca0565b6120e1610cf9565b6001600160a01b03166370a08231306040518263ffffffff1660e01b815260040161210c919061303b565b60206040518083038186803b15801561212457600080fd5b505afa158015612138573d6000803e3d6000fd5b505050506040513d601f19601f8201168201806040525061215c9190810190612e26565b10156a21b7b6b83a3937b63632b960a91b74496e636f6e73697374656e742062616c616e63657360581b6124a8565b612193612a8f565b61219b612a8f565b60006121a5610e4a565b6001600160a01b031663d4a3e9d76040518163ffffffff1660e01b81526004016040805180830381600087803b1580156121de57600080fd5b505af11580156121f2573d6000803e3d6000fd5b505050506040513d601f19601f820116820180604052506122169190810190612dd8565b9150915061222a61073f60016110ac610ed4565b15612240576122376124fd565b92505050610a1f565b8061224d57612237612253565b50905090565b61225b612a8f565b506040805160208101909152670de0b6b3a7640000815290565b6000612281838361251f565b6002149392505050565b6000600755565b61229a612a8f565b6122d16122cc6122a8612551565b6122c06122b3612253565b869063ffffffff61257416565b9063ffffffff61259d16565b6125cb565b905060006122e3611d44611d37611027565b905060008060006122f3846125ff565b925092509250612301610ed4565b86516040517f32fcaa1e76ed9517f4749d8ec9a77dd5e7329456d740b9bf9665d900eef5e2839161233791879087908790613103565b60405180910390a2505050505050565b6000612353838361251f565b159392505050565b612363612a8f565b61237e6122cc83612372612253565b9063ffffffff61257416565b90506000612390611d44611d37611027565b905061239b8161159c565b6123a3610ed4565b83516040517f5e139d4b8080a4a00dcc151e8217694aeebae893936326aa22096924a9906677916123d59185906130f5565b60405180910390a2505050565b6123ea612a8f565b5060408051602081019091526706f05b59d3b20000815290565b600f5490565b6000818361242b5760405162461bcd60e51b815260040161190d91906130b6565b50600083858161243757fe5b0495945050505050565b600c90565b600061245c82610e99868663ffffffff6118d316565b949350505050565b61246c612a8f565b604080516020810190915283518190611cae908563ffffffff6118d316565b8051600090610a2590670de0b6b3a764000063ffffffff61191616565b82610b83576124b68261276b565b6101d160f51b6124c58361276b565b6040516020016124d79392919061300a565b60408051601f198184030181529082905262461bcd60e51b825261190d916004016130b6565b612505612a8f565b506040805160208101909152671e87f85809dc0000815290565b80518251600091141561253457506001610a25565b8151835111612544576000612547565b60025b60ff169392505050565b612559612a8f565b50604080516020810190915268014d1120d7b1600000815290565b61257c612a8f565b6040805160208101909152825184518291611cae919063ffffffff611a2d16565b6125a5612a8f565b6040518060200160405280611cae8560000151670de0b6b3a76400008660000151612446565b6125d3612a8f565b6125db612a8f565b6125e36127eb565b90506125f5838263ffffffff61227516565b610a255782610aec565b600080808080808061260f610acd565b9050600061261b610f5d565b9050808210156126d857612635818363ffffffff611a2d16565b945061265d61264c606461264761280d565b611a2d565b610e9987606463ffffffff6118d316565b945088851161266c578461266e565b885b945061268d6064610e9961268061280d565b889063ffffffff6118d316565b925061269f858463ffffffff611a2d16565b94506126aa83612812565b6126b3856128a6565b6126c3898463ffffffff611a2d16565b98506126d5898663ffffffff611a2d16565b98505b60006126e261129d565b905060008a1180156126f45750600081115b15612726578981116127065780612708565b895b945061271385611358565b6127238a8663ffffffff611a2d16565b99505b61272e610ca0565b61273757600099505b8915612746576127468a612937565b85856127588c8763ffffffff611a0816565b9850985098505050505050509193909250565b6060808260405160200161277f9190612ff5565b60408051601f19818403018152919052905060205b80156127d4578151600019909101908290829081106127af57fe5b01602001516001600160f81b031916156127cf5760010181529050610a87565b612794565b505060408051600081526020810190915292915050565b6127f3612a8f565b50604080516020810190915267016345785d8a0000815290565b603290565b8015610adc57612820610cf9565b6001600160a01b03166340c10f19612836610aaa565b836040518363ffffffff1660e01b8152600401612854929190613071565b602060405180830381600087803b15801561286e57600080fd5b505af1158015612882573d6000803e3d6000fd5b505050506040513d601f19601f82011682018060405250610ac99190810190612dba565b6128ae610cf9565b6001600160a01b03166340c10f1930836040518363ffffffff1660e01b81526004016128db929190613071565b602060405180830381600087803b1580156128f557600080fd5b505af1158015612909573d6000803e3d6000fd5b505050506040513d601f19601f8201168201806040525061292d9190810190612dba565b5061139781611fdf565b61297a6000612944610ca0565b116a21b7b6b83a3937b63632b960a91b7f43616e74206d696e7420746f20656d70747920706f6f6c0000000000000000006124a8565b60006129996064610e9961298c61280d565b859063ffffffff6118d316565b905060008183116129ab5760006129bb565b6129bb838363ffffffff611a2d16565b90506129c682612812565b6129cf816129d7565b610b836120b8565b8015610adc576129e5610cf9565b6001600160a01b03166340c10f1930836040518363ffffffff1660e01b8152600401612a12929190613071565b602060405180830381600087803b158015612a2c57600080fd5b505af1158015612a40573d6000803e3d6000fd5b505050506040513d601f19601f82011682018060405250612a649190810190612dba565b50610adc81611447565b60405180606001604052806000815260200160008152602001600081525090565b6040518060200160405280600081525090565b8035610a2581613209565b8051610a258161321d565b8035610a2581613226565b60008083601f840112612ad557600080fd5b50813567ffffffffffffffff811115612aed57600080fd5b602083019150836001820283011115612b0557600080fd5b9250929050565b600060208284031215612b1e57600080fd5b612b286020613146565b90506000612b368484612b4a565b82525092915050565b8035610a2581613233565b8051610a2581613233565b600060208284031215612b6757600080fd5b600061245c8484612aa2565b60008060408385031215612b8657600080fd5b6000612b928585612aa2565b9250506020612ba385828601612aa2565b9150509250929050565b600080600060608486031215612bc257600080fd5b6000612bce8686612aa2565b9350506020612bdf86828701612aa2565b9250506040612bf086828701612ab8565b9150509250925092565b600080600060608486031215612c0f57600080fd5b6000612c1b8686612aa2565b9350506020612c2c86828701612aa2565b9250506040612bf086828701612b3f565b600080600080600060808688031215612c5557600080fd5b6000612c618888612aa2565b9550506020612c7288828901612aa2565b9450506040612c8388828901612b3f565b935050606086013567ffffffffffffffff811115612ca057600080fd5b612cac88828901612ac3565b92509250509295509295909350565b60008060408385031215612cce57600080fd5b6000612cda8585612aa2565b9250506020612ba385828601612b3f565b60008060008060608587031215612d0157600080fd5b6000612d0d8787612aa2565b9450506020612d1e87828801612b3f565b935050604085013567ffffffffffffffff811115612d3b57600080fd5b612d4787828801612ac3565b95989497509550505050565b600080600060608486031215612d6857600080fd5b6000612d748686612aa2565b9350506020612c2c86828701612b3f565b600080600080600060808688031215612d9d57600080fd5b6000612da98888612aa2565b9550506020612c7288828901612b3f565b600060208284031215612dcc57600080fd5b600061245c8484612aad565b60008060408385031215612deb57600080fd5b6000612df78585612b0c565b9250506020612ba385828601612aad565b600060208284031215612e1a57600080fd5b600061245c8484612b3f565b600060208284031215612e3857600080fd5b600061245c8484612b4a565b600080600060408486031215612e5957600080fd5b6000612e658686612b3f565b935050602084013567ffffffffffffffff811115612e8257600080fd5b612e8e86828701612ac3565b92509250509250925092565b60008060408385031215612ead57600080fd5b6000612cda8585612b3f565b612ec28161317a565b82525050565b612ec281613185565b612ec2612edd8261318a565b610a1f565b612ec2612edd82610a1f565b6000612ef98261316d565b612f038185610a87565b9350612f138185602086016131c9565b9290920192915050565b612ec2816131b3565b612ec2816131be565b6000612f3a8261316d565b612f448185613171565b9350612f548185602086016131c9565b612f5d816131f5565b9093019392505050565b6000612f74601b83613171565b7f536166654d6174683a206164646974696f6e206f766572666c6f770000000000815260200192915050565b6000612fad602183613171565b7f536166654d6174683a206d756c7469706c69636174696f6e206f766572666c6f8152607760f81b602082015260400192915050565b612ec281610a1f565b612ec2816131ad565b60006130018284612ee2565b50602001919050565b60006130168286612eee565b91506130228285612ed1565b6002820191506130328284612eee565b95945050505050565b60208101610a258284612eb9565b606081016130578286612eb9565b6130646020830185612eb9565b61245c6040830184612fe3565b6040810161307f8285612eb9565b610aec6020830184612fe3565b60208101610a258284612ec8565b60208101610a258284612f1d565b60208101610a258284612f26565b60208082528101610aec8184612f2f565b60208082528101610a2581612f67565b60208082528101610a2581612fa0565b60208101610a258284612fe3565b6040810161307f8285612fe3565b608081016131118287612fe3565b61311e6020830186612fe3565b61312b6040830185612fe3565b6130326060830184612fe3565b60208101610a258284612fec565b60405181810167ffffffffffffffff8111828210171561316557600080fd5b604052919050565b5190565b90815260200190565b6000610a25826131a1565b151590565b6001600160f01b03191690565b80610a87816131ff565b6001600160a01b031690565b60ff1690565b6000610a258261317a565b6000610a2582613197565b60005b838110156131e45781810151838201526020016131cc565b83811115610c875750506000910152565b601f01601f191690565b60038110610adc57fe5b6132128161317a565b8114610adc57600080fd5b61321281613185565b60038110610adc57600080fd5b61321281610a1f56fe436f6d7074726f6c6c65723a206e6f7420656e6f756768206f75747374616e64696e672064656274436f6d7074726f6c6c65723a206e6f7420656e6f7567682072656465656d61626c652062616c616e6365a365627a7a7231582074c494f552ecbbd4108407aa2e38f172763099c53fa198f5d3a5c77dc8456aeb6c6578706572696d656e74616cf564736f6c6343000511004060806040523480156200001157600080fd5b506040518060400160405280600f81526020016e233932b89029b2ba102237b63630b960891b815250604051806040016040528060038152602001621194d160ea1b81525060126200007b6200006c6200011660201b60201c565b6001600160e01b036200011b16565b82516200009090600190602086019062000310565b508151620000a690600290602085019062000310565b506003805460ff191660ff92909216919091179055506200010d9050620000cc6200016d565b604051806040016040528060018152602001603160f81b815250620000fb6200020660201b620016341760201c565b306200020b60201b620016391760201c565b60075562000466565b335b90565b620001368160006200026260201b62000d7e1790919060201c565b6040516001600160a01b038216907f6ae172837ea30b801fbfcdd4108aa1d5bf8ff775444fd70256b44e6bf3dfc3f690600090a250565b60018054604080516020601f60026000196101008789161502019095169490940493840181900481028201810190925282815260609390929091830182828015620001fc5780601f10620001d057610100808354040283529160200191620001fc565b820191906000526020600020905b815481529060010190602001808311620001de57829003601f168201915b5050505050905090565b600190565b8351602094850120835193850193909320604080517f8b73c3c69bb8fe3d512ecc4cf759cc79239f7b179b0ffacaa9a75d522b39400f815295860194909452928401929092526060830152608082015260a0902090565b6200027782826001600160e01b03620002c516565b15620002a05760405162461bcd60e51b8152600401620002979062000433565b60405180910390fd5b6001600160a01b0316600090815260209190915260409020805460ff19166001179055565b60006001600160a01b038216620002f05760405162461bcd60e51b815260040162000297906200044b565b506001600160a01b03166000908152602091909152604090205460ff1690565b828054600181600116156101000203166002900490600052602060002090601f016020900481019282601f106200035357805160ff191683800117855562000383565b8280016001018555821562000383579182015b828111156200038357825182559160200191906001019062000366565b506200039192915062000395565b5090565b6200011891905b808211156200039157600081556001016200039c565b6000620003c1601f836200045d565b7f526f6c65733a206163636f756e7420616c72656164792068617320726f6c6500815260200192915050565b6000620003fc6022836200045d565b7f526f6c65733a206163636f756e7420697320746865207a65726f206164647265815261737360f01b602082015260400192915050565b602080825281016200044581620003b2565b92915050565b602080825281016200044581620003ed565b90815260200190565b61178d80620004766000396000f3fe608060405234801561001057600080fd5b506004361061012c5760003560e01c806395d89b41116100ad578063aa271e1a11610071578063aa271e1a14610256578063d505accf14610269578063dab400f31461027c578063dd62ed3e14610284578063e879c19f146102975761012c565b806395d89b411461020d578063983b2d56146102155780639865027514610228578063a457c2d714610230578063a9059cbb146102435761012c565b806339509351116100f457806339509351146101ac57806340c10f19146101bf57806342966c68146101d257806370a08231146101e757806379cc6790146101fa5761012c565b806306fdde0314610131578063095ea7b31461014f57806318160ddd1461016f57806323b872dd14610184578063313ce56714610197575b600080fd5b61013961029f565b60405161014691906114c6565b60405180910390f35b61016261015d366004610ffc565b610334565b604051610146919061141b565b610177610352565b6040516101469190611429565b610162610192366004610f13565b610358565b61019f6103ca565b6040516101469190611587565b6101626101ba366004610ffc565b6103d3565b6101626101cd366004610ffc565b610427565b6101e56101e036600461102c565b610463565b005b6101776101f5366004610eb3565b610477565b6101e5610208366004610ffc565b610496565b6101396104a4565b6101e5610223366004610eb3565b610502565b6101e5610532565b61016261023e366004610ffc565b610544565b610162610251366004610ffc565b6105b2565b610162610264366004610eb3565b6105c6565b6101e5610277366004610f60565b6105d8565b61017761075f565b610177610292366004610ed9565b610765565b610177610790565b60018054604080516020601f6002600019610100878916150201909516949094049384018190048102820181019092528281526060939092909183018282801561032a5780601f106102ff5761010080835404028352916020019161032a565b820191906000526020600020905b81548152906001019060200180831161030d57829003601f168201915b5050505050905090565b60006103486103416107b4565b84846107b8565b5060015b92915050565b60065490565b600061036584848461086c565b600019610374856102926107b4565b146103c0576103c0846103856107b4565b6103bb856040518060600160405280602981526020016116fd602991396103ae8a6102926107b4565b919063ffffffff61098216565b6107b8565b5060019392505050565b60035460ff1690565b60006103486103e06107b4565b846103bb85600560006103f16107b4565b6001600160a01b03908116825260208083019390935260409182016000908120918c16815292529020549063ffffffff6109ae16565b60006104346102646107b4565b6104595760405162461bcd60e51b815260040161045090611517565b60405180910390fd5b61034883836109da565b61047461046e6107b4565b82610a9a565b50565b6001600160a01b0381166000908152600460205260409020545b919050565b6104a08282610b70565b5050565b60028054604080516020601f600019610100600187161502019094168590049384018190048102820181019092528281526060939092909183018282801561032a5780601f106102ff5761010080835404028352916020019161032a565b61050d6102646107b4565b6105295760405162461bcd60e51b815260040161045090611517565b61047481610beb565b61054261053d6107b4565b610c33565b565b60006103486105516107b4565b846103bb85604051806060016040528060258152602001611726602591396005600061057b6107b4565b6001600160a01b03908116825260208083019390935260409182016000908120918d1681529252902054919063ffffffff61098216565b60006103486105bf6107b4565b848461086c565b600061034c818363ffffffff610c7b16565b6007546001600160a01b03881660009081526008602090815260408083208054600181019091559051929361065a93909261063f927f6e71edae12b1b97f4d1f60370fef10105fa2faae0126114a169c64845d6126c9928e928e928e9290918e9101611437565b60405160208183030381529060405280519060200120610cc3565b90506000600182868686604051600081526020016040526040516106819493929190611491565b6020604051602081039080840390855afa1580156106a3573d6000803e3d6000fd5b5050506020604051035190506106f0896001600160a01b0316826001600160a01b0316146a5065726d69747461626c6560a81b70496e76616c6964207369676e617475726560781b610ce2565b6107236001600160a01b03821615156a5065726d69747461626c6560a81b6b5a65726f206164647265737360a01b610ce2565b610749864211156a5065726d69747461626c6560a81b66115e1c1a5c995960ca1b610ce2565b6107548989896107b8565b505050505050505050565b60075481565b6001600160a01b03918216600090815260056020908152604080832093909416825291909152205490565b7f6e71edae12b1b97f4d1f60370fef10105fa2faae0126114a169c64845d6126c981565b3390565b6001600160a01b0383166107de5760405162461bcd60e51b815260040161045090611567565b6001600160a01b0382166108045760405162461bcd60e51b8152600401610450906114f7565b6001600160a01b0380841660008181526005602090815260408083209487168084529490915290819020849055517f8c5be1e5ebec7d5bd14f71427d1e84f3dd0314c0f7b2291e5b200ac8c7c3b9259061085f908590611429565b60405180910390a3505050565b6001600160a01b0383166108925760405162461bcd60e51b815260040161045090611557565b6001600160a01b0382166108b85760405162461bcd60e51b8152600401610450906114d7565b6108fb816040518060600160405280602681526020016116b3602691396001600160a01b038616600090815260046020526040902054919063ffffffff61098216565b6001600160a01b038085166000908152600460205260408082209390935590841681522054610930908263ffffffff6109ae16565b6001600160a01b0380841660008181526004602052604090819020939093559151908516907fddf252ad1be2c89b69c2b068fc378daa952ba7f163c4a11628f55a4df523b3ef9061085f908590611429565b600081848411156109a65760405162461bcd60e51b815260040161045091906114c6565b505050900390565b6000828201838110156109d35760405162461bcd60e51b815260040161045090611507565b9392505050565b6001600160a01b038216610a005760405162461bcd60e51b815260040161045090611577565b600654610a13908263ffffffff6109ae16565b6006556001600160a01b038216600090815260046020526040902054610a3f908263ffffffff6109ae16565b6001600160a01b0383166000818152600460205260408082209390935591519091907fddf252ad1be2c89b69c2b068fc378daa952ba7f163c4a11628f55a4df523b3ef90610a8e908590611429565b60405180910390a35050565b6001600160a01b038216610ac05760405162461bcd60e51b815260040161045090611547565b610b0381604051806060016040528060228152602001611691602291396001600160a01b038516600090815260046020526040902054919063ffffffff61098216565b6001600160a01b038316600090815260046020526040902055600654610b2f908263ffffffff610d3c16565b6006556040516000906001600160a01b038416907fddf252ad1be2c89b69c2b068fc378daa952ba7f163c4a11628f55a4df523b3ef90610a8e908590611429565b610b7a8282610a9a565b6104a082610b866107b4565b6103bb846040518060600160405280602481526020016116d9602491396001600160a01b038816600090815260056020526040812090610bc46107b4565b6001600160a01b03168152602081019190915260400160002054919063ffffffff61098216565b610bfc60008263ffffffff610d7e16565b6040516001600160a01b038216907f6ae172837ea30b801fbfcdd4108aa1d5bf8ff775444fd70256b44e6bf3dfc3f690600090a250565b610c4460008263ffffffff610dca16565b6040516001600160a01b038216907fe94479a9f7e1952cc78f2d6baab678adc1b772d936c6583def489e524cb6669290600090a250565b60006001600160a01b038216610ca35760405162461bcd60e51b815260040161045090611537565b506001600160a01b03166000908152602091909152604090205460ff1690565b60405161190160f01b8152600281019290925260228201526042902090565b82610d3757610cf082610e12565b6101d160f51b610cff83610e12565b604051602001610d11939291906113ea565b60408051601f198184030181529082905262461bcd60e51b8252610450916004016114c6565b505050565b60006109d383836040518060400160405280601e81526020017f536166654d6174683a207375627472616374696f6e206f766572666c6f770000815250610982565b610d888282610c7b565b15610da55760405162461bcd60e51b8152600401610450906114e7565b6001600160a01b0316600090815260209190915260409020805460ff19166001179055565b610dd48282610c7b565b610df05760405162461bcd60e51b815260040161045090611527565b6001600160a01b0316600090815260209190915260409020805460ff19169055565b60608082604051602001610e2691906113d5565b60408051601f19818403018152919052905060205b8015610e7b57815160001990910190829082908110610e5657fe5b01602001516001600160f81b03191615610e765760010181529050610491565b610e3b565b505060408051600081526020810190915292915050565b803561034c8161160e565b803561034c81611622565b803561034c8161162b565b600060208284031215610ec557600080fd5b6000610ed18484610e92565b949350505050565b60008060408385031215610eec57600080fd5b6000610ef88585610e92565b9250506020610f0985828601610e92565b9150509250929050565b600080600060608486031215610f2857600080fd5b6000610f348686610e92565b9350506020610f4586828701610e92565b9250506040610f5686828701610e9d565b9150509250925092565b600080600080600080600060e0888a031215610f7b57600080fd5b6000610f878a8a610e92565b9750506020610f988a828b01610e92565b9650506040610fa98a828b01610e9d565b9550506060610fba8a828b01610e9d565b9450506080610fcb8a828b01610ea8565b93505060a0610fdc8a828b01610e9d565b92505060c0610fed8a828b01610e9d565b91505092959891949750929550565b6000806040838503121561100f57600080fd5b600061101b8585610e92565b9250506020610f0985828601610e9d565b60006020828403121561103e57600080fd5b6000610ed18484610e9d565b611053816115a2565b82525050565b611053816115ad565b61105361106e826115b2565b6115bf565b611053816115bf565b61105361106e826115bf565b600061109382611595565b61109d8185610491565b93506110ad8185602086016115d4565b9290920192915050565b60006110c282611595565b6110cc8185611599565b93506110dc8185602086016115d4565b6110e581611604565b9093019392505050565b60006110fc602383611599565b7f45524332303a207472616e7366657220746f20746865207a65726f206164647281526265737360e81b602082015260400192915050565b6000611141601f83611599565b7f526f6c65733a206163636f756e7420616c72656164792068617320726f6c6500815260200192915050565b600061117a602283611599565b7f45524332303a20617070726f766520746f20746865207a65726f206164647265815261737360f01b602082015260400192915050565b60006111be601b83611599565b7f536166654d6174683a206164646974696f6e206f766572666c6f770000000000815260200192915050565b60006111f7603083611599565b7f4d696e746572526f6c653a2063616c6c657220646f6573206e6f74206861766581526f20746865204d696e74657220726f6c6560801b602082015260400192915050565b6000611249602183611599565b7f526f6c65733a206163636f756e7420646f6573206e6f74206861766520726f6c8152606560f81b602082015260400192915050565b600061128c602283611599565b7f526f6c65733a206163636f756e7420697320746865207a65726f206164647265815261737360f01b602082015260400192915050565b60006112d0602183611599565b7f45524332303a206275726e2066726f6d20746865207a65726f206164647265738152607360f81b602082015260400192915050565b6000611313602583611599565b7f45524332303a207472616e736665722066726f6d20746865207a65726f206164815264647265737360d81b602082015260400192915050565b600061135a602483611599565b7f45524332303a20617070726f76652066726f6d20746865207a65726f206164648152637265737360e01b602082015260400192915050565b60006113a0601f83611599565b7f45524332303a206d696e7420746f20746865207a65726f206164647265737300815260200192915050565b611053816115ce565b60006113e1828461107c565b50602001919050565b60006113f68286611088565b91506114028285611062565b6002820191506114128284611088565b95945050505050565b6020810161034c8284611059565b6020810161034c8284611073565b60c081016114458289611073565b611452602083018861104a565b61145f604083018761104a565b61146c6060830186611073565b6114796080830185611073565b61148660a0830184611073565b979650505050505050565b6080810161149f8287611073565b6114ac60208301866113cc565b6114b96040830185611073565b6114126060830184611073565b602080825281016109d381846110b7565b6020808252810161034c816110ef565b6020808252810161034c81611134565b6020808252810161034c8161116d565b6020808252810161034c816111b1565b6020808252810161034c816111ea565b6020808252810161034c8161123c565b6020808252810161034c8161127f565b6020808252810161034c816112c3565b6020808252810161034c81611306565b6020808252810161034c8161134d565b6020808252810161034c81611393565b6020810161034c82846113cc565b5190565b90815260200190565b600061034c826115c2565b151590565b6001600160f01b03191690565b90565b6001600160a01b031690565b60ff1690565b60005b838110156115ef5781810151838201526020016115d7565b838111156115fe576000848401525b50505050565b601f01601f191690565b611617816115a2565b811461047457600080fd5b611617816115bf565b611617816115ce565b600190565b8351602094850120835193850193909320604080517f8b73c3c69bb8fe3d512ecc4cf759cc79239f7b179b0ffacaa9a75d522b39400f815295860194909452928401929092526060830152608082015260a090209056fe45524332303a206275726e20616d6f756e7420657863656564732062616c616e636545524332303a207472616e7366657220616d6f756e7420657863656564732062616c616e636545524332303a206275726e20616d6f756e74206578636565647320616c6c6f77616e6365446f6c6c61723a207472616e7366657220616d6f756e74206578636565647320616c6c6f77616e636545524332303a2064656372656173656420616c6c6f77616e63652062656c6f77207a65726fa365627a7a72315820cfdd189e005bfca33d42143d9c8aae029b01c54ff1fae18e0f69a2b52f52c6836c6578706572696d656e74616cf564736f6c63430005110040",
  "source": "/*\n    Copyright 2020 Empty Set Squad <emptysetsquad@protonmail.com>\n\n    Licensed under the Apache License, Version 2.0 (the \"License\");\n    you may not use this file except in compliance with the License.\n    You may obtain a copy of the License at\n\n    http://www.apache.org/licenses/LICENSE-2.0\n\n    Unless required by applicable law or agreed to in writing, software\n    distributed under the License is distributed on an \"AS IS\" BASIS,\n    WITHOUT WARRANTIES OR CONDITIONS OF ANY KIND, either express or implied.\n    See the License for the specific language governing permissions and\n    limitations under the License.\n*/\n\npragma solidity ^0.5.17;\npragma experimental ABIEncoderV2;\n\nimport \"../dao/Regulator.sol\";\nimport \"../oracle/IOracle.sol\";\nimport \"./MockComptroller.sol\";\nimport \"./MockState.sol\";\n\ncontract MockRegulator is MockComptroller, Regulator {\n    constructor (address oracle, address pool) MockComptroller(pool) public {\n        _state.provider.oracle = IOracle(oracle);\n    }\n\n    function stepE() external {\n        super.step();\n    }\n\n    function bootstrappingAt(uint256 epoch) public view returns (bool) {\n        return epoch <= 5;\n    }\n}\n",
  "sourcePath": "/Users/lileihuang/bytedance/fsd/protocol/contracts/mock/MockRegulator.sol",
  "compiler": {
    "name": "solc",
    "version": "0.5.17+commit.d19bba13.Emscripten.clang"
  },
  "schemaVersion": "3.3.1",
  "updatedAt": "2021-01-07T05:38:54.379Z",
  "devdoc": {
    "methods": {}
  },
  "userdoc": {
    "methods": {
      "balanceOfStaged(address)": {
        "notice": "Account"
      },
      "createCandidateE(address,uint256)": {
        "notice": "Governance"
      },
      "dollar()": {
        "notice": "Global"
      },
      "epoch()": {
        "notice": "Epoch"
      },
      "incrementBalanceOfE(address,uint256)": {
        "notice": "Account"
      },
      "incrementTotalBondedE(uint256)": {
        "notice": "Global"
      },
      "name()": {
        "notice": "ERC20 Interface"
      },
      "recordedVote(address,address)": {
        "notice": "Governance"
      },
      "setBlockTimestamp(uint256)": {
        "notice": "Mock"
      },
      "setEpochParamsE(uint256,uint256)": {
        "notice": "Epoch"
      },
      "transfer(address,uint256)": {
        "notice": "ERC20 Interface"
      }
    }
  }
}