{
  "contractName": "MockGovern",
  "abi": [
    {
      "inputs": [],
      "payable": false,
      "stateMutability": "nonpayable",
      "type": "constructor"
    },
    {
      "anonymous": false,
      "inputs": [
        {
          "indexed": true,
          "internalType": "address",
          "name": "account",
          "type": "address"
        },
        {
          "indexed": true,
          "internalType": "address",
          "name": "candidate",
          "type": "address"
        }
      ],
      "name": "Commit",
      "type": "event"
    },
    {
      "anonymous": false,
      "inputs": [
        {
          "indexed": true,
          "internalType": "address",
          "name": "candidate",
          "type": "address"
        },
        {
          "indexed": true,
          "internalType": "address",
          "name": "account",
          "type": "address"
        },
        {
          "indexed": true,
          "internalType": "uint256",
          "name": "start",
          "type": "uint256"
        },
        {
          "indexed": false,
          "internalType": "uint256",
          "name": "period",
          "type": "uint256"
        }
      ],
      "name": "Proposal",
      "type": "event"
    },
    {
      "anonymous": false,
      "inputs": [
        {
          "indexed": true,
          "internalType": "address",
          "name": "from",
          "type": "address"
        },
        {
          "indexed": true,
          "internalType": "address",
          "name": "to",
          "type": "address"
        },
        {
          "indexed": false,
          "internalType": "uint256",
          "name": "value",
          "type": "uint256"
        }
      ],
      "name": "Transfer",
      "type": "event"
    },
    {
      "anonymous": false,
      "inputs": [
        {
          "indexed": true,
          "internalType": "address",
          "name": "implementation",
          "type": "address"
        }
      ],
      "name": "Upgraded",
      "type": "event"
    },
    {
      "anonymous": false,
      "inputs": [
        {
          "indexed": true,
          "internalType": "address",
          "name": "account",
          "type": "address"
        },
        {
          "indexed": true,
          "internalType": "address",
          "name": "candidate",
          "type": "address"
        },
        {
          "indexed": false,
          "internalType": "enum Candidate.Vote",
          "name": "vote",
          "type": "uint8"
        },
        {
          "indexed": false,
          "internalType": "uint256",
          "name": "bonded",
          "type": "uint256"
        }
      ],
      "name": "Vote",
      "type": "event"
    },
    {
      "constant": true,
      "inputs": [
        {
          "internalType": "address",
          "name": "owner",
          "type": "address"
        },
        {
          "internalType": "address",
          "name": "spender",
          "type": "address"
        }
      ],
      "name": "allowance",
      "outputs": [
        {
          "internalType": "uint256",
          "name": "",
          "type": "uint256"
        }
      ],
      "payable": false,
      "stateMutability": "view",
      "type": "function"
    },
    {
      "constant": true,
      "inputs": [
        {
          "internalType": "address",
          "name": "owner",
          "type": "address"
        },
        {
          "internalType": "address",
          "name": "spender",
          "type": "address"
        }
      ],
      "name": "allowanceCoupons",
      "outputs": [
        {
          "internalType": "uint256",
          "name": "",
          "type": "uint256"
        }
      ],
      "payable": false,
      "stateMutability": "view",
      "type": "function"
    },
    {
      "constant": false,
      "inputs": [
        {
          "internalType": "address",
          "name": "spender",
          "type": "address"
        },
        {
          "internalType": "uint256",
          "name": "amount",
          "type": "uint256"
        }
      ],
      "name": "approve",
      "outputs": [
        {
          "internalType": "bool",
          "name": "",
          "type": "bool"
        }
      ],
      "payable": false,
      "stateMutability": "nonpayable",
      "type": "function"
    },
    {
      "constant": true,
      "inputs": [
        {
          "internalType": "address",
          "name": "candidate",
          "type": "address"
        }
      ],
      "name": "approveFor",
      "outputs": [
        {
          "internalType": "uint256",
          "name": "",
          "type": "uint256"
        }
      ],
      "payable": false,
      "stateMutability": "view",
      "type": "function"
    },
    {
      "constant": true,
      "inputs": [
        {
          "internalType": "address",
          "name": "account",
          "type": "address"
        }
      ],
      "name": "balanceOf",
      "outputs": [
        {
          "internalType": "uint256",
          "name": "",
          "type": "uint256"
        }
      ],
      "payable": false,
      "stateMutability": "view",
      "type": "function"
    },
    {
      "constant": true,
      "inputs": [
        {
          "internalType": "address",
          "name": "account",
          "type": "address"
        }
      ],
      "name": "balanceOfBonded",
      "outputs": [
        {
          "internalType": "uint256",
          "name": "",
          "type": "uint256"
        }
      ],
      "payable": false,
      "stateMutability": "view",
      "type": "function"
    },
    {
      "constant": true,
      "inputs": [
        {
          "internalType": "address",
          "name": "account",
          "type": "address"
        },
        {
          "internalType": "uint256",
          "name": "epoch",
          "type": "uint256"
        }
      ],
      "name": "balanceOfCoupons",
      "outputs": [
        {
          "internalType": "uint256",
          "name": "",
          "type": "uint256"
        }
      ],
      "payable": false,
      "stateMutability": "view",
      "type": "function"
    },
    {
      "constant": true,
      "inputs": [
        {
          "internalType": "address",
          "name": "account",
          "type": "address"
        }
      ],
      "name": "balanceOfStaged",
      "outputs": [
        {
          "internalType": "uint256",
          "name": "",
          "type": "uint256"
        }
      ],
      "payable": false,
      "stateMutability": "view",
      "type": "function"
    },
    {
      "constant": true,
      "inputs": [
        {
          "internalType": "uint256",
          "name": "epoch",
          "type": "uint256"
        }
      ],
      "name": "bootstrappingAt",
      "outputs": [
        {
          "internalType": "bool",
          "name": "",
          "type": "bool"
        }
      ],
      "payable": false,
      "stateMutability": "view",
      "type": "function"
    },
    {
      "constant": false,
      "inputs": [
        {
          "internalType": "address",
          "name": "account",
          "type": "address"
        },
        {
          "internalType": "uint256",
          "name": "amount",
          "type": "uint256"
        }
      ],
      "name": "burnFromAccountE",
      "outputs": [],
      "payable": false,
      "stateMutability": "nonpayable",
      "type": "function"
    },
    {
      "constant": false,
      "inputs": [
        {
          "internalType": "uint256",
          "name": "amount",
          "type": "uint256"
        }
      ],
      "name": "burnRedeemableE",
      "outputs": [],
      "payable": false,
      "stateMutability": "nonpayable",
      "type": "function"
    },
    {
      "constant": false,
      "inputs": [
        {
          "internalType": "address",
          "name": "candidate",
          "type": "address"
        }
      ],
      "name": "commit",
      "outputs": [],
      "payable": false,
      "stateMutability": "nonpayable",
      "type": "function"
    },
    {
      "constant": true,
      "inputs": [
        {
          "internalType": "uint256",
          "name": "epoch",
          "type": "uint256"
        }
      ],
      "name": "couponsExpiration",
      "outputs": [
        {
          "internalType": "uint256",
          "name": "",
          "type": "uint256"
        }
      ],
      "payable": false,
      "stateMutability": "view",
      "type": "function"
    },
    {
      "constant": false,
      "inputs": [
        {
          "internalType": "address",
          "name": "candidate",
          "type": "address"
        },
        {
          "internalType": "uint256",
          "name": "period",
          "type": "uint256"
        }
      ],
      "name": "createCandidateE",
      "outputs": [],
      "payable": false,
      "stateMutability": "nonpayable",
      "type": "function"
    },
    {
      "constant": true,
      "inputs": [],
      "name": "decimals",
      "outputs": [
        {
          "internalType": "uint8",
          "name": "",
          "type": "uint8"
        }
      ],
      "payable": false,
      "stateMutability": "view",
      "type": "function"
    },
    {
      "constant": false,
      "inputs": [
        {
          "internalType": "uint256",
          "name": "amount",
          "type": "uint256"
        }
      ],
      "name": "decreaseDebtE",
      "outputs": [],
      "payable": false,
      "stateMutability": "nonpayable",
      "type": "function"
    },
    {
      "constant": false,
      "inputs": [
        {
          "internalType": "address",
          "name": "owner",
          "type": "address"
        },
        {
          "internalType": "address",
          "name": "spender",
          "type": "address"
        },
        {
          "internalType": "uint256",
          "name": "amount",
          "type": "uint256"
        },
        {
          "internalType": "string",
          "name": "reason",
          "type": "string"
        }
      ],
      "name": "decrementAllowanceCouponsE",
      "outputs": [],
      "payable": false,
      "stateMutability": "nonpayable",
      "type": "function"
    },
    {
      "constant": false,
      "inputs": [
        {
          "internalType": "address",
          "name": "candidate",
          "type": "address"
        },
        {
          "internalType": "uint256",
          "name": "amount",
          "type": "uint256"
        },
        {
          "internalType": "string",
          "name": "reason",
          "type": "string"
        }
      ],
      "name": "decrementApproveForE",
      "outputs": [],
      "payable": false,
      "stateMutability": "nonpayable",
      "type": "function"
    },
    {
      "constant": false,
      "inputs": [
        {
          "internalType": "address",
          "name": "account",
          "type": "address"
        },
        {
          "internalType": "uint256",
          "name": "epoch",
          "type": "uint256"
        },
        {
          "internalType": "uint256",
          "name": "amount",
          "type": "uint256"
        },
        {
          "internalType": "string",
          "name": "reason",
          "type": "string"
        }
      ],
      "name": "decrementBalanceOfCouponsE",
      "outputs": [],
      "payable": false,
      "stateMutability": "nonpayable",
      "type": "function"
    },
    {
      "constant": false,
      "inputs": [
        {
          "internalType": "address",
          "name": "account",
          "type": "address"
        },
        {
          "internalType": "uint256",
          "name": "amount",
          "type": "uint256"
        },
        {
          "internalType": "string",
          "name": "reason",
          "type": "string"
        }
      ],
      "name": "decrementBalanceOfE",
      "outputs": [],
      "payable": false,
      "stateMutability": "nonpayable",
      "type": "function"
    },
    {
      "constant": false,
      "inputs": [
        {
          "internalType": "address",
          "name": "account",
          "type": "address"
        },
        {
          "internalType": "uint256",
          "name": "amount",
          "type": "uint256"
        },
        {
          "internalType": "string",
          "name": "reason",
          "type": "string"
        }
      ],
      "name": "decrementBalanceOfStagedE",
      "outputs": [],
      "payable": false,
      "stateMutability": "nonpayable",
      "type": "function"
    },
    {
      "constant": false,
      "inputs": [
        {
          "internalType": "address",
          "name": "candidate",
          "type": "address"
        },
        {
          "internalType": "uint256",
          "name": "amount",
          "type": "uint256"
        },
        {
          "internalType": "string",
          "name": "reason",
          "type": "string"
        }
      ],
      "name": "decrementRejectForE",
      "outputs": [],
      "payable": false,
      "stateMutability": "nonpayable",
      "type": "function"
    },
    {
      "constant": false,
      "inputs": [
        {
          "internalType": "uint256",
          "name": "amount",
          "type": "uint256"
        },
        {
          "internalType": "string",
          "name": "reason",
          "type": "string"
        }
      ],
      "name": "decrementTotalBondedE",
      "outputs": [],
      "payable": false,
      "stateMutability": "nonpayable",
      "type": "function"
    },
    {
      "constant": false,
      "inputs": [
        {
          "internalType": "uint256",
          "name": "amount",
          "type": "uint256"
        },
        {
          "internalType": "string",
          "name": "reason",
          "type": "string"
        }
      ],
      "name": "decrementTotalDebtE",
      "outputs": [],
      "payable": false,
      "stateMutability": "nonpayable",
      "type": "function"
    },
    {
      "constant": false,
      "inputs": [
        {
          "internalType": "uint256",
          "name": "amount",
          "type": "uint256"
        },
        {
          "internalType": "string",
          "name": "reason",
          "type": "string"
        }
      ],
      "name": "decrementTotalRedeemableE",
      "outputs": [],
      "payable": false,
      "stateMutability": "nonpayable",
      "type": "function"
    },
    {
      "constant": true,
      "inputs": [],
      "name": "dollar",
      "outputs": [
        {
          "internalType": "contract IDollar",
          "name": "",
          "type": "address"
        }
      ],
      "payable": false,
      "stateMutability": "view",
      "type": "function"
    },
    {
      "constant": false,
      "inputs": [
        {
          "internalType": "uint256",
          "name": "epoch",
          "type": "uint256"
        }
      ],
      "name": "eliminateOutstandingCouponsE",
      "outputs": [],
      "payable": false,
      "stateMutability": "nonpayable",
      "type": "function"
    },
    {
      "constant": false,
      "inputs": [
        {
          "internalType": "address",
          "name": "candidate",
          "type": "address"
        }
      ],
      "name": "emergencyCommit",
      "outputs": [],
      "payable": false,
      "stateMutability": "nonpayable",
      "type": "function"
    },
    {
      "constant": true,
      "inputs": [],
      "name": "epoch",
      "outputs": [
        {
          "internalType": "uint256",
          "name": "",
          "type": "uint256"
        }
      ],
      "payable": false,
      "stateMutability": "view",
      "type": "function"
    },
    {
      "constant": true,
      "inputs": [
        {
          "internalType": "uint256",
          "name": "epoch",
          "type": "uint256"
        }
      ],
      "name": "expiringCoupons",
      "outputs": [
        {
          "internalType": "uint256",
          "name": "",
          "type": "uint256"
        }
      ],
      "payable": false,
      "stateMutability": "view",
      "type": "function"
    },
    {
      "constant": true,
      "inputs": [
        {
          "internalType": "uint256",
          "name": "epoch",
          "type": "uint256"
        },
        {
          "internalType": "uint256",
          "name": "i",
          "type": "uint256"
        }
      ],
      "name": "expiringCouponsAtIndex",
      "outputs": [
        {
          "internalType": "uint256",
          "name": "",
          "type": "uint256"
        }
      ],
      "payable": false,
      "stateMutability": "view",
      "type": "function"
    },
    {
      "constant": true,
      "inputs": [
        {
          "internalType": "address",
          "name": "account",
          "type": "address"
        }
      ],
      "name": "fluidUntil",
      "outputs": [
        {
          "internalType": "uint256",
          "name": "",
          "type": "uint256"
        }
      ],
      "payable": false,
      "stateMutability": "view",
      "type": "function"
    },
    {
      "constant": true,
      "inputs": [],
      "name": "implementation",
      "outputs": [
        {
          "internalType": "address",
          "name": "impl",
          "type": "address"
        }
      ],
      "payable": false,
      "stateMutability": "view",
      "type": "function"
    },
    {
      "constant": false,
      "inputs": [
        {
          "internalType": "uint256",
          "name": "amount",
          "type": "uint256"
        }
      ],
      "name": "increaseDebtE",
      "outputs": [],
      "payable": false,
      "stateMutability": "nonpayable",
      "type": "function"
    },
    {
      "constant": false,
      "inputs": [
        {
          "internalType": "address",
          "name": "candidate",
          "type": "address"
        },
        {
          "internalType": "uint256",
          "name": "amount",
          "type": "uint256"
        }
      ],
      "name": "incrementApproveForE",
      "outputs": [],
      "payable": false,
      "stateMutability": "nonpayable",
      "type": "function"
    },
    {
      "constant": false,
      "inputs": [
        {
          "internalType": "address",
          "name": "account",
          "type": "address"
        },
        {
          "internalType": "uint256",
          "name": "epoch",
          "type": "uint256"
        },
        {
          "internalType": "uint256",
          "name": "amount",
          "type": "uint256"
        }
      ],
      "name": "incrementBalanceOfCouponsE",
      "outputs": [],
      "payable": false,
      "stateMutability": "nonpayable",
      "type": "function"
    },
    {
      "constant": false,
      "inputs": [
        {
          "internalType": "address",
          "name": "account",
          "type": "address"
        },
        {
          "internalType": "uint256",
          "name": "amount",
          "type": "uint256"
        }
      ],
      "name": "incrementBalanceOfE",
      "outputs": [],
      "payable": false,
      "stateMutability": "nonpayable",
      "type": "function"
    },
    {
      "constant": false,
      "inputs": [
        {
          "internalType": "address",
          "name": "account",
          "type": "address"
        },
        {
          "internalType": "uint256",
          "name": "amount",
          "type": "uint256"
        }
      ],
      "name": "incrementBalanceOfStagedE",
      "outputs": [],
      "payable": false,
      "stateMutability": "nonpayable",
      "type": "function"
    },
    {
      "constant": false,
      "inputs": [],
      "name": "incrementEpochE",
      "outputs": [],
      "payable": false,
      "stateMutability": "nonpayable",
      "type": "function"
    },
    {
      "constant": false,
      "inputs": [
        {
          "internalType": "address",
          "name": "candidate",
          "type": "address"
        },
        {
          "internalType": "uint256",
          "name": "amount",
          "type": "uint256"
        }
      ],
      "name": "incrementRejectForE",
      "outputs": [],
      "payable": false,
      "stateMutability": "nonpayable",
      "type": "function"
    },
    {
      "constant": false,
      "inputs": [
        {
          "internalType": "uint256",
          "name": "amount",
          "type": "uint256"
        }
      ],
      "name": "incrementTotalBondedE",
      "outputs": [],
      "payable": false,
      "stateMutability": "nonpayable",
      "type": "function"
    },
    {
      "constant": false,
      "inputs": [
        {
          "internalType": "uint256",
          "name": "amount",
          "type": "uint256"
        }
      ],
      "name": "incrementTotalDebtE",
      "outputs": [],
      "payable": false,
      "stateMutability": "nonpayable",
      "type": "function"
    },
    {
      "constant": false,
      "inputs": [
        {
          "internalType": "uint256",
          "name": "amount",
          "type": "uint256"
        }
      ],
      "name": "incrementTotalRedeemableE",
      "outputs": [],
      "payable": false,
      "stateMutability": "nonpayable",
      "type": "function"
    },
    {
      "constant": false,
      "inputs": [
        {
          "internalType": "uint256",
          "name": "epoch",
          "type": "uint256"
        },
        {
          "internalType": "uint256",
          "name": "expiration",
          "type": "uint256"
        }
      ],
      "name": "initializeCouponsExpirationE",
      "outputs": [],
      "payable": false,
      "stateMutability": "nonpayable",
      "type": "function"
    },
    {
      "constant": false,
      "inputs": [
        {
          "internalType": "address",
          "name": "candidate",
          "type": "address"
        }
      ],
      "name": "initializedE",
      "outputs": [],
      "payable": false,
      "stateMutability": "nonpayable",
      "type": "function"
    },
    {
      "constant": true,
      "inputs": [
        {
          "internalType": "address",
          "name": "candidate",
          "type": "address"
        }
      ],
      "name": "isInitialized",
      "outputs": [
        {
          "internalType": "bool",
          "name": "",
          "type": "bool"
        }
      ],
      "payable": false,
      "stateMutability": "view",
      "type": "function"
    },
    {
      "constant": true,
      "inputs": [
        {
          "internalType": "address",
          "name": "candidate",
          "type": "address"
        }
      ],
      "name": "isNominated",
      "outputs": [
        {
          "internalType": "bool",
          "name": "",
          "type": "bool"
        }
      ],
      "payable": false,
      "stateMutability": "view",
      "type": "function"
    },
    {
      "constant": true,
      "inputs": [
        {
          "internalType": "address",
          "name": "account",
          "type": "address"
        }
      ],
      "name": "lockedUntil",
      "outputs": [
        {
          "internalType": "uint256",
          "name": "",
          "type": "uint256"
        }
      ],
      "payable": false,
      "stateMutability": "view",
      "type": "function"
    },
    {
      "constant": false,
      "inputs": [
        {
          "internalType": "address",
          "name": "account",
          "type": "address"
        },
        {
          "internalType": "uint256",
          "name": "amount",
          "type": "uint256"
        }
      ],
      "name": "mintToAccountE",
      "outputs": [],
      "payable": false,
      "stateMutability": "nonpayable",
      "type": "function"
    },
    {
      "constant": false,
      "inputs": [
        {
          "internalType": "address",
          "name": "account",
          "type": "address"
        },
        {
          "internalType": "uint256",
          "name": "amount",
          "type": "uint256"
        }
      ],
      "name": "mintToE",
      "outputs": [],
      "payable": false,
      "stateMutability": "nonpayable",
      "type": "function"
    },
    {
      "constant": true,
      "inputs": [],
      "name": "name",
      "outputs": [
        {
          "internalType": "string",
          "name": "",
          "type": "string"
        }
      ],
      "payable": false,
      "stateMutability": "view",
      "type": "function"
    },
    {
      "constant": true,
      "inputs": [],
      "name": "oracle",
      "outputs": [
        {
          "internalType": "contract IOracle",
          "name": "",
          "type": "address"
        }
      ],
      "payable": false,
      "stateMutability": "view",
      "type": "function"
    },
    {
      "constant": true,
      "inputs": [
        {
          "internalType": "uint256",
          "name": "epoch",
          "type": "uint256"
        }
      ],
      "name": "outstandingCoupons",
      "outputs": [
        {
          "internalType": "uint256",
          "name": "",
          "type": "uint256"
        }
      ],
      "payable": false,
      "stateMutability": "view",
      "type": "function"
    },
    {
      "constant": true,
      "inputs": [
        {
          "internalType": "address",
          "name": "candidate",
          "type": "address"
        }
      ],
      "name": "periodFor",
      "outputs": [
        {
          "internalType": "uint256",
          "name": "",
          "type": "uint256"
        }
      ],
      "payable": false,
      "stateMutability": "view",
      "type": "function"
    },
    {
      "constant": false,
      "inputs": [
        {
          "internalType": "address",
          "name": "account",
          "type": "address"
        },
        {
          "internalType": "address",
          "name": "candidate",
          "type": "address"
        }
      ],
      "name": "placeLockE",
      "outputs": [],
      "payable": false,
      "stateMutability": "nonpayable",
      "type": "function"
    },
    {
      "constant": true,
      "inputs": [],
      "name": "pool",
      "outputs": [
        {
          "internalType": "address",
          "name": "",
          "type": "address"
        }
      ],
      "payable": false,
      "stateMutability": "view",
      "type": "function"
    },
    {
      "constant": false,
      "inputs": [
        {
          "internalType": "address",
          "name": "account",
          "type": "address"
        },
        {
          "internalType": "address",
          "name": "candidate",
          "type": "address"
        },
        {
          "internalType": "enum Candidate.Vote",
          "name": "vote",
          "type": "uint8"
        }
      ],
      "name": "recordVoteE",
      "outputs": [],
      "payable": false,
      "stateMutability": "nonpayable",
      "type": "function"
    },
    {
      "constant": true,
      "inputs": [
        {
          "internalType": "address",
          "name": "account",
          "type": "address"
        },
        {
          "internalType": "address",
          "name": "candidate",
          "type": "address"
        }
      ],
      "name": "recordedVote",
      "outputs": [
        {
          "internalType": "enum Candidate.Vote",
          "name": "",
          "type": "uint8"
        }
      ],
      "payable": false,
      "stateMutability": "view",
      "type": "function"
    },
    {
      "constant": false,
      "inputs": [
        {
          "internalType": "address",
          "name": "account",
          "type": "address"
        },
        {
          "internalType": "uint256",
          "name": "amount",
          "type": "uint256"
        }
      ],
      "name": "redeemToAccountE",
      "outputs": [],
      "payable": false,
      "stateMutability": "nonpayable",
      "type": "function"
    },
    {
      "constant": true,
      "inputs": [
        {
          "internalType": "address",
          "name": "candidate",
          "type": "address"
        }
      ],
      "name": "rejectFor",
      "outputs": [
        {
          "internalType": "uint256",
          "name": "",
          "type": "uint256"
        }
      ],
      "payable": false,
      "stateMutability": "view",
      "type": "function"
    },
    {
      "constant": false,
      "inputs": [
        {
          "internalType": "uint256",
          "name": "percent",
          "type": "uint256"
        }
      ],
      "name": "resetDebtE",
      "outputs": [],
      "payable": false,
      "stateMutability": "nonpayable",
      "type": "function"
    },
    {
      "constant": false,
      "inputs": [
        {
          "internalType": "uint256",
          "name": "timestamp",
          "type": "uint256"
        }
      ],
      "name": "setBlockTimestamp",
      "outputs": [],
      "payable": false,
      "stateMutability": "nonpayable",
      "type": "function"
    },
    {
      "constant": false,
      "inputs": [
        {
          "internalType": "uint256",
          "name": "start",
          "type": "uint256"
        },
        {
          "internalType": "uint256",
          "name": "period",
          "type": "uint256"
        }
      ],
      "name": "setEpochParamsE",
      "outputs": [],
      "payable": false,
      "stateMutability": "nonpayable",
      "type": "function"
    },
    {
      "constant": false,
      "inputs": [],
      "name": "snapshotTotalBondedE",
      "outputs": [],
      "payable": false,
      "stateMutability": "nonpayable",
      "type": "function"
    },
    {
      "constant": true,
      "inputs": [
        {
          "internalType": "address",
          "name": "candidate",
          "type": "address"
        }
      ],
      "name": "startFor",
      "outputs": [
        {
          "internalType": "uint256",
          "name": "",
          "type": "uint256"
        }
      ],
      "payable": false,
      "stateMutability": "view",
      "type": "function"
    },
    {
      "constant": true,
      "inputs": [
        {
          "internalType": "address",
          "name": "account",
          "type": "address"
        }
      ],
      "name": "statusOf",
      "outputs": [
        {
          "internalType": "enum Account.Status",
          "name": "",
          "type": "uint8"
        }
      ],
      "payable": false,
      "stateMutability": "view",
      "type": "function"
    },
    {
      "constant": true,
      "inputs": [],
      "name": "symbol",
      "outputs": [
        {
          "internalType": "string",
          "name": "",
          "type": "string"
        }
      ],
      "payable": false,
      "stateMutability": "view",
      "type": "function"
    },
    {
      "constant": true,
      "inputs": [],
      "name": "totalBonded",
      "outputs": [
        {
          "internalType": "uint256",
          "name": "",
          "type": "uint256"
        }
      ],
      "payable": false,
      "stateMutability": "view",
      "type": "function"
    },
    {
      "constant": true,
      "inputs": [
        {
          "internalType": "uint256",
          "name": "epoch",
          "type": "uint256"
        }
      ],
      "name": "totalBondedAt",
      "outputs": [
        {
          "internalType": "uint256",
          "name": "",
          "type": "uint256"
        }
      ],
      "payable": false,
      "stateMutability": "view",
      "type": "function"
    },
    {
      "constant": true,
      "inputs": [],
      "name": "totalCoupons",
      "outputs": [
        {
          "internalType": "uint256",
          "name": "",
          "type": "uint256"
        }
      ],
      "payable": false,
      "stateMutability": "view",
      "type": "function"
    },
    {
      "constant": true,
      "inputs": [],
      "name": "totalDebt",
      "outputs": [
        {
          "internalType": "uint256",
          "name": "",
          "type": "uint256"
        }
      ],
      "payable": false,
      "stateMutability": "view",
      "type": "function"
    },
    {
      "constant": true,
      "inputs": [],
      "name": "totalNet",
      "outputs": [
        {
          "internalType": "uint256",
          "name": "",
          "type": "uint256"
        }
      ],
      "payable": false,
      "stateMutability": "view",
      "type": "function"
    },
    {
      "constant": true,
      "inputs": [],
      "name": "totalRedeemable",
      "outputs": [
        {
          "internalType": "uint256",
          "name": "",
          "type": "uint256"
        }
      ],
      "payable": false,
      "stateMutability": "view",
      "type": "function"
    },
    {
      "constant": true,
      "inputs": [],
      "name": "totalStaged",
      "outputs": [
        {
          "internalType": "uint256",
          "name": "",
          "type": "uint256"
        }
      ],
      "payable": false,
      "stateMutability": "view",
      "type": "function"
    },
    {
      "constant": true,
      "inputs": [],
      "name": "totalSupply",
      "outputs": [
        {
          "internalType": "uint256",
          "name": "",
          "type": "uint256"
        }
      ],
      "payable": false,
      "stateMutability": "view",
      "type": "function"
    },
    {
      "constant": false,
      "inputs": [
        {
          "internalType": "address",
          "name": "recipient",
          "type": "address"
        },
        {
          "internalType": "uint256",
          "name": "amount",
          "type": "uint256"
        }
      ],
      "name": "transfer",
      "outputs": [
        {
          "internalType": "bool",
          "name": "",
          "type": "bool"
        }
      ],
      "payable": false,
      "stateMutability": "nonpayable",
      "type": "function"
    },
    {
      "constant": false,
      "inputs": [
        {
          "internalType": "address",
          "name": "sender",
          "type": "address"
        },
        {
          "internalType": "address",
          "name": "recipient",
          "type": "address"
        },
        {
          "internalType": "uint256",
          "name": "amount",
          "type": "uint256"
        }
      ],
      "name": "transferFrom",
      "outputs": [
        {
          "internalType": "bool",
          "name": "",
          "type": "bool"
        }
      ],
      "payable": false,
      "stateMutability": "nonpayable",
      "type": "function"
    },
    {
      "constant": false,
      "inputs": [
        {
          "internalType": "address",
          "name": "account",
          "type": "address"
        }
      ],
      "name": "unfreezeE",
      "outputs": [],
      "payable": false,
      "stateMutability": "nonpayable",
      "type": "function"
    },
    {
      "constant": false,
      "inputs": [
        {
          "internalType": "address",
          "name": "owner",
          "type": "address"
        },
        {
          "internalType": "address",
          "name": "spender",
          "type": "address"
        },
        {
          "internalType": "uint256",
          "name": "amount",
          "type": "uint256"
        }
      ],
      "name": "updateAllowanceCouponsE",
      "outputs": [],
      "payable": false,
      "stateMutability": "nonpayable",
      "type": "function"
    },
    {
      "constant": false,
      "inputs": [
        {
          "internalType": "address",
          "name": "candidate",
          "type": "address"
        },
        {
          "internalType": "enum Candidate.Vote",
          "name": "vote",
          "type": "uint8"
        }
      ],
      "name": "vote",
      "outputs": [],
      "payable": false,
      "stateMutability": "nonpayable",
      "type": "function"
    },
    {
      "constant": true,
      "inputs": [
        {
          "internalType": "address",
          "name": "candidate",
          "type": "address"
        }
      ],
      "name": "votesFor",
      "outputs": [
        {
          "internalType": "uint256",
          "name": "",
          "type": "uint256"
        }
      ],
      "payable": false,
      "stateMutability": "view",
      "type": "function"
    },
    {
      "constant": false,
      "inputs": [],
      "name": "initialize",
      "outputs": [],
      "payable": false,
      "stateMutability": "nonpayable",
      "type": "function"
    },
    {
      "constant": false,
      "inputs": [
        {
          "internalType": "address",
          "name": "newImplementation",
          "type": "address"
        }
      ],
      "name": "upgradeToE",
      "outputs": [],
      "payable": false,
      "stateMutability": "nonpayable",
      "type": "function"
    },
    {
      "constant": false,
      "inputs": [
        {
          "internalType": "uint256",
          "name": "epochTime",
          "type": "uint256"
        }
      ],
      "name": "setEpochTime",
      "outputs": [],
      "payable": false,
      "stateMutability": "nonpayable",
      "type": "function"
    },
    {
      "constant": true,
      "inputs": [],
      "name": "epochTime",
      "outputs": [
        {
          "internalType": "uint256",
          "name": "",
          "type": "uint256"
        }
      ],
      "payable": false,
      "stateMutability": "view",
      "type": "function"
    }
  ],
  "bytecode": "0x60806040523480156200001157600080fd5b5042600f5560405160009062000027906200007a565b604051809103906000f08015801562000044573d6000803e3d6000fd5b50600980546001600160a01b039283166001600160a01b031991821617909155600b805493909216921691909117905562000088565b611c03806200330183390190565b61326980620000986000396000f3fe608060405234801561001057600080fd5b50600436106104b75760003560e01c80638129fc1c11610278578063ae5c23811161015c578063cf023779116100ce578063e0abdf6611610092578063e0abdf6614610a2c578063f1b7cf4914610a3f578063f35adf7e14610a52578063f7a3181814610a5a578063fc7b9c1814610a6d578063ffbe3b7314610a75576104b7565b8063cf023779146109dd578063d60b347f146109e5578063d6d8816d146109f8578063d83d3ed514610a0b578063dd62ed3e14610a1e576104b7565b8063bceb514d11610120578063bceb514d1461096b578063c1410c021461097e578063c2aeb5fe14610991578063c45a3e0a146109a4578063c9aff70c146109b7578063cc8d823c146109ca576104b7565b8063ae5c23811461090c578063b11ee0e31461091f578063b16144a314610932578063b32a2f9014610945578063bc7513e214610958576104b7565b80639b82b49b116101f5578063a50cd8e7116101b9578063a50cd8e7146108b8578063a6c409f1146108cb578063a6f37b53146108d3578063a9059cbb146104da578063a9b3cf15146108e6578063adbff2be146108f9576104b7565b80639b82b49b146108595780639bc289f11461086c5780639be464931461087f5780639f6e1b2614610892578063a00e14d1146108a5576104b7565b80638de2e5731161023c5780638de2e5731461081b578063900cf0cf1461082e57806395d89b411461083657806397a5d5b51461083e5780639a649edc14610851576104b7565b80638129fc1c146107c7578063825ad607146107cf5780638413e52a146107e257806386cf9f14146107f55780638a558b0414610808576104b7565b80633fd4973c1161039f5780635f14fec81161031c57806371c511eb116102e057806371c511eb1461076b57806372924d2a1461077357806375d5024b146107865780637a26ec28146107995780637cb95a32146107ac5780637dc0d1d0146107bf576104b7565b80635f14fec81461070c578063646680221461071f5780636a39e328146107325780636b862d661461074557806370a0823114610758576104b7565b80635053e461116103635780635053e461146106c157806351adeb57146106c957806351bf21d8146106de5780635c60da1b146106f15780635dbf800a146106f9576104b7565b80633fd4973c1461066d578063438735261461068057806344d96e951461069357806347c050691461069b5780634c736099146106ae576104b7565b806320f6bc901161043857806332347422116103fc57806332347422146105ee578063353a420c14610601578063369e8c1d146106145780633a3e6c81146106275780633f7bcaf31461063a5780633fbba9a61461064d576104b7565b806320f6bc901461058d57806323b872dd146105a0578063259f7adf146105b3578063277805a9146105c6578063313ce567146105d9576104b7565b806316f0115b1161047f57806316f0115b1461054257806318160ddd146105575780631a08e22a1461055f5780631edbcf6c146105725780631fac97321461057a576104b7565b806306fdde03146104bc578063095ea7b3146104da5780630dc6d3a3146104fa57806310e95b6c1461050f57806315e14bf61461052f575b600080fd5b6104c4610a88565b6040516104d19190613095565b60405180910390f35b6104ed6104e8366004612c26565b610ab7565b6040516104d1919061305d565b61050d610508366004612b78565b610ac0565b005b61052261051d366004612d43565b610b09565b6040516104d191906130e6565b61052261053d366004612a90565b610b21565b61054a610b3f565b6040516104d1919061300c565b610522610b4e565b61050d61056d366004612dd5565b610b54565b610522610b62565b61050d610588366004612d43565b610b68565b61050d61059b366004612c26565b610b74565b6104ed6105ae366004612b35565b610b7e565b61050d6105c1366004612d43565b610b88565b61050d6105d4366004612c26565b610b91565b6105e1610c1d565b6040516104d191906130f4565b61050d6105fc366004612d7f565b610c22565b61052261060f366004612a90565b610c62565b61050d610622366004612a90565b610c80565b6104ed610635366004612a90565b610dda565b61050d610648366004612b35565b610df7565b61066061065b366004612aae565b610e02565b6040516104d19190613079565b61050d61067b366004612c56565b610e35565b61050d61068e366004612d43565b610e7c565b610522610e85565b61050d6106a9366004612a90565b610e8b565b6105226106bc366004612dd5565b610f7e565b610522610fae565b6106d1610fb4565b6040516104d1919061306b565b6105226106ec366004612a90565b610fc3565b61054a610fe1565b61050d610707366004612d43565b611006565b61050d61071a366004612c26565b61100f565b61052261072d366004612a90565b611019565b610522610740366004612d43565b611037565b61050d610753366004612cbe565b61104c565b610522610766366004612a90565b611057565b61050d611075565b61050d610781366004612d7f565b61107f565b6104ed610794366004612d43565b6110bf565b61050d6107a7366004612d43565b6110d2565b61050d6107ba366004612c56565b6110d7565b6106d1611118565b61050d611127565b6105226107dd366004612a90565b611148565b61050d6107f0366004612ae8565b611194565b610522610803366004612a90565b61119f565b61050d610816366004612a90565b6111ba565b61050d610829366004612d43565b6111c3565b6105226111cc565b6104c46111d2565b61066061084c366004612a90565b6111f0565b610522611255565b61050d610867366004612d7f565b61125b565b61052261087a366004612a90565b61129b565b61050d61088d366004612a90565b6112b9565b6105226108a0366004612aae565b6112c2565b61050d6108b3366004612dd5565b6112f1565b6105226108c6366004612a90565b6112fc565b610522611313565b61050d6108e1366004612a90565b61139d565b61050d6108f4366004612d43565b6113a6565b61050d610907366004612c56565b6113af565b61050d61091a366004612c26565b6113f0565b61050d61092d366004612c26565b6113fa565b61050d610940366004612d43565b611404565b61050d610953366004612c56565b611417565b610522610966366004612c26565b611458565b61050d610979366004612bf6565b61149c565b61050d61098c366004612aae565b61177d565b61050d61099f366004612cf0565b611787565b61050d6109b2366004612c26565b6117c9565b6105226109c5366004612d43565b6117d3565b61050d6109d8366004612c26565b6117e8565b6105226117f2565b6104ed6109f3366004612a90565b6117f8565b61050d610a06366004612d43565b611819565b61050d610a19366004612c26565b611822565b6105226104e8366004612aae565b61050d610a3a366004612d43565b61182c565b610522610a4d366004612a90565b611831565b61050d61184c565b61050d610a68366004612c26565b611854565b61052261185e565b610522610a83366004612d43565b611864565b604080518082019091526015815274467265712053657420446f6c6c6172205374616b6560581b602082015290565b60005b92915050565b610b0285858585858080601f01602080910402602001604051908101604052809392919081815260200183838082843760009201919091525061187692505050565b5050505050565b6000818152600d60205260409020600201545b919050565b6001600160a01b03166000908152600e602052604090206001015490565b600b546001600160a01b031690565b60035490565b610b5e82826118e7565b5050565b60065490565b610b7181611919565b50565b610b5e8282611960565b60005b9392505050565b610b7181611a08565b610b99610fb4565b6001600160a01b03166340c10f1983836040518363ffffffff1660e01b8152600401610bc6929190613042565b602060405180830381600087803b158015610be057600080fd5b505af1158015610bf4573d6000803e3d6000fd5b505050506040513d601f19601f82011682018060405250610c189190810190612d25565b505050565b601290565b610c188383838080601f016020809104026020016040519081016040528093929190818152602001838380828437600092019190915250611a2192505050565b6001600160a01b03166000908152600e602052604090206003015490565b610cac610c8c82610dda565b6523b7bb32b93760d11b6c139bdd081b9bdb5a5b985d1959609a1b611a3c565b6000610ce06001610cd4610cbf85610b21565b610cc886611831565b9063ffffffff611a9116565b9063ffffffff611ab616565b9050610d0b81610cee6111cc565b116523b7bb32b93760d11b68139bdd08195b99195960ba1b611a3c565b610d62610d3f610d19611af8565b610d33610d25866112fc565b610d2e86611864565b611b1a565b9063ffffffff611b4916565b6523b7bb32b93760d11b6f4d75737420686176652071756f726f6d60801b611a3c565b610d97610d6e83610c62565b610d7784611019565b116523b7bb32b93760d11b6b139bdd08185c1c1c9bdd995960a21b611a3c565b610da082611b5f565b6040516001600160a01b0383169033907f815ca4497ab9fc80c76f210e6e842a5e198e195aa136034557eee144f790e7bb90600090a35050565b6001600160a01b03166000908152600e6020526040902054151590565b610c18838383611c4b565b6001600160a01b038082166000908152600e60209081526040808320938616835260049093019052205460ff1692915050565b610e76848484848080601f016020809104026020016040519081016040528093929190818152602001838380828437600092019190915250611c7b92505050565b50505050565b610b7181611ccc565b60045490565b610e97610c8c82610dda565b610ed5610ead610ea5611ce0565b610cc86111cc565b610eb5610fae565b116523b7bb32b93760d11b6b115c1bd8da081cde5b98d95960a21b611a3c565b610f27610ef7610ee3611ce5565b610d33610eef85611019565b610d2e610b4e565b6523b7bb32b93760d11b7f4d7573742068617665207375706572206d616a6f726974790000000000000000611a3c565b610f3c610f3382610c62565b610d7783611019565b610f4581611b5f565b6040516001600160a01b0382169033907f815ca4497ab9fc80c76f210e6e842a5e198e195aa136034557eee144f790e7bb90600090a350565b6000828152600d60205260408120600301805483908110610f9b57fe5b9060005260206000200154905092915050565b60105490565b6009546001600160a01b031690565b6001600160a01b03166000908152600c602052604090206004015490565b7f360894a13ba1a3210667c828492db98dca3e2076cc3735a920a3ca505d382bbc5490565b610b7181611d07565b610b5e8282611d8e565b6001600160a01b03166000908152600e602052604090206002015490565b6000908152600d602052604090206003015490565b610c18838383611e9f565b6001600160a01b03166000908152600c602052604090206001015490565b61107d611f46565b565b610c188383838080601f016020809104026020016040519081016040528093929190818152602001838380828437600092019190915250611f6d92505050565b60006110c9611f88565b90911115919050565b601055565b610e76848484848080601f016020809104026020016040519081016040528093929190818152602001838380828437600092019190915250611f8d92505050565b600a546001600160a01b031690565b60405162461bcd60e51b815260040161113f906130d6565b60405180910390fd5b600080611153610b4e565b905080611164576000915050610b1c565b610b818161118861117486611057565b61117c610e85565b9063ffffffff611fde16565b9063ffffffff61201816565b610c1883838361205a565b6001600160a01b03166000908152600c602052604090205490565b610b7181611b5f565b610b71816120a4565b60025490565b6040805180820190915260048152634653445360e01b602082015290565b60006111fa6111cc565b6001600160a01b0383166000908152600c6020526040902060050154111561122457506002610b1c565b6001600160a01b0382166000908152600c60205260409020600401546112486111cc565b1015610ab7576001610aba565b60085490565b610c188383838080601f0160208091040260200160405190810160405280939291908181526020018383808284376000920191909152506120bd92505050565b6001600160a01b03166000908152600c602052604090206005015490565b610b71816120d8565b6001600160a01b039182166000908152600c602090815260408083209390941682526003909201909152205490565b600091909155600155565b6000610aba61130a83610c62565b610cc884611019565b600061139861132061185e565b611328610fb4565b6001600160a01b03166318160ddd6040518163ffffffff1660e01b815260040160206040518083038186803b15801561136057600080fd5b505afa158015611374573d6000803e3d6000fd5b505050506040513d601f19601f82011682018060405250610cd49190810190612d61565b905090565b610b7181612102565b610b7181612129565b610e76848484848080601f01602080910402602001604051908101604052809392919081815260200183838082843760009201919091525061216c92505050565b610b5e8282612217565b610b5e82826122bf565b610b71611412826064611b1a565b61231b565b610e76848484848080601f0160208091040260200160405190810160405280939291908181526020018383808284376000920191909152506123e092505050565b6000611463826117d3565b61146f57506000610aba565b506001600160a01b03919091166000908152600c6020908152604080832093835260029093019052205490565b336114e360016114ab836111f0565b60028111156114b657fe5b1415692832b936b4b9b9b4b7b760b11b73139bdd08199c9bde995b881bdc881b1bd8dad95960621b611a3c565b61151460006114f133611057565b116523b7bb32b93760d11b6e4d7573742068617665207374616b6560881b611a3c565b61151d83610dda565b6115c05761155d61152d3361243f565b6523b7bb32b93760d11b7f4e6f7420656e6f756768207374616b6520746f2070726f706f73650000000000611a3c565b61156e83611569612487565b61248c565b6115766111cc565b336001600160a01b0385167fd15e38a680a427478883cd2d32eb664cb6bb2090b0126a23ebaf3e3784b8c56b6115aa612487565b6040516115b791906130e6565b60405180910390a45b6115f06115cf610cbf85610b21565b6115d76111cc565b106523b7bb32b93760d11b64115b99195960da1b611a3c565b60006115fb33611057565b905060006116093386610e02565b905080600281111561161757fe5b84600281111561162357fe5b1415611630575050610c18565b600281600281111561163e57fe5b14156116845761168485836040518060400160405280601b81526020017f476f7665726e3a20496e73756666696369656e742072656a6563740000000000815250611c7b565b600181600281111561169257fe5b14156116d8576116d885836040518060400160405280601c81526020017f476f7665726e3a20496e73756666696369656e7420617070726f766500000000815250611f8d565b60028460028111156116e657fe5b14156116f6576116f685836124b8565b600184600281111561170457fe5b1415611714576117148583612507565b61171f33868661205a565b6117293386612556565b846001600160a01b0316336001600160a01b03167fbe50c78cbc15b0864819aadea36c6499da421b33c38e2ef19bebda583c708c78868560405161176e929190613087565b60405180910390a35050505050565b610b5e8282612556565b610b0285858585858080601f0160208091040260200160405190810160405280939291908181526020018383808284376000920191909152506125b692505050565b610b5e8282612661565b6000908152600d602052604090206001015490565b610b5e82826124b8565b60055490565b6001600160a01b03166000908152600e602052604090206005015460ff1690565b610b718161270b565b610b5e828261248c565b600f55565b6001600160a01b03166000908152600e602052604090205490565b61107d612724565b610b5e8282612507565b60075490565b6000908152600d602052604090205490565b6001600160a01b038085166000908152600c6020908152604080832093871683526003909301905220546118b190838363ffffffff61273d16565b6001600160a01b039485166000908152600c60209081526040808320969097168252600390950190945293909220929092555050565b6000828152600d6020908152604080832060020184905592825291812060030180546001810182559082529190200155565b611958816040518060400160405280601c81526020017f436f6d7074726f6c6c65723a206e6f7420656e6f756768206465627400000000815250611f6d565b610b71612769565b611968610fb4565b6001600160a01b03166340c10f1983836040518363ffffffff1660e01b8152600401611995929190613042565b602060405180830381600087803b1580156119af57600080fd5b505af11580156119c3573d6000803e3d6000fd5b505050506040513d601f19601f820116820180604052506119e79190810190612d25565b506119f36107946111cc565b611a0057611a0081611ccc565b610b5e612769565b600454611a1b908263ffffffff611a9116565b60045550565b600654611a3590838363ffffffff61273d16565b6006555050565b82610c1857611a4a8261283c565b6101d160f51b611a598361283c565b604051602001611a6b93929190612fdb565b60408051601f198184030181529082905262461bcd60e51b825261113f91600401613095565b600082820183811015610b815760405162461bcd60e51b815260040161113f906130a6565b6000610b8183836040518060400160405280601e81526020017f536166654d6174683a207375627472616374696f6e206f766572666c6f77000081525061273d565b611b006129fd565b5060408051602081019091526702c68af0bb140000815290565b611b226129fd565b6040518060200160405280611b4085670de0b6b3a7640000866128bc565b90529392505050565b6000611b5583836128da565b6002149392505050565b611b688161290c565b60408051600481526024810182526020810180516001600160e01b031663204a7f0760e21b17905290516000916060916001600160a01b03851691611bac91612fcf565b600060405180830381855af49150503d8060008114611be7576040519150601f19603f3d011682016040523d82523d6000602084013e611bec565b606091505b5091509150818190611c115760405162461bcd60e51b815260040161113f9190613095565b506040516001600160a01b038416907fbc7cd75a20ee27fd9adebab32041f755214dbc6bffa90cc0225b39da2e5c2d3b90600090a2505050565b6001600160a01b039283166000908152600c60209081526040808320949095168252600390930190925291902055565b6001600160a01b0383166000908152600e6020526040902060030154611ca890838363ffffffff61273d16565b6001600160a01b039093166000908152600e60205260409020600301929092555050565b611cd5816120a4565b611958611412612955565b600690565b611ced6129fd565b506040805160208101909152670928ca80cfc20000815290565b611d0f610fb4565b6001600160a01b03166342966c68826040518263ffffffff1660e01b8152600401611d3a91906130e6565b600060405180830381600087803b158015611d5457600080fd5b505af1158015611d68573d6000803e3d6000fd5b50505050611958816040518060600160405280602a81526020016131fd602a9139611a21565b611d96610fb4565b6001600160a01b03166323b872dd8330846040518463ffffffff1660e01b8152600401611dc59392919061301a565b602060405180830381600087803b158015611ddf57600080fd5b505af1158015611df3573d6000803e3d6000fd5b505050506040513d601f19601f82011682018060405250611e179190810190612d25565b50611e20610fb4565b6001600160a01b03166342966c68826040518263ffffffff1660e01b8152600401611e4b91906130e6565b600060405180830381600087803b158015611e6557600080fd5b505af1158015611e79573d6000803e3d6000fd5b50505050611a00816040518060600160405280602881526020016131d560289139611f6d565b6001600160a01b0383166000908152600c60209081526040808320858452600201909152902054611ed6908263ffffffff611a9116565b6001600160a01b0384166000908152600c60209081526040808320868452600201825280832093909355600d90522060010154611f19908263ffffffff611a9116565b6000838152600d6020526040902060010155600854611f3e908263ffffffff611a9116565b600855505050565b611f4e610b4e565b600d6000611f5a6111cc565b8152602081019190915260400160002055565b600754611f8190838363ffffffff61273d16565b6007555050565b60a890565b6001600160a01b0383166000908152600e6020526040902060020154611fba90838363ffffffff61273d16565b6001600160a01b039093166000908152600e60205260409020600201929092555050565b600082611fed57506000610aba565b82820282848281611ffa57fe5b0414610b815760405162461bcd60e51b815260040161113f906130b6565b6000610b8183836040518060400160405280601a81526020017f536166654d6174683a206469766973696f6e206279207a65726f000000000000815250612977565b6001600160a01b038083166000908152600e6020908152604080832093871683526004909301905220805482919060ff1916600183600281111561209a57fe5b0217905550505050565b6007546120b7908263ffffffff611a9116565b60075550565b6004546120d190838363ffffffff61273d16565b6004555050565b6120e3610ea56129ae565b6001600160a01b039091166000908152600c6020526040902060040155565b6001600160a01b03166000908152600e60205260409020600501805460ff19166001179055565b6000612134826117d3565b9050806121415750610b71565b600854612154908263ffffffff611ab616565b600855506000908152600d6020526040812060010155565b6001600160a01b0383166000908152600c602052604090206001015461219990838363ffffffff61273d16565b6001600160a01b0384166000908152600c60205260409020600101556003546121c990838363ffffffff61273d16565b6003556040516000906001600160a01b038516907fddf252ad1be2c89b69c2b068fc378daa952ba7f163c4a11628f55a4df523b3ef9061220a9086906130e6565b60405180910390a3505050565b6001600160a01b0382166000908152600c6020526040902060010154612243908263ffffffff611a9116565b6001600160a01b0383166000908152600c6020526040902060010155600354612272908263ffffffff611a9116565b6003556040516001600160a01b038316906000907fddf252ad1be2c89b69c2b068fc378daa952ba7f163c4a11628f55a4df523b3ef906122b39085906130e6565b60405180910390a35050565b6001600160a01b0382166000908152600c60205260409020546122e8908263ffffffff611a9116565b6001600160a01b0383166000908152600c6020526040902055600554612314908263ffffffff611a9116565b6005555050565b60006123ad6123a861232b610fb4565b6001600160a01b03166318160ddd6040518163ffffffff1660e01b815260040160206040518083038186803b15801561236357600080fd5b505afa158015612377573d6000803e3d6000fd5b505050506040513d601f19601f8201168201806040525061239b9190810190612d61565b849063ffffffff6129b316565b6129da565b905060006123b961185e565b905081811115610c185760006123d5828463ffffffff611ab616565b9050610e7681611919565b6001600160a01b0383166000908152600c602052604090205461240a90838363ffffffff61273d16565b6001600160a01b0384166000908152600c602052604090205560055461243790838363ffffffff61273d16565b600555505050565b6000612449610e85565b61245557506000610b1c565b61245d6129fd565b612469610eef84611057565b9050610b8161247a60016064611b1a565b829063ffffffff611b4916565b601890565b6124946111cc565b6001600160a01b039092166000908152600e60205260409020918255600190910155565b6001600160a01b0382166000908152600e60205260409020600301546124e4908263ffffffff611a9116565b6001600160a01b039092166000908152600e602052604090206003019190915550565b6001600160a01b0382166000908152600e6020526040902060020154612533908263ffffffff611a9116565b6001600160a01b039092166000908152600e602052604090206002019190915550565b6001600160a01b0382166000908152600c60205260408120600501549061258861257f84610b21565b610cc885611831565b905081811115610e76576001600160a01b0384166000908152600c6020526040902060050181905550505050565b6001600160a01b0384166000908152600c602090815260408083208684526002019091529020546125ee90838363ffffffff61273d16565b6001600160a01b0385166000908152600c60209081526040808320878452600201825280832093909355600d9052206001015461263290838363ffffffff61273d16565b6000848152600d602052604090206001015560085461265890838363ffffffff61273d16565b60085550505050565b612669610fb4565b6001600160a01b031663a9059cbb83836040518363ffffffff1660e01b8152600401612696929190613042565b602060405180830381600087803b1580156126b057600080fd5b505af11580156126c4573d6000803e3d6000fd5b505050506040513d601f19601f820116820180604052506126e89190810190612d25565b50611a00816040518060600160405280602a81526020016131fd602a9139611a21565b60065461271e908263ffffffff611a9116565b60065550565b60025461273890600163ffffffff611a9116565b600255565b600081848411156127615760405162461bcd60e51b815260040161113f9190613095565b505050900390565b61107d61278a612777610b62565b610cc86127826117f2565b610cc8610e85565b612792610fb4565b6001600160a01b03166370a08231306040518263ffffffff1660e01b81526004016127bd919061300c565b60206040518083038186803b1580156127d557600080fd5b505afa1580156127e9573d6000803e3d6000fd5b505050506040513d601f19601f8201168201806040525061280d9190810190612d61565b10156a21b7b6b83a3937b63632b960a91b74496e636f6e73697374656e742062616c616e63657360581b611a3c565b606080826040516020016128509190612fba565b60408051601f19818403018152919052905060205b80156128a55781516000199091019082908290811061288057fe5b01602001516001600160f81b031916156128a05760010181529050610b1c565b612865565b505060408051600081526020810190915292915050565b60006128d282611188868663ffffffff611fde16565b949350505050565b8051825160009114156128ef57506001610aba565b81518351116128ff576000612902565b60025b60ff169392505050565b612915816129f7565b6129315760405162461bcd60e51b815260040161113f906130c6565b7f360894a13ba1a3210667c828492db98dca3e2076cc3735a920a3ca505d382bbc55565b61295d6129fd565b5060408051602081019091526706f05b59d3b20000815290565b600081836129985760405162461bcd60e51b815260040161113f9190613095565b5060008385816129a457fe5b0495945050505050565b600c90565b6129bb6129fd565b604080516020810190915283518190611b40908563ffffffff611fde16565b8051600090610aba90670de0b6b3a764000063ffffffff61201816565b3b151590565b6040518060200160405280600081525090565b8035610aba816131a1565b8051610aba816131b5565b8035610aba816131be565b60008083601f840112612a4357600080fd5b50813567ffffffffffffffff811115612a5b57600080fd5b602083019150836001820283011115612a7357600080fd5b9250929050565b8035610aba816131cb565b8051610aba816131cb565b600060208284031215612aa257600080fd5b60006128d28484612a10565b60008060408385031215612ac157600080fd5b6000612acd8585612a10565b9250506020612ade85828601612a10565b9150509250929050565b600080600060608486031215612afd57600080fd5b6000612b098686612a10565b9350506020612b1a86828701612a10565b9250506040612b2b86828701612a26565b9150509250925092565b600080600060608486031215612b4a57600080fd5b6000612b568686612a10565b9350506020612b6786828701612a10565b9250506040612b2b86828701612a7a565b600080600080600060808688031215612b9057600080fd5b6000612b9c8888612a10565b9550506020612bad88828901612a10565b9450506040612bbe88828901612a7a565b935050606086013567ffffffffffffffff811115612bdb57600080fd5b612be788828901612a31565b92509250509295509295909350565b60008060408385031215612c0957600080fd5b6000612c158585612a10565b9250506020612ade85828601612a26565b60008060408385031215612c3957600080fd5b6000612c458585612a10565b9250506020612ade85828601612a7a565b60008060008060608587031215612c6c57600080fd5b6000612c788787612a10565b9450506020612c8987828801612a7a565b935050604085013567ffffffffffffffff811115612ca657600080fd5b612cb287828801612a31565b95989497509550505050565b600080600060608486031215612cd357600080fd5b6000612cdf8686612a10565b9350506020612b6786828701612a7a565b600080600080600060808688031215612d0857600080fd5b6000612d148888612a10565b9550506020612bad88828901612a7a565b600060208284031215612d3757600080fd5b60006128d28484612a1b565b600060208284031215612d5557600080fd5b60006128d28484612a7a565b600060208284031215612d7357600080fd5b60006128d28484612a85565b600080600060408486031215612d9457600080fd5b6000612da08686612a7a565b935050602084013567ffffffffffffffff811115612dbd57600080fd5b612dc986828701612a31565b92509250509250925092565b60008060408385031215612de857600080fd5b6000612c458585612a7a565b612dfd8161310f565b82525050565b612dfd8161311a565b612dfd612e188261311f565b61312c565b612dfd612e188261312c565b6000612e3482613102565b612e3e8185610b1c565b9350612e4e818560208601613161565b9290920192915050565b612dfd8161314b565b612dfd81613156565b6000612e7582613102565b612e7f8185613106565b9350612e8f818560208601613161565b612e988161318d565b9093019392505050565b6000612eaf601b83613106565b7f536166654d6174683a206164646974696f6e206f766572666c6f770000000000815260200192915050565b6000612ee8602183613106565b7f536166654d6174683a206d756c7469706c69636174696f6e206f766572666c6f8152607760f81b602082015260400192915050565b6000612f2b603b83613106565b7f43616e6e6f742073657420612070726f787920696d706c656d656e746174696f81527f6e20746f2061206e6f6e2d636f6e747261637420616464726573730000000000602082015260400192915050565b6000612f8a600f83613106565b6e14da1bdd5b19081b9bdd0818d85b1b608a1b815260200192915050565b612dfd8161312c565b612dfd81613145565b6000612fc68284612e1d565b50602001919050565b6000610b818284612e29565b6000612fe78286612e29565b9150612ff38285612e0c565b6002820191506130038284612e29565b95945050505050565b60208101610aba8284612df4565b606081016130288286612df4565b6130356020830185612df4565b6128d26040830184612fa8565b604081016130508285612df4565b610b816020830184612fa8565b60208101610aba8284612e03565b60208101610aba8284612e58565b60208101610aba8284612e61565b604081016130508285612e61565b60208082528101610b818184612e6a565b60208082528101610aba81612ea2565b60208082528101610aba81612edb565b60208082528101610aba81612f1e565b60208082528101610aba81612f7d565b60208101610aba8284612fa8565b60208101610aba8284612fb1565b5190565b90815260200190565b6000610aba82613139565b151590565b6001600160f01b03191690565b90565b80610b1c81613197565b6001600160a01b031690565b60ff1690565b6000610aba8261310f565b6000610aba8261312f565b60005b8381101561317c578181015183820152602001613164565b83811115610e765750506000910152565b601f01601f191690565b60038110610b7157fe5b6131aa8161310f565b8114610b7157600080fd5b6131aa8161311a565b60038110610b7157600080fd5b6131aa8161312c56fe436f6d7074726f6c6c65723a206e6f7420656e6f756768206f75747374616e64696e672064656274436f6d7074726f6c6c65723a206e6f7420656e6f7567682072656465656d61626c652062616c616e6365a365627a7a723158208dddec48712b8330eba2e6300f3f28a3fe1034dce08bfc8d79f97f9277e706466c6578706572696d656e74616cf564736f6c6343000511004060806040523480156200001157600080fd5b506040518060400160405280600f81526020016e233932b89029b2ba102237b63630b960891b815250604051806040016040528060038152602001621194d160ea1b81525060126200007b6200006c6200011660201b60201c565b6001600160e01b036200011b16565b82516200009090600190602086019062000310565b508151620000a690600290602085019062000310565b506003805460ff191660ff92909216919091179055506200010d9050620000cc6200016d565b604051806040016040528060018152602001603160f81b815250620000fb6200020660201b620016341760201c565b306200020b60201b620016391760201c565b60075562000466565b335b90565b620001368160006200026260201b62000d7e1790919060201c565b6040516001600160a01b038216907f6ae172837ea30b801fbfcdd4108aa1d5bf8ff775444fd70256b44e6bf3dfc3f690600090a250565b60018054604080516020601f60026000196101008789161502019095169490940493840181900481028201810190925282815260609390929091830182828015620001fc5780601f10620001d057610100808354040283529160200191620001fc565b820191906000526020600020905b815481529060010190602001808311620001de57829003601f168201915b5050505050905090565b600190565b8351602094850120835193850193909320604080517f8b73c3c69bb8fe3d512ecc4cf759cc79239f7b179b0ffacaa9a75d522b39400f815295860194909452928401929092526060830152608082015260a0902090565b6200027782826001600160e01b03620002c516565b15620002a05760405162461bcd60e51b8152600401620002979062000433565b60405180910390fd5b6001600160a01b0316600090815260209190915260409020805460ff19166001179055565b60006001600160a01b038216620002f05760405162461bcd60e51b815260040162000297906200044b565b506001600160a01b03166000908152602091909152604090205460ff1690565b828054600181600116156101000203166002900490600052602060002090601f016020900481019282601f106200035357805160ff191683800117855562000383565b8280016001018555821562000383579182015b828111156200038357825182559160200191906001019062000366565b506200039192915062000395565b5090565b6200011891905b808211156200039157600081556001016200039c565b6000620003c1601f836200045d565b7f526f6c65733a206163636f756e7420616c72656164792068617320726f6c6500815260200192915050565b6000620003fc6022836200045d565b7f526f6c65733a206163636f756e7420697320746865207a65726f206164647265815261737360f01b602082015260400192915050565b602080825281016200044581620003b2565b92915050565b602080825281016200044581620003ed565b90815260200190565b61178d80620004766000396000f3fe608060405234801561001057600080fd5b506004361061012c5760003560e01c806395d89b41116100ad578063aa271e1a11610071578063aa271e1a14610256578063d505accf14610269578063dab400f31461027c578063dd62ed3e14610284578063e879c19f146102975761012c565b806395d89b411461020d578063983b2d56146102155780639865027514610228578063a457c2d714610230578063a9059cbb146102435761012c565b806339509351116100f457806339509351146101ac57806340c10f19146101bf57806342966c68146101d257806370a08231146101e757806379cc6790146101fa5761012c565b806306fdde0314610131578063095ea7b31461014f57806318160ddd1461016f57806323b872dd14610184578063313ce56714610197575b600080fd5b61013961029f565b60405161014691906114c6565b60405180910390f35b61016261015d366004610ffc565b610334565b604051610146919061141b565b610177610352565b6040516101469190611429565b610162610192366004610f13565b610358565b61019f6103ca565b6040516101469190611587565b6101626101ba366004610ffc565b6103d3565b6101626101cd366004610ffc565b610427565b6101e56101e036600461102c565b610463565b005b6101776101f5366004610eb3565b610477565b6101e5610208366004610ffc565b610496565b6101396104a4565b6101e5610223366004610eb3565b610502565b6101e5610532565b61016261023e366004610ffc565b610544565b610162610251366004610ffc565b6105b2565b610162610264366004610eb3565b6105c6565b6101e5610277366004610f60565b6105d8565b61017761075f565b610177610292366004610ed9565b610765565b610177610790565b60018054604080516020601f6002600019610100878916150201909516949094049384018190048102820181019092528281526060939092909183018282801561032a5780601f106102ff5761010080835404028352916020019161032a565b820191906000526020600020905b81548152906001019060200180831161030d57829003601f168201915b5050505050905090565b60006103486103416107b4565b84846107b8565b5060015b92915050565b60065490565b600061036584848461086c565b600019610374856102926107b4565b146103c0576103c0846103856107b4565b6103bb856040518060600160405280602981526020016116fd602991396103ae8a6102926107b4565b919063ffffffff61098216565b6107b8565b5060019392505050565b60035460ff1690565b60006103486103e06107b4565b846103bb85600560006103f16107b4565b6001600160a01b03908116825260208083019390935260409182016000908120918c16815292529020549063ffffffff6109ae16565b60006104346102646107b4565b6104595760405162461bcd60e51b815260040161045090611517565b60405180910390fd5b61034883836109da565b61047461046e6107b4565b82610a9a565b50565b6001600160a01b0381166000908152600460205260409020545b919050565b6104a08282610b70565b5050565b60028054604080516020601f600019610100600187161502019094168590049384018190048102820181019092528281526060939092909183018282801561032a5780601f106102ff5761010080835404028352916020019161032a565b61050d6102646107b4565b6105295760405162461bcd60e51b815260040161045090611517565b61047481610beb565b61054261053d6107b4565b610c33565b565b60006103486105516107b4565b846103bb85604051806060016040528060258152602001611726602591396005600061057b6107b4565b6001600160a01b03908116825260208083019390935260409182016000908120918d1681529252902054919063ffffffff61098216565b60006103486105bf6107b4565b848461086c565b600061034c818363ffffffff610c7b16565b6007546001600160a01b03881660009081526008602090815260408083208054600181019091559051929361065a93909261063f927f6e71edae12b1b97f4d1f60370fef10105fa2faae0126114a169c64845d6126c9928e928e928e9290918e9101611437565b60405160208183030381529060405280519060200120610cc3565b90506000600182868686604051600081526020016040526040516106819493929190611491565b6020604051602081039080840390855afa1580156106a3573d6000803e3d6000fd5b5050506020604051035190506106f0896001600160a01b0316826001600160a01b0316146a5065726d69747461626c6560a81b70496e76616c6964207369676e617475726560781b610ce2565b6107236001600160a01b03821615156a5065726d69747461626c6560a81b6b5a65726f206164647265737360a01b610ce2565b610749864211156a5065726d69747461626c6560a81b66115e1c1a5c995960ca1b610ce2565b6107548989896107b8565b505050505050505050565b60075481565b6001600160a01b03918216600090815260056020908152604080832093909416825291909152205490565b7f6e71edae12b1b97f4d1f60370fef10105fa2faae0126114a169c64845d6126c981565b3390565b6001600160a01b0383166107de5760405162461bcd60e51b815260040161045090611567565b6001600160a01b0382166108045760405162461bcd60e51b8152600401610450906114f7565b6001600160a01b0380841660008181526005602090815260408083209487168084529490915290819020849055517f8c5be1e5ebec7d5bd14f71427d1e84f3dd0314c0f7b2291e5b200ac8c7c3b9259061085f908590611429565b60405180910390a3505050565b6001600160a01b0383166108925760405162461bcd60e51b815260040161045090611557565b6001600160a01b0382166108b85760405162461bcd60e51b8152600401610450906114d7565b6108fb816040518060600160405280602681526020016116b3602691396001600160a01b038616600090815260046020526040902054919063ffffffff61098216565b6001600160a01b038085166000908152600460205260408082209390935590841681522054610930908263ffffffff6109ae16565b6001600160a01b0380841660008181526004602052604090819020939093559151908516907fddf252ad1be2c89b69c2b068fc378daa952ba7f163c4a11628f55a4df523b3ef9061085f908590611429565b600081848411156109a65760405162461bcd60e51b815260040161045091906114c6565b505050900390565b6000828201838110156109d35760405162461bcd60e51b815260040161045090611507565b9392505050565b6001600160a01b038216610a005760405162461bcd60e51b815260040161045090611577565b600654610a13908263ffffffff6109ae16565b6006556001600160a01b038216600090815260046020526040902054610a3f908263ffffffff6109ae16565b6001600160a01b0383166000818152600460205260408082209390935591519091907fddf252ad1be2c89b69c2b068fc378daa952ba7f163c4a11628f55a4df523b3ef90610a8e908590611429565b60405180910390a35050565b6001600160a01b038216610ac05760405162461bcd60e51b815260040161045090611547565b610b0381604051806060016040528060228152602001611691602291396001600160a01b038516600090815260046020526040902054919063ffffffff61098216565b6001600160a01b038316600090815260046020526040902055600654610b2f908263ffffffff610d3c16565b6006556040516000906001600160a01b038416907fddf252ad1be2c89b69c2b068fc378daa952ba7f163c4a11628f55a4df523b3ef90610a8e908590611429565b610b7a8282610a9a565b6104a082610b866107b4565b6103bb846040518060600160405280602481526020016116d9602491396001600160a01b038816600090815260056020526040812090610bc46107b4565b6001600160a01b03168152602081019190915260400160002054919063ffffffff61098216565b610bfc60008263ffffffff610d7e16565b6040516001600160a01b038216907f6ae172837ea30b801fbfcdd4108aa1d5bf8ff775444fd70256b44e6bf3dfc3f690600090a250565b610c4460008263ffffffff610dca16565b6040516001600160a01b038216907fe94479a9f7e1952cc78f2d6baab678adc1b772d936c6583def489e524cb6669290600090a250565b60006001600160a01b038216610ca35760405162461bcd60e51b815260040161045090611537565b506001600160a01b03166000908152602091909152604090205460ff1690565b60405161190160f01b8152600281019290925260228201526042902090565b82610d3757610cf082610e12565b6101d160f51b610cff83610e12565b604051602001610d11939291906113ea565b60408051601f198184030181529082905262461bcd60e51b8252610450916004016114c6565b505050565b60006109d383836040518060400160405280601e81526020017f536166654d6174683a207375627472616374696f6e206f766572666c6f770000815250610982565b610d888282610c7b565b15610da55760405162461bcd60e51b8152600401610450906114e7565b6001600160a01b0316600090815260209190915260409020805460ff19166001179055565b610dd48282610c7b565b610df05760405162461bcd60e51b815260040161045090611527565b6001600160a01b0316600090815260209190915260409020805460ff19169055565b60608082604051602001610e2691906113d5565b60408051601f19818403018152919052905060205b8015610e7b57815160001990910190829082908110610e5657fe5b01602001516001600160f81b03191615610e765760010181529050610491565b610e3b565b505060408051600081526020810190915292915050565b803561034c8161160e565b803561034c81611622565b803561034c8161162b565b600060208284031215610ec557600080fd5b6000610ed18484610e92565b949350505050565b60008060408385031215610eec57600080fd5b6000610ef88585610e92565b9250506020610f0985828601610e92565b9150509250929050565b600080600060608486031215610f2857600080fd5b6000610f348686610e92565b9350506020610f4586828701610e92565b9250506040610f5686828701610e9d565b9150509250925092565b600080600080600080600060e0888a031215610f7b57600080fd5b6000610f878a8a610e92565b9750506020610f988a828b01610e92565b9650506040610fa98a828b01610e9d565b9550506060610fba8a828b01610e9d565b9450506080610fcb8a828b01610ea8565b93505060a0610fdc8a828b01610e9d565b92505060c0610fed8a828b01610e9d565b91505092959891949750929550565b6000806040838503121561100f57600080fd5b600061101b8585610e92565b9250506020610f0985828601610e9d565b60006020828403121561103e57600080fd5b6000610ed18484610e9d565b611053816115a2565b82525050565b611053816115ad565b61105361106e826115b2565b6115bf565b611053816115bf565b61105361106e826115bf565b600061109382611595565b61109d8185610491565b93506110ad8185602086016115d4565b9290920192915050565b60006110c282611595565b6110cc8185611599565b93506110dc8185602086016115d4565b6110e581611604565b9093019392505050565b60006110fc602383611599565b7f45524332303a207472616e7366657220746f20746865207a65726f206164647281526265737360e81b602082015260400192915050565b6000611141601f83611599565b7f526f6c65733a206163636f756e7420616c72656164792068617320726f6c6500815260200192915050565b600061117a602283611599565b7f45524332303a20617070726f766520746f20746865207a65726f206164647265815261737360f01b602082015260400192915050565b60006111be601b83611599565b7f536166654d6174683a206164646974696f6e206f766572666c6f770000000000815260200192915050565b60006111f7603083611599565b7f4d696e746572526f6c653a2063616c6c657220646f6573206e6f74206861766581526f20746865204d696e74657220726f6c6560801b602082015260400192915050565b6000611249602183611599565b7f526f6c65733a206163636f756e7420646f6573206e6f74206861766520726f6c8152606560f81b602082015260400192915050565b600061128c602283611599565b7f526f6c65733a206163636f756e7420697320746865207a65726f206164647265815261737360f01b602082015260400192915050565b60006112d0602183611599565b7f45524332303a206275726e2066726f6d20746865207a65726f206164647265738152607360f81b602082015260400192915050565b6000611313602583611599565b7f45524332303a207472616e736665722066726f6d20746865207a65726f206164815264647265737360d81b602082015260400192915050565b600061135a602483611599565b7f45524332303a20617070726f76652066726f6d20746865207a65726f206164648152637265737360e01b602082015260400192915050565b60006113a0601f83611599565b7f45524332303a206d696e7420746f20746865207a65726f206164647265737300815260200192915050565b611053816115ce565b60006113e1828461107c565b50602001919050565b60006113f68286611088565b91506114028285611062565b6002820191506114128284611088565b95945050505050565b6020810161034c8284611059565b6020810161034c8284611073565b60c081016114458289611073565b611452602083018861104a565b61145f604083018761104a565b61146c6060830186611073565b6114796080830185611073565b61148660a0830184611073565b979650505050505050565b6080810161149f8287611073565b6114ac60208301866113cc565b6114b96040830185611073565b6114126060830184611073565b602080825281016109d381846110b7565b6020808252810161034c816110ef565b6020808252810161034c81611134565b6020808252810161034c8161116d565b6020808252810161034c816111b1565b6020808252810161034c816111ea565b6020808252810161034c8161123c565b6020808252810161034c8161127f565b6020808252810161034c816112c3565b6020808252810161034c81611306565b6020808252810161034c8161134d565b6020808252810161034c81611393565b6020810161034c82846113cc565b5190565b90815260200190565b600061034c826115c2565b151590565b6001600160f01b03191690565b90565b6001600160a01b031690565b60ff1690565b60005b838110156115ef5781810151838201526020016115d7565b838111156115fe576000848401525b50505050565b601f01601f191690565b611617816115a2565b811461047457600080fd5b611617816115bf565b611617816115ce565b600190565b8351602094850120835193850193909320604080517f8b73c3c69bb8fe3d512ecc4cf759cc79239f7b179b0ffacaa9a75d522b39400f815295860194909452928401929092526060830152608082015260a090209056fe45524332303a206275726e20616d6f756e7420657863656564732062616c616e636545524332303a207472616e7366657220616d6f756e7420657863656564732062616c616e636545524332303a206275726e20616d6f756e74206578636565647320616c6c6f77616e6365446f6c6c61723a207472616e7366657220616d6f756e74206578636565647320616c6c6f77616e636545524332303a2064656372656173656420616c6c6f77616e63652062656c6f77207a65726fa365627a7a72315820cfdd189e005bfca33d42143d9c8aae029b01c54ff1fae18e0f69a2b52f52c6836c6578706572696d656e74616cf564736f6c63430005110040",
  "source": "/*\n    Copyright 2020 Empty Set Squad <emptysetsquad@protonmail.com>\n\n    Licensed under the Apache License, Version 2.0 (the \"License\");\n    you may not use this file except in compliance with the License.\n    You may obtain a copy of the License at\n\n    http://www.apache.org/licenses/LICENSE-2.0\n\n    Unless required by applicable law or agreed to in writing, software\n    distributed under the License is distributed on an \"AS IS\" BASIS,\n    WITHOUT WARRANTIES OR CONDITIONS OF ANY KIND, either express or implied.\n    See the License for the specific language governing permissions and\n    limitations under the License.\n*/\n\npragma solidity ^0.5.17;\npragma experimental ABIEncoderV2;\n\nimport \"../dao/Govern.sol\";\nimport \"./MockUpgradeable.sol\";\nimport \"./MockComptroller.sol\";\n\ncontract MockGovern is Govern, MockComptroller {\n    uint256 internal _epochTime;\n\n    constructor() MockComptroller(address(0)) public { }\n\n    function initialize() public {\n        revert(\"Should not call\");\n    }\n\n    function upgradeToE(address newImplementation) external {\n        super.upgradeTo(newImplementation);\n    }\n\n    function setEpochTime(uint256 epochTime) external {\n        _epochTime = epochTime;\n    }\n\n    function epochTime() public view returns (uint256) {\n        return _epochTime;\n    }\n}\n",
  "sourcePath": "/Users/lileihuang/bytedance/fsd/protocol/contracts/mock/MockGovern.sol",
  "compiler": {
    "name": "solc",
    "version": "0.5.17+commit.d19bba13.Emscripten.clang"
  },
  "schemaVersion": "3.3.1",
  "updatedAt": "2021-01-07T05:38:54.357Z",
  "devdoc": {
    "methods": {}
  },
  "userdoc": {
    "methods": {
      "balanceOfStaged(address)": {
        "notice": "Account"
      },
      "createCandidateE(address,uint256)": {
        "notice": "Governance"
      },
      "dollar()": {
        "notice": "Global"
      },
      "epoch()": {
        "notice": "Epoch"
      },
      "incrementBalanceOfE(address,uint256)": {
        "notice": "Account"
      },
      "incrementTotalBondedE(uint256)": {
        "notice": "Global"
      },
      "name()": {
        "notice": "ERC20 Interface"
      },
      "recordedVote(address,address)": {
        "notice": "Governance"
      },
      "setBlockTimestamp(uint256)": {
        "notice": "Mock"
      },
      "setEpochParamsE(uint256,uint256)": {
        "notice": "Epoch"
      },
      "transfer(address,uint256)": {
        "notice": "ERC20 Interface"
      }
    }
  }
}