{
  "contractName": "Regulator",
  "abi": [
    {
      "anonymous": false,
      "inputs": [
        {
          "indexed": true,
          "internalType": "uint256",
          "name": "epoch",
          "type": "uint256"
        },
        {
          "indexed": false,
          "internalType": "uint256",
          "name": "price",
          "type": "uint256"
        },
        {
          "indexed": false,
          "internalType": "uint256",
          "name": "newDebt",
          "type": "uint256"
        }
      ],
      "name": "SupplyDecrease",
      "type": "event"
    },
    {
      "anonymous": false,
      "inputs": [
        {
          "indexed": true,
          "internalType": "uint256",
          "name": "epoch",
          "type": "uint256"
        },
        {
          "indexed": false,
          "internalType": "uint256",
          "name": "price",
          "type": "uint256"
        },
        {
          "indexed": false,
          "internalType": "uint256",
          "name": "newRedeemable",
          "type": "uint256"
        },
        {
          "indexed": false,
          "internalType": "uint256",
          "name": "lessDebt",
          "type": "uint256"
        },
        {
          "indexed": false,
          "internalType": "uint256",
          "name": "newBonded",
          "type": "uint256"
        }
      ],
      "name": "SupplyIncrease",
      "type": "event"
    },
    {
      "anonymous": false,
      "inputs": [
        {
          "indexed": true,
          "internalType": "uint256",
          "name": "epoch",
          "type": "uint256"
        }
      ],
      "name": "SupplyNeutral",
      "type": "event"
    },
    {
      "anonymous": false,
      "inputs": [
        {
          "indexed": true,
          "internalType": "address",
          "name": "from",
          "type": "address"
        },
        {
          "indexed": true,
          "internalType": "address",
          "name": "to",
          "type": "address"
        },
        {
          "indexed": false,
          "internalType": "uint256",
          "name": "value",
          "type": "uint256"
        }
      ],
      "name": "Transfer",
      "type": "event"
    },
    {
      "constant": true,
      "inputs": [
        {
          "internalType": "address",
          "name": "owner",
          "type": "address"
        },
        {
          "internalType": "address",
          "name": "spender",
          "type": "address"
        }
      ],
      "name": "allowance",
      "outputs": [
        {
          "internalType": "uint256",
          "name": "",
          "type": "uint256"
        }
      ],
      "payable": false,
      "stateMutability": "view",
      "type": "function"
    },
    {
      "constant": true,
      "inputs": [
        {
          "internalType": "address",
          "name": "owner",
          "type": "address"
        },
        {
          "internalType": "address",
          "name": "spender",
          "type": "address"
        }
      ],
      "name": "allowanceCoupons",
      "outputs": [
        {
          "internalType": "uint256",
          "name": "",
          "type": "uint256"
        }
      ],
      "payable": false,
      "stateMutability": "view",
      "type": "function"
    },
    {
      "constant": false,
      "inputs": [
        {
          "internalType": "address",
          "name": "spender",
          "type": "address"
        },
        {
          "internalType": "uint256",
          "name": "amount",
          "type": "uint256"
        }
      ],
      "name": "approve",
      "outputs": [
        {
          "internalType": "bool",
          "name": "",
          "type": "bool"
        }
      ],
      "payable": false,
      "stateMutability": "nonpayable",
      "type": "function"
    },
    {
      "constant": true,
      "inputs": [
        {
          "internalType": "address",
          "name": "candidate",
          "type": "address"
        }
      ],
      "name": "approveFor",
      "outputs": [
        {
          "internalType": "uint256",
          "name": "",
          "type": "uint256"
        }
      ],
      "payable": false,
      "stateMutability": "view",
      "type": "function"
    },
    {
      "constant": true,
      "inputs": [
        {
          "internalType": "address",
          "name": "account",
          "type": "address"
        }
      ],
      "name": "balanceOf",
      "outputs": [
        {
          "internalType": "uint256",
          "name": "",
          "type": "uint256"
        }
      ],
      "payable": false,
      "stateMutability": "view",
      "type": "function"
    },
    {
      "constant": true,
      "inputs": [
        {
          "internalType": "address",
          "name": "account",
          "type": "address"
        }
      ],
      "name": "balanceOfBonded",
      "outputs": [
        {
          "internalType": "uint256",
          "name": "",
          "type": "uint256"
        }
      ],
      "payable": false,
      "stateMutability": "view",
      "type": "function"
    },
    {
      "constant": true,
      "inputs": [
        {
          "internalType": "address",
          "name": "account",
          "type": "address"
        },
        {
          "internalType": "uint256",
          "name": "epoch",
          "type": "uint256"
        }
      ],
      "name": "balanceOfCoupons",
      "outputs": [
        {
          "internalType": "uint256",
          "name": "",
          "type": "uint256"
        }
      ],
      "payable": false,
      "stateMutability": "view",
      "type": "function"
    },
    {
      "constant": true,
      "inputs": [
        {
          "internalType": "address",
          "name": "account",
          "type": "address"
        }
      ],
      "name": "balanceOfStaged",
      "outputs": [
        {
          "internalType": "uint256",
          "name": "",
          "type": "uint256"
        }
      ],
      "payable": false,
      "stateMutability": "view",
      "type": "function"
    },
    {
      "constant": true,
      "inputs": [
        {
          "internalType": "uint256",
          "name": "epoch",
          "type": "uint256"
        }
      ],
      "name": "bootstrappingAt",
      "outputs": [
        {
          "internalType": "bool",
          "name": "",
          "type": "bool"
        }
      ],
      "payable": false,
      "stateMutability": "view",
      "type": "function"
    },
    {
      "constant": true,
      "inputs": [
        {
          "internalType": "uint256",
          "name": "epoch",
          "type": "uint256"
        }
      ],
      "name": "couponsExpiration",
      "outputs": [
        {
          "internalType": "uint256",
          "name": "",
          "type": "uint256"
        }
      ],
      "payable": false,
      "stateMutability": "view",
      "type": "function"
    },
    {
      "constant": true,
      "inputs": [],
      "name": "decimals",
      "outputs": [
        {
          "internalType": "uint8",
          "name": "",
          "type": "uint8"
        }
      ],
      "payable": false,
      "stateMutability": "view",
      "type": "function"
    },
    {
      "constant": true,
      "inputs": [],
      "name": "dollar",
      "outputs": [
        {
          "internalType": "contract IDollar",
          "name": "",
          "type": "address"
        }
      ],
      "payable": false,
      "stateMutability": "view",
      "type": "function"
    },
    {
      "constant": true,
      "inputs": [],
      "name": "epoch",
      "outputs": [
        {
          "internalType": "uint256",
          "name": "",
          "type": "uint256"
        }
      ],
      "payable": false,
      "stateMutability": "view",
      "type": "function"
    },
    {
      "constant": true,
      "inputs": [],
      "name": "epochTime",
      "outputs": [
        {
          "internalType": "uint256",
          "name": "",
          "type": "uint256"
        }
      ],
      "payable": false,
      "stateMutability": "view",
      "type": "function"
    },
    {
      "constant": true,
      "inputs": [
        {
          "internalType": "uint256",
          "name": "epoch",
          "type": "uint256"
        }
      ],
      "name": "expiringCoupons",
      "outputs": [
        {
          "internalType": "uint256",
          "name": "",
          "type": "uint256"
        }
      ],
      "payable": false,
      "stateMutability": "view",
      "type": "function"
    },
    {
      "constant": true,
      "inputs": [
        {
          "internalType": "uint256",
          "name": "epoch",
          "type": "uint256"
        },
        {
          "internalType": "uint256",
          "name": "i",
          "type": "uint256"
        }
      ],
      "name": "expiringCouponsAtIndex",
      "outputs": [
        {
          "internalType": "uint256",
          "name": "",
          "type": "uint256"
        }
      ],
      "payable": false,
      "stateMutability": "view",
      "type": "function"
    },
    {
      "constant": true,
      "inputs": [
        {
          "internalType": "address",
          "name": "account",
          "type": "address"
        }
      ],
      "name": "fluidUntil",
      "outputs": [
        {
          "internalType": "uint256",
          "name": "",
          "type": "uint256"
        }
      ],
      "payable": false,
      "stateMutability": "view",
      "type": "function"
    },
    {
      "constant": true,
      "inputs": [],
      "name": "implementation",
      "outputs": [
        {
          "internalType": "address",
          "name": "impl",
          "type": "address"
        }
      ],
      "payable": false,
      "stateMutability": "view",
      "type": "function"
    },
    {
      "constant": true,
      "inputs": [
        {
          "internalType": "address",
          "name": "candidate",
          "type": "address"
        }
      ],
      "name": "isInitialized",
      "outputs": [
        {
          "internalType": "bool",
          "name": "",
          "type": "bool"
        }
      ],
      "payable": false,
      "stateMutability": "view",
      "type": "function"
    },
    {
      "constant": true,
      "inputs": [
        {
          "internalType": "address",
          "name": "candidate",
          "type": "address"
        }
      ],
      "name": "isNominated",
      "outputs": [
        {
          "internalType": "bool",
          "name": "",
          "type": "bool"
        }
      ],
      "payable": false,
      "stateMutability": "view",
      "type": "function"
    },
    {
      "constant": true,
      "inputs": [
        {
          "internalType": "address",
          "name": "account",
          "type": "address"
        }
      ],
      "name": "lockedUntil",
      "outputs": [
        {
          "internalType": "uint256",
          "name": "",
          "type": "uint256"
        }
      ],
      "payable": false,
      "stateMutability": "view",
      "type": "function"
    },
    {
      "constant": true,
      "inputs": [],
      "name": "name",
      "outputs": [
        {
          "internalType": "string",
          "name": "",
          "type": "string"
        }
      ],
      "payable": false,
      "stateMutability": "view",
      "type": "function"
    },
    {
      "constant": true,
      "inputs": [],
      "name": "oracle",
      "outputs": [
        {
          "internalType": "contract IOracle",
          "name": "",
          "type": "address"
        }
      ],
      "payable": false,
      "stateMutability": "view",
      "type": "function"
    },
    {
      "constant": true,
      "inputs": [
        {
          "internalType": "uint256",
          "name": "epoch",
          "type": "uint256"
        }
      ],
      "name": "outstandingCoupons",
      "outputs": [
        {
          "internalType": "uint256",
          "name": "",
          "type": "uint256"
        }
      ],
      "payable": false,
      "stateMutability": "view",
      "type": "function"
    },
    {
      "constant": true,
      "inputs": [
        {
          "internalType": "address",
          "name": "candidate",
          "type": "address"
        }
      ],
      "name": "periodFor",
      "outputs": [
        {
          "internalType": "uint256",
          "name": "",
          "type": "uint256"
        }
      ],
      "payable": false,
      "stateMutability": "view",
      "type": "function"
    },
    {
      "constant": true,
      "inputs": [],
      "name": "pool",
      "outputs": [
        {
          "internalType": "address",
          "name": "",
          "type": "address"
        }
      ],
      "payable": false,
      "stateMutability": "view",
      "type": "function"
    },
    {
      "constant": true,
      "inputs": [
        {
          "internalType": "address",
          "name": "account",
          "type": "address"
        },
        {
          "internalType": "address",
          "name": "candidate",
          "type": "address"
        }
      ],
      "name": "recordedVote",
      "outputs": [
        {
          "internalType": "enum Candidate.Vote",
          "name": "",
          "type": "uint8"
        }
      ],
      "payable": false,
      "stateMutability": "view",
      "type": "function"
    },
    {
      "constant": true,
      "inputs": [
        {
          "internalType": "address",
          "name": "candidate",
          "type": "address"
        }
      ],
      "name": "rejectFor",
      "outputs": [
        {
          "internalType": "uint256",
          "name": "",
          "type": "uint256"
        }
      ],
      "payable": false,
      "stateMutability": "view",
      "type": "function"
    },
    {
      "constant": true,
      "inputs": [
        {
          "internalType": "address",
          "name": "candidate",
          "type": "address"
        }
      ],
      "name": "startFor",
      "outputs": [
        {
          "internalType": "uint256",
          "name": "",
          "type": "uint256"
        }
      ],
      "payable": false,
      "stateMutability": "view",
      "type": "function"
    },
    {
      "constant": true,
      "inputs": [
        {
          "internalType": "address",
          "name": "account",
          "type": "address"
        }
      ],
      "name": "statusOf",
      "outputs": [
        {
          "internalType": "enum Account.Status",
          "name": "",
          "type": "uint8"
        }
      ],
      "payable": false,
      "stateMutability": "view",
      "type": "function"
    },
    {
      "constant": true,
      "inputs": [],
      "name": "symbol",
      "outputs": [
        {
          "internalType": "string",
          "name": "",
          "type": "string"
        }
      ],
      "payable": false,
      "stateMutability": "view",
      "type": "function"
    },
    {
      "constant": true,
      "inputs": [],
      "name": "totalBonded",
      "outputs": [
        {
          "internalType": "uint256",
          "name": "",
          "type": "uint256"
        }
      ],
      "payable": false,
      "stateMutability": "view",
      "type": "function"
    },
    {
      "constant": true,
      "inputs": [
        {
          "internalType": "uint256",
          "name": "epoch",
          "type": "uint256"
        }
      ],
      "name": "totalBondedAt",
      "outputs": [
        {
          "internalType": "uint256",
          "name": "",
          "type": "uint256"
        }
      ],
      "payable": false,
      "stateMutability": "view",
      "type": "function"
    },
    {
      "constant": true,
      "inputs": [],
      "name": "totalCoupons",
      "outputs": [
        {
          "internalType": "uint256",
          "name": "",
          "type": "uint256"
        }
      ],
      "payable": false,
      "stateMutability": "view",
      "type": "function"
    },
    {
      "constant": true,
      "inputs": [],
      "name": "totalDebt",
      "outputs": [
        {
          "internalType": "uint256",
          "name": "",
          "type": "uint256"
        }
      ],
      "payable": false,
      "stateMutability": "view",
      "type": "function"
    },
    {
      "constant": true,
      "inputs": [],
      "name": "totalNet",
      "outputs": [
        {
          "internalType": "uint256",
          "name": "",
          "type": "uint256"
        }
      ],
      "payable": false,
      "stateMutability": "view",
      "type": "function"
    },
    {
      "constant": true,
      "inputs": [],
      "name": "totalRedeemable",
      "outputs": [
        {
          "internalType": "uint256",
          "name": "",
          "type": "uint256"
        }
      ],
      "payable": false,
      "stateMutability": "view",
      "type": "function"
    },
    {
      "constant": true,
      "inputs": [],
      "name": "totalStaged",
      "outputs": [
        {
          "internalType": "uint256",
          "name": "",
          "type": "uint256"
        }
      ],
      "payable": false,
      "stateMutability": "view",
      "type": "function"
    },
    {
      "constant": true,
      "inputs": [],
      "name": "totalSupply",
      "outputs": [
        {
          "internalType": "uint256",
          "name": "",
          "type": "uint256"
        }
      ],
      "payable": false,
      "stateMutability": "view",
      "type": "function"
    },
    {
      "constant": false,
      "inputs": [
        {
          "internalType": "address",
          "name": "recipient",
          "type": "address"
        },
        {
          "internalType": "uint256",
          "name": "amount",
          "type": "uint256"
        }
      ],
      "name": "transfer",
      "outputs": [
        {
          "internalType": "bool",
          "name": "",
          "type": "bool"
        }
      ],
      "payable": false,
      "stateMutability": "nonpayable",
      "type": "function"
    },
    {
      "constant": false,
      "inputs": [
        {
          "internalType": "address",
          "name": "sender",
          "type": "address"
        },
        {
          "internalType": "address",
          "name": "recipient",
          "type": "address"
        },
        {
          "internalType": "uint256",
          "name": "amount",
          "type": "uint256"
        }
      ],
      "name": "transferFrom",
      "outputs": [
        {
          "internalType": "bool",
          "name": "",
          "type": "bool"
        }
      ],
      "payable": false,
      "stateMutability": "nonpayable",
      "type": "function"
    },
    {
      "constant": true,
      "inputs": [
        {
          "internalType": "address",
          "name": "candidate",
          "type": "address"
        }
      ],
      "name": "votesFor",
      "outputs": [
        {
          "internalType": "uint256",
          "name": "",
          "type": "uint256"
        }
      ],
      "payable": false,
      "stateMutability": "view",
      "type": "function"
    }
  ],
  "bytecode": "0x608060405234801561001057600080fd5b50610f87806100206000396000f3fe608060405234801561001057600080fd5b506004361061025e5760003560e01c806375d5024b11610146578063a50cd8e7116100c3578063cf02377911610087578063cf023779146104c6578063d60b347f146104ce578063dd62ed3e146104e1578063f1b7cf49146104ef578063fc7b9c1814610502578063ffbe3b731461050a5761025e565b8063a50cd8e714610485578063a6c409f114610498578063a9059cbb14610281578063bc7513e2146104a0578063c9aff70c146104b35761025e565b806395d89b411161010a57806395d89b411461043c57806397a5d5b5146104445780639a649edc146104575780639bc289f11461045f5780639f6e1b26146104725761025e565b806375d5024b146103f35780637dc0d1d014610406578063825ad6071461040e57806386cf9f1414610421578063900cf0cf146104345761025e565b80633a3e6c81116101df57806351adeb57116101a357806351adeb571461038a57806351bf21d81461039f5780635c60da1b146103b257806364668022146103ba5780636a39e328146103cd57806370a08231146103e05761025e565b80633a3e6c81146103345780633fbba9a61461034757806344d96e95146103675780634c7360991461036f5780635053e461146103825761025e565b806318160ddd1161022657806318160ddd146102e95780631edbcf6c146102f157806323b872dd146102f9578063313ce5671461030c578063353a420c146103215761025e565b806306fdde0314610263578063095ea7b31461028157806310e95b6c146102a157806315e14bf6146102c157806316f0115b146102d4575b600080fd5b61026b61051d565b6040516102789190610e41565b60405180910390f35b61029461028f366004610c8e565b61054c565b6040516102789190610e17565b6102b46102af366004610cbe565b610555565b6040516102789190610e72565b6102b46102cf366004610be1565b61056d565b6102dc61058b565b6040516102789190610e09565b6102b461059a565b6102b46105a0565b610294610307366004610c41565b6105a6565b6103146105af565b6040516102789190610e80565b6102b461032f366004610be1565b6105b4565b610294610342366004610be1565b6105d2565b61035a610355366004610c07565b6105ef565b6040516102789190610e33565b6102b4610622565b6102b461037d366004610cfa565b610628565b6102b4610658565b61039261067b565b6040516102789190610e25565b6102b46103ad366004610be1565b61068a565b6102dc6106a8565b6102b46103c8366004610be1565b6106cd565b6102b46103db366004610cbe565b6106eb565b6102b46103ee366004610be1565b610700565b610294610401366004610cbe565b61071e565b610392610731565b6102b461041c366004610be1565b610740565b6102b461042f366004610be1565b610793565b6102b46107ae565b61026b6107b4565b61035a610452366004610be1565b6107d2565b6102b4610837565b6102b461046d366004610be1565b61083d565b6102b4610480366004610c07565b61085b565b6102b4610493366004610be1565b61088a565b6102b46108ad565b6102b46104ae366004610c8e565b610943565b6102b46104c1366004610cbe565b610987565b6102b461099c565b6102946104dc366004610be1565b6109a2565b6102b461028f366004610c07565b6102b46104fd366004610be1565b6109c3565b6102b46109de565b6102b4610518366004610cbe565b6109e4565b604080518082019091526015815274467265712053657420446f6c6c6172205374616b6560581b602082015290565b60005b92915050565b6000818152600d60205260409020600201545b919050565b6001600160a01b03166000908152600e602052604090206001015490565b600b546001600160a01b031690565b60035490565b60065490565b60009392505050565b601290565b6001600160a01b03166000908152600e602052604090206003015490565b6001600160a01b03166000908152600e6020526040902054151590565b6001600160a01b038082166000908152600e60209081526040808320938616835260049093019052205460ff1692915050565b60045490565b6000828152600d6020526040812060030180548390811061064557fe5b9060005260206000200154905092915050565b6000610662610b9f565b61066a6109f6565b905061067581610a25565b91505090565b6009546001600160a01b031690565b6001600160a01b03166000908152600c602052604090206004015490565b7f360894a13ba1a3210667c828492db98dca3e2076cc3735a920a3ca505d382bbc5490565b6001600160a01b03166000908152600e602052604090206002015490565b6000908152600d602052604090206003015490565b6001600160a01b03166000908152600c602052604090206001015490565b6000610728610a47565b90911115919050565b600a546001600160a01b031690565b60008061074b61059a565b90508061075c576000915050610568565b61078c8161078061076c86610700565b610774610622565b9063ffffffff610a4c16565b9063ffffffff610a8f16565b9392505050565b6001600160a01b03166000908152600c602052604090205490565b60025490565b6040805180820190915260048152634653445360e01b602082015290565b60006107dc6107ae565b6001600160a01b0383166000908152600c6020526040902060050154111561080657506002610568565b6001600160a01b0382166000908152600c602052604090206004015461082a6107ae565b101561054c57600161054f565b60085490565b6001600160a01b03166000908152600c602052604090206005015490565b6001600160a01b039182166000908152600c602090815260408083209390941682526003909201909152205490565b600061054f610898836105b4565b6108a1846106cd565b9063ffffffff610ad116565b600061093e6108ba6109de565b6108c261067b565b6001600160a01b03166318160ddd6040518163ffffffff1660e01b815260040160206040518083038186803b1580156108fa57600080fd5b505afa15801561090e573d6000803e3d6000fd5b505050506040513d601f19601f820116820180604052506109329190810190610cdc565b9063ffffffff610af616565b905090565b600061094e82610987565b61095a5750600061054f565b506001600160a01b03919091166000908152600c6020908152604080832093835260029093019052205490565b6000908152600d602052604090206001015490565b60055490565b6001600160a01b03166000908152600e602052604090206005015460ff1690565b6001600160a01b03166000908152600e602052604090205490565b60075490565b6000908152600d602052604090205490565b6109fe610b9f565b604051806060016040528060008152602001635ff535c08152602001610e10815250905090565b600061054f82600001516108a184604001516107808660200151610932610b38565b60a890565b600082610a5b5750600061054f565b82820282848281610a6857fe5b041461078c5760405162461bcd60e51b8152600401610a8690610e62565b60405180910390fd5b600061078c83836040518060400160405280601a81526020017f536166654d6174683a206469766973696f6e206279207a65726f000000000000815250610b3c565b60008282018381101561078c5760405162461bcd60e51b8152600401610a8690610e52565b600061078c83836040518060400160405280601e81526020017f536166654d6174683a207375627472616374696f6e206f766572666c6f770000815250610b73565b4290565b60008183610b5d5760405162461bcd60e51b8152600401610a869190610e41565b506000838581610b6957fe5b0495945050505050565b60008184841115610b975760405162461bcd60e51b8152600401610a869190610e41565b505050900390565b60405180606001604052806000815260200160008152602001600081525090565b803561054f81610f27565b803561054f81610f3b565b805161054f81610f3b565b600060208284031215610bf357600080fd5b6000610bff8484610bc0565b949350505050565b60008060408385031215610c1a57600080fd5b6000610c268585610bc0565b9250506020610c3785828601610bc0565b9150509250929050565b600080600060608486031215610c5657600080fd5b6000610c628686610bc0565b9350506020610c7386828701610bc0565b9250506040610c8486828701610bcb565b9150509250925092565b60008060408385031215610ca157600080fd5b6000610cad8585610bc0565b9250506020610c3785828601610bcb565b600060208284031215610cd057600080fd5b6000610bff8484610bcb565b600060208284031215610cee57600080fd5b6000610bff8484610bd6565b60008060408385031215610d0d57600080fd5b6000610cad8585610bcb565b610d2281610e9b565b82525050565b610d2281610ea6565b610d2281610eca565b610d2281610ed5565b6000610d4e82610e8e565b610d588185610e92565b9350610d68818560208601610ee0565b610d7181610f10565b9093019392505050565b6000610d88601b83610e92565b7f536166654d6174683a206164646974696f6e206f766572666c6f770000000000815260200192915050565b6000610dc1602183610e92565b7f536166654d6174683a206d756c7469706c69636174696f6e206f766572666c6f8152607760f81b602082015260400192915050565b610d2281610ec1565b610d2281610ec4565b6020810161054f8284610d19565b6020810161054f8284610d28565b6020810161054f8284610d31565b6020810161054f8284610d3a565b6020808252810161078c8184610d43565b6020808252810161054f81610d7b565b6020808252810161054f81610db4565b6020810161054f8284610df7565b6020810161054f8284610e00565b5190565b90815260200190565b600061054f82610eb5565b151590565b8061056881610f1a565b6001600160a01b031690565b90565b60ff1690565b600061054f82610e9b565b600061054f82610eab565b60005b83811015610efb578181015183820152602001610ee3565b83811115610f0a576000848401525b50505050565b601f01601f191690565b60038110610f2457fe5b50565b610f3081610e9b565b8114610f2457600080fd5b610f3081610ec156fea365627a7a7231582016c93b54b7fb32f55450f77ba3e3d6472d1747ae2f525c6665ed97819a1ccfcf6c6578706572696d656e74616cf564736f6c63430005110040",
  "source": "/*\n    Copyright 2020 Freq Set Dollar <freqsetdollar@gmail.com>\n\n    Licensed under the Apache License, Version 2.0 (the \"License\");\n    you may not use this file except in compliance with the License.\n    You may obtain a copy of the License at\n\n    http://www.apache.org/licenses/LICENSE-2.0\n\n    Unless required by applicable law or agreed to in writing, software\n    distributed under the License is distributed on an \"AS IS\" BASIS,\n    WITHOUT WARRANTIES OR CONDITIONS OF ANY KIND, either express or implied.\n    See the License for the specific language governing permissions and\n    limitations under the License.\n*/\n\npragma solidity ^0.5.17;\npragma experimental ABIEncoderV2;\n\nimport \"@openzeppelin/contracts/math/SafeMath.sol\";\nimport \"./Comptroller.sol\";\nimport \"../external/Decimal.sol\";\nimport \"../Constants.sol\";\n\ncontract Regulator is Comptroller {\n    using SafeMath for uint256;\n    using Decimal for Decimal.D256;\n\n    event SupplyIncrease(uint256 indexed epoch, uint256 price, uint256 newRedeemable, uint256 lessDebt, uint256 newBonded);\n    event SupplyDecrease(uint256 indexed epoch, uint256 price, uint256 newDebt);\n    event SupplyNeutral(uint256 indexed epoch);\n\n    function step() internal {\n        Decimal.D256 memory price = oracleCapture();\n\n        if (price.greaterThan(Decimal.one())) {\n            setDebtToZero();\n            growSupply(price);\n            return;\n        }\n\n        if (price.lessThan(Decimal.one())) {\n            shrinkSupply(price);\n            return;\n        }\n\n        emit SupplyNeutral(epoch());\n    }\n\n    function shrinkSupply(Decimal.D256 memory price) private {\n        Decimal.D256 memory delta = limit(Decimal.one().sub(price));\n        uint256 newDebt = delta.mul(totalNet()).asUint256();\n        increaseDebt(newDebt);\n\n        emit SupplyDecrease(epoch(), price.value, newDebt);\n        return;\n    }\n\n    function growSupply(Decimal.D256 memory price) private {\n        Decimal.D256 memory delta = limit(price.sub(Decimal.one()).div(Constants.getSupplyChangeDivisor()));\n        uint256 newSupply = delta.mul(totalNet()).asUint256();\n        (uint256 newRedeemable, uint256 lessDebt, uint256 newBonded) = increaseSupply(newSupply);\n        emit SupplyIncrease(epoch(), price.value, newRedeemable, lessDebt, newBonded);\n    }\n\n\n    function limit(Decimal.D256 memory delta) private view returns (Decimal.D256 memory) {\n        Decimal.D256 memory supplyChangeLimit = Constants.getSupplyChangeLimit();\n\n        return delta.greaterThan(supplyChangeLimit) ? supplyChangeLimit : delta;\n\n    }\n\n    function oracleCapture() private returns (Decimal.D256 memory) {\n        (Decimal.D256 memory price, bool valid) = oracle().capture();\n\n        if (bootstrappingAt(epoch().sub(1))) {\n            return Constants.getBootstrappingPrice();\n        }\n        if (!valid) {\n            return Decimal.one();\n        }\n\n        return price;\n    }\n}\n",
  "sourcePath": "/Users/lileihuang/bytedance/fsd/protocol/contracts/dao/Regulator.sol",
  "compiler": {
    "name": "solc",
    "version": "0.5.17+commit.d19bba13.Emscripten.clang"
  },
  "schemaVersion": "3.3.1",
  "updatedAt": "2021-01-07T05:38:54.236Z",
  "devdoc": {
    "methods": {}
  },
  "userdoc": {
    "methods": {
      "balanceOfStaged(address)": {
        "notice": "Account"
      },
      "dollar()": {
        "notice": "Global"
      },
      "epoch()": {
        "notice": "Epoch"
      },
      "name()": {
        "notice": "ERC20 Interface"
      },
      "recordedVote(address,address)": {
        "notice": "Governance"
      },
      "transfer(address,uint256)": {
        "notice": "ERC20 Interface"
      }
    }
  }
}